03300000         2054375370001370033006500490028050300065 0000480000414 AUTO GERAL DE ITU LTDA        BANCO SANTANDER                         10611201211552900002306000000                                        G4016PF00528               G4
03300011C2031030 205437537000137003300650049002805030006550000480000414 AUTO GERAL DE ITU LTDA                                                AV DR OCTAVIANO PEREIRA MENDES01333               ITU                 13301000SP                  
0330001300001J00000196550900000292700441355412133440000206131POLI FILTRO IND E COMERCIO LTD0611201200000000002927000000000000000000000000000000006112012000000000029270000000000000000476                                     00                
0330001300002J00004191550900006696872118022997501000053904153MAZI AUTOMOTIVA LTDA          0611201200000000066968700000000000000000000000000000006112012000000000669687000000000000000477                                     00                
0330001300003J00035693550900000469330409503986730000000233130ITA PECAS PARA VEICULOS COM. E0611201200000000004693300000000000000000000000000000006112012000000000046933000000000000000478                                     00                
0330001300004J00023791550900000278100545090000028855900705060TONINI DISTRIBUIDORA LTDA     0611201200000000002781000000000000000000000000000000006112012000000000027810000000000000000479                                     00                
0330001300005J00039991550900000228002065409313001852365622001PORT ROYAL DISTR DE VEICULOS L0611201200000000002280000000000000000000000000000000006112012000000000022800000000000000000480                                     00                
0330001300006J00023792550900000269006652094665540434500001170SCANI BENZ PECAS DIESEL LTDA  0611201200000000002690000000000000000000000000000000006112012000000000026900000000000000000481                                     00                
0330001300007J00039991550900000296242053144746905313093513001RAL MOTO PECAS LTDA           0611201200000000002962400000000000000000000000000000006112012000000000029624000000000000000482                                     00                
0330001300008J00000196550900000851670000001011760000003712718COMPEL DISTR E COM DE AUTO PEC0611201200000000008516700000000000000000000000000000006112012000000000085167000000000000000483                                     00                
0330001300009J00035692550900000276740689070323400000004887884DISTRIBUIDORA AUTOMOTIVA LTDA 0611201200000000002767400000000000000000000000000000006112012000000000027674000000000000000484                                     00                
0330001300010J00039997550900000616708145172059704540096965001PELLEGRINO DISTR DE AUTO PECAS0611201200000000006167000000000000000000000000000000006112012000000000061670000000000000000485                                     00                
0330001300011J00000195550900001112170000001011760000003712818COMPEL DISTR E COM DE AUTO PEC0611201200000000011121700000000000000000000000000000006112012000000000111217000000000000000486                                     00                
0330001300012J00034191550900002445111090303952720109276204000GIRANDO COMERCIO DE PECAS LTDA0611201200000000024451100000000000000000000000000000006112012000000000244511000000000000000487                                     00                
0330001300013J00034198550900008579361124971665312938017569000FRAS LE S/A                   0611201200000000085793600000000000000000000000000000006112012000000000857936000000000000000488                                     00                
0330001300014J00034197550900008983331124971665232938017569000FRAS LE S/A                   0611201200000000089833300000000000000000000000000000006112012000000000898333000000000000000489                                     00                
0330001300015J00023791550900001465700151091322970004001251750PECA MAIS COMERCIO DE AUTO PEC0611201200000000014657000000000000000000000000000000006112012000000000146570000000000000000490                                     00                
0330001300016J00034191550900000194431090303954700109276204000GIRANDO COMERCIO DE PECAS LTDA0611201200000000001944300000000000000000000000000000006112012000000000019443000000000000000491                                     00                
0330001300017J00023794550900000253870138092276000003301453000OBB CONSULTORIA E PARTICIPACOE0611201200000000002538700000000000000000000000000000006112012000000000025387000000000000000492                                     00                
0330001300018J00000194550900000310000000002391652000003502917DIP DISTRIBUIDORA DE PECAS LTD0611201200000000003100000000000000000000000000000000006112012000000000031000000000000000000493                                     00                
0330001300019J00000193550900000615960000002226112440964650011POWER STOP INDUSTRIA E COMERCI0611201200000000006159600000000000000000000000000000006112012000000000061596000000000000000494                                     00                
0330001300020J00039991550900000857892053141970805313093513001REAL MOTO PECAS LTDA          0611201200000000008578900000000000000000000000000000006112012000000000085789000000000000000495                                     00                
0330001300021J00039998550900000712662053140481605313093513001REAL MOTO PECAS LTDA          0611201200000000007126600000000000000000000000000000006112012000000000071266000000000000000496                                     00                
0330001300022J00039997550900003417832053141290805313093513001REAL MOTO PECAS LTDA          0611201200000000034178300000000000000000000000000000006112012000000000341783000000000000000497                                     00                
0330001300023J00034197550900001280181124971665492938017569000FRAS LE S/A                   0611201200000000012801800000000000000000000000000000006112012000000000128018000000000000000498                                     00                
0330001300024J00034193550900000270771125116025860046365078000FELICIO VIGORITO FILHOS LTDA  0611201200000000002707700000000000000000000000000000006112012000000000027077000000000000000499                                     00                
0330001300025J00034191550900002226391125195708432938017569000FRAS LE S/A                   0611201200000000022263900000000000000000000000000000006112012000000000222639000000000000000500                                     00                
0330001300026J00023797550900000318072002061201366459100829680COMERCIAL AUTOMOTIVA LTDA     0611201200000000003180700000000000000000000000000000006112012000000000031807000000000000000501                                     00                
0330001300027J00039991550900000356611762788370604540575219001TRELLEBORG AUTOMOTIVE DO BRASI0611201200000000003566100000000000000000000000000000006112012000000000035661000000000000000502                                     00                
0330001300028J00039993550900000280271762788371404540575219001TRELLEBORG AUTOMOTIVE DO BRASI0611201200000000002802700000000000000000000000000000006112012000000000028027000000000000000503                                     00                
0330001300029J00039992550900000469501762788360904540575219001TRELLEBORG AUTOMOTIVE DO BRASI0611201200000000004695000000000000000000000000000000006112012000000000046950000000000000000504                                     00                
0330001300030J00000196550900000372050441770935733620000200231BAP AUTOMOTIVA LTDA           0611201200000000003720500000000000000000000000000000006112012000000000037205000000000000000505                                     00                
0330001300031J00000191550900000106660441798934326590000460931FREIOS CONTROIL LTDA          0611201200000000001066600000000000000000000000000000006112012000000000010666000000000000000506                                     00                
0330001300032J00000196550900017084960441798937226590000460931FREIOS CONTROIL LTDA          0611201200000000170849600000000000000000000000000000006112012000000001708496000000000000000507                                     00                
0330001300033J00000191550900001390001156990484403540001664117IND. GRAFICA FM LTDA ME       0611201200000000013900000000000000000000000000000000006112012000000000139000000000000000000508                                     00                
0330001300034J00000198550900000078000000001555704202000102517VIRTUAL EXPRESS TRANSPORTES E 0611201200000000000780000000000000000000000000000000006112012000000000007800000000000000000509                                     00                
03300015         000036000000000006345712000000000000000000                                                                                                                                                                                     
03399999         000001000038                                                                                                                                                                                                                   
