03300000         2054375370001370033006500490028050300065 0000480000414 AUTO GERAL DE ITU LTDA        SANTANDER                               20503201313230800025006000000                                                                     
03300011C2011030 2054375370001370033006500490028050300065 0000480000414 AUTO GERAL DE ITU LTDA                                                                              00000                                   00000000                    
0330001300001O00084650000028524900800011208554953502135130301VIVO-SP                       05032013050320130000000002852494561                900004845                                                                               00        
0330001300002Z70976E121E0A1F98E5F1FAC                                         PGTFORNB05032013900004845                                                                                                                               00        
0330001300003O00084650000002334110291127538347574002137130301TELEFONICA                    05032013050320130000000000233414562                900004846                                                                               00        
0330001300004Z70976E130D2AADCECB63495                                         PGTFORNB05032013900004846                                                                                                                               00        
0330001300005O00083650000002390101103003420351870210005915015CIA PIRATININGA DE FORCA E LUZ05032013050320130000000000239014563                900004847                                                                               00        
0330001300006Z70976E19497165E65DEFD54                                         PGTFORNB05032013900004847                                                                                                                               00        
03300015         000008000000000000332491000000000000000000110305                                                                                                                                                                               
03300021C2003031 2054375370001370033006500490028050300065 0000480000414 AUTO GERAL DE ITU LTDA                                                                              00000                                   00000000                    
0330002300001A0000183410077600000000859027 ADERALDO PAULO TULINO RODRIGUE4564                05032013BRL000000000000000000000001392280900004799           05032013000000001392280                                        05          000        
0330002300002B   212412056000132                              00000                                                  00000000  050320130000000013922800000000000000000000000000000000000000000000000000000000000000000                00        
0330002300003Z70976E151CE76E414878311                                         PGTFORNB05032013900004799                                                                                                                               00        
03300025         000005000000000001392280000000000000000000030305                                                                                                                                                                               
03399999         000002000015000000                                                                                                                                                                                                             
