03300000         2054375370001370033006500490028050300065 0000480000414 AUTO GERAL DE ITU LTDA        SANTANDER                               22112201202235400011906000000                                                                     
03300011C2030030 2054375370001370033006500490028050300065 0000480000414 AUTO GERAL DE ITU LTDA                                                                              00000                                   00000000                    
0330001300001J00003396555400002358869482966200000022426990104CAR CENTRAL DE AUTOPECAS E ROL21122012000000000235886000000000030000000000000000000211220120000000002058860000000000000002079                900002362           09      00        
0330001300002Z70976E1A02AA6BF0673FEDE                                         PGTFORNB21122012900002362                                                                                                                               00        
0330001300003J00003397555400000638439489019100000092118370104KSPG AUTOMOTIVE BRASIL LTDA   21122012000000000063843000000000000000000000000000000211220120000000000638430000000000000002111                900002367           09      00        
0330001300004Z70976E1573B29CB2A69C162                                         PGTFORNB21122012900002367                                                                                                                               00        
0330001300005J00003396555400006962329489019100000092118450104KSPG AUTOMOTIVE BRASIL LTDA   21122012000000000696232000000000000000000000000000000211220120000000006962320000000000000002112                900002368           09      00        
0330001300006Z70976E165D9592840C9722C                                         PGTFORNB21122012900002368                                                                                                                               00        
0330001300007J00003391555400002576909513931700000103576100101DISTRIBUIDORA AUTOMOTIVA S/A  21122012000000000257690000000000000000000000000000000211220120000000002576900000000000000002092                900002363           09      00        
0330001300008Z70976E1E97ECDD2745A3ADA                                         PGTFORNB21122012900002363                                                                                                                               00        
0330001300009J00003391555400001616119513931700000103574910101DISTRIBUIDORA AUTOMOTIVA S/A  21122012000000000161611000000000000000000000000000000211220120000000001616110000000000000002097                900002364           09      00        
0330001300010Z70976E1A548BA1F8A09B50D                                         PGTFORNB21122012900002364                                                                                                                               00        
0330001300011J00003391555400003232349499820000000000287110104KS PRODUTOS AUTOMOTIVOS LTDA  21122012000000000323234000000000000000000000000000000211220120000000003232340000000000000002109                900002365           09      00        
0330001300012Z70976E126FB0D3F06D379AB                                         PGTFORNB21122012900002365                                                                                                                               00        
0330001300013J00003396555400005011289499820000000000287200104KS PRODUTOS AUTOMOTIVOS LTDA  21122012000000000501128000000000000000000000000000000211220120000000005011280000000000000002110                900002366           09      00        
0330001300014Z70976E1843A1829BCB15CCD                                         PGTFORNB21122012900002366                                                                                                                               00        
0330001300015J00003391555400013293779489019100000092118530104KSPG AUTOMOTIVE BRASIL LTDA   21122012000000001329377000000000000000000000000000000211220120000000013293770000000000000002113                900002369           09      00        
0330001300016Z70976E1041F2FE4DF6D96D3                                         PGTFORNB21122012900002369                                                                                                                               00        
0330001300017J00003391555400000876979474127700000006981210203LUPORINI DISTR DE AUTOPECAS LT21122012000000000087697000000000000000000000000000000211220120000000000876970000000000000002115                900002370           09      00        
0330001300018Z70976E1BF3BBE7AF452FCB3                                         PGTFORNB21122012900002370                                                                                                                               00        
0330001300019J00003398555400001147229537802800000000006480203SPARX IND E COM DE PECAS AUTO 21122012000000000114722000000000000000000000000000000211220120000000001147220000000000000002116                900002371           09      00        
0330001300020Z70976E174E9FD74F56F0E56                                         PGTFORNB21122012900002371                                                                                                                               00        
0330001300021J00003392555400000945009133966400000000326460102LAMACE COM IMP EXP LTDA       21122012000000000094500000000000000000000000000000000211220120000000000945000000000000000002131                900002372           09      00        
0330001300022Z70976E1355A44BA5E38B747                                         PGTFORNB21122012900002372                                                                                                                               00        
0330001300023J00035698555400003196490689070323400000004894732DISTRIBUIDORA AUTOMOTIVA S/A  21122012000000000319649000000000000000000000000000000211220120000000003196490000000000000002093                900002389           09      00        
0330001300024Z70976E16E78B402C308E269                                         PGTFORNB21122012900002389                                                                                                                               00        
0330001300025J00035693555400001907220689070323490000005561992DISTRIBUIDORA AUTOMOTIVA S/A  21122012000000000190722000000000000000000000000000000211220120000000001907220000000000000002094                900002390           09      00        
0330001300026Z70976E10BEAFD8E133199A1                                         PGTFORNB21122012900002390                                                                                                                               00        
0330001300027J00035691555400000141820689070323400000004894765DISTRIBUIDORA AUTOMOTIVA S/A  21122012000000000014182000000000000000000000000000000211220120000000000141820000000000000002095                900002391           09      00        
0330001300028Z70976E140CA4716501B03D5                                         PGTFORNB21122012900002391                                                                                                                               00        
0330001300029J00035692555400000197710689070323410000004894574DISTRIBUIDORA AUTOMOTIVA S/A  21122012000000000019771000000000000000000000000000000211220120000000000197710000000000000002096                900002392           09      00        
0330001300030Z70976E1E4CC99CE8905524B                                         PGTFORNB21122012900002392                                                                                                                               00        
0330001300031J00035691555400000761290689070323430000004894770DISTRIBUIDORA AUTOMOTIVA S/A  21122012000000000076129000000000000000000000000000000211220120000000000761290000000000000002098                900002393           09      00        
0330001300032Z70976E179D1D76BA4C81FAF                                         PGTFORNB21122012900002393                                                                                                                               00        
0330001300033J00035694555400000291550689070323490000004894683DISTRIBUIDORA AUTOMOTIVA S/A  21122012000000000029155000000000000000000000000000000211220120000000000291550000000000000002099                900002394           09      00        
0330001300034Z70976E1E2E7C40A6AA8A91D                                         PGTFORNB21122012900002394                                                                                                                               00        
03300015         000036000000000004485528000000000000000000301221                                                                                                                                                                               
03300021C2031030 2054375370001370033006500490028050300065 0000480000414 AUTO GERAL DE ITU LTDA                                                                              00000                                   00000000                    
0330002300001J00023799555400000261870138092328000003001453000OBB CONSULTORIA E PARTICIPACOE21122012000000000026187000000000000000000000000000000211220120000000000261870000000000000002100                900002395           09      00        
0330002300002Z70976E122B016FB7460398C                                         PGTFORNB21122012900002395                                                                                                                               00        
0330002300003J00039999555400000789688145175035604540096965001PELLEGRINO DISTRIBUIDORA DE AU21122012000000000078968000000000000000000000000000000211220120000000000789680000000000000002121                900002409           09      00        
0330002300004Z70976E1DF46520F6075A073                                         PGTFORNB21122012900002409                                                                                                                               00        
0330002300005J00034192555400005100501126948369850191074004000POLIPECAS COMERCIAL E IMPORTAD21122012000000000510050000000000035704000000000000000211220120000000004743460000000000000002122                900002410           09      00        
0330002300006Z70976E1B90751F6AFA7A033                                         PGTFORNB21122012900002410                                                                                                                               00        
0330002300007J00000196555400003164260443034998207180000403211RADIEX QUIMICA LTDA           21122012000000000316426000000000000000000000000000000211220120000000003164260000000000000002123                900002411           09      00        
0330002300008Z70976E14781CB1751DE439D                                         PGTFORNB21122012900002411                                                                                                                               00        
0330002300009J00039993555400005599692315314971205313093513001REAL MOTO PECAS LTDA          21122012000000000559969000000000000000000000000000000211220120000000005599690000000000000002124                900002412           09      00        
0330002300010Z70976E16B478CCFD3D491B3                                         PGTFORNB21122012900002412                                                                                                                               00        
0330002300011J00039998555400000466462315313885005313093513001REAL MOTO PECAS LTDA          21122012000000000046646000000000000000000000000000000211220120000000000466460000000000000002125                900002413           09      00        
0330002300012Z70976E15484274B99E8DAE7                                         PGTFORNB21122012900002413                                                                                                                               00        
0330002300013J00039991555400002295612315315686705313093513001REAL MOTO PECAS LTDA          21122012000000000229561000000000000000000000000000000211220120000000002295610000000000000002126                900002414           09      00        
0330002300014Z70976E13781DCE4C0E36CC2                                         PGTFORNB21122012900002414                                                                                                                               00        
0330002300015J00000193555400000081270442864677219140000644711SHARK TRATORES E PECAS LTDA   21122012000000000008127000000000000000000000000000000211220120000000000081270000000000000002127                900002415           09      00        
0330002300016Z70976E150F2946BF59F6B79                                         PGTFORNB21122012900002415                                                                                                                               00        
0330002300017J00039994555400000190031764724274004540079149001BANCO SOFISA SA               21122012000000000019003000000000000000000000000000000211220120000000000190030000000000000002128                900002416           09      00        
0330002300018Z70976E18BAC8CAC582396B2                                         PGTFORNB21122012900002416                                                                                                                               00        
0330002300019J00039997555400000418411764724275804540079149001BANCO SOFISA SA               21122012000000000041841000000000000000000000000000000211220120000000000418410000000000000002129                900002417           09      00        
0330002300020Z70976E15850EC3FFAB74ACB                                         PGTFORNB21122012900002417                                                                                                                               00        
0330002300021J00034191558300014654001092204783132938014558000SODEXO PASS DO BRASIL SERV. CO19012013000000001465400000000000000000000000000000000211220120000000014654000000000000000002130                900002418           09      00        
0330002300022Z70976E1F3762B22E5CEA65E                                         PGTFORNB21122012900002418                                                                                                                               00        
0330002300023J00023791555400005563600448051009080302501533990BRADESCO SAUDE S/A            21122012000000000556360000000000000000000000000000000211220120000000005563600000000000000002132                900002419           09      00        
0330002300024Z70976E1E52EDC08D433C026                                         PGTFORNB21122012900002419                                                                                                                               00        
0330002300025J00023791555400002058282372196600097946600360080TELEFONICA BRASIL S/A         21122012000000000205828000000000000000000000000000000211220120000000002058280000000000000002133                900002420           09      00        
0330002300026Z70976E1D4BF1C37761EAFE9                                         PGTFORNB21122012900002420                                                                                                                               00        
0330002300027J00034198555400000357621098887875570046365078000FELICIO VIGORITO FILHOS LTDA  21122012000000000035762000000000000000000000000000000211220120000000000357620000000000000002104                900002399           09      00        
0330002300028Z70976E17AE8245F6319EB9C                                         PGTFORNB21122012900002399                                                                                                                               00        
0330002300029J00034194555400000200591125779425202938000052000EATON LTDA                    21122012000000000020059000000000000000000000000000000211220120000000000200590000000000000002101                900002396           09      00        
0330002300030Z70976E172EEA9C8672CCEAA                                         PGTFORNB21122012900002396                                                                                                                               00        
0330002300031J00034192555400000408401126196922400046365078000FELICIO VIGORITO FILHOS LTDA  21122012000000000040840000000000000000000000000000000211220120000000000408400000000000000002105                900002400           09      00        
0330002300032Z70976E1D6C123690EE476D7                                         PGTFORNB21122012900002400                                                                                                                               00        
0330002300033J00034192555400000586661125884107800765234976000GIANCAR DISTR AUTO PECAS LTDA 21122012000000000058666000000000000000000000000000000211220120000000000586660000000000000002106                900002401           09      00        
0330002300034Z70976E10FB3E2B1AB066F15                                         PGTFORNB21122012900002401                                                                                                                               00        
0330002300035J00034194555400000327571125779424392938000052000EATON LTDA                    21122012000000000032757000000000000000000000000000000211220120000000000327570000000000000002102                900002397           09      00        
0330002300036Z70976E1974F9E451734F480                                         PGTFORNB21122012900002397                                                                                                                               00        
0330002300037J00039991555400000671601764692767604570524809001F CONFUORTO IND COM PCS LTDA  21122012000000000067160000000000000000000000000000000211220120000000000671600000000000000002103                900002398           09      00        
0330002300038Z70976E18F6ED3F0A5CFE2BC                                         PGTFORNB21122012900002398                                                                                                                               00        
0330002300039J00023798555400002215001316090000009435900009000APS DISTRIBUIDORA DE AUTOPECAS21122012000000000221500000000000000000000000000000000211220120000000002215000000000000000002075                900002373           09      00        
0330002300040Z70976E1A9F666486B28C8AC                                         PGTFORNB21122012900002373                                                                                                                               00        
0330002300041J00023794555400000233343371090000833802200719500AVEBRAZ COMERCIO DE VEICULOS E21122012000000000023334000000000000000000000000000000211220120000000000233340000000000000002076                900002374           09      00        
0330002300042Z70976E1788DF1C132EA3BB8                                         PGTFORNB21122012900002374                                                                                                                               00        
0330002300043J00039994555400000821021765467598811960078237001BAP AUTOMOTIVA LTDA           21122012000000000082102000000000000000000000000000000211220120000000000821020000000000000002077                900002375           09      00        
0330002300044Z70976E1F929F5B0CA706013                                         PGTFORNB21122012900002375                                                                                                                               00        
0330002300045J00034191555400000480001126129016631248021303000BANCO FIBRA SA                21122012000000000048000000000000000000000000000000000211220120000000000480000000000000000002078                900002376           09      00        
0330002300046Z70976E19BFFD4B8DF0D1BC2                                         PGTFORNB21122012900002376                                                                                                                               00        
0330002300047J00034197555400000110501126305763560076000777000CENTER PECAS FABBRI LTDA      21122012000000000011050000000000000000000000000000000211220120000000000110500000000000000002080                900002377           09      00        
0330002300048Z70976E11916B4CB4C90D861                                         PGTFORNB21122012900002377                                                                                                                               00        
0330002300049J00034192555400000199501126124247320076000777000CENTER PECAS FABBRI LTDA      21122012000000000019950000000000000000000000000000000211220120000000000199500000000000000002081                900002378           09      00        
0330002300050Z70976E1E17D6C480DCDEBEC                                         PGTFORNB21122012900002378                                                                                                                               00        
0330002300051J00034191555400000713741090304200050109276204000GIRANDO COMERCIO DE PECAS LTDA21122012000000000071374000000000000000000000000000000211220120000000000713740000000000000002107                900002402           09      00        
0330002300052Z70976E11BE93EC22C572498                                         PGTFORNB21122012900002402                                                                                                                               00        
0330002300053J00034193555400000021001126124246820076000777000CENTER PECAS FABBRI LTDA      21122012000000000002100000000000000000000000000000000211220120000000000021000000000000000002082                900002379           09      00        
0330002300054Z70976E128A0EE3DFF6FD988                                         PGTFORNB21122012900002379                                                                                                                               00        
0330002300055J00034197555400000063001126124246740076000777000CENTER PECAS FABBRI LTDA      21122012000000000006300000000000000000000000000000000211220120000000000063000000000000000002083                900002380           09      00        
0330002300056Z70976E19C6BCB99AF36B366                                         PGTFORNB21122012900002380                                                                                                                               00        
0330002300057J00034198555400000469101126452257590360545834000COBRA ROLAMENTOS E AUTO PECAS 21122012000000000046910000000000000000000000000000000211220120000000000469100000000000000002084                900002381           09      00        
0330002300058Z70976E1E425A9D15288C93B                                         PGTFORNB21122012900002381                                                                                                                               00        
0330002300059J00023795555400000230823262090000030444800935470COMDIP COMERCIAL DISTR DE PECA21122012000000000023082000000000000000000000000000000211220120000000000230820000000000000002085                900002382           09      00        
0330002300060Z70976E183FCFAF4E8A849FA                                         PGTFORNB21122012900002382                                                                                                                               00        
0330002300061J00023798555400000353662002061201380326100829680COMERCIAL AUTOMOTIVA S.A.     21122012000000000035366000000000000000000000000000000211220120000000000353660000000000000002086                900002383           09      00        
0330002300062Z70976E1111B6B781DBF2888                                         PGTFORNB21122012900002383                                                                                                                               00        
0330002300063J00023796555400000207642002061201380327100829680COMERCIAL AUTOMOTIVA S.A.     21122012000000000020764000000000000000000000000000000211220120000000000207640000000000000002087                900002384           09      00        
0330002300064Z70976E164D2B82ADC751332                                         PGTFORNB21122012900002384                                                                                                                               00        
0330002300065J00000191555400002028000000001533842442545617311COML FIX IMPL RODOVIARIOS LTDA21122012000000000202800000000000000000000000000000000211220120000000002028000000000000000002088                900002385           09      00        
0330002300066Z70976E162175CF8903A7D7B                                         PGTFORNB21122012900002385                                                                                                                               00        
0330002300067J00034191555400000482521570827405364522114471000COML NV MILLENNIUN A P LTDA EP21122012000000000048252000000000002412000000000000000211220120000000000458400000000000000002089                900002386           09      00        
0330002300068Z70976E1E80C8C40CDA6CDC5                                         PGTFORNB21122012900002386                                                                                                                               00        
0330002300069J00000197555400000173210000001011760000003838318COMPEL DISTR E COM DE AUTO PEC21122012000000000017321000000000000000000000000000000211220120000000000173210000000000000002090                900002387           09      00        
0330002300070Z70976E13AA8408854BC2B2C                                         PGTFORNB21122012900002387                                                                                                                               00        
0330002300071J00023791555400000446150501092342000001000468660DIP DISTRIBUIDORA DE PECAS LTD21122012000000000044615000000000000000000000000000000211220120000000000446150000000000000002091                900002388           09      00        
0330002300072Z70976E14AA99BB06D6CFA5D                                         PGTFORNB21122012900002388                                                                                                                               00        
0330002300073J00034196555400000344761090008546192938050420000ITA PECAS PARA VEIC COM E SERV21122012000000000034476000000000000000000000000000000211220120000000000344760000000000000002108                900002403           09      00        
0330002300074Z70976E131E8EEB20EE09272                                         PGTFORNB21122012900002403                                                                                                                               00        
0330002300075J00000196555400000640790441975780333200001050131LUPORINI DISTR DE AUTOPECAS LT21122012000000000064079000000000000000000000000000000211220120000000000640790000000000000002114                900002404           09      00        
0330002300076Z70976E18CAD979976D89BAD                                         PGTFORNB21122012900002404                                                                                                                               00        
0330002300077J00023793555400000127402500090256568623900000340ODAPEL DISTRIBUIDORA DE AUTO P21122012000000000012740000000000000000000000000000000211220120000000000127400000000000000002117                900002405           09      00        
0330002300078Z70976E13697E62B72EE05C6                                         PGTFORNB21122012900002405                                                                                                                               00        
0330002300079J00023792555400000903922500090256568668200000340ODAPEL DISTRIBUIDORA DE AUTO P21122012000000000090392000000000000000000000000000000211220120000000000903920000000000000002118                900002406           09      00        
0330002300080Z70976E1562C36C4C9C3E602                                         PGTFORNB21122012900002406                                                                                                                               00        
0330002300081J00039994555400000720428144666801304540096965001PELLEGRINO DISTRIBUIDORA DE AU21122012000000000072042000000000000000000000000000000211220120000000000720420000000000000002119                900002407           09      00        
0330002300082Z70976E190514D2E98CF3B21                                         PGTFORNB21122012900002407                                                                                                                               00        
0330002300083J00039991555400000600466696534216904540096965001PELLEGRINO DISTRIBUIDORA DE AU21122012000000000060046000000000000000000000000000000211220120000000000600460000000000000002120                900002408           09      00        
0330002300084Z70976E1A08BF00F1D85EFF5                                         PGTFORNB21122012900002408                                                                                                                               00        
03300025         000086000000000005540089000000000000000000311221                                                                                                                                                                               
03399999         000002000124000000                                                                                                                                                                                                             
