03300000         2054375370001370033006500490028050300065 0000480000414 AUTO GERAL DE ITU LTDA        SANTANDER                               22503201302584600029106000000                                                                     
03300011C2030030 2054375370001370033006500490028050300065 0000480000414 AUTO GERAL DE ITU LTDA                                                                              00000                                   00000000                    
0330001300001J00003391564700001082839421259200000000475890101GUMP MOTORS COMPONENTES AUTOMO24032013000000000108283000000000000000000000000000000250320130000000001082830000000000000005214                900005478           09      00        
0330001300002Z70976E1F69A988919877FEE                                         PGTFORNB25032013900005478                                                                                                                               00        
0330001300003J00035698564800000426550689070323410000003267335DISTRIBUIDORA AUTOMOTIVA S.A. 25032013000000000042655000000000000000000000000000000250320130000000000426550000000000000005233                900005518           09      00        
0330001300004Z70976E128D09F77365A0ED5                                         PGTFORNB25032013900005518                                                                                                                               00        
0330001300005J00003392564800000576729474127700000007461000203LUPORINI DISTR DE AUTOPECAS LT25032013000000000057672000000000000000000000000000000250320130000000000576720000000000000005242                900005479           09      00        
0330001300006Z70976E15E9CF163DFCF86AA                                         PGTFORNB25032013900005479                                                                                                                               00        
03300015         000008000000000000208610000000000000000000300325                                                                                                                                                                               
03300021C2031030 2054375370001370033006500490028050300065 0000480000414 AUTO GERAL DE ITU LTDA                                                                              00000                                   00000000                    
0330002300001J00034196564600000292711127815443858514325201000BODIPASA BOMBAS DIESEL PAULIST23032013000000000029271000000000000000000000000000000250320130000000000292710000000000000005194                900005480           09      00        
0330002300002Z70976E1C7F44F0CA4A379D8                                         PGTFORNB25032013900005480                                                                                                                               00        
0330002300003J00023799564600000778330119060000001043500682000CORCERAMA COM DE AUTOPECAS LTD23032013000000000077833000000000000000000000000000000250320130000000000778330000000000000005198                900005484           09      00        
0330002300004Z70976E15580AAF99841678C                                         PGTFORNB25032013900005484                                                                                                                               00        
0330002300005J00034191564600000040261127979518552938000052000EATON LTDA                    23032013000000000004026000000000000000000000000000000250320130000000000040260000000000000005199                900005485           09      00        
0330002300006Z70976E1140B8A1762A2B2F2                                         PGTFORNB25032013900005485                                                                                                                               00        
0330002300007J00023791564600000736163180091330521551500158190GUPE DISTR DE AUTOPECAS LTDA  23032013000000000073616000000000000000000000000000000250320130000000000736160000000000000005200                900005486           09      00        
0330002300008Z70976E140472D62F70939F5                                         PGTFORNB25032013900005486                                                                                                                               00        
0330002300009J00034197564600000524001128649016680384625000000PECAS AUTOMOTIVAS ZEENE LTDA  23032013000000000052400000000000000000000000000000000250320130000000000524000000000000000005201                900005487           09      00        
0330002300010Z70976E13D5D4751A1B65489                                         PGTFORNB25032013900005487                                                                                                                               00        
0330002300011J00023792564600000738633395061180232936300028140ROCHESTER DISTRIBUIDORA DE AUT23032013000000000073863000000000000000000000000000000250320130000000000738630000000000000005202                900005488           09      00        
0330002300012Z70976E118B372CD668C6A0E                                         PGTFORNB25032013900005488                                                                                                                               00        
0330002300013J00023791564600002517002298091330670880300174310SLION IMP EXP COM PROD AUT LTD23032013000000000251700000000000000000000000000000000250320130000000002517000000000000000005203                900005489           09      00        
0330002300014Z70976E1CAE4422F1711836F                                         PGTFORNB25032013900005489                                                                                                                               00        
0330002300015J00034191564700000601871128018568840237417159000ACCIOLY SA IMP E COM          24032013000000000060187000000000000000000000000000000250320130000000000601870000000000000005204                900005490           09      00        
0330002300016Z70976E1C8D26A0FA7C60B63                                         PGTFORNB25032013900005490                                                                                                                               00        
0330002300017J00034194564700000623901128772145050237417159000ACCIOLY SA IMP E COM          24032013000000000062390000000000000000000000000000000250320130000000000623900000000000000005205                900005491           09      00        
0330002300018Z70976E113E68ED53FAB6EEA                                         PGTFORNB25032013900005491                                                                                                                               00        
0330002300019J00034195564700000042001128732579790076000777000CENTER PECAS FABBRI LTDA      24032013000000000004200000000000000000000000000000000250320130000000000042000000000000000005206                900005492           09      00        
0330002300020Z70976E1C1C25055F891F1C8                                         PGTFORNB25032013900005492                                                                                                                               00        
0330002300021J00023791564800000285470138093057000002201370000BBL SISTEMAS OPERACIONAIS LTDA25032013000000000028547000000000000000000000000000000250320130000000000285470000000000000005235                900005520           09      00        
0330002300022Z70976E1300F2472335987E5                                         PGTFORNB25032013900005520                                                                                                                               00        
0330002300023J00039997564800002617772995107001505313093513001REAL MOTO PECAS LTDA          25032013000000000261777000000000000000000000000000000250320130000000002617770000000000000005251                900005535           09      00        
0330002300024Z70976E14319229CC68ECF55                                         PGTFORNB25032013900005535                                                                                                                               00        
0330002300025J00023799564800002970503395061180232940100028140ROCHESTER DISTRIBUIDORA DE AUT25032013000000000297050000000000000000000000000000000250320130000000002970500000000000000005252                900005536           09      00        
0330002300026Z70976E1E76E930F6C6CB7D9                                         PGTFORNB25032013900005536                                                                                                                               00        
0330002300027J00000192564800001880300000001451450000037970517SK AUTOMOTIVE S/A DISTR AUTOPE25032013000000000188030000000000000000000000000000000250320130000000001880300000000000000005253                900005537           09      00        
0330002300028Z70976E130BC3F1965441779                                         PGTFORNB25032013900005537                                                                                                                               00        
0330002300029J00000197564800000638120000001451450000037963517SK AUTOMOTIVE S/A DISTR AUTOPE25032013000000000063812000000000000000000000000000000250320130000000000638120000000000000005254                900005538           09      00        
0330002300030Z70976E1BFF9BF7E9E9F10EE                                         PGTFORNB25032013900005538                                                                                                                               00        
0330002300031J00023792564800000400663178300000006867600421060TUPER DISTRIB. PROD. METALURGI25032013000000000040066000000000000000000000000000000250320130000000000400660000000000000005255                900005539           09      00        
0330002300032Z70976E124D9E767F1F3EE0E                                         PGTFORNB25032013900005539                                                                                                                               00        
0330002300033J00039996564800000110821770505281604540079149001BANCO SOFISA SA               25032013000000000011082000000000000000000000000000000250320130000000000110820000000000000005256                900005540           09      00        
0330002300034Z70976E1DB018064124BB5A8                                         PGTFORNB25032013900005540                                                                                                                               00        
0330002300035J00039994564800000384721770505280804540079149001BANCO SOFISA SA               25032013000000000038472000000000000000000000000000000250320130000000000384720000000000000005257                900005541           09      00        
0330002300036Z70976E1A3309A654440E90B                                         PGTFORNB25032013900005541                                                                                                                               00        
0330002300037J00010491564700001316383602168000200040210928572PREFEITURA MUNICIPAL DE INDAIA24032013000000000131638000000000003949000000000000000250320130000000001276890000000000000005258                900005542           09      00        
0330002300038Z70976E16C3293E1951D1E3D                                         PGTFORNB25032013900005542                                                                                                                               00        
0330002300039J00023796564700000527912372196600107834600360080TELEFONICA BRASIL S/A         24032013000000000052791000000000000000000000000000000250320130000000000527910000000000000005259                900005543           09      00        
0330002300040Z70976E152460448F4F694E7                                         PGTFORNB25032013900005543                                                                                                                               00        
0330002300041J00009091564700001105203801000010023413000200559UNIMED SALTO/ITU COOP TRAB MED24032013000000000110520000000000000000000000000000000250320130000000001105200000000000000005260                900005544           09      00        
0330002300042Z70976E1DB911E916853445D                                         PGTFORNB25032013900005544                                                                                                                               00        
0330002300043J00023796564800000003790364060000212354100001400PREFEITURA MUNICIPAL DE PORTO 25032013000000000000379000000000000000000000000000000250320130000000000003790000000000000005261                900005545           09      00        
0330002300044Z70976E16CA9B36489B3FE15                                         PGTFORNB25032013900005545                                                                                                                               00        
0330002300045J00034191564800003828771129319011960249809195000DRIVEWAY INDUSTRIA BRASILEIRA 25032013000000000382877000000000000000000000000000000250320130000000003828770000000000000005236                900005521           09      00        
0330002300046Z70976E18DA1F753E8C9AD3E                                         PGTFORNB25032013900005521                                                                                                                               00        
0330002300047J00034194564800004592281129319011620249809195000DRIVEWAY INDUSTRIA BRASILEIRA 25032013000000000459228000000000000000000000000000000250320130000000004592280000000000000005237                900005522           09      00        
0330002300048Z70976E1926955D4AE318B57                                         PGTFORNB25032013900005522                                                                                                                               00        
0330002300049J00034191564800000338541128081975892938000052000EATON LTDA                    25032013000000000033854000000000000000000000000000000250320130000000000338540000000000000005238                900005523           09      00        
0330002300050Z70976E174BF08A8DF5038A3                                         PGTFORNB25032013900005523                                                                                                                               00        
0330002300051J00034199564800000151961090304674360109276204000GIRANDO COMERCIO DE PECAS LTDA25032013000000000015196000000000000000000000000000000250320130000000000151960000000000000005239                900005524           09      00        
0330002300052Z70976E148D6E3458EBACC9E                                         PGTFORNB25032013900005524                                                                                                                               00        
0330002300053J00034194564800000196451090304669660109276204000GIRANDO COMERCIO DE PECAS LTDA25032013000000000019645000000000000000000000000000000250320130000000000196450000000000000005240                900005525           09      00        
0330002300054Z70976E1CF96CB8783A5D665                                         PGTFORNB25032013900005525                                                                                                                               00        
0330002300055J00034199564800001047221129143679100054841622000NEW TRADE FOM MERCANTIL LTDA  25032013000000000104722000000000000000000000000000000250320130000000001047220000000000000005241                900005526           09      00        
0330002300056Z70976E1CCC5065E30B0824A                                         PGTFORNB25032013900005526                                                                                                                               00        
0330002300057J00023792564800000054003372090000006006700584500MAGGI CAMINHOES LTDA          25032013000000000005400000000000000000000000000000000250320130000000000054000000000000000005243                900005527           09      00        
0330002300058Z70976E19411AA3A05B26499                                         PGTFORNB25032013900005527                                                                                                                               00        
0330002300059J00023791564800000198323372097672307876800536350MAGGI MOTOS LTDA              25032013000000000019832000000000000000000000000000000250320130000000000198320000000000000005244                900005528           09      00        
0330002300060Z70976E127CD8ED1B6AAD211                                         PGTFORNB25032013900005528                                                                                                                               00        
0330002300061J00023794564800000477153394090000016113100324600MORELATE DISTRIBUIDORA DE AUTO25032013000000000047715000000000000000000000000000000250320130000000000477150000000000000005245                900005529           09      00        
0330002300062Z70976E14DDD7F0FF4AB0D15                                         PGTFORNB25032013900005529                                                                                                                               00        
0330002300063J00023791564800000297892500090256574220400000340ODAPEL DISTRIBUIDORA DE AUTO P25032013000000000029789000000000000000000000000000000250320130000000000297890000000000000005246                900005530           09      00        
0330002300064Z70976E1E974F4892DA63B89                                         PGTFORNB25032013900005530                                                                                                                               00        
0330002300065J00023794564800002902352500090256574190300000340ODAPEL DISTRIBUIDORA DE AUTO P25032013000000000290235000000000000000000000000000000250320130000000002902350000000000000005247                900005531           09      00        
0330002300066Z70976E1B5C4F2A840444820                                         PGTFORNB25032013900005531                                                                                                                               00        
0330002300067J00034191000000000000001219822384471012365225000PACAEMBU AUTO PECAS LTDA      25032013000000000024982000000000000000000000000000000250320130000000000249820000000000000005248                900005532           09      00        
0330002300068Z70976E1B05AEA88B472DD12                                         PGTFORNB25032013900005532                                                                                                                               00        
0330002300069J00023791564800000375903484093052000154801129000PETRONAS LUBRIFICANTES BRASIL 25032013000000000037590000000000000000000000000000000250320130000000000375900000000000000005249                900005533           09      00        
0330002300070Z70976E12B63BFE316D82F0E                                         PGTFORNB25032013900005533                                                                                                                               00        
0330002300071J00034197564800003673051129420157540191074004000POLIPECAS COMERCIAL E IMPORTAD25032013000000000367305000000000025711000000000000000250320130000000003415940000000000000005250                900005534           09      00        
0330002300072Z70976E1836C83B8529231A2                                         PGTFORNB25032013900005534                                                                                                                               00        
0330002300073J00034194564700000068501128732579870076000777000CENTER PECAS FABBRI LTDA      24032013000000000006850000000000000000000000000000000250320130000000000068500000000000000005207                900005493           09      00        
0330002300074Z70976E153E2D3A13F3A8F3A                                         PGTFORNB25032013900005493                                                                                                                               00        
0330002300075J00023791564800000407760138093049000007001370000BBL SISTEMAS OPERACIONAIS LTDA25032013000000000040776000000000000000000000000000000250320130000000000407760000000000000005234                900005519           09      00        
0330002300076Z70976E113CFEF1351A39E5E                                         PGTFORNB25032013900005519                                                                                                                               00        
0330002300077J00034191564600000115501128732615340076000777000CENTER PECAS FABBRI LTDA      23032013000000000011550000000000000000000000000000000250320130000000000115500000000000000005195                900005481           09      00        
0330002300078Z70976E1E0DA83399AFA9AD1                                         PGTFORNB25032013900005481                                                                                                                               00        
0330002300079J00034198564600000029501128732615910076000777000CENTER PECAS FABBRI LTDA      23032013000000000002950000000000000000000000000000000250320130000000000029500000000000000005196                900005482           09      00        
0330002300080Z70976E1B05B993F20F36CA7                                         PGTFORNB25032013900005482                                                                                                                               00        
0330002300081J00034192564600000150001128732615590076000777000CENTER PECAS FABBRI LTDA      23032013000000000015000000000000000000000000000000000250320130000000000150000000000000000005197                900005483           09      00        
0330002300082Z70976E10D60EA8EB650AF9D                                         PGTFORNB25032013900005483                                                                                                                               00        
0330002300083J00034199564700001343711128835330212938000052000EATON LTDA                    24032013000000000134371000000000000000000000000000000250320130000000001343710000000000000005208                900005494           09      00        
0330002300084Z70976E195DAB4780E7CC3C8                                         PGTFORNB25032013900005494                                                                                                                               00        
0330002300085J00023798564700000773403180091330531556300158190GUPE DISTR DE AUTOPECAS LTDA  24032013000000000077340000000000000000000000000000000250320130000000000773400000000000000005215                900005500           09      00        
0330002300086Z70976E11530112FDEEE0ECF                                         PGTFORNB25032013900005500                                                                                                                               00        
0330002300087J00023793564700000700763394090000017676300324600MORELATE DISTRIBUIDORA DE AUTO24032013000000000070076000000000000000000000000000000250320130000000000700760000000000000005216                900005501           09      00        
0330002300088Z70976E1D310F7285B49D2C9                                         PGTFORNB25032013900005501                                                                                                                               00        
0330002300089J00023799564700000280003395090000005282600650000SORANA SUL                    24032013000000000028000000000000000000000000000000000250320130000000000280000000000000000005217                900005502           09      00        
0330002300090Z70976E16785D34B70F4944A                                         PGTFORNB25032013900005502                                                                                                                               00        
0330002300091J00000196564700003120192912270000000000000120821SOUTEX CONFECCOES LTDA        24032013000000000312019000000000000000000000000000000250320130000000003120190000000000000005218                900005503           09      00        
0330002300092Z70976E1425CEDD1EE01BD6D                                         PGTFORNB25032013900005503                                                                                                                               00        
0330002300093J00000192564700000708040000001291892000004774217VESPOR AUTOMOTIVE DIST DE AUTO24032013000000000070804000000000000000000000000000000250320130000000000708040000000000000005219                900005504           09      00        
0330002300094Z70976E16C071D41A908E38C                                         PGTFORNB25032013900005504                                                                                                                               00        
0330002300095J00000193564700000732200000001291892000004774317VESPOR AUTOMOTIVE DIST DE AUTO24032013000000000073220000000000000000000000000000000250320130000000000732200000000000000005220                900005505           09      00        
0330002300096Z70976E184AEEC62DE2DABE4                                         PGTFORNB25032013900005505                                                                                                                               00        
0330002300097J00023798564700000807113381093073000059700030500CREDIT BRASIL FUNDO DE INVESTI24032013000000000080711000000000000000000000000000000250320130000000000807110000000000000005221                900005506           09      00        
0330002300098Z70976E1114A1B5DE02EFFD5                                         PGTFORNB25032013900005506                                                                                                                               00        
0330002300099J00023793564700000377063381093073000059600030500CREDIT BRASIL FUNDO DE INVESTI24032013000000000037706000000000000000000000000000000250320130000000000377060000000000000005222                900005507           09      00        
0330002300100Z70976E1A16F88B4EF17453E                                         PGTFORNB25032013900005507                                                                                                                               00        
0330002300101J00034191564800001074431572130133826260139677000ABDELNOR II COM COMB LTDA     25032013000000000107443000000000000000000000000000000250320130000000001074430000000000000005223                900005508           09      00        
0330002300102Z70976E190F43115665D45CE                                         PGTFORNB25032013900005508                                                                                                                               00        
0330002300103J00023797564800003497601743091330810003700342030ADACOPLAM AUTOPARTS COM INDL L25032013000000000349760000000000000000000000000000000250320130000000003497600000000000000005224                900005509           09      00        
0330002300104Z70976E1A5E637DA9EF90BEB                                         PGTFORNB25032013900005509                                                                                                                               00        
0330002300105J00034198564800000180001129208377999107002439000AUTO PECAS CASTRO LTDA        25032013000000000018000000000000000000000000000000000250320130000000000180000000000000000005225                900005510           09      00        
0330002300106Z70976E1EBC97287F051EDBA                                         PGTFORNB25032013900005510                                                                                                                               00        
0330002300107J00039995564800000091611770634020311960078237001BAP AUTOMOTIVA LTDA           25032013000000000009161000000000000000000000000000000250320130000000000091610000000000000005226                900005511           09      00        
0330002300108Z70976E1CBF96DFE5EE4391C                                         PGTFORNB25032013900005511                                                                                                                               00        
0330002300109J00023792000000000000002025062025292012500001600BARROS E FILHOS LTDA          25032013000000000147116000000000000000000000000000000250320130000000001471160000000000000005227                900005512           09      00        
0330002300110Z70976E18DD44716CED264A0                                         PGTFORNB25032013900005512                                                                                                                               00        
0330002300111J00034191564800001813471127994852661248021303000BANCO FIBRA SA                25032013000000000181347000000000000000000000000000000250320130000000001813470000000000000005228                900005513           09      00        
0330002300112Z70976E1A66DE34E8BCF686C                                         PGTFORNB25032013900005513                                                                                                                               00        
0330002300113J00023795564800002210603393020000000891400443380BRASRODA IND E COMERCIO DE ROD25032013000000000221060000000000000000000000000000000250320130000000002210600000000000000005229                900005514           09      00        
0330002300114Z70976E19B579762EF98A2A1                                         PGTFORNB25032013900005514                                                                                                                               00        
0330002300115J00034198564800000631541090000073920350755971000COSMOVIX DISTRIBUIDORA LTDA   25032013000000000063154000000000000000000000000000000250320130000000000631540000000000000005230                900005515           09      00        
0330002300116Z70976E16B5A289513298B52                                         PGTFORNB25032013900005515                                                                                                                               00        
0330002300117J00000192564800000555540000002101041444526285111DECAL LINE COM PREST SERV SILK25032013000000000055554000000000000000000000000000000250320130000000000555540000000000000005231                900005516           09      00        
0330002300118Z70976E100D567459BC7AC2A                                         PGTFORNB25032013900005516                                                                                                                               00        
0330002300119J00034194564800001728301127917508082938030539000DELPHI AUTOM SYSTEMS BR LTDA  25032013000000000172830000000000000000000000000000000250320130000000001728300000000000000005232                900005517           09      00        
0330002300120Z70976E1758674CD8BB96136                                         PGTFORNB25032013900005517                                                                                                                               00        
0330002300121J00034191564700002475061128835339062938000052000EATON LTDA                    24032013000000000247506000000000000000000000000000000250320130000000002475060000000000000005209                900005495           09      00        
0330002300122Z70976E1E60FBD3672BDC495                                         PGTFORNB25032013900005495                                                                                                                               00        
0330002300123J00034196564700000125801128835342502938000052000EATON LTDA                    24032013000000000012580000000000000000000000000000000250320130000000000125800000000000000005210                900005496           09      00        
0330002300124Z70976E186B66462DE60A215                                         PGTFORNB25032013900005496                                                                                                                               00        
0330002300125J00034191564700000141541128835332782938000052000EATON LTDA                    24032013000000000014154000000000000000000000000000000250320130000000000141540000000000000005211                900005497           09      00        
0330002300126Z70976E17EE2A4768FC3E42D                                         PGTFORNB25032013900005497                                                                                                                               00        
0330002300127J00034197564700001242861128777817272938000052000EATON LTDA                    24032013000000000124286000000000000000000000000000000250320130000000001242860000000000000005212                900005498           09      00        
0330002300128Z70976E14421FDF3E3C445A0                                         PGTFORNB25032013900005498                                                                                                                               00        
0330002300129J00034199564700000609341127928476782938107808000ELIVEL AUTOMOTORES LTDA       24032013000000000060934000000000000000000000000000000250320130000000000609340000000000000005213                900005499           09      00        
0330002300130Z70976E1039DDD89E07B1F0B                                         PGTFORNB25032013900005499                                                                                                                               00        
03300025         000132000000000006468618000000000000000000310325                                                                                                                                                                               
03300031C2003031 2054375370001370033006500490028050300065 0000480000414 AUTO GERAL DE ITU LTDA                                                                              00000                                   00000000                    
0330003300001A0007000010183090000000331597 VERBENA DISTRIBUICAO DE AUTOPE5263                25032013BRL000000000000000000000000373381900005476           25032013000000000373381                                        07          000        
0330003300002B   210733560000109                              00000                                                  00000000  250320130000000003733810000000000000000000000000000000000000000000000000000000000000000                00        
0330003300003Z70976E1EB94BD6219C88777                                         PGTFORNB25032013900005476                                                                                                                               00        
0330003300004A0007002370161400000000575402 AUTO POSTO CENTURY CAR LTDA   5264                25032013BRL000000000000000000000000073462900005477           25032013000000000073462                                        07          000        
0330003300005B   210417359000112                              00000                                                  00000000  250320130000000000734620000000000000000000000000000000000000000000000000000000000000000                00        
0330003300006Z70976E1B3D4320A3087D5C6                                         PGTFORNB25032013900005477                                                                                                                               00        
03300035         000008000000000000446843000000000000000000030325                                                                                                                                                                               
03399999         000003000150000000                                                                                                                                                                                                             
