03300000         2054375370001370033006500490028050300065 0000480000414 AUTO GERAL DE ITU LTDA        SANTANDER                               22812201202243600012906000000                                                                     
03300011C2030030 2054375370001370033006500490028050300065 0000480000414 AUTO GERAL DE ITU LTDA                                                                              00000                                   00000000                    
0330001300001J00003397556200000280509364041800000001287240104BIAGIO DELL AGLI E CIA LTDA   29122012000000000028050000000000000000000000000000000281220120000000000280500000000000000002372                900002626           09      00        
0330001300002Z70976E170BC499565E102EB                                         PGTFORNB28122012900002626                                                                                                                               00        
0330001300003J00035691556400000355160689070323450000004895908DISTRIBUIDORA AUTOMOTIVA S/A  31122012000000000035516000000000000000000000000000000281220120000000000355160000000000000002420                900002707           09      00        
0330001300004Z70976E186DA7827849861C3                                         PGTFORNB28122012900002707                                                                                                                               00        
0330001300005J00035691556400000959610689070323450000005563802DISTRIBUIDORA AUTOMOTIVA S/A  31122012000000000095961000000000000000000000000000000281220120000000000959610000000000000002421                900002708           09      00        
0330001300006Z70976E130F6ECF4B835E804                                         PGTFORNB28122012900002708                                                                                                                               00        
0330001300007J00035698556400000102350689070323440000004895891DISTRIBUIDORA AUTOMOTIVA S/A  31122012000000000010235000000000000000000000000000000281220120000000000102350000000000000002423                900002709           09      00        
0330001300008Z70976E10F312D82A7DC10A3                                         PGTFORNB28122012900002709                                                                                                                               00        
0330001300009J00035693556400000152740689070323470000004896052DISTRIBUIDORA AUTOMOTIVA S/A  31122012000000000015274000000000000000000000000000000281220120000000000152740000000000000002425                900002710           09      00        
0330001300010Z70976E1DB2679FBF90186CE                                         PGTFORNB28122012900002710                                                                                                                               00        
0330001300011J00035691556400000141170689070323480000004895970DISTRIBUIDORA AUTOMOTIVA S/A  31122012000000000014117000000000000000000000000000000281220120000000000141170000000000000002426                900002711           09      00        
0330001300012Z70976E1AC46E28EF4A948FB                                         PGTFORNB28122012900002711                                                                                                                               00        
0330001300013J00003398556400000471769482966200000022780730104CAR CENTRAL DE AUTOPECAS E ROL31122012000000000047176000000000000000000000000000000281220120000000000471760000000000000002403                900002627           09      00        
0330001300014Z70976E1BDE1F055D7684B9B                                         PGTFORNB28122012900002627                                                                                                                               00        
0330001300015J00035695556100000406970689070323450000004895734DISTRIBUIDORA AUTOMOTIVA S/A  28122012000000000040697000000000000000000000000000000281220120000000000406970000000000000002353                900002647           09      00        
0330001300016Z70976E1C48C9210C0C07737                                         PGTFORNB28122012900002647                                                                                                                               00        
0330001300017J00003392556400002498059482966200000023000520104CAR CENTRAL DE AUTOPECAS E ROL31122012000000000249805000000000000000000000000000000281220120000000002498050000000000000002404                900002628           09      00        
0330001300018Z70976E18F130BEF8C90A415                                         PGTFORNB28122012900002628                                                                                                                               00        
0330001300019J00003398556400000111769482966200000022780060104CAR CENTRAL DE AUTOPECAS E ROL31122012000000000011176000000000000000000000000000000281220120000000000111760000000000000002405                900002629           09      00        
0330001300020Z70976E118392C5BFF42A496                                         PGTFORNB28122012900002629                                                                                                                               00        
0330001300021J00003392556400000420339482966200000022777600104CAR CENTRAL DE AUTOPECAS E ROL31122012000000000042033000000000000000000000000000000281220120000000000420330000000000000002408                900002630           09      00        
0330001300022Z70976E16EB0752EE92AABF7                                         PGTFORNB28122012900002630                                                                                                                               00        
0330001300023J00003391556400000590039513931700000103646410101DISTRIBUIDORA AUTOMOTIVA S/A  31122012000000000059003000000000000000000000000000000281220120000000000590030000000000000002422                900002631           09      00        
0330001300024Z70976E1AC88D8E0B9BAAE43                                         PGTFORNB28122012900002631                                                                                                                               00        
0330001300025J00003391556400000714669513931700000103646500101DISTRIBUIDORA AUTOMOTIVA S/A  31122012000000000071466000000000000000000000000000000281220120000000000714660000000000000002424                900002632           09      00        
0330001300026Z70976E131037D8334D03E53                                         PGTFORNB28122012900002632                                                                                                                               00        
03300015         000028000000000000720509000000000000000000301228                                                                                                                                                                               
03300021C2031030 2054375370001370033006500490028050300065 0000480000414 AUTO GERAL DE ITU LTDA                                                                              00000                                   00000000                    
0330002300001J00023791556100000969003114091293416616101763000BANCO SAFRA S/A               28122012000000000096900000000000000000000000000000000281220120000000000969000000000000000002339                900002633           09      00        
0330002300002Z70976E1ACEC05E97DFF7BBC                                         PGTFORNB28122012900002633                                                                                                                               00        
0330002300003J00000198556300000442500000001291892000004465917VESPOR AUTOMOTIVE DIST DE AUTO30122012000000000044250000000000000000000000000000000281220120000000000442500000000000000002395                900002688           09      00        
0330002300004Z70976E17DD4C93F6CF4E5CB                                         PGTFORNB28122012900002688                                                                                                                               00        
0330002300005J00039996556300004040702671553411703435718856001SERASA S.A                    30122012000000000404070000000000000000000000000000000281220120000000004040700000000000000002396                900002689           09      00        
0330002300006Z70976E19D9063F94579B3D7                                         PGTFORNB28122012900002689                                                                                                                               00        
0330002300007J00010497556400000027119786171517705437537000124SINDICATO DOS EMPREGADOS NO CO31122012000000000002711000000000000000000000000000000281220120000000000027110000000000000002397                900002690           09      00        
0330002300008Z70976E1961EAE61D7BB2C37                                         PGTFORNB28122012900002690                                                                                                                               00        
0330002300009J00023795556400000066013372090000016165005040000ABRAO REZE COM DE VEICULOS LTD31122012000000000006601000000000000000000000000000000281220120000000000066010000000000000002400                900002691           09      00        
0330002300010Z70976E1D963194C51A2271A                                         PGTFORNB28122012900002691                                                                                                                               00        
0330002300011J00039992556400000197811766086194711960078237001BAP AUTOMOTIVA LTDA           31122012000000000019781000000000000000000000000000000281220120000000000197810000000000000002401                900002692           09      00        
0330002300012Z70976E149CBBF4102580F22                                         PGTFORNB28122012900002692                                                                                                                               00        
0330002300013J00023795556400001553104130072362000000405102210BREMSEN WAYSER IND E COM LTDA 31122012000000000155310000000000000000000000000000000281220120000000001553100000000000000002402                900002693           09      00        
0330002300014Z70976E151C06A60E4EFFC36                                         PGTFORNB28122012900002693                                                                                                                               00        
0330002300015J00039997556400000491551766148963404061860231001CAR CENTRAL DE AUTOPECAS E ROL31122012000000000049155000000000000000000000000000000281220120000000000491550000000000000002406                900002694           09      00        
0330002300016Z70976E1F6A4B17C912AE543                                         PGTFORNB28122012900002694                                                                                                                               00        
0330002300017J00039999556400000256401766148955304061860231001CAR CENTRAL DE AUTOPECAS E ROL31122012000000000025640000000000000000000000000000000281220120000000000256400000000000000002407                900002695           09      00        
0330002300018Z70976E1444971EB2E8A5822                                         PGTFORNB28122012900002695                                                                                                                               00        
0330002300019J00039997556400000223971766148959604061860231001CAR CENTRAL DE AUTOPECAS E ROL31122012000000000022397000000000000000000000000000000281220120000000000223970000000000000002409                900002696           09      00        
0330002300020Z70976E13101890AE1D6443D                                         PGTFORNB28122012900002696                                                                                                                               00        
0330002300021J00023799556400008805022002061201383752100829680COMERCIAL AUTOMOTIVA S.A.     31122012000000000880502000000000000000000000000000000281220120000000008805020000000000000002410                900002697           09      00        
0330002300022Z70976E13C80CAE99580E0B9                                         PGTFORNB28122012900002697                                                                                                                               00        
0330002300023J00023791556400001076352002061201383857100829680COMERCIAL AUTOMOTIVA S.A.     31122012000000000107635000000000000000000000000000000281220120000000001076350000000000000002411                900002698           09      00        
0330002300024Z70976E184A8B3E3288AB650                                         PGTFORNB28122012900002698                                                                                                                               00        
0330002300025J00023796556400004804602002061201383645100829680COMERCIAL AUTOMOTIVA S.A.     31122012000000000480460000000000000000000000000000000281220120000000004804600000000000000002412                900002699           09      00        
0330002300026Z70976E1B5DC03D40E1F0829                                         PGTFORNB28122012900002699                                                                                                                               00        
0330002300027J00023791556400000697242002061201383294100829680COMERCIAL AUTOMOTIVA S.A.     31122012000000000069724000000000000000000000000000000281220120000000000697240000000000000002413                900002700           09      00        
0330002300028Z70976E1B17E453287FE7D4A                                         PGTFORNB28122012900002700                                                                                                                               00        
0330002300029J00023798556400000637872002061201383660100829680COMERCIAL AUTOMOTIVA S.A.     31122012000000000063787000000000000000000000000000000281220120000000000637870000000000000002414                900002701           09      00        
0330002300030Z70976E198EE9EE202B827F9                                         PGTFORNB28122012900002701                                                                                                                               00        
0330002300031J00034191556400007285421126917349770624085833000COMERCIAL DE AUTO PECAS EMBREP31122012000000000728542000000000000000000000000000000281220120000000007285420000000000000002415                900002702           09      00        
0330002300032Z70976E101509DB333DF4934                                         PGTFORNB28122012900002702                                                                                                                               00        
0330002300033J00034199556400002223051126917349690624085833000COMERCIAL DE AUTO PECAS EMBREP31122012000000000222305000000000000000000000000000000281220120000000002223050000000000000002416                900002703           09      00        
0330002300034Z70976E150A34CD0499D47FA                                         PGTFORNB28122012900002703                                                                                                                               00        
0330002300035J00034194556400001301911126917349440624085833000COMERCIAL DE AUTO PECAS EMBREP31122012000000000130191000000000000000000000000000000281220120000000001301910000000000000002417                900002704           09      00        
0330002300036Z70976E1077E79433306EE6E                                         PGTFORNB28122012900002704                                                                                                                               00        
0330002300037J00000194556400003379564584341707500370004790718DB DISTRIBUIDORA DE BATERIAS L31122012000000000337956000000000000000000000000000000281220120000000003379560000000000000002418                900002705           09      00        
0330002300038Z70976E155506C449DC962AB                                         PGTFORNB28122012900002705                                                                                                                               00        
0330002300039J00000198556400002274424584341707600370004790718DB DISTRIBUIDORA DE BATERIAS L31122012000000000227442000000000000000000000000000000281220120000000002274420000000000000002419                900002706           09      00        
0330002300040Z70976E1AAB1EFCF6C96F782                                         PGTFORNB28122012900002706                                                                                                                               00        
0330002300041J00023797556300002283780285092339000016400943470DISTRIBUIDORA BRASUL DE AUTOPE30122012000000000228378000000000000000000000000000000281220120000000002283780000000000000002387                900002680           09      00        
0330002300042Z70976E1F329468C27329A3A                                         PGTFORNB28122012900002680                                                                                                                               00        
0330002300043J00034196556100000441771126687631400360545834000COBRA ROLAMENTOS E AUTO PECAS 28122012000000000044177000000000000000000000000000000281220120000000000441770000000000000002345                900002639           09      00        
0330002300044Z70976E1DB276D6D9FD7373B                                         PGTFORNB28122012900002639                                                                                                                               00        
0330002300045J00034191556100000291601126687630170360545834000COBRA ROLAMENTOS E AUTO PECAS 28122012000000000029160000000000000000000000000000000281220120000000000291600000000000000002346                900002640           09      00        
0330002300046Z70976E108CD0124033C5A0F                                         PGTFORNB28122012900002640                                                                                                                               00        
0330002300047J00034194556100005452671126687630250360545834000COBRA ROLAMENTOS E AUTO PECAS 28122012000000000545267000000000000000000000000000000281220120000000005452670000000000000002347                900002641           09      00        
0330002300048Z70976E157FE7ED5CA950E59                                         PGTFORNB28122012900002641                                                                                                                               00        
0330002300049J00023796556100000380413262090000030850800935470COMDIP COMERCIAL DISTR DE PECA28122012000000000038041000000000000000000000000000000281220120000000000380410000000000000002348                900002642           09      00        
0330002300050Z70976E159A1F295FA91B557                                         PGTFORNB28122012900002642                                                                                                                               00        
0330002300051J00034191556100001253341126326467851446662742000COML FIX IMPL RODOVIARIOS LTDA28122012000000000125334000000000000000000000000000000281220120000000001253340000000000000002349                900002643           09      00        
0330002300052Z70976E1503634B98740A7AD                                         PGTFORNB28122012900002643                                                                                                                               00        
0330002300053J00034192556100000444861570994744264522114471000COML NV MILLENNIUN A P LTDA EP28122012000000000044486000000000002224000000000000000281220120000000000422620000000000000002350                900002644           09      00        
0330002300054Z70976E1339B830724608348                                         PGTFORNB28122012900002644                                                                                                                               00        
0330002300055J00034196556100003358981126367367982938030539000DELPHI AUTOM SYSTEMS BR LTDA  28122012000000000335898000000000000000000000000000000281220120000000003358980000000000000002351                900002645           09      00        
0330002300056Z70976E175200980E98D4BAF                                         PGTFORNB28122012900002645                                                                                                                               00        
0330002300057J00000191556100001266461610087210514830000770017DIAS  DIAS DISTR DE PECAS LTDA28122012000000000126646000000000000000000000000000000281220120000000001266460000000000000002352                900002646           09      00        
0330002300058Z70976E19D5D3146411A7052                                         PGTFORNB28122012900002646                                                                                                                               00        
0330002300059J00034194556400006693541127032207831446685057000KT COMP AUTOMOTIVOS LTDA      31122012000000000669354000000000000000000000000000000281220120000000006693540000000000000002437                900002722           09      00        
0330002300060Z70976E19E740F3043352025                                         PGTFORNB28122012900002722                                                                                                                               00        
0330002300061J00023796556300006647390285092339000016500943470DISTRIBUIDORA BRASUL DE AUTOPE30122012000000000664739000000000000000000000000000000281220120000000006647390000000000000002388                900002681           09      00        
0330002300062Z70976E1784D2C74416D9989                                         PGTFORNB28122012900002681                                                                                                                               00        
0330002300063J00034196556300000383851125632906522938000052000EATON LTDA                    30122012000000000038385000000000000000000000000000000281220120000000000383850000000000000002389                900002682           09      00        
0330002300064Z70976E16771ABAF56F8FAFB                                         PGTFORNB28122012900002682                                                                                                                               00        
0330002300065J00034195556300000112551125675155182938000052000EATON LTDA                    30122012000000000011255000000000000000000000000000000281220120000000000112550000000000000002390                900002683           09      00        
0330002300066Z70976E15AEABD5E75D774D7                                         PGTFORNB28122012900002683                                                                                                                               00        
0330002300067J00000191556300000939320000001241264442910381411INCOPARTS IND E COM DE PECAS L30122012000000000093932000000000000000000000000000000281220120000000000939320000000000000002391                900002684           09      00        
0330002300068Z70976E19ECF9E3E3A4870C9                                         PGTFORNB28122012900002684                                                                                                                               00        
0330002300069J00023799556400000065983372097672311558800767230MAGGI VEICULOS LTDA           31122012000000000006598000000000000000000000000000000281220120000000000065980000000000000002438                900002723           09      00        
0330002300070Z70976E18ED7E5BE549A8BE6                                         PGTFORNB28122012900002723                                                                                                                               00        
0330002300071J00039991556400000912368144667160004540096965001PELLEGRINO DISTRIBUIDORA DE AU31122012000000000091236000000000000000000000000000000281220120000000000912360000000000000002439                900002724           09      00        
0330002300072Z70976E103DD8435C894E818                                         PGTFORNB28122012900002724                                                                                                                               00        
0330002300073J00039999556400002196782696547484504540096965001PELLEGRINO DISTRIBUIDORA DE AU31122012000000000219678000000000000000000000000000000281220120000000002196780000000000000002440                900002725           09      00        
0330002300074Z70976E181715BF913931596                                         PGTFORNB28122012900002725                                                                                                                               00        
0330002300075J00039992556400002443848144667155304540096965001PELLEGRINO DISTRIBUIDORA DE AU31122012000000000244384000000000000000000000000000000281220120000000002443840000000000000002441                900002726           09      00        
0330002300076Z70976E1BF92705A00B3A3A4                                         PGTFORNB28122012900002726                                                                                                                               00        
0330002300077J00039991556400012380148144667197904540096965001PELLEGRINO DISTRIBUIDORA DE AU31122012000000001238014000000000000000000000000000000281220120000000012380140000000000000002442                900002727           09      00        
0330002300078Z70976E1C5F946E6B7A60405                                         PGTFORNB28122012900002727                                                                                                                               00        
0330002300079J00039991556400001415878144667162604540096965001PELLEGRINO DISTRIBUIDORA DE AU31122012000000000141587000000000000000000000000000000281220120000000001415870000000000000002443                900002728           09      00        
0330002300080Z70976E1E16CC397AEC90F1D                                         PGTFORNB28122012900002728                                                                                                                               00        
0330002300081J00039995556400001579052696547483704540096965001PELLEGRINO DISTRIBUIDORA DE AU31122012000000000157905000000000000000000000000000000281220120000000001579050000000000000002444                900002729           09      00        
0330002300082Z70976E136A490ABD03165B3                                         PGTFORNB28122012900002729                                                                                                                               00        
0330002300083J00039995556400000936548145175602804540096965001PELLEGRINO DISTRIBUIDORA DE AU31122012000000000093654000000000000000000000000000000281220120000000000936540000000000000002445                900002730           09      00        
0330002300084Z70976E1683A5655FA6A8864                                         PGTFORNB28122012900002730                                                                                                                               00        
0330002300085J00023799556400007831203684190000017907100673000POLIPECAS DISTRIBUIDORA AUTOMO31122012000000000783120000000000000000000000000000000281220120000000007831200000000000000002446                900002731           09      00        
0330002300086Z70976E13B36CD1325B542EA                                         PGTFORNB28122012900002731                                                                                                                               00        
0330002300087J00023794556400002461573684190000017906800673000POLIPECAS DISTRIBUIDORA AUTOMO31122012000000000246157000000000000000000000000000000281220120000000002461570000000000000002447                900002732           09      00        
0330002300088Z70976E1B1794AB0B16484F3                                         PGTFORNB28122012900002732                                                                                                                               00        
0330002300089J00023794556400002589073684190000017906500673000POLIPECAS DISTRIBUIDORA AUTOMO31122012000000000258907000000000000000000000000000000281220120000000002589070000000000000002448                900002733           09      00        
0330002300090Z70976E1E9FDAAA9D91F05C1                                         PGTFORNB28122012900002733                                                                                                                               00        
0330002300091J00023798556400001664073684190000017910700673000POLIPECAS DISTRIBUIDORA AUTOMO31122012000000000166407000000000000000000000000000000281220120000000001664070000000000000002449                900002734           09      00        
0330002300092Z70976E1AA4F9AEE6F1BC189                                         PGTFORNB28122012900002734                                                                                                                               00        
0330002300093J00039995556400000244002315331777105313093513001REAL MOTO PECAS LTDA          31122012000000000024400000000000000000000000000000000281220120000000000244000000000000000002450                900002735           09      00        
0330002300094Z70976E1245C293BFCE0AE0D                                         PGTFORNB28122012900002735                                                                                                                               00        
0330002300095J00039995556100000380841763167502604570524809001EATON LTDA                    28122012000000000038084000000000000000000000000000000281220120000000000380840000000000000002359                900002653           09      00        
0330002300096Z70976E120CC5A5B9E9B1A24                                         PGTFORNB28122012900002653                                                                                                                               00        
0330002300097J00034194556100000559431090008746092938050420000ITA PECAS PARA VEIC COM E SERV28122012000000000055943000000000000000000000000000000281220120000000000559430000000000000002360                900002654           09      00        
0330002300098Z70976E1A567ABBBD897CF33                                         PGTFORNB28122012900002654                                                                                                                               00        
0330002300099J00023796556100000998240008092352000004800385010MAQUINAS AGRICOLAS JACTO SA   28122012000000000099824000000000000000000000000000000281220120000000000998240000000000000002361                900002655           09      00        
0330002300100Z70976E1087D12FE2A2384E0                                         PGTFORNB28122012900002655                                                                                                                               00        
0330002300101J00023795556100000659103394090000013387100324600MORELATE DISTRIBUIDORA DE AUTO28122012000000000065910000000000000000000000000000000281220120000000000659100000000000000002362                900002656           09      00        
0330002300102Z70976E1522481E795EDD2D9                                         PGTFORNB28122012900002656                                                                                                                               00        
0330002300103J00034196556100000261661126458891256676980086000NOVA DISTRIBUIDORA DE VEICULOS28122012000000000026166000000000000000000000000000000281220120000000000261660000000000000002363                900002657           09      00        
0330002300104Z70976E17E17CCC8B6FA45C4                                         PGTFORNB28122012900002657                                                                                                                               00        
0330002300105J00023795556100000672800151091323490029701251750PECA MAIS COMERCIO DE AUTO PEC28122012000000000067280000000000000000000000000000000281220120000000000672800000000000000002364                900002658           09      00        
0330002300106Z70976E1FBAB7A35FFA93BFD                                         PGTFORNB28122012900002658                                                                                                                               00        
0330002300107J00034192556100000490001126309723810384625000000PECAS AUTOMOTIVAS ZEENE LTDA  28122012000000000049000000000000000000000000000000000281220120000000000490000000000000000002365                900002659           09      00        
0330002300108Z70976E1DEAE040A7A6FAF78                                         PGTFORNB28122012900002659                                                                                                                               00        
0330002300109J00039994556100001516912315329537905313093513001REAL MOTO PECAS LTDA          28122012000000000151691000000000000000000000000000000281220120000000001516910000000000000002366                900002660           09      00        
0330002300110Z70976E1F8E1379A374FE232                                         PGTFORNB28122012900002660                                                                                                                               00        
0330002300111J00039991556100002689172315328707405313093513001REAL MOTO PECAS LTDA          28122012000000000268917000000000000000000000000000000281220120000000002689170000000000000002367                900002661           09      00        
0330002300112Z70976E1924CED57F11FDD59                                         PGTFORNB28122012900002661                                                                                                                               00        
0330002300113J00039991556100000314262315327482705313093513001REAL MOTO PECAS LTDA          28122012000000000031426000000000000000000000000000000281220120000000000314260000000000000002368                900002662           09      00        
0330002300114Z70976E1A4132CEC2F339113                                         PGTFORNB28122012900002662                                                                                                                               00        
0330002300115J00023798556100000661363395061180232856000028140ROCHESTER DISTRIBUIDORA DE AUT28122012000000000066136000000000000000000000000000000281220120000000000661360000000000000002369                900002663           09      00        
0330002300116Z70976E149408A971832694E                                         PGTFORNB28122012900002663                                                                                                                               00        
0330002300117J00039991556100000388591765527901604061860231001CAR CENTRAL DE AUTOPECAS E ROL28122012000000000038859000000000000000000000000000000281220120000000000388590000000000000002340                900002634           09      00        
0330002300118Z70976E132A267BDE6D44E7E                                         PGTFORNB28122012900002634                                                                                                                               00        
0330002300119J00034199556100000088501126417169260076000777000CENTER PECAS FABBRI LTDA      28122012000000000008850000000000000000000000000000000281220120000000000088500000000000000002341                900002635           09      00        
0330002300120Z70976E1D889AC1C1BC7C854                                         PGTFORNB28122012900002635                                                                                                                               00        
0330002300121J00034191556100000029501126417169180076000777000CENTER PECAS FABBRI LTDA      28122012000000000002950000000000000000000000000000000281220120000000000029500000000000000002342                900002636           09      00        
0330002300122Z70976E1144F8D73E62EACA1                                         PGTFORNB28122012900002636                                                                                                                               00        
0330002300123J00034191556100000221001126417169000076000777000CENTER PECAS FABBRI LTDA      28122012000000000022100000000000000000000000000000000281220120000000000221000000000000000002343                900002637           09      00        
0330002300124Z70976E1E828DA136F794DF5                                         PGTFORNB28122012900002637                                                                                                                               00        
0330002300125J00023795556100000261870138092328000003101453000OBB CONSULTORIA E PARTICIPACOE28122012000000000026187000000000000000000000000000000281220120000000000261870000000000000002354                900002648           09      00        
0330002300126Z70976E189DB969BCA5D61F8                                         PGTFORNB28122012900002648                                                                                                                               00        
0330002300127J00034192556100001651531126111056622938000052000EATON LTDA                    28122012000000000165153000000000000000000000000000000281220120000000001651530000000000000002355                900002649           09      00        
0330002300128Z70976E131C5E14DDCE34898                                         PGTFORNB28122012900002649                                                                                                                               00        
0330002300129J00034195556100000333931126465352552938000052000EATON LTDA                    28122012000000000033393000000000000000000000000000000281220120000000000333930000000000000002356                900002650           09      00        
0330002300130Z70976E181E59C90023918C7                                         PGTFORNB28122012900002650                                                                                                                               00        
0330002300131J00034191556100000502711126465350732938000052000EATON LTDA                    28122012000000000050271000000000000000000000000000000281220120000000000502710000000000000002357                900002651           09      00        
0330002300132Z70976E192F31E953C111356                                         PGTFORNB28122012900002651                                                                                                                               00        
0330002300133J00034195556100000093261126500487992938000052000EATON LTDA                    28122012000000000009326000000000000000000000000000000281220120000000000093260000000000000002358                900002652           09      00        
0330002300134Z70976E10F79A15FC04C3CEA                                         PGTFORNB28122012900002652                                                                                                                               00        
0330002300135J00034199556100009626271126687627460360545834000COBRA ROLAMENTOS E AUTO PECAS 28122012000000000962627000000000000000000000000000000281220120000000009626270000000000000002344                900002638           09      00        
0330002300136Z70976E12703FFCB7C1355D0                                         PGTFORNB28122012900002638                                                                                                                               00        
0330002300137J00039999556100000190031764724277404540079149001BANCO SOFISA SA               28122012000000000019003000000000000000000000000000000281220120000000000190030000000000000002370                900002664           09      00        
0330002300138Z70976E1396C96D074586C56                                         PGTFORNB28122012900002664                                                                                                                               00        
0330002300139J00039999556400000117353005508601603430712744001DISTRIBUIDORA AUTOMOTIVA S/A  31122012000000000011735000000000000000000000000000000281220120000000000117350000000000000002427                900002712           09      00        
0330002300140Z70976E19883F5EDEC6D91D8                                         PGTFORNB28122012900002712                                                                                                                               00        
0330002300141J00023796556400000286140138092338000003801370000BBL SISTEMAS OPERACIONAIS LTDA31122012000000000028614000000000000000000000000000000281220120000000000286140000000000000002428                900002713           09      00        
0330002300142Z70976E1088C8F944EFB51E2                                         PGTFORNB28122012900002713                                                                                                                               00        
0330002300143J00034197556400000452661126111121892938000052000EATON LTDA                    31122012000000000045266000000000000000000000000000000281220120000000000452660000000000000002429                900002714           09      00        
0330002300144Z70976E1F2A7586EFD5C5F1E                                         PGTFORNB28122012900002714                                                                                                                               00        
0330002300145J00034199556400000954851124670569512938107808000ELIVEL AUTOMOTORES LTDA       31122012000000000095485000000000000000000000000000000281220120000000000954850000000000000002430                900002715           09      00        
0330002300146Z70976E1D10694EF244EBE40                                         PGTFORNB28122012900002715                                                                                                                               00        
0330002300147J00034198556400000121171090304248330109276204000GIRANDO COMERCIO DE PECAS LTDA31122012000000000012117000000000000000000000000000000281220120000000000121170000000000000002431                900002716           09      00        
0330002300148Z70976E175C1DD88EE5799D8                                         PGTFORNB28122012900002716                                                                                                                               00        
0330002300149J00034191556400001890751090006238550054846332000GT COMERCIO DE LUBRIFICANTES L31122012000000000189075000000000000000000000000000000281220120000000001890750000000000000002432                900002717           09      00        
0330002300150Z70976E135EA232DC8B1CEA2                                         PGTFORNB28122012900002717                                                                                                                               00        
0330002300151J00034197556400000337001125410826272938074016000ITAVOX VEICULOS               31122012000000000033700000000000000000000000000000000281220120000000000337000000000000000002433                900002718           09      00        
0330002300152Z70976E11F298C4B37F5BA5E                                         PGTFORNB28122012900002718                                                                                                                               00        
0330002300153J00034197556400000119311126942824872395022557000KOGA KOGA CIA LTDA            31122012000000000011931000000000000000000000000000000281220120000000000119310000000000000002434                900002719           09      00        
0330002300154Z70976E18016460BA087076A                                         PGTFORNB28122012900002719                                                                                                                               00        
0330002300155J00039994556100000418401764724276604540079149001BANCO SOFISA SA               28122012000000000041840000000000000000000000000000000281220120000000000418400000000000000002371                900002665           09      00        
0330002300156Z70976E1BDF6CAFAE41A8CC2                                         PGTFORNB28122012900002665                                                                                                                               00        
0330002300157J00039991556400001313402315331779805313093513001REAL MOTO PECAS LTDA          31122012000000000131340000000000000000000000000000000281220120000000001313400000000000000002451                900002736           09      00        
0330002300158Z70976E10C4D0420E4EB7761                                         PGTFORNB28122012900002736                                                                                                                               00        
0330002300159J00039994556400000615642315333162605313093513001REAL MOTO PECAS LTDA          31122012000000000061564000000000000000000000000000000281220120000000000615640000000000000002452                900002737           09      00        
0330002300160Z70976E1F623E22E51698309                                         PGTFORNB28122012900002737                                                                                                                               00        
0330002300161J00039998556400001567692315331767405313093513001REAL MOTO PECAS LTDA          31122012000000000156769000000000000000000000000000000281220120000000001567690000000000000002453                900002738           09      00        
0330002300162Z70976E1756DD098EF736005                                         PGTFORNB28122012900002738                                                                                                                               00        
0330002300163J00039992556400000799912315331941305313093513001REAL MOTO PECAS LTDA          31122012000000000079991000000000000000000000000000000281220120000000000799910000000000000002454                900002739           09      00        
0330002300164Z70976E13640CEA3581BE6FE                                         PGTFORNB28122012900002739                                                                                                                               00        
0330002300165J00039993556400010852482315343500605313093513001REAL MOTO PECAS LTDA          31122012000000001085248000000000000000000000000000000281220120000000010852480000000000000002455                900002740           09      00        
0330002300166Z70976E1890DDA24C1B2D3D3                                         PGTFORNB28122012900002740                                                                                                                               00        
0330002300167J00039991556400001518592315344380705313093513001REAL MOTO PECAS LTDA          31122012000000000151859000000000000000000000000000000281220120000000001518590000000000000002456                900002741           09      00        
0330002300168Z70976E136B0DC3BE27D25BC                                         PGTFORNB28122012900002741                                                                                                                               00        
0330002300169J00034199556400000120001090004776253048092666000SAF DIESEL VEICULOS LTDA      31122012000000000012000000000000000000000000000000000281220120000000000120000000000000000002457                900002742           09      00        
0330002300170Z70976E154E5858936EE05C0                                         PGTFORNB28122012900002742                                                                                                                               00        
0330002300171J00023799556400000400004130074130004231605055970SOUZA RAMOS COM E IMP LTDA    31122012000000000040000000000000000000000000000000000281220120000000000400000000000000000002458                900002743           09      00        
0330002300172Z70976E1A3332CF0A17A1402                                         PGTFORNB28122012900002743                                                                                                                               00        
0330002300173J00034191556400000210631126378323562938069560000TEMPO AUTOMOVEIS PECAS LTDA   31122012000000000021063000000000000000000000000000000281220120000000000210630000000000000002459                900002744           09      00        
0330002300174Z70976E1AAF88EE99BFB0B54                                         PGTFORNB28122012900002744                                                                                                                               00        
0330002300175J00039991556400000164531765725667604540079149001BANCO SOFISA SA               31122012000000000016453000000000000000000000000000000281220120000000000164530000000000000002460                900002745           09      00        
0330002300176Z70976E18C9C672CFF611083                                         PGTFORNB28122012900002745                                                                                                                               00        
0330002300177J00039998556400000561561765725668404540079149001BANCO SOFISA SA               31122012000000000056156000000000000000000000000000000281220120000000000561560000000000000002461                900002746           09      00        
0330002300178Z70976E112ED6B327EFFA3E7                                         PGTFORNB28122012900002746                                                                                                                               00        
0330002300179J00000198556400009930007264191875218930000721117SEARA ALIMENTOS LTDA          31122012000000000993000000000000000000000000000000000281220120000000009930000000000000000002462                900002747           09      00        
0330002300180Z70976E1CBADEB03392408A5                                         PGTFORNB28122012900002747                                                                                                                               00        
0330002300181J00023791556300000398032500090256569202100000340ODAPEL DISTRIBUIDORA DE AUTO P30122012000000000039803000000000000000000000000000000281220120000000000398030000000000000002392                900002685           09      00        
0330002300182Z70976E17D5259828AFD4D9B                                         PGTFORNB28122012900002685                                                                                                                               00        
0330002300183J00000192556300004068030000002096856000002045617PRV COMERCIO DE PECAS LTDA    30122012000000000406803000000000000000000000000000000281220120000000004068030000000000000002393                900002686           09      00        
0330002300184Z70976E1F8FEE7FC3EB4C0A8                                         PGTFORNB28122012900002686                                                                                                                               00        
0330002300185J00000191556300002126900000001291892000004466217VESPOR AUTOMOTIVE DIST DE AUTO30122012000000000212690000000000000000000000000000000281220120000000002126900000000000000002394                900002687           09      00        
0330002300186Z70976E1C306D033904F6934                                         PGTFORNB28122012900002687                                                                                                                               00        
0330002300187J00023793556200000380363381090000008890301801540BRASILWAGEN COM VEICULOS SA   29122012000000000038036000000000000000000000000000000281220120000000000380360000000000000002373                900002666           09      00        
0330002300188Z70976E13E94ADBDD58D047B                                         PGTFORNB28122012900002666                                                                                                                               00        
0330002300189J00034193556200000034001126417169340076000777000CENTER PECAS FABBRI LTDA      29122012000000000003400000000000000000000000000000000281220120000000000034000000000000000002374                900002667           09      00        
0330002300190Z70976E1BEED4D68C11500F4                                         PGTFORNB28122012900002667                                                                                                                               00        
0330002300191J00034192556200000590621126422892872938107808000ELIVEL AUTOMOTORES LTDA       29122012000000000059062000000000000000000000000000000281220120000000000590620000000000000002375                900002668           09      00        
0330002300192Z70976E197D75D88F38D6C4A                                         PGTFORNB28122012900002668                                                                                                                               00        
0330002300193J00034197556200001690951570961479780069637890000HT COMPONENTES AUTOMOTIVOS LTD29122012000000000169095000000000000000000000000000000281220120000000001690950000000000000002376                900002669           09      00        
0330002300194Z70976E1C6F564637592EC7A                                         PGTFORNB28122012900002669                                                                                                                               00        
0330002300195J00000198556200000803030442666088234120000204711INSTALADORA SAO MARCOS LTDA   29122012000000000080303000000000000000000000000000000281220120000000000803030000000000000002377                900002670           09      00        
0330002300196Z70976E117E2515C5DE605E6                                         PGTFORNB28122012900002670                                                                                                                               00        
0330002300197J00000191556200000558840000001451672442886058211BANCO VOTORANTIM SA           29122012000000000055884000000000000000000000000000000281220120000000000558840000000000000002378                900002671           09      00        
0330002300198Z70976E1F4A58EDFA85457BD                                         PGTFORNB28122012900002671                                                                                                                               00        
0330002300199J00023791556200000467653394090000013464400324600MORELATE DISTRIBUIDORA DE AUTO29122012000000000046765000000000000000000000000000000281220120000000000467650000000000000002379                900002672           09      00        
0330002300200Z70976E1A014C9120F64BDF7                                         PGTFORNB28122012900002672                                                                                                                               00        
0330002300201J00034194556200000426201126358883760384625000000PECAS AUTOMOTIVAS ZEENE LTDA  29122012000000000042620000000000000000000000000000000281220120000000000426200000000000000002380                900002673           09      00        
0330002300202Z70976E1483582E9FC334CBA                                         PGTFORNB28122012900002673                                                                                                                               00        
0330002300203J00000192556200001475060000001244482993005107317RPT DISTRIBUIDORA DE AUTO PECA29122012000000000147506000000000000000000000000000000281220120000000001475060000000000000002381                900002674           09      00        
0330002300204Z70976E13C09E45756D3DEDC                                         PGTFORNB28122012900002674                                                                                                                               00        
0330002300205J00023796556200000552593395090000005104300650000SORANA SUL                    29122012000000000055259000000000000000000000000000000281220120000000000552590000000000000002382                900002675           09      00        
0330002300206Z70976E12F33858A7886AE9D                                         PGTFORNB28122012900002675                                                                                                                               00        
0330002300207J00034191556400000344711126942824952395022557000KOGA KOGA CIA LTDA            31122012000000000034471000000000000000000000000000000281220120000000000344710000000000000002435                900002720           09      00        
0330002300208Z70976E1413EBB076D903D98                                         PGTFORNB28122012900002720                                                                                                                               00        
0330002300209J00034196556400001304661126942825032395022557000KOGA KOGA CIA LTDA            31122012000000000130466000000000000000000000000000000281220120000000001304660000000000000002436                900002721           09      00        
0330002300210Z70976E10F38A7090BF9C235                                         PGTFORNB28122012900002721                                                                                                                               00        
0330002300211J00023798556200000361090545090000030362200705060TONINI DISTRIBUIDORA LTDA     29122012000000000036109000000000000000000000000000000281220120000000000361090000000000000002383                900002676           09      00        
0330002300212Z70976E1727E242BEDD0BF40                                         PGTFORNB28122012900002676                                                                                                                               00        
0330002300213J00023791556200000636000092092335000001600165930WILSON RUSSO AUTOPECAS LTDA   29122012000000000063600000000000000000000000000000000281220120000000000636000000000000000002384                900002677           09      00        
0330002300214Z70976E10A7E52C27E32DE20                                         PGTFORNB28122012900002677                                                                                                                               00        
0330002300215J00034196556300000188981126520577150237417159000ACCIOLY SA IMP E COM          30122012000000000018898000000000000000000000000000000281220120000000000188980000000000000002385                900002678           09      00        
0330002300216Z70976E192266D9127B31D49                                         PGTFORNB28122012900002678                                                                                                                               00        
0330002300217J00034191556300000024501126417169420076000777000CENTER PECAS FABBRI LTDA      30122012000000000002450000000000000000000000000000000281220120000000000024500000000000000002386                900002679           09      00        
0330002300218Z70976E1A3EEEF9C6B2268C4                                         PGTFORNB28122012900002679                                                                                                                               00        
03300025         000220000000000017917756000000000000000000311228                                                                                                                                                                               
03300031C2003031 2054375370001370033006500490028050300065 0000480000414 AUTO GERAL DE ITU LTDA                                                                              00000                                   00000000                    
0330003300001A0007002370014500000000005894 INDUSTRIA MECANICAS ALVARCO   2398                28122012BRL000000000000000000000000421891900002624           28122012000000000421891                                        07          000        
0330003300002B   254365416000132                              00000                                                  00000000  281220120000000004218910000000000000000000000000000000000000000000000000000000000000000                00        
0330003300003Z70976E165FA374D022898EC                                         PGTFORNB28122012900002624                                                                                                                               00        
0330003300004A0007002370123190000000029912 F.CONFUORTO IND E COM DE PECAS2399                28122012BRL000000000000000000000000281782900002625           28122012000000000281782                                        07          000        
0330003300005B   243024991000155                              00000                                                  00000000  281220120000000002817820000000000000000000000000000000000000000000000000000000000000000                00        
0330003300006Z70976E1717D0F31D65EA34D                                         PGTFORNB28122012900002625                                                                                                                               00        
03300035         000008000000000000703673000000000000000000031228                                                                                                                                                                               
03399999         000003000258000000                                                                                                                                                                                                             
