03300000         2054375370001370033006500490028050300065 0000480000414 AUTO GERAL DE ITU LTDA        SANTANDER                               21402201302162500021806000000                                                                     
03300011C2030030 2054375370001370033006500490028050300065 0000480000414 AUTO GERAL DE ITU LTDA                                                                              00000                                   00000000                    
0330001300001J00003399560900007031899472544100000001164240104CINPAL CIA IND DE PECAS P/ AUT14022013000000000703189000000000000000000000000000000140220130000000007031890000000000000003887                900004165           09      00        
0330001300002Z70976E1FF6A2BACA9035083                                         PGTFORNB14022013900004165                                                                                                                               00        
0330001300003J00003396560900003905599513931700000104037360101DISTRIBUIDORA AUTOMOTIVA S/A  14022013000000000390559000000000000000000000000000000140220130000000003905590000000000000003899                900004166           09      00        
0330001300004Z70976E1566F471DBF7B619C                                         PGTFORNB14022013900004166                                                                                                                               00        
0330001300005J00003391560900000719209492147000000000545930104J FREITAS COM IMP E EXP LTDA  14022013000000000071920000000000000000000000000000000140220130000000000719200000000000000003911                900004167           09      00        
0330001300006Z70976E19C5ECBA4ED5097EC                                         PGTFORNB14022013900004167                                                                                                                               00        
0330001300007J00003397560900008273259482285400000091861820203JOFUND S/A                    14022013000000000827325000000000000000000000000000000140220130000000008273250000000000000003912                900004168           09      00        
0330001300008Z70976E111A91AEFCDE15E82                                         PGTFORNB14022013900004168                                                                                                                               00        
0330001300009J00003393560900000268309484311800000095549390104TRICO LATINOAMERICANA DO BRASI14022013000000000026830000000000000000000000000000000140220130000000000268300000000000000003923                900004169           09      00        
0330001300010Z70976E10B23C0523CBF2A94                                         PGTFORNB14022013900004169                                                                                                                               00        
03300015         000012000000000002019823000000000000000000300214                                                                                                                                                                               
03300021C2031030 2054375370001370033006500490028050300065 0000480000414 AUTO GERAL DE ITU LTDA                                                                              00000                                   00000000                    
0330002300001J00034195560900007724901128140596097648020084000ALKA IND AUTOPECAS LTDA       14022013000000000772490000000000000000000000000000000140220130000000007724900000000000000003882                900004170           09      00        
0330002300002Z70976E147F3F792C54B3EB7                                         PGTFORNB14022013900004170                                                                                                                               00        
0330002300003J00039995560900001295223005511139803430712744001DISTRIBUIDORA AUTOMOTIVA S/A  14022013000000000129522000000000000000000000000000000140220130000000001295220000000000000003900                900004186           09      00        
0330002300004Z70976E1CE741AED2D7C760D                                         PGTFORNB14022013900004186                                                                                                                               00        
0330002300005J00039993560900000411123005511203303430712744001DISTRIBUIDORA AUTOMOTIVA S/A  14022013000000000041112000000000000000000000000000000140220130000000000411120000000000000003901                900004187           09      00        
0330002300006Z70976E1AF83E1DE4121EB7F                                         PGTFORNB14022013900004187                                                                                                                               00        
0330002300007J00039991560900001860733005610517003430712744001DISTRIBUIDORA AUTOMOTIVA S/A  14022013000000000186073000000000000000000000000000000140220130000000001860730000000000000003902                900004188           09      00        
0330002300008Z70976E1AC9BA919A69A4ECD                                         PGTFORNB14022013900004188                                                                                                                               00        
0330002300009J00039995560900000326303005510833803430712744001DISTRIBUIDORA AUTOMOTIVA S/A  14022013000000000032630000000000000000000000000000000140220130000000000326300000000000000003903                900004189           09      00        
0330002300010Z70976E143F76C21756A4EA4                                         PGTFORNB14022013900004189                                                                                                                               00        
0330002300011J00039995560900000273613005511175403430712744001DISTRIBUIDORA AUTOMOTIVA S/A  14022013000000000027361000000000000000000000000000000140220130000000000273610000000000000003904                900004190           09      00        
0330002300012Z70976E1FF5B39409B1B3250                                         PGTFORNB14022013900004190                                                                                                                               00        
0330002300013J00023795560900000595853114091396134526801763000BANCO SAFRA S/A               14022013000000000059585000000000000000000000000000000140220130000000000595850000000000000003905                900004191           09      00        
0330002300014Z70976E12801DF135865E59C                                         PGTFORNB14022013900004191                                                                                                                               00        
0330002300015J00034198560900021752461128102216822938017569000FRAS-LE S/A                   14022013000000002175246000000000000000000000000000000140220130000000021752460000000000000003906                900004192           09      00        
0330002300016Z70976E1680F0DDB7977728F                                         PGTFORNB14022013900004192                                                                                                                               00        
0330002300017J00023793560900005388070530093031000000800042080FUNDICAO BATATAIS LTDA        14022013000000000538807000000000000000000000000000000140220130000000005388070000000000000003907                900004193           09      00        
0330002300018Z70976E14EAEA3EAB864DE81                                         PGTFORNB14022013900004193                                                                                                                               00        
0330002300019J00023791560900000881584130073030000047205005930FW DISTRIBUIDORA LTDA         14022013000000000088158000000000000000000000000000000140220130000000000881580000000000000003908                900004194           09      00        
0330002300020Z70976E143CD919BEB682263                                         PGTFORNB14022013900004194                                                                                                                               00        
0330002300021J00034195560900000194291090304479090109276204000GIRANDO COMERCIO DE PECAS LTDA14022013000000000019429000000000000000000000000000000140220130000000000194290000000000000003909                900004195           09      00        
0330002300022Z70976E18EBBD73D4AB5EA8C                                         PGTFORNB14022013900004195                                                                                                                               00        
0330002300023J00034193560900003700481090304473700109276204000GIRANDO COMERCIO DE PECAS LTDA14022013000000000370048000000000000000000000000000000140220130000000003700480000000000000003910                900004196           09      00        
0330002300024Z70976E179C12ADBAC2A30D8                                         PGTFORNB14022013900004196                                                                                                                               00        
0330002300025J00034191560900001907821128039221481446685057000KT COMP AUTOMOTIVOS LTDA      14022013000000000190782000000000000000000000000000000140220130000000001907820000000000000003913                900004197           09      00        
0330002300026Z70976E18ACF24B5DACAB836                                         PGTFORNB14022013900004197                                                                                                                               00        
0330002300027J00000195560900003173631675225057104700000290517METALURGICA ADAMANTINA LTDA   14022013000000000317363000000000000000000000000000000140220130000000003173630000000000000003916                900004200           09      00        
0330002300028Z70976E125022DD4C0CED4C4                                         PGTFORNB14022013900004200                                                                                                                               00        
0330002300029J00034194000000000000001219837555061012365225000PACAEMBU AUTO PECAS LTDA      14022013000000000024400000000000000000000000000000000140220130000000000244000000000000000003917                900004201           09      00        
0330002300030Z70976E1722A65D6FE7BF66B                                         PGTFORNB14022013900004201                                                                                                                               00        
0330002300031J00000191560900000126500000002108330000000723417PECA MAIS COMERCIO DE AUTO PEC14022013000000000012650000000000000000000000000000000140220130000000000126500000000000000003918                900004202           09      00        
0330002300032Z70976E1A558203BEB453A63                                         PGTFORNB14022013900004202                                                                                                                               00        
0330002300033J00039998560900000498048144669246104540096965001PELLEGRINO DISTRIBUIDORA DE AU14022013000000000049804000000000000000000000000000000140220130000000000498040000000000000003919                900004203           09      00        
0330002300034Z70976E16E488235918AE4B8                                         PGTFORNB14022013900004203                                                                                                                               00        
0330002300035J00039993560900002996643133521203005313093513001REAL MOTO PECAS LTDA          14022013000000000299664000000000000000000000000000000140220130000000002996640000000000000003920                900004204           09      00        
0330002300036Z70976E1BE8745C0AA04D732                                         PGTFORNB14022013900004204                                                                                                                               00        
0330002300037J00023793560900000379043395061180232895900028140ROCHESTER DISTRIBUIDORA DE AUT14022013000000000037904000000000000000000000000000000140220130000000000379040000000000000003921                900004205           09      00        
0330002300038Z70976E152FC36DFB2178277                                         PGTFORNB14022013900004205                                                                                                                               00        
0330002300039J00023798560900000271503392093021000015900682910SONNERVIG AUTOMOVEIS LTDA     14022013000000000027150000000000000000000000000000000140220130000000000271500000000000000003922                900004206           09      00        
0330002300040Z70976E10176790DD42B6737                                         PGTFORNB14022013900004206                                                                                                                               00        
0330002300041J00034191560900005791451128088908033184597502000UNIVERSAL AUTOMOTIVE SYSTEMS S14022013000000000579145000000000000000000000000000000140220130000000005791450000000000000003924                900004207           09      00        
0330002300042Z70976E14AF8C21BE582E385                                         PGTFORNB14022013900004207                                                                                                                               00        
0330002300043J00034193560900000130001091478134170513721555000VENANPECAS LTDA               14022013000000000013000000000000000000000000000000000140220130000000000130000000000000000003925                900004208           09      00        
0330002300044Z70976E1C68959095A30EFDE                                         PGTFORNB14022013900004208                                                                                                                               00        
0330002300045J00000198560900001970980000001148003000007300117VESPOR AUTOMOTIVE DIST DE AUTO14022013000000000197098000000000000000000000000000000140220130000000001970980000000000000003926                900004209           09      00        
0330002300046Z70976E16E8236FB6A3A47A1                                         PGTFORNB14022013900004209                                                                                                                               00        
0330002300047J00000198560900004682520000001291892000004644717VESPOR AUTOMOTIVE DIST DE AUTO14022013000000000468252000000000000000000000000000000140220130000000004682520000000000000003927                900004210           09      00        
0330002300048Z70976E1C7D9EFD0F299E93F                                         PGTFORNB14022013900004210                                                                                                                               00        
0330002300049J00000194560900000940700000001148003000007300017VESPOR AUTOMOTIVE DIST DE AUTO14022013000000000094070000000000000000000000000000000140220130000000000940700000000000000003928                900004211           09      00        
0330002300050Z70976E1454E76B02D56803C                                         PGTFORNB14022013900004211                                                                                                                               00        
0330002300051J00000193560900002418110000001148003000007300217VESPOR AUTOMOTIVE DIST DE AUTO14022013000000000241811000000000000000000000000000000140220130000000002418110000000000000003929                900004212           09      00        
0330002300052Z70976E17677E91EE4028CBA                                         PGTFORNB14022013900004212                                                                                                                               00        
0330002300053J00000192560900001147850000001148003000007299917VESPOR AUTOMOTIVE DIST DE AUTO14022013000000000114785000000000000000000000000000000140220130000000001147850000000000000003930                900004213           09      00        
0330002300054Z70976E107F60F202C81C19F                                         PGTFORNB14022013900004213                                                                                                                               00        
0330002300055J00039992560900000460351767635350004061860231001CAR CENTRAL DE AUTOPECAS E ROL14022013000000000046035000000000000000000000000000000140220130000000000460350000000000000003883                900004171           09      00        
0330002300056Z70976E1BD7C8492E643E50B                                         PGTFORNB14022013900004171                                                                                                                               00        
0330002300057J00000192560900000395970442641941219140000100711CDMD COM DE VEICULOS AUTOMOTOR14022013000000000039597000000000000000000000000000000140220130000000000395970000000000000003884                900004172           09      00        
0330002300058Z70976E10974F5CC2EBA879F                                         PGTFORNB14022013900004172                                                                                                                               00        
0330002300059J00034194560900000044501127755884300076000777000CENTER PECAS FABBRI LTDA      14022013000000000004450000000000000000000000000000000140220130000000000044500000000000000003885                900004173           09      00        
0330002300060Z70976E14C38A3900B763C0C                                         PGTFORNB14022013900004173                                                                                                                               00        
0330002300061J00034195560900000110501127755885210076000777000CENTER PECAS FABBRI LTDA      14022013000000000011050000000000000000000000000000000140220130000000000110500000000000000003886                900004174           09      00        
0330002300062Z70976E1886F7378A09241A9                                         PGTFORNB14022013900004174                                                                                                                               00        
0330002300063J00039991560900000113903200080030803436080189001COFIPE VEICULOS LTDA          14022013000000000011390000000000000000000000000000000140220130000000000113900000000000000003888                900004175           09      00        
0330002300064Z70976E1E49547007E36201F                                         PGTFORNB14022013900004175                                                                                                                               00        
0330002300065J00023795560900002938422002061301400644100829680COMERCIAL AUTOMOTIVA S.A.     14022013000000000293842000000000000000000000000000000140220130000000002938420000000000000003889                900004176           09      00        
0330002300066Z70976E1F901ACB8877E8955                                         PGTFORNB14022013900004176                                                                                                                               00        
0330002300067J00023791560900000191742002061301402922100829680COMERCIAL AUTOMOTIVA S.A.     14022013000000000019174000000000000000000000000000000140220130000000000191740000000000000003890                900004177           09      00        
0330002300068Z70976E1F1F8B3084A156379                                         PGTFORNB14022013900004177                                                                                                                               00        
0330002300069J00023793560900001801132002061301400641100829680COMERCIAL AUTOMOTIVA S.A.     14022013000000000180113000000000000000000000000000000140220130000000001801130000000000000003891                900004178           09      00        
0330002300070Z70976E19A7865919DFDEAF7                                         PGTFORNB14022013900004178                                                                                                                               00        
0330002300071J00023797560900001731472002061301400574100829680COMERCIAL AUTOMOTIVA S.A.     14022013000000000173147000000000000000000000000000000140220130000000001731470000000000000003892                900004179           09      00        
0330002300072Z70976E17B8037D46768A3FE                                         PGTFORNB14022013900004179                                                                                                                               00        
0330002300073J00023798560900001155362002061301400606100829680COMERCIAL AUTOMOTIVA S.A.     14022013000000000115536000000000000000000000000000000140220130000000001155360000000000000003893                900004180           09      00        
0330002300074Z70976E1F283AED176E683B3                                         PGTFORNB14022013900004180                                                                                                                               00        
0330002300075J00023791560900006318936348093007000116201024500DAYCO POWER TRANSMISSION      14022013000000000631893000000000000000000000000000000140220130000000006318930000000000000003894                900004181           09      00        
0330002300076Z70976E1925EEBA027E3F156                                         PGTFORNB14022013900004181                                                                                                                               00        
0330002300077J00034191560900000400271127413551462938036635000DAYCO POWER TRANSMISSION      14022013000000000040027000000000000000000000000000000140220130000000000400270000000000000003895                900004182           09      00        
0330002300078Z70976E17F943AFDF2CC8667                                         PGTFORNB14022013900004182                                                                                                                               00        
0330002300079J00034198560900000219031127413551532938036635000DAYCO POWER TRANSMISSION      14022013000000000021903000000000000000000000000000000140220130000000000219030000000000000003896                900004183           09      00        
0330002300080Z70976E1529998423E18F2D0                                         PGTFORNB14022013900004183                                                                                                                               00        
0330002300081J00023794560900015365880285093036000002800943470DISTRIBUIDORA BRASUL DE AUTOPE14022013000000001536588000000000000000000000000000000140220130000000015365880000000000000003897                900004184           09      00        
0330002300082Z70976E159A57272578B3A2D                                         PGTFORNB14022013900004184                                                                                                                               00        
0330002300083J00023799560900001047110285093036000002700943470DISTRIBUIDORA BRASUL DE AUTOPE14022013000000000104711000000000000000000000000000000140220130000000001047110000000000000003898                900004185           09      00        
0330002300084Z70976E1B89B66E3C27AFEA5                                         PGTFORNB14022013900004185                                                                                                                               00        
0330002300085J00023796560900000949651523191330440467100006070LX IND E COM DE AUTOPECAS LTDA14022013000000000094965000000000000000000000000000000140220130000000000949650000000000000003914                900004198           09      00        
0330002300086Z70976E18227F2CC9A42405F                                         PGTFORNB14022013900004198                                                                                                                               00        
0330002300087J00034192560900000781631127567624678351016152000MANDO MACHINERY LTDA          14022013000000000078163000000000000000000000000000000140220130000000000781630000000000000003915                900004199           09      00        
0330002300088Z70976E194153E3B0A0222AC                                         PGTFORNB14022013900004199                                                                                                                               00        
0330002300089J00039992560900000083961767960518604540079149001BANCO SOFISA SA               14022013000000000008396000000000000000000000000000000140220130000000000083960000000000000003931                900004214           09      00        
0330002300090Z70976E19D5C6C5401994C71                                         PGTFORNB14022013900004214                                                                                                                               00        
0330002300091J00039991560900000481661767960517804540079149001BANCO SOFISA SA               14022013000000000048166000000000000000000000000000000140220130000000000481660000000000000003932                900004215           09      00        
0330002300092Z70976E177746A0B869CC022                                         PGTFORNB14022013900004215                                                                                                                               00        
03300025         000094000000000010567485000000000000000000310214                                                                                                                                                                               
03399999         000002000108000000                                                                                                                                                                                                             
