03300000         2054375370001370033006500490028050300065 0000480000414 AUTO GERAL DE ITU LTDA        SANTANDER                               22410201202173700000606000000                                                                     
03300011C2030030 2054375370001370033006500490028050300065 0000480000414 AUTO GERAL DE ITU LTDA                                                                              00000                                   00000000                    
0330001300001J00003391549600000340209140743000000000904760203ROM COMERCIAL DE AUTO PECAS LT241020120000000000340200000000000000000000000000000002410201200000000003402000000000000000061                  900000332           09      00        
0330001300002Z70976E1AE87CEF335D0A28D                                         PGTFORNB24102012900000332                                                                                                                               00        
0330001300003J00035692549600000168660689070323410000004886240DISTRIBUIDORA AUTOMOTIVA S/A  241020120000000000168660000000000000000000000000000002410201200000000001686600000000000000051                  900000347           09      00        
0330001300004Z70976E1A8D1BAA9BC3A2218                                         PGTFORNB24102012900000347                                                                                                                               00        
0330001300005J00035697549600000411940689070323440000004886148DSITRIBUIDORA AUTOMOTIVA S.A. 241020120000000000411940000000000000000000000000000002410201200000000004119400000000000000053                  900000349           09      00        
0330001300006Z70976E1620F523F8403DA01                                         PGTFORNB24102012900000349                                                                                                                               00        
03300015         000008000000000000092080000000000000000000301024                                                                                                                                                                               
03300021C2031030 2054375370001370033006500490028050300065 0000480000414 AUTO GERAL DE ITU LTDA                                                                              00000                                   00000000                    
0330002300001J00000198549600009563880000001291892000004198517VESPOR AUTOMOTIVE DIST DE AUTO241020120000000009563880000000000000000000000000000002410201200000000095638800000000000000052                  900000348           09      00        
0330002300002Z70976E1ADFD259A231A13B8                                         PGTFORNB24102012900000348                                                                                                                               00        
0330002300003J00034195549600000049501124566518040076000777000CENTER PECAS FABBRI LTDA      241020120000000000049500000000000000000000000000000002410201200000000000495000000000000000037                  900000333           09      00        
0330002300004Z70976E12269006991465381                                         PGTFORNB24102012900000333                                                                                                                               00        
0330002300005J00023795549600000311803395090000004657400650000SORANA SUL                    241020120000000000311800000000000000000000000000000002410201200000000003118000000000000000038                  900000334           09      00        
0330002300006Z70976E1E26C9F4064B53951                                         PGTFORNB24102012900000334                                                                                                                               00        
0330002300007J00034191549600002815161122509218332938000052000EATON LTDA                    241020120000000002815160000000000000000000000000000002410201200000000028151600000000000000039                  900000335           09      00        
0330002300008Z70976E10B90E78116697A9B                                         PGTFORNB24102012900000335                                                                                                                               00        
0330002300009J00034198549600000210861122509220622938000052000EATON LTDA                    241020120000000000210860000000000000000000000000000002410201200000000002108600000000000000040                  900000336           09      00        
0330002300010Z70976E17888A0F5D6E2042E                                         PGTFORNB24102012900000336                                                                                                                               00        
0330002300011J00000193549600000976380000001597457122102146117PETROBRAS DISTRIBUIDORA       241020120000000000976380000000000000000000000000000002410201200000000009763800000000000000041                  900000337           09      00        
0330002300012Z70976E1D808E90A054CF080                                         PGTFORNB24102012900000337                                                                                                                               00        
0330002300013J00000199549600004251740000001597457122102145517PETROBRAS DISTRIBUIDORA       241020120000000004251740000000000000000000000000000002410201200000000042517400000000000000042                  900000338           09      00        
0330002300014Z70976E1747280F2ABDE6801                                         PGTFORNB24102012900000338                                                                                                                               00        
0330002300015J00000191549600008259620000001597457122102145817PETROBRAS DISTRIBUIDORA       241020120000000008259620000000000000000000000000000002410201200000000082596200000000000000043                  900000339           09      00        
0330002300016Z70976E101604AB578687E5D                                         PGTFORNB24102012900000339                                                                                                                               00        
0330002300017J00000196549600001313030000001597457122102145217PETROBRAS DISTRIBUIDORA       241020120000000001313030000000000000000000000000000002410201200000000013130300000000000000044                  900000340           09      00        
0330002300018Z70976E1168C53BBC7443C0B                                         PGTFORNB24102012900000340                                                                                                                               00        
0330002300019J00000191549600000269460000001597457122102146417PETROBRAS DISTRIBUIDORA       241020120000000000269460000000000000000000000000000002410201200000000002694600000000000000045                  900000341           09      00        
0330002300020Z70976E18BB38A3353C3C177                                         PGTFORNB24102012900000341                                                                                                                               00        
0330002300021J00023797549600000395150138092263000003201453000OBB CONSULTORIA E PARTICIPACOE241020120000000000395150000000000000000000000000000002410201200000000003951500000000000000046                  900000342           09      00        
0330002300022Z70976E15A12E29B2E1DDA4B                                         PGTFORNB24102012900000342                                                                                                                               00        
0330002300023J00023797549600001502963372097672311392600767230MAGGI VEICULOS LTDA           241020120000000001502960000000000000000000000000000002410201200000000015029600000000000000047                  900000343           09      00        
0330002300024Z70976E1D034FD59E3404E9F                                         PGTFORNB24102012900000343                                                                                                                               00        
0330002300025J00023791549600000468051316090000008743500009000APS DISTRIBUIDORA DE AUTOPECAS241020120000000000468050000000000000000000000000000002410201200000000004680500000000000000048                  900000344           09      00        
0330002300026Z70976E1F61BE33718829BAE                                         PGTFORNB24102012900000344                                                                                                                               00        
0330002300027J00000198549600000259080000002175416000002475517SK AUTOMOTIVE S/A DISTR AUTOPE241020120000000000259080000000000000000000000000000002410201200000000002590800000000000000049                  900000345           09      00        
0330002300028Z70976E1C0540935A536D089                                         PGTFORNB24102012900000345                                                                                                                               00        
0330002300029J00000191549600004941400000001148003000006757317VESPOR AUTOMOTIVE DIST DE AUTO241020120000000004941400000000000000000000000000000002410201200000000049414000000000000000054                  900000350           09      00        
0330002300030Z70976E150271299B869F78B                                         PGTFORNB24102012900000350                                                                                                                               00        
0330002300031J00039993549600000219421761649809611960078237001BAP AUTOMOTIVA LTDA           241020120000000000219420000000000000000000000000000002410201200000000002194200000000000000055                  900000351           09      00        
0330002300032Z70976E153CB99BD99B5914E                                         PGTFORNB24102012900000351                                                                                                                               00        
0330002300033J00039995549600004588478144664079804540096965001PELLEGRINO DISTR DE AUTO PECAS241020120000000004588470000000000000000000000000000002410201200000000045884700000000000000056                  900000352           09      00        
0330002300034Z70976E13ABEEAC3895BBC3F                                         PGTFORNB24102012900000352                                                                                                                               00        
0330002300035J00023791549600003540053372092250000066805187730RCD COMERCIO  E INDUSTRIA LTDA241020120000000003540050000000000000000000000000000002410201200000000035400500000000000000057                  900000353           09      00        
0330002300036Z70976E1E241026F734E6200                                         PGTFORNB24102012900000353                                                                                                                               00        
0330002300037J00034197549600000014711123489541682938030539000DELPHI AUTOM SYSTEMS BR LTDA  241020120000000000014710000000000000000000000000000002410201200000000000147100000000000000058                  900000354           09      00        
0330002300038Z70976E13EF8FA967CB6AE55                                         PGTFORNB24102012900000354                                                                                                                               00        
0330002300039J00034193549600004537591123489541922938030539000DELPHI AUTOM SYSTEMS BR LTDA  241020120000000004537590000000000000000000000000000002410201200000000045375900000000000000059                  900000355           09      00        
0330002300040Z70976E18A58DF835FB9C132                                         PGTFORNB24102012900000355                                                                                                                               00        
0330002300041J00034195549600000500731124815037072395000033000KOGA KOGA CIA LTDA            241020120000000000500730000000000000000000000000000002410201200000000005007300000000000000060                  900000356           09      00        
0330002300042Z70976E1E2B35272CFD74FAF                                         PGTFORNB24102012900000356                                                                                                                               00        
0330002300043J00000191549600001353170000001291892000004198817VESPOR AUTOMOTIVE DIST DE AUTO241020120000000001353170000000000000000000000000000002410201200000000013531700000000000000062                  900000357           09      00        
0330002300044Z70976E1A89213F7146F3AE3                                         PGTFORNB24102012900000357                                                                                                                               00        
0330002300045J00034191549600000100501124489174530076000777000CENTER PECAS FABBRI LTDA      241020120000000000100500000000000000000000000000000002410201200000000001005000000000000000063                  900000358           09      00        
0330002300046Z70976E1CC08392C8A9C35D5                                         PGTFORNB24102012900000358                                                                                                                               00        
0330002300047J00039995549600000412652053126561105313093513001REAL MOTO PECAS LTDA          241020120000000000412650000000000000000000000000000002410201200000000004126500000000000000050                  900000346           09      00        
0330002300048Z70976E1E8456E2230828D41                                         PGTFORNB24102012900000346                                                                                                                               00        
03300025         000050000000000005085536000000000000000000311024                                                                                                                                                                               
03399999         000002000060000000                                                                                                                                                                                                             
