03300000         2054375370001370033006500490028050300065 0000480000414 AUTO GERAL DE ITU LTDA        SANTANDER                               20502201313421600020206000000                                                                     
03300011C2011030 2054375370001370033006500490028050300065 0000480000414 AUTO GERAL DE ITU LTDA                                                                              00000                                   00000000                    
0330001300001O00083610000003168501103001685234300210005915015CIA PIRATININGA DE FORCA E LUZ05022013050220130000000000316853574                900003882                                                                               00        
0330001300002Z70976E1EB32104D0D30B72B                                         PGTFORNB05022013900003882                                                                                                                               00        
03300015         000004000000000000031685000000000000000000110205                                                                                                                                                                               
03399999         000001000006000000                                                                                                                                                                                                             
