03300000         2054375370001370033006500490028050300065 0000480000414 AUTO GERAL DE ITU LTDA        SANTANDER                               21012201204442000009206000000                                                                     
03300011C2030030 2054375370001370033006500490028050300065 0000480000414 AUTO GERAL DE ITU LTDA                                                                              00000                                   00000000                    
0330001300001J00003391554100000448009173505500000005462910203BODIPASA BOMBAS DIESEL PAULIST08122012000000000044800000000000000000000000000000000101220120000000000448000000000000000001570                900001863           09      00        
0330001300002Z70976E162C1D867D06AAAC8                                         PGTFORNB10122012900001863                                                                                                                               00        
0330001300003J00003397554100000513689558893600000000228290104NOVA GERA COMERCIO DE PECAS LT08122012000000000051368000000000000000000000000000000101220120000000000513680000000000000001577                900001864           09      00        
0330001300004Z70976E1F409E0AA4B0E1B61                                         PGTFORNB10122012900001864                                                                                                                               00        
0330001300005J00003393554100002676939145594000000030633130102NEVESCAR IND E COM DE AUTO PEC08122012000000000267693000000000000000000000000000000101220120000000002676930000000000000001580                900001865           09      00        
0330001300006Z70976E175DAA16D48F2C35D                                         PGTFORNB10122012900001865                                                                                                                               00        
0330001300007J00035696554300000456430689070323420000004892494DISTRIBUIDORA AUTOMOTIVA SA   10122012000000000045643000000000000000000000000000000101220120000000000456430000000000000001630                900001923           09      00        
0330001300008Z70976E172B2A82382190A54                                         PGTFORNB10122012900001923                                                                                                                               00        
0330001300009J00003391554300001405449421871000000000106220104AUTIMEX COM IMPORTACAO E EXPOR10122012000000000140544000000000000000000000000000000101220120000000001405440000000000000001615                900001866           09      00        
0330001300010Z70976E1A80A69554C2ECCEF                                         PGTFORNB10122012900001866                                                                                                                               00        
0330001300011J00003391554300001968109217864800000002056640104BELLOSA TOOLS IND E COMERCIO L10122012000000000196810000000000000000000000000000000101220120000000001968100000000000000001618                900001867           09      00        
0330001300012Z70976E1E205BDF27D24A783                                         PGTFORNB10122012900001867                                                                                                                               00        
0330001300013J00003391554300000614439513931700000103467160101DISTRIBUIDORA AUTOMOTIVA SA   10122012000000000061443000000000000000000000000000000101220120000000000614430000000000000001629                900001868           09      00        
0330001300014Z70976E10AD6632FB7E97CE6                                         PGTFORNB10122012900001868                                                                                                                               00        
0330001300015J00003395554300000014009213650300000171136600102SIND EMPR COM DE ITU E REGIAO 10122012000000000001400000000000000000000000000000000101220120000000000014000000000000000001682                900001860           09      00        
0330001300016Z70976E15C114C831184EDCB                                         PGTFORNB10122012900001860                                                                                                                               00        
0330001300017J00003398554300000021009213650300000171136790102SIND EMPR COM DE ITU E REGIAO 10122012000000000002100000000000000000000000000000000101220120000000000021000000000000000001683                900001861           09      00        
0330001300018Z70976E12B3B04722A4255BF                                         PGTFORNB10122012900001861                                                                                                                               00        
03300015         000020000000000000811801000000000000000000301210                                                                                                                                                                               
03300021C2031030 2054375370001370033006500490028050300065 0000480000414 AUTO GERAL DE ITU LTDA                                                                              00000                                   00000000                    
0330002300001J00023797554300007871150356192332000008900744460BELLUNO FUNDO DE INVESTIMENTOS10122012000000000787115000000000000000000000000000000101220120000000007871150000000000000001647                900001940           09      00        
0330002300002Z70976E17D906D2C80843554                                         PGTFORNB10122012900001940                                                                                                                               00        
0330002300003J00023791554300000263383394090000012622800324600MORELATE DISTR AUTOPECAS LTDA 10122012000000000026338000000000000000000000000000000101220120000000000263380000000000000001648                900001941           09      00        
0330002300004Z70976E15DACF2DD026A7EE6                                         PGTFORNB10122012900001941                                                                                                                               00        
0330002300005J00023791554300003401262500090256567971300000340ODAPEL DISTR DE AUTO PECAS LTD10122012000000000340126000000000000000000000000000000101220120000000003401260000000000000001649                900001942           09      00        
0330002300006Z70976E12438768B179F638D                                         PGTFORNB10122012900001942                                                                                                                               00        
0330002300007J00023791554300000100542500090256567973600000340ODAPEL DISTR DE AUTO PECAS LTD10122012000000000010054000000000000000000000000000000101220120000000000100540000000000000001650                900001943           09      00        
0330002300008Z70976E1DB6292B08EC5BA5D                                         PGTFORNB10122012900001943                                                                                                                               00        
0330002300009J00000199554200000437040000002206195442256264411POLO COMERCIO INTERNACIONAL LT09122012000000000043704000000000000000000000000000000101220120000000000437040000000000000001607                900001903           09      00        
0330002300010Z70976E1A57A239542AFEB8D                                         PGTFORNB10122012900001903                                                                                                                               00        
0330002300011J00023799554200000661123395061180232831800028140ROCHESTER DISTR DE AUTO PECAS 09122012000000000066112000000000000000000000000000000101220120000000000661120000000000000001608                900001904           09      00        
0330002300012Z70976E168901C4740A03B9A                                         PGTFORNB10122012900001904                                                                                                                               00        
0330002300013J00023797554200000640713395090000004829600650000SORANA SUL                    09122012000000000064071000000000000000000000000000000101220120000000000640710000000000000001609                900001905           09      00        
0330002300014Z70976E12B7E7715135EF487                                         PGTFORNB10122012900001905                                                                                                                               00        
0330002300015J00023795554200000180663395090000004940300650000SORANA SUL                    09122012000000000018066000000000000000000000000000000101220120000000000180660000000000000001610                900001906           09      00        
0330002300016Z70976E13FB33A7616A539AD                                         PGTFORNB10122012900001906                                                                                                                               00        
0330002300017J00000192554200002967650000001148003000006964817VESPOR AUTOMOTIVE DIST DE AUTO09122012000000000296765000000000000000000000000000000101220120000000002967650000000000000001611                900001907           09      00        
0330002300018Z70976E1CAA9698A2877F9E3                                         PGTFORNB10122012900001907                                                                                                                               00        
0330002300019J00000197554200000691280000001148003000006964717VESPOR AUTOMOTIVE DIST DE AUTO09122012000000000069128000000000000000000000000000000101220120000000000691280000000000000001612                900001908           09      00        
0330002300020Z70976E1D74B8EB4EB176A62                                         PGTFORNB10122012900001908                                                                                                                               00        
0330002300021J00000191554200002909000000001291892000004375517VESPOR AUTOMOTIVE DIST DE AUTO09122012000000000290900000000000000000000000000000000101220120000000002909000000000000000001613                900001909           09      00        
0330002300022Z70976E13B8A54AE3E482413                                         PGTFORNB10122012900001909                                                                                                                               00        
0330002300023J00000195554200001651960000001291892000004375017VESPOR AUTOMOTIVE DIST DE AUTO09122012000000000165196000000000000000000000000000000101220120000000001651960000000000000001614                900001910           09      00        
0330002300024Z70976E19A8FD531E578A5B2                                         PGTFORNB10122012900001910                                                                                                                               00        
0330002300025J00023791554300000221243371090000833720500719500AVEBRAZ COM DE VEICULOS E PECA10122012000000000022124000000000000000000000000000000101220120000000000221240000000000000001616                900001911           09      00        
0330002300026Z70976E1E8C45EE8E360AF1C                                         PGTFORNB10122012900001911                                                                                                                               00        
0330002300027J00023791554300000121353371090000833783500719500AVEBRAZ COM DE VEICULOS E PECA10122012000000000012135000000000000000000000000000000101220120000000000121350000000000000001617                900001912           09      00        
0330002300028Z70976E14AB807E0B27835F4                                         PGTFORNB10122012900001912                                                                                                                               00        
0330002300029J00023797554300005646192002061201375149100829680COMERCIAL AUTOMOTIVA S.A      10122012000000000564619000000000000000000000000000000101220120000000005646190000000000000001619                900001913           09      00        
0330002300030Z70976E1F23723A04D126D13                                         PGTFORNB10122012900001913                                                                                                                               00        
0330002300031J00023796554300002142682002061201375148100829680COMERCIAL AUTOMOTIVA S.A      10122012000000000214268000000000000000000000000000000101220120000000002142680000000000000001620                900001914           09      00        
0330002300032Z70976E1F374A6A26C021ED4                                         PGTFORNB10122012900001914                                                                                                                               00        
0330002300033J00023799554300002266732002061201374983100829680COMERCIAL AUTOMOTIVA S.A      10122012000000000226673000000000000000000000000000000101220120000000002266730000000000000001621                900001915           09      00        
0330002300034Z70976E139C1763426B33D25                                         PGTFORNB10122012900001915                                                                                                                               00        
0330002300035J00039999554300000261051764696730904061860231001CAR CENTRAL DE AUTOPECAS E ROL10122012000000000026105000000000000000000000000000000101220120000000000261050000000000000001622                900001916           09      00        
0330002300036Z70976E1CD925732ACB52CA2                                         PGTFORNB10122012900001916                                                                                                                               00        
0330002300037J00039994554300000412411764696733304061860231001CAR CENTRAL DE AUTOPECAS E ROL10122012000000000041241000000000000000000000000000000101220120000000000412410000000000000001623                900001917           09      00        
0330002300038Z70976E18C48AA2A1AC7ECED                                         PGTFORNB10122012900001917                                                                                                                               00        
0330002300039J00039992554300000771381764696770804061860231001CAR CENTRAL DE AUTOPECAS E ROL10122012000000000077138000000000000000000000000000000101220120000000000771380000000000000001624                900001918           09      00        
0330002300040Z70976E1E8773B5BA380BA0D                                         PGTFORNB10122012900001918                                                                                                                               00        
0330002300041J00039997554300000593121764663095901190014197001COMERCIAL DE AUTO PECAS EMBREP10122012000000000059312000000000000000000000000000000101220120000000000593120000000000000001625                900001919           09      00        
0330002300042Z70976E1794A084E67294E9A                                         PGTFORNB10122012900001919                                                                                                                               00        
0330002300043J00000194554300005042204584341686800370004790718DB DISTRIBUIDORA DE BATERIA LT10122012000000000504220000000000000000000000000000000101220120000000005042200000000000000001626                900001920           09      00        
0330002300044Z70976E1658E00CB8B7AAD35                                         PGTFORNB10122012900001920                                                                                                                               00        
0330002300045J00000196554300003734754584341686700370004790718DB DISTRIBUIDORA DE BATERIA LT10122012000000000373475000000000000000000000000000000101220120000000003734750000000000000001627                900001921           09      00        
0330002300046Z70976E1B4DA5EEB83BB0E3F                                         PGTFORNB10122012900001921                                                                                                                               00        
0330002300047J00034195554300000648661125334210722938030539000DELPHI  AUTOM SYSTEMS BR LTDA 10122012000000000064866000000000000000000000000000000101220120000000000648660000000000000001628                900001922           09      00        
0330002300048Z70976E15CFE4492DD1122AD                                         PGTFORNB10122012900001922                                                                                                                               00        
0330002300049J00034196554100000597811125750003391248021303000BANCO FIBRA SA                08122012000000000059781000000000000000000000000000000101220120000000000597810000000000000001571                900001869           09      00        
0330002300050Z70976E10693FB2EBBC908F0                                         PGTFORNB10122012900001869                                                                                                                               00        
0330002300051J00034191554300004529431126291793862938017569000FRAS LE S/A                   10122012000000000452943000000000000000000000000000000101220120000000004529430000000000000001633                900001926           09      00        
0330002300052Z70976E1706AFF0C7FF359F4                                         PGTFORNB10122012900001926                                                                                                                               00        
0330002300053J00023791554100000884160495092318000081300995600CAOA CAMINHOES LTDA           08122012000000000088416000000000000000000000000000000101220120000000000884160000000000000001572                900001870           09      00        
0330002300054Z70976E137DA0EB8E3EA3415                                         PGTFORNB10122012900001870                                                                                                                               00        
0330002300055J00034198554100000057201125842761930076000777000CENTER PECAS FABBRI LTDA      08122012000000000005720000000000000000000000000000000101220120000000000057200000000000000001573                900001871           09      00        
0330002300056Z70976E1927A6118EBFFEAA1                                         PGTFORNB10122012900001871                                                                                                                               00        
0330002300057J00034191554100000825771125403462052938000052000EATON  LTDA                   08122012000000000082577000000000000000000000000000000101220120000000000825770000000000000001574                900001872           09      00        
0330002300058Z70976E188439A925DA70BCA                                         PGTFORNB10122012900001872                                                                                                                               00        
0330002300059J00034198554100000127901125828340682938000052000EATON  LTDA                   08122012000000000012790000000000000000000000000000000101220120000000000127900000000000000001575                900001873           09      00        
0330002300060Z70976E1DFC3E51F5D86DC2F                                         PGTFORNB10122012900001873                                                                                                                               00        
0330002300061J00034191554100000168971125828326662938000052000EATON  LTDA                   08122012000000000016897000000000000000000000000000000101220120000000000168970000000000000001576                900001874           09      00        
0330002300062Z70976E1BE11DD4DB4FA0DBC                                         PGTFORNB10122012900001874                                                                                                                               00        
0330002300063J00034191554100000717261124837294172938107808000ELIVEL AUTOMOTORES LTDA       08122012000000000071726000000000000000000000000000000101220120000000000717260000000000000001578                900001875           09      00        
0330002300064Z70976E19EC50B4D7BABE6A2                                         PGTFORNB10122012900001875                                                                                                                               00        
0330002300065J00034199554100001527751126174606242938017569000FRAS LE S/A                   08122012000000000152775000000000000000000000000000000101220120000000001527750000000000000001579                900001876           09      00        
0330002300066Z70976E106E5B4FA5B0BE75F                                         PGTFORNB10122012900001876                                                                                                                               00        
0330002300067J00023791554100000458162500090256567814500000340ODAPEL DISTR DE AUTO PECAS LTD08122012000000000045816000000000000000000000000000000101220120000000000458160000000000000001581                900001877           09      00        
0330002300068Z70976E1E094A32AA06C6508                                         PGTFORNB10122012900001877                                                                                                                               00        
0330002300069J00023791554100000275862500090256567806400000340ODAPEL DISTR DE AUTO PECAS LTD08122012000000000027586000000000000000000000000000000101220120000000000275860000000000000001582                900001878           09      00        
0330002300070Z70976E1E9AE1FB635026965                                         PGTFORNB10122012900001878                                                                                                                               00        
0330002300071J00023799554100000746163395061180232829100028140ROCHESTER DISTR DE AUTO PECAS 08122012000000000074616000000000000000000000000000000101220120000000000746160000000000000001583                900001879           09      00        
0330002300072Z70976E19A1C8165845235E3                                         PGTFORNB10122012900001879                                                                                                                               00        
0330002300073J00034194554200000233821124951695600237417159000ACCIOLY SA IMP E COM          09122012000000000023382000000000000000000000000000000101220120000000000233820000000000000001584                900001880           09      00        
0330002300074Z70976E11A34672D83BB9943                                         PGTFORNB10122012900001880                                                                                                                               00        
0330002300075J00034191554200000480061125481344210237417159000ACCIOLY SA IMP E COM          09122012000000000048006000000000000000000000000000000101220120000000000480060000000000000001585                900001881           09      00        
0330002300076Z70976E1D5E57C017C8E7CB5                                         PGTFORNB10122012900001881                                                                                                                               00        
0330002300077J00034191554200000045841125743972980076000777000CENTER PECAS FABBRI LTDA      09122012000000000004584000000000000000000000000000000101220120000000000045840000000000000001586                900001882           09      00        
0330002300078Z70976E110EF6D9FE9B23E73                                         PGTFORNB10122012900001882                                                                                                                               00        
0330002300079J00034195554200000024001125743973060076000777000CENTER PECAS FABBRI LTDA      09122012000000000002400000000000000000000000000000000101220120000000000024000000000000000001587                900001883           09      00        
0330002300080Z70976E16A1C09FA945A5451                                         PGTFORNB10122012900001883                                                                                                                               00        
0330002300081J00034192554200002525081125502006152938000052000EATON  LTDA                   09122012000000000252508000000000000000000000000000000101220120000000002525080000000000000001588                900001884           09      00        
0330002300082Z70976E124E4FAEC436222BF                                         PGTFORNB10122012900001884                                                                                                                               00        
0330002300083J00034198554200000255721125473504812938000052000EATON  LTDA                   09122012000000000025572000000000000000000000000000000101220120000000000255720000000000000001589                900001885           09      00        
0330002300084Z70976E13B9E43BEC6AEA77A                                         PGTFORNB10122012900001885                                                                                                                               00        
0330002300085J00034193554200000164731125473502672938000052000EATON  LTDA                   09122012000000000016473000000000000000000000000000000101220120000000000164730000000000000001590                900001886           09      00        
0330002300086Z70976E13DCD18B54C449373                                         PGTFORNB10122012900001886                                                                                                                               00        
0330002300087J00034195554200000012271125473500512938000052000EATON  LTDA                   09122012000000000001227000000000000000000000000000000101220120000000000012270000000000000001591                900001887           09      00        
0330002300088Z70976E14A8A3B1F9C98E70D                                         PGTFORNB10122012900001887                                                                                                                               00        
0330002300089J00034192554200000285151125473503412938000052000EATON  LTDA                   09122012000000000028515000000000000000000000000000000101220120000000000285150000000000000001592                900001888           09      00        
0330002300090Z70976E16FD425B02A2C7A63                                         PGTFORNB10122012900001888                                                                                                                               00        
0330002300091J00023795554300003939582500090256567964900000340ODAPEL DISTR DE AUTO PECAS LTD10122012000000000393958000000000000000000000000000000101220120000000003939580000000000000001651                900001944           09      00        
0330002300092Z70976E15466833464C7B912                                         PGTFORNB10122012900001944                                                                                                                               00        
0330002300093J00039995554300000493008144666088804540096965001PELLEGRINO DIST DE AUTOPECAS L10122012000000000049300000000000000000000000000000000101220120000000000493000000000000000001652                900001945           09      00        
0330002300094Z70976E1147CE53B24490F10                                         PGTFORNB10122012900001945                                                                                                                               00        
0330002300095J00034198554300000872881126269385450191074004000POLIPECAS COMERCIAL E IMPORTAD10122012000000000087288000000000006110000000000000000101220120000000000811780000000000000001653                900001946           09      00        
0330002300096Z70976E1224CA64A347EACE5                                         PGTFORNB10122012900001946                                                                                                                               00        
0330002300097J00000196554300000363450000002096856000002163117PRV COM DE PECAS LTDA         10122012000000000036345000000000000000000000000000000101220120000000000363450000000000000001654                900001947           09      00        
0330002300098Z70976E19A2C5D03559748A6                                         PGTFORNB10122012900001947                                                                                                                               00        
0330002300099J00039995554300002619462315304407405313093513001REAL MOTO PECAS LTDA          10122012000000000261946000000000000000000000000000000101220120000000002619460000000000000001655                900001948           09      00        
0330002300100Z70976E131C0CBF574E987F5                                         PGTFORNB10122012900001948                                                                                                                               00        
0330002300101J00000198554300001823670000001244482993005360417RPT DISTR DE AUTO PCS         10122012000000000182367000000000000000000000000000000101220120000000001823670000000000000001656                900001949           09      00        
0330002300102Z70976E12C9B634D86703D3A                                         PGTFORNB10122012900001949                                                                                                                               00        
0330002300103J00023792554300007043200738092340000003200063200SARAIVA DISTR. AUTO PECAS LTDA10122012000000000704320000000000000000000000000000000101220120000000007043200000000000000001657                900001950           09      00        
0330002300104Z70976E13B8E90EFCEC65141                                         PGTFORNB10122012900001950                                                                                                                               00        
0330002300105J00000192554300006271160000002175416000002785217SK AUTOMOTIVE S/A DIST AUTOPEC10122012000000000627116000000000000000000000000000000101220120000000006271160000000000000001658                900001951           09      00        
0330002300106Z70976E1A48F3106DD3313E2                                         PGTFORNB10122012900001951                                                                                                                               00        
0330002300107J00000198554300001317220000002175416000002794117SK AUTOMOTIVE S/A DIST AUTOPEC10122012000000000131722000000000000000000000000000000101220120000000001317220000000000000001659                900001952           09      00        
0330002300108Z70976E1DA42E0951FC92A0B                                         PGTFORNB10122012900001952                                                                                                                               00        
0330002300109J00000191554300002250080000002175416000002784717SK AUTOMOTIVE S/A DIST AUTOPEC10122012000000000225008000000000000000000000000000000101220120000000002250080000000000000001660                900001953           09      00        
0330002300110Z70976E1A9B7CDB1EEE26D84                                         PGTFORNB10122012900001953                                                                                                                               00        
0330002300111J00000194554300001223340000002175416000002784917SK AUTOMOTIVE S/A DIST AUTOPEC10122012000000000122334000000000000000000000000000000101220120000000001223340000000000000001661                900001954           09      00        
0330002300112Z70976E15044B00A473E8D23                                         PGTFORNB10122012900001954                                                                                                                               00        
0330002300113J00034199554200000019371125473567282938000052000EATON  LTDA                   09122012000000000001937000000000000000000000000000000101220120000000000019370000000000000001593                900001889           09      00        
0330002300114Z70976E1EEB2A407B9908F4F                                         PGTFORNB10122012900001889                                                                                                                               00        
0330002300115J00034199554200001242231125473566602938000052000EATON  LTDA                   09122012000000000124223000000000000000000000000000000101220120000000001242230000000000000001594                900001890           09      00        
0330002300116Z70976E155AC139C1D94E815                                         PGTFORNB10122012900001890                                                                                                                               00        
0330002300117J00034198554200000115471125853618122938000052000EATON  LTDA                   09122012000000000011547000000000000000000000000000000101220120000000000115470000000000000001595                900001891           09      00        
0330002300118Z70976E153DCAE1F8D493735                                         PGTFORNB10122012900001891                                                                                                                               00        
0330002300119J00034192554200000502711125853618202938000052000EATON  LTDA                   09122012000000000050271000000000000000000000000000000101220120000000000502710000000000000001596                900001892           09      00        
0330002300120Z70976E13B6EC649FBAC07D1                                         PGTFORNB10122012900001892                                                                                                                               00        
0330002300121J00034197554200000747671124008343812938107808000ELIVEL AUTOMOTORES LTDA       09122012000000000074767000000000000000000000000000000101220120000000000747670000000000000001597                900001893           09      00        
0330002300122Z70976E12F50FDB6898EAF0A                                         PGTFORNB10122012900001893                                                                                                                               00        
0330002300123J00000196554200010731530442079427034040000443511IGASA SA IND E COM DE AUTO PEC09122012000000001073153000000000000000000000000000000101220120000000010731530000000000000001598                900001894           09      00        
0330002300124Z70976E158C231CEE26164DB                                         PGTFORNB10122012900001894                                                                                                                               00        
0330002300125J00039991554200000235601761936076103280030090001ITAVEMA ITALIA VEIC E MAQUINAS09122012000000000023560000000000000000000000000000000101220120000000000235600000000000000001599                900001895           09      00        
0330002300126Z70976E1ED732016058AAE17                                         PGTFORNB10122012900001895                                                                                                                               00        
0330002300127J00039991554200000502901763745026303280030090001ITAVEMA ITALIA VEIC E MAQUINAS09122012000000000050290000000000000000000000000000000101220120000000000502900000000000000001600                900001896           09      00        
0330002300128Z70976E103A2E3DA0BC4B60A                                         PGTFORNB10122012900001896                                                                                                                               00        
0330002300129J00023793554200000436871911092304000001500178030LNG IMP EXP DE AUTOPECAS LTDA 09122012000000000043687000000000000000000000000000000101220120000000000436870000000000000001601                900001897           09      00        
0330002300130Z70976E1F58056ECF7F2EE51                                         PGTFORNB10122012900001897                                                                                                                               00        
0330002300131J00000195554300001339190000001451450000034092417SK AUTOMOTIVE S/A DIST AUTOPEC10122012000000000133919000000000000000000000000000000101220120000000001339190000000000000001662                900001955           09      00        
0330002300132Z70976E1F45B3C817631782A                                         PGTFORNB10122012900001955                                                                                                                               00        
0330002300133J00023797554300000261320138092296000004401453000OBB CONSULTORIA E PARTICIPACOE10122012000000000026132000000000000000000000000000000101220120000000000261320000000000000001631                900001924           09      00        
0330002300134Z70976E19CD8BC263F41EDB1                                         PGTFORNB10122012900001924                                                                                                                               00        
0330002300135J00034191554300000115471125872142412938000052000EATON  LTDA                   10122012000000000011547000000000000000000000000000000101220120000000000115470000000000000001632                900001925           09      00        
0330002300136Z70976E16D9B4E9876245D1F                                         PGTFORNB10122012900001925                                                                                                                               00        
0330002300137J00034195554300000321551090304125310109276204000GIRANDO COMERCIO DE PECAS LTDA10122012000000000032155000000000000000000000000000000101220120000000000321550000000000000001634                900001927           09      00        
0330002300138Z70976E15B12BBBEF7D2243C                                         PGTFORNB10122012900001927                                                                                                                               00        
0330002300139J00034191554300001907371090304122670109276204000GIRANDO COMERCIO DE PECAS LTDA10122012000000000190737000000000000000000000000000000101220120000000001907370000000000000001635                900001928           09      00        
0330002300140Z70976E1669BCC51CD931150                                         PGTFORNB10122012900001928                                                                                                                               00        
0330002300141J00000191554300001359190000001451450000034087617SK AUTOMOTIVE S/A DIST AUTOPEC10122012000000000135919000000000000000000000000000000101220120000000001359190000000000000001663                900001956           09      00        
0330002300142Z70976E12F8FE858643A1F88                                         PGTFORNB10122012900001956                                                                                                                               00        
0330002300143J00000195554300000990550000001451450000034086717SK AUTOMOTIVE S/A DIST AUTOPEC10122012000000000099055000000000000000000000000000000101220120000000000990550000000000000001664                900001957           09      00        
0330002300144Z70976E106B56F9F430E95D0                                         PGTFORNB10122012900001957                                                                                                                               00        
0330002300145J00034193554300000207621125711949382938069560000TEMPO AUTOMOVEIS PECAS LTDA   10122012000000000020762000000000000000000000000000000101220120000000000207620000000000000001665                900001958           09      00        
0330002300146Z70976E1FDBE7648760CF554                                         PGTFORNB10122012900001958                                                                                                                               00        
0330002300147J00023796554300008013593178190000018234100421050TUPER DISTRIB. PROD. METALURGI10122012000000000801359000000000000000000000000000000101220120000000008013590000000000000001666                900001959           09      00        
0330002300148Z70976E1B09CDFC64B9697D4                                         PGTFORNB10122012900001959                                                                                                                               00        
0330002300149J00039994554300000110821764364073204540079149001BANCO SOFISA SA               10122012000000000011082000000000000000000000000000000101220120000000000110820000000000000001667                900001960           09      00        
0330002300150Z70976E14EBA7A44FAAD1EF8                                         PGTFORNB10122012900001960                                                                                                                               00        
0330002300151J00039991554300000503461764364074004540079149001BANCO SOFISA SA               10122012000000000050346000000000000000000000000000000101220120000000000503460000000000000001668                900001961           09      00        
0330002300152Z70976E121AC9D4AEB3CFEDC                                         PGTFORNB10122012900001961                                                                                                                               00        
0330002300153J00039997554300001308941764364075904540079149001BANCO SOFISA SA               10122012000000000130894000000000000000000000000000000101220120000000001308940000000000000001669                900001962           09      00        
0330002300154Z70976E196DF6EA5C3F75E5E                                         PGTFORNB10122012900001962                                                                                                                               00        
0330002300155J00039997554300000304231764364076704540079149001BANCO SOFISA SA               10122012000000000030423000000000000000000000000000000101220120000000000304230000000000000001670                900001963           09      00        
0330002300156Z70976E1556E9A2FD45EE87D                                         PGTFORNB10122012900001963                                                                                                                               00        
0330002300157J00034193554300008222431126223918140076004985000UNIMED SOROCABA COOP TRABALHO 10122012000000000822243000000000000000000000000000000101220120000000008222430000000000000001671                900001964           09      00        
0330002300158Z70976E134106A7B29DC501E                                         PGTFORNB10122012900001964                                                                                                                               00        
0330002300159J00040992554300000456005267115800100200071370125UNIMED SALTO/ITU COOP TRAB MED10122012000000000045600000000000000000000000000000000101220120000000000456000000000000000001672                900001965           09      00        
0330002300160Z70976E1DC36ACEE15EE551C                                         PGTFORNB10122012900001965                                                                                                                               00        
0330002300161J00040993554300012953365267115800100200071368643UNIMED SALTO/ITU COOP TRAB MED10122012000000001295336000000000000000000000000000000101220120000000012953360000000000000001673                900001966           09      00        
0330002300162Z70976E1530E13E5E8403AE6                                         PGTFORNB10122012900001966                                                                                                                               00        
0330002300163J00034193554300000842511570651126056260139677000ABDELNOR II COM COMB LTDA     10122012000000000084251000000000000000000000000000000101220120000000000842510000000000000001674                900001967           09      00        
0330002300164Z70976E16C9E56F19D3AABEA                                         PGTFORNB10122012900001967                                                                                                                               00        
0330002300165J00034196554300000335421570651213030278483557000AUTO POSTO ESTRADAO DE ITU LTD10122012000000000033542000000000000000000000000000000101220120000000000335420000000000000001675                900001968           09      00        
0330002300166Z70976E19FECDD5907C5238B                                         PGTFORNB10122012900001968                                                                                                                               00        
0330002300167J00023792000000000000002025062025186017400001600BARROS E FILHOS LTDA          10122012000000000129509000000000000000000000000000000101220120000000001295090000000000000001676                900001969           09      00        
0330002300168Z70976E154132EF6C7F41802                                         PGTFORNB10122012900001969                                                                                                                               00        
0330002300169J00034195554300000000001750173790808052145193000SIND EMPR COM DE ITU E REGIAO 10122012000000000063489000000000000000000000000000000101220120000000000634890000000000000001677                900001970           09      00        
0330002300170Z70976E179BF86AED54B6B22                                         PGTFORNB10122012900001970                                                                                                                               00        
0330002300171J00034197554300000000001750173790988052145193000SIND EMPR COM DE ITU E REGIAO 10122012000000000015357000000000000000000000000000000101220120000000000153570000000000000001678                900001971           09      00        
0330002300172Z70976E165432A613A8BE81F                                         PGTFORNB10122012900001971                                                                                                                               00        
0330002300173J00034197554300000000001750173791068052145193000SIND EMPR COM DE ITU E REGIAO 10122012000000000008262000000000000000000000000000000101220120000000000082620000000000000001679                900001972           09      00        
0330002300174Z70976E15EA7B976A5D778AE                                         PGTFORNB10122012900001972                                                                                                                               00        
0330002300175J00034191554300000000001750173981488052145193000SIND EMPR COM DE ITU E REGIAO 10122012000000000019189000000000000000000000000000000101220120000000000191890000000000000001680                900001973           09      00        
0330002300176Z70976E17CC24F2ED0384905                                         PGTFORNB10122012900001973                                                                                                                               00        
0330002300177J00034192554300000000001750173791148052145193000SIND EMPR COM DE ITU E REGIAO 10122012000000000010715000000000000000000000000000000101220120000000000107150000000000000001681                900001974           09      00        
0330002300178Z70976E11F279DE8A7FBDFE4                                         PGTFORNB10122012900001974                                                                                                                               00        
0330002300179J00034191554300000035001750171136538052144022000SIND EMPR COM DE ITU E REGIAO 10122012000000000003500000000000000000000000000000000101220120000000000035000000000000000001684                900001975           09      00        
0330002300180Z70976E1B3CCA5151D27800E                                         PGTFORNB10122012900001975                                                                                                                               00        
0330002300181J00034197554300000014001750171161858052144022000SIND EMPR COM DE ITU E REGIAO 10122012000000000001400000000000000000000000000000000101220120000000000014000000000000000001685                900001976           09      00        
0330002300182Z70976E1C6F7363C5AD2E246                                         PGTFORNB10122012900001976                                                                                                                               00        
0330002300183J00034191554300000000001750543753718052145193000SIND EMPR COM DE ITU E REGIAO 10122012000000000006426000000000000000000000000000000101220120000000000064260000000000000001686                900001977           09      00        
0330002300184Z70976E16D79179F1CE105F3                                         PGTFORNB10122012900001977                                                                                                                               00        
0330002300185J00010498554500000000008223381212031200300612098SIND DOS COND. DE VEICULOS ROD12122012000000000002900000000000000000000000000000000101220120000000000029000000000000000001688                900001978           09      00        
0330002300186Z70976E175FAFCC8701162C3                                         PGTFORNB10122012900001978                                                                                                                               00        
0330002300187J00034199554300000256261090304120690109276204000GIRANDO COMERCIO DE PECAS LTDA10122012000000000025626000000000000000000000000000000101220120000000000256260000000000000001636                900001929           09      00        
0330002300188Z70976E1FDF0F12D0591C3D2                                         PGTFORNB10122012900001929                                                                                                                               00        
0330002300189J00034192554300000131301090304120850109276204000GIRANDO COMERCIO DE PECAS LTDA10122012000000000013130000000000000000000000000000000101220120000000000131300000000000000001637                900001930           09      00        
0330002300190Z70976E1EC89EC3BF89644C2                                         PGTFORNB10122012900001930                                                                                                                               00        
0330002300191J00023798554200000281942709091323394919500148090GUETTI COML ATACADISTA LTDA   09122012000000000028194000000000000000000000000000000101220120000000000281940000000000000001638                900001931           09      00        
0330002300192Z70976E1ED335B083BC3C771                                         PGTFORNB10122012900001931                                                                                                                               00        
0330002300193J00000194554300000260000442353596828150001150031JANCAP COMERCIO IMPORTACAO E E10122012000000000026000000000000000000000000000000000101220120000000000260000000000000000001639                900001932           09      00        
0330002300194Z70976E1BD01654378FA15D7                                         PGTFORNB10122012900001932                                                                                                                               00        
0330002300195J00000191554300002611330442741535833330001000111KOGA KOGA CIA LTDA            10122012000000000261133000000000000000000000000000000101220120000000002611330000000000000001640                900001933           09      00        
0330002300196Z70976E155A7819CDB196557                                         PGTFORNB10122012900001933                                                                                                                               00        
0330002300197J00034197554300000121421126219169002395022557000KOGA KOGA CIA LTDA            10122012000000000012142000000000000000000000000000000101220120000000000121420000000000000001641                900001934           09      00        
0330002300198Z70976E1A021E8AD699CD3CB                                         PGTFORNB10122012900001934                                                                                                                               00        
0330002300199J00034194554300001421891126219169262395022557000KOGA KOGA CIA LTDA            10122012000000000142189000000000000000000000000000000101220120000000001421890000000000000001642                900001935           09      00        
0330002300200Z70976E1B777E48ED949A78F                                         PGTFORNB10122012900001935                                                                                                                               00        
0330002300201J00034196554300000247491126219169342395022557000KOGA KOGA CIA LTDA            10122012000000000024749000000000000000000000000000000101220120000000000247490000000000000001643                900001936           09      00        
0330002300202Z70976E188DCF8A75371CE03                                         PGTFORNB10122012900001936                                                                                                                               00        
0330002300203J00023791554300000105603372090000005623900584500MAGGI CAMINHOES LTDA          10122012000000000010560000000000000000000000000000000101220120000000000105600000000000000001644                900001937           09      00        
0330002300204Z70976E11F330ACF0151CAE2                                         PGTFORNB10122012900001937                                                                                                                               00        
0330002300205J00023798554300000847003372097672311502600767230MAGGI VEICULOS LTDA           10122012000000000084700000000000000000000000000000000101220120000000000847000000000000000001645                900001938           09      00        
0330002300206Z70976E1B6B4144EE6C5F185                                         PGTFORNB10122012900001938                                                                                                                               00        
0330002300207J00023795554300002351003372097672311505800767230MAGGI VEICULOS LTDA           10122012000000000235100000000000000000000000000000000101220120000000002351000000000000000001646                900001939           09      00        
0330002300208Z70976E180E2A6405E6B919A                                         PGTFORNB10122012900001939                                                                                                                               00        
0330002300209J00023798554200000588183394090000012542700324600MORELATE DISTR AUTOPECAS LTDA 09122012000000000058818000000000000000000000000000000101220120000000000588180000000000000001602                900001898           09      00        
0330002300210Z70976E12155E2A46B0DD324                                         PGTFORNB10122012900001898                                                                                                                               00        
0330002300211J00034192554200000198991126171956426676980086000NOVA DISTR DE VEICULOS LTDA   09122012000000000019899000000000000000000000000000000101220120000000000198990000000000000001603                900001899           09      00        
0330002300212Z70976E15AC8043025C0709C                                         PGTFORNB10122012900001899                                                                                                                               00        
0330002300213J00023799554200000414552500090256567916300000340ODAPEL DISTR DE AUTO PECAS LTD09122012000000000041455000000000000000000000000000000101220120000000000414550000000000000001604                900001900           09      00        
0330002300214Z70976E1C54E038D10B218EF                                         PGTFORNB10122012900001900                                                                                                                               00        
0330002300215J00023799554200001756322500090256567938600000340ODAPEL DISTR DE AUTO PECAS LTD09122012000000000175632000000000000000000000000000000101220120000000001756320000000000000001605                900001901           09      00        
0330002300216Z70976E1268583CE960CE877                                         PGTFORNB10122012900001901                                                                                                                               00        
0330002300217J00000193554200001190840000001236468442256257911POLO COMERCIO INTERNACIONAL LT09122012000000000119084000000000000000000000000000000101220120000000001190840000000000000001606                900001902           09      00        
0330002300218Z70976E1E8124AE09A0BE8D0                                         PGTFORNB10122012900001902                                                                                                                               00        
03300025         000220000000000015621550000000000000000000311210                                                                                                                                                                               
03300031C2003031 2054375370001370033006500490028050300065 0000480000414 AUTO GERAL DE ITU LTDA                                                                              00000                                   00000000                    
0330003300001A0007002370327430000000034193 CERCENA SA IND METALURGICA    1691                10122012BRL000000000000000000000000358770900001862           10122012000000000358770                                        07          000        
0330003300002B   289423040000150                              00000                                                  00000000  101220120000000003587700000000000000000000000000000000000000000000000000000000000000000                00        
0330003300003Z70976E1DC30C3E43A26BA1B                                         PGTFORNB10122012900001862                                                                                                                               00        
03300035         000005000000000000358770000000000000000000031210                                                                                                                                                                               
03399999         000003000247000000                                                                                                                                                                                                             
