03300000         2054375370001370033006500490028050300065 0000480000414 AUTO GERAL DE ITU LTDA        SANTANDER                               23010201202272300001606000000                                                                     
03300011C2031030 2054375370001370033006500490028050300065 0000480000414 AUTO GERAL DE ITU LTDA                                                                              00000                                   00000000                    
0330001300001J00034192550200004107301090000128530257222000000RESIL COML INDUSTRIAL LTDA    3010201200000000041073000000000000000000000000000000030102012000000000410730000000000000000227                 900000517           09      00        
0330001300002Z70976E10D92CA631923FDED                                         PGTFORNB30102012900000517                                                                                                                               00        
0330001300003J00034197550200000384581093332230830046365078000FELICIO VIGORITO FILHOS LTDA  3010201200000000003845800000000000000000000000000000030102012000000000038458000000000000000232                 900000522           09      00        
0330001300004Z70976E1631342F8CFAF3F98                                         PGTFORNB30102012900000522                                                                                                                               00        
0330001300005J00000195550200001145480000001011760000003691418COMPEL DISTR E COM DE AUTO PEC3010201200000000011454800000000000000000000000000000030102012000000000114548000000000000000233                 900000523           09      00        
0330001300006Z70976E1E97BBEE461974E71                                         PGTFORNB30102012900000523                                                                                                                               00        
0330001300007J00023794550200000030003398190000021795801324600DIBRACAM COMERCIAL LTDA       3010201200000000000300000000000000000000000000000000030102012000000000003000000000000000000234                 900000524           09      00        
0330001300008Z70976E1C2746B50F4711B2D                                         PGTFORNB30102012900000524                                                                                                                               00        
0330001300009J00034192550200002722151090002762740278840913000CAPITAL EMBALAGENS DESCAT LTDA3010201200000000027221500000000000000000000000000000030102012000000000272215000000000000000235                 900000525           09      00        
0330001300010Z70976E162F335E848E09CE5                                         PGTFORNB30102012900000525                                                                                                                               00        
0330001300011J00023791550200001742593484092271000011401129000PETRONAS LUBRIFICANTES BRASIL 3010201200000000017425900000000000000000000000000000030102012000000000174259000000000000000236                 900000526           09      00        
0330001300012Z70976E132AB8DCCAF981E64                                         PGTFORNB30102012900000526                                                                                                                               00        
0330001300013J00023795550200000253880138092276000003201453000PETRONAS LUBRIFICANTES BRASIL 3010201200000000002538800000000000000000000000000000030102012000000000025388000000000000000237                 900000527           09      00        
0330001300014Z70976E1A77094A2AD3FBA97                                         PGTFORNB30102012900000527                                                                                                                               00        
0330001300015J00000191550200000310000000002391652000003502817DIP DOSTRIB DE PECAS LTDA     3010201200000000003100000000000000000000000000000000030102012000000000031000000000000000000238                 900000528           09      00        
0330001300016Z70976E13E1377B3A54F6F0A                                         PGTFORNB30102012900000528                                                                                                                               00        
0330001300017J00000191550200001475070000001244482993005107117RPT DISTRIBUIDORA DE AUTO PCS 3010201200000000014750700000000000000000000000000000030102012000000000147507000000000000000239                 900000529           09      00        
0330001300018Z70976E15560171A312378EA                                         PGTFORNB30102012900000529                                                                                                                               00        
0330001300019J00023791550200000345780545090000029069900705060TONINI DISTRIBUIDORA LTDA     3010201200000000003457800000000000000000000000000000030102012000000000034578000000000000000240                 900000530           09      00        
0330001300020Z70976E11E48CBFD12F579C1                                         PGTFORNB30102012900000530                                                                                                                               00        
0330001300021J00023795550200000278100545090000028855800705060TONINI DISTRIBUIDORA LTDA     3010201200000000002781000000000000000000000000000000030102012000000000027810000000000000000241                 900000531           09      00        
0330001300022Z70976E10868E35E4378B846                                         PGTFORNB30102012900000531                                                                                                                               00        
0330001300023J00000193550200000316030000002096856000001934417PRV COMERCIO DE PECAS LTDA    3010201200000000003160300000000000000000000000000000030102012000000000031603000000000000000242                 900000532           09      00        
0330001300024Z70976E14C13ED4CD8F0E10F                                         PGTFORNB30102012900000532                                                                                                                               00        
0330001300025J00039995550200000383482053134395705313093513001REAL MOTO PECAS LTDA          3010201200000000003834800000000000000000000000000000030102012000000000038348000000000000000243                 900000533           09      00        
0330001300026Z70976E1FA4E3FD956EA5F67                                         PGTFORNB30102012900000533                                                                                                                               00        
0330001300027J00023794550200000566672002061201363655100829680COMERCIAL AUTOMOTIVA S.A      3010201200000000005666700000000000000000000000000000030102012000000000056667000000000000000244                 900000534           09      00        
0330001300028Z70976E1093BDE47F7CB4E1C                                         PGTFORNB30102012900000534                                                                                                                               00        
0330001300029J00000196550200000202700441564724333620000200231B.A.P. AUTOMOTIVA LTDA        3010201200000000002027000000000000000000000000000000030102012000000000020270000000000000000245                 900000535           09      00        
0330001300030Z70976E1BD0F709312342B34                                         PGTFORNB30102012900000535                                                                                                                               00        
0330001300031J00034191550200000103651121763802130017749003000DOVAC INDUSTRIA E COM LTDA    3010201200000000001036500000000000984700000000000000030102012000000000000518000000000000000246                 900000536           09      00        
0330001300032Z70976E1344D343A0BE1D8DC                                         PGTFORNB30102012900000536                                                                                                                               00        
0330001300033J00039999550200008374522053128970705313093513001REAL MOTO PECAS LTDA          3010201200000000083745200000000000000000000000000000030102012000000000837452000000000000000247                 900000537           09      00        
0330001300034Z70976E17F4F727C7C34BF34                                         PGTFORNB30102012900000537                                                                                                                               00        
0330001300035J00034198000000000000001219795078041012365225000PACAEMBU AUTO PECAS LTDA      3010201200000000021474400000000000000000000000000000030102012000000000214744000000000000000248                 900000538           09      00        
0330001300036Z70976E12159EA1A03744F40                                         PGTFORNB30102012900000538                                                                                                                               00        
0330001300037J00034198000000000000001219795077961012365225000PACAEMBU AUTO PECAS LTDA      3010201200000000014183000000000000000000000000000000030102012000000000141830000000000000000249                 900000539           09      00        
0330001300038Z70976E1DD5162CB35828302                                         PGTFORNB30102012900000539                                                                                                                               00        
0330001300039J00034195550200001898361125042212610191074004000POLIPECAS COML E IMP LTDA     3010201200000000018983600000000001328900000000000000030102012000000000176547000000000000000250                 900000540           09      00        
0330001300040Z70976E1EA2BC52247B52162                                         PGTFORNB30102012900000540                                                                                                                               00        
0330001300041J00034192550200000311381123618676512938000052000EATON LTDA                    3010201200000000003113800000000000000000000000000000030102012000000000031138000000000000000228                 900000518           09      00        
0330001300042Z70976E1CE364279C9174783                                         PGTFORNB30102012900000518                                                                                                                               00        
0330001300043J00034197550200000243951124678907062938000052000EATON LTDA                    3010201200000000002439500000000000000000000000000000030102012000000000024395000000000000000229                 900000519           09      00        
0330001300044Z70976E19ECB65BE72E342E6                                         PGTFORNB30102012900000519                                                                                                                               00        
0330001300045J00034196550200000303001579990090138073000898000SDAP SOROCABA D A P LTDA ME   3010201200000000003030000000000000000000000000000000030102012000000000030300000000000000000230                 900000520           09      00        
0330001300046Z70976E1950A55619858A0FA                                         PGTFORNB30102012900000520                                                                                                                               00        
0330001300047J00034194550200000349841098887803960046365078000FELICIO VIGORITO FILHOS LTDA  3010201200000000003498400000000000000000000000000000030102012000000000034984000000000000000231                 900000521           09      00        
0330001300048Z70976E12F7025EE4BA460D5                                         PGTFORNB30102012900000521                                                                                                                               00        
03300015         000050000000000002918289000000000000000000311030                                                                                                                                                                               
03399999         000001000052000000                                                                                                                                                                                                             
