03300000         2054375370001370033006500490028050300065 0000480000414 AUTO GERAL DE ITU LTDA        SANTANDER                               21403201302200100026906000000                                                                     
03300011C2030030 2054375370001370033006500490028050300065 0000480000414 AUTO GERAL DE ITU LTDA                                                                              00000                                   00000000                    
0330001300001J00003391563700007029789472544100000001164320104CINPAL CIA IND DE PECAS P/ AUT14032013000000000702978000000000000000000000000000000140320130000000007029780000000000000004848                900005128           09      00        
0330001300002Z70976E1683998756637B57A                                         PGTFORNB14032013900005128                                                                                                                               00        
0330001300003J00003394563700000326469513931700000104274140101DISTRIBUIDORA AUTOMOTIVA S.A. 14032013000000000032646000000000000000000000000000000140320130000000000326460000000000000004855                900005130           09      00        
0330001300004Z70976E1BD0F73D77BB86FEA                                         PGTFORNB14032013900005130                                                                                                                               00        
0330001300005J00003398563700000277859492147000000000573040104J FREITAS COM IMP E EXP LTDA  14032013000000000027785000000000000000000000000000000140320130000000000277850000000000000004860                900005131           09      00        
0330001300006Z70976E1874C1CFF80600A14                                         PGTFORNB14032013900005131                                                                                                                               00        
0330001300007J00035697563700000373800689070323490000005579051DISTRIBUIDORA AUTOMOTIVA S.A. 14032013000000000037380000000000000000000000000000000140320130000000000373800000000000000004854                900005140           09      00        
0330001300008Z70976E1AB8F264EA95EAF87                                         PGTFORNB14032013900005140                                                                                                                               00        
0330001300009J00035695563700000188910689070323430000003265832DISTRIBUIDORA AUTOMOTIVA S.A. 14032013000000000018891000000000000000000000000000000140320130000000000188910000000000000004856                900005141           09      00        
0330001300010Z70976E1A41BF22B6ED77EB5                                         PGTFORNB14032013900005141                                                                                                                               00        
0330001300011J00035691563700000132900689070323400000003265975DISTRIBUIDORA AUTOMOTIVA S.A. 14032013000000000013290000000000000000000000000000000140320130000000000132900000000000000004857                900005142           09      00        
0330001300012Z70976E162A0DDC64CDD1703                                         PGTFORNB14032013900005142                                                                                                                               00        
0330001300013J00003399563700000858139472544100000001164670104CINPAL CIA IND DE PECAS P/ AUT14032013000000000085813000000000000000000000000000000140320130000000000858130000000000000004849                900005129           09      00        
0330001300014Z70976E116EBA906C644DB93                                         PGTFORNB14032013900005129                                                                                                                               00        
03300015         000016000000000000918783000000000000000000300314                                                                                                                                                                               
03300021C2031030 2054375370001370033006500490028050300065 0000480000414 AUTO GERAL DE ITU LTDA                                                                              00000                                   00000000                    
0330002300001J00034197563700000183311090304619420109276204000GIRANDO COMERCIO DE PECAS LTDA14032013000000000018331000000000000000000000000000000140320130000000000183310000000000000004858                900005143           09      00        
0330002300002Z70976E191B6F82230AC8C04                                         PGTFORNB14032013900005143                                                                                                                               00        
0330002300003J00023793563700003976792002061301410132100829680COMERCIAL AUTOMOTIVA S.A.     14032013000000000397679000000000000000000000000000000140320130000000003976790000000000000004850                900005136           09      00        
0330002300004Z70976E187E37BECE20FEA9D                                         PGTFORNB14032013900005136                                                                                                                               00        
0330002300005J00023795563700000176372002061301410013100829680COMERCIAL AUTOMOTIVA S.A.     14032013000000000017637000000000000000000000000000000140320130000000000176370000000000000004851                900005137           09      00        
0330002300006Z70976E1FAA8EDCF18360D52                                         PGTFORNB14032013900005137                                                                                                                               00        
0330002300007J00023794563700000258492002061301409939100829680COMERCIAL AUTOMOTIVA S.A.     14032013000000000025849000000000000000000000000000000140320130000000000258490000000000000004852                900005138           09      00        
0330002300008Z70976E133FE05801746EC86                                         PGTFORNB14032013900005138                                                                                                                               00        
0330002300009J00023795563700000384272002061301409938100829680COMERCIAL AUTOMOTIVA S.A.     14032013000000000038427000000000000000000000000000000140320130000000000384270000000000000004853                900005139           09      00        
0330002300010Z70976E17305D2AB39ED642B                                         PGTFORNB14032013900005139                                                                                                                               00        
0330002300011J00034199563700000252511090304619340109276204000GIRANDO COMERCIO DE PECAS LTDA14032013000000000025251000000000000000000000000000000140320130000000000252510000000000000004859                900005144           09      00        
0330002300012Z70976E117B5F3B7CEA3EAF1                                         PGTFORNB14032013900005144                                                                                                                               00        
0330002300013J00000193563700004623610444957492634280000630911JOFUND S/A                    14032013000000000462361000000000000000000000000000000140320130000000004623610000000000000004861                900005145           09      00        
0330002300014Z70976E190C68908A595D869                                         PGTFORNB14032013900005145                                                                                                                               00        
0330002300015J00034198563700001864001128875459552395022557000KOGA KOGA CIA LTDA            14032013000000000186400000000000000000000000000000000140320130000000001864000000000000000004862                900005146           09      00        
0330002300016Z70976E164A95479AEB408D5                                         PGTFORNB14032013900005146                                                                                                                               00        
0330002300017J00034191563700000219801128097812172938025125000MAHLE METAL LEVE S/A          14032013000000000021980000000000000000000000000000000140320130000000000219800000000000000004863                900005147           09      00        
0330002300018Z70976E17B5B0D657C1C91FA                                         PGTFORNB14032013900005147                                                                                                                               00        
0330002300019J00034193563700000434981128097811912938025125000MAHLE METAL LEVE S/A          14032013000000000043498000000000000000000000000000000140320130000000000434980000000000000004864                900005148           09      00        
0330002300020Z70976E172F192099893C2DF                                         PGTFORNB14032013900005148                                                                                                                               00        
0330002300021J00034193000000000000001219866884231012365225000PACAEMBU AUTO PECAS LTDA      14032013000000000044778000000000000000000000000000000140320130000000000447780000000000000004872                900005156           09      00        
0330002300022Z70976E14693EEDEDCE7B364                                         PGTFORNB14032013900005156                                                                                                                               00        
0330002300023J00039998563700002989852696556025304540096965001PELLEGRINO DISTRIBUIDORA DE AU14032013000000000298985000000000000000000000000000000140320130000000002989850000000000000004873                900005157           09      00        
0330002300024Z70976E1F45E88E2BCC7622C                                         PGTFORNB14032013900005157                                                                                                                               00        
0330002300025J00039991563700001043008144670792204540096965001PELLEGRINO DISTRIBUIDORA DE AU14032013000000000104300000000000000000000000000000000140320130000000001043000000000000000004874                900005158           09      00        
0330002300026Z70976E17ACE2C197CAE203F                                         PGTFORNB14032013900005158                                                                                                                               00        
0330002300027J00039999563700001852972696555984004540096965001PELLEGRINO DISTRIBUIDORA DE AU14032013000000000185297000000000000000000000000000000140320130000000001852970000000000000004875                900005159           09      00        
0330002300028Z70976E1EAEF886564B2D5E8                                         PGTFORNB14032013900005159                                                                                                                               00        
0330002300029J00039996563700000762988144670721304540096965001PELLEGRINO DISTRIBUIDORA DE AU14032013000000000076298000000000000000000000000000000140320130000000000762980000000000000004876                900005160           09      00        
0330002300030Z70976E19D15F235CF4EDEF8                                         PGTFORNB14032013900005160                                                                                                                               00        
0330002300031J00034194563700000054771128097812092938025125000MAHLE METAL LEVE S/A          14032013000000000005477000000000000000000000000000000140320130000000000054770000000000000004865                900005149           09      00        
0330002300032Z70976E12D939EA48A2E4DAD                                         PGTFORNB14032013900005149                                                                                                                               00        
0330002300033J00034198563700000651761128097811002938025125000MAHLE METAL LEVE S/A          14032013000000000065176000000000000000000000000000000140320130000000000651760000000000000004866                900005150           09      00        
0330002300034Z70976E1EA37C71340471115                                         PGTFORNB14032013900005150                                                                                                                               00        
0330002300035J00034196563700000078321128097811262938025125000MAHLE METAL LEVE S/A          14032013000000000007832000000000000000000000000000000140320130000000000078320000000000000004867                900005151           09      00        
0330002300036Z70976E1E453B9FA5611BCB8                                         PGTFORNB14032013900005151                                                                                                                               00        
0330002300037J00034199563700000110251128097811182938025125000MAHLE METAL LEVE S/A          14032013000000000011025000000000000000000000000000000140320130000000000110250000000000000004868                900005152           09      00        
0330002300038Z70976E12C9C27C37FEB0421                                         PGTFORNB14032013900005152                                                                                                                               00        
0330002300039J00004198563700007565592118022997501000075604110MAZI AUTOMOTIVA LTDA          14032013000000000756559000000000000000000000000000000140320130000000007565590000000000000004869                900005153           09      00        
0330002300040Z70976E15FEC353AD406D800                                         PGTFORNB14032013900005153                                                                                                                               00        
0330002300041J00034197563700001975001128802954590018215004000MEF SUL C I EXPORTACAO LTDA   14032013000000000197500000000000000000000000000000000140320130000000001975000000000000000004870                900005154           09      00        
0330002300042Z70976E1C7056B586D68E482                                         PGTFORNB14032013900005154                                                                                                                               00        
0330002300043J00023794563700000328042078093063000004100013000DAVOS FOMENTO COMERCIAL LTDA  14032013000000000032804000000000000000000000000000000140320130000000000328040000000000000004871                900005155           09      00        
0330002300044Z70976E1BFC35DC60E125913                                         PGTFORNB14032013900005155                                                                                                                               00        
0330002300045J00023795563700000356343114091396487018501763000BODIPASA BOMBAS DIESEL PAULIST14032013000000000035634000000000000000000000000000000140320130000000000356340000000000000004844                900005132           09      00        
0330002300046Z70976E1095471FFB7D13E26                                         PGTFORNB14032013900005132                                                                                                                               00        
0330002300047J00039992563700000365511770102445104061860231001CAR CENTRAL DE AUTOPECAS E ROL14032013000000000036551000000000000000000000000000000140320130000000000365510000000000000004845                900005133           09      00        
0330002300048Z70976E18CA3C592B2A08E82                                         PGTFORNB14032013900005133                                                                                                                               00        
0330002300049J00039991563700000406168144670762004540096965001PELLEGRINO DISTRIBUIDORA DE AU14032013000000000040616000000000000000000000000000000140320130000000000406160000000000000004877                900005161           09      00        
0330002300050Z70976E179B4A74B8F10C25C                                         PGTFORNB14032013900005161                                                                                                                               00        
0330002300051J00023796563700000656923484093045000020801129000PETRONAS LUBRIFICANTES BRASIL 14032013000000000065692000000000000000000000000000000140320130000000000656920000000000000004878                900005162           09      00        
0330002300052Z70976E199CD0052CDAB936B                                         PGTFORNB14032013900005162                                                                                                                               00        
0330002300053J00023794563700000401963684190000020119700673000POLIPECAS DISTRIBUIDORA AUTOMO14032013000000000040196000000000000000000000000000000140320130000000000401960000000000000004879                900005163           09      00        
0330002300054Z70976E1D0459D92D5A2FA0D                                         PGTFORNB14032013900005163                                                                                                                               00        
0330002300055J00023791563700000830623684190000020117300673000POLIPECAS DISTRIBUIDORA AUTOMO14032013000000000083062000000000000000000000000000000140320130000000000830620000000000000004880                900005164           09      00        
0330002300056Z70976E1CCE8FF3190562866                                         PGTFORNB14032013900005164                                                                                                                               00        
0330002300057J00023794563700000428143684190000020120300673000POLIPECAS DISTRIBUIDORA AUTOMO14032013000000000042814000000000000000000000000000000140320130000000000428140000000000000004881                900005165           09      00        
0330002300058Z70976E10647A82A08F0C673                                         PGTFORNB14032013900005165                                                                                                                               00        
0330002300059J00000196563700001272000000002226112444966434611POWER STOP INDUSTRIA E COMERCI14032013000000000127200000000000000000000000000000000140320130000000001272000000000000000004882                900005166           09      00        
0330002300060Z70976E1DE1AD292D909AF3F                                         PGTFORNB14032013900005166                                                                                                                               00        
0330002300061J00023792563700000557923395061180232923900028140ROCHESTER DISTRIBUIDORA DE AUT14032013000000000055792000000000000000000000000000000140320130000000000557920000000000000004883                900005167           09      00        
0330002300062Z70976E1DD27A3F8DF3AD76C                                         PGTFORNB14032013900005167                                                                                                                               00        
0330002300063J00000191563700000760480000001451450000037552217SK AUTOMOTIVE S/A DISTR AUTOPE14032013000000000076048000000000000000000000000000000140320130000000000760480000000000000004884                900005168           09      00        
0330002300064Z70976E145A48715E9B9FCA5                                         PGTFORNB14032013900005168                                                                                                                               00        
0330002300065J00000197563700003413880000002175416000003538417SK AUTOMOTIVE S/A DISTR AUTOPE14032013000000000341388000000000000000000000000000000140320130000000003413880000000000000004885                900005169           09      00        
0330002300066Z70976E11703066FF8B60362                                         PGTFORNB14032013900005169                                                                                                                               00        
0330002300067J00000193563700000862820000002175416000003529817SK AUTOMOTIVE S/A DISTR AUTOPE14032013000000000086282000000000000000000000000000000140320130000000000862820000000000000004886                900005170           09      00        
0330002300068Z70976E164E2CBD2CBA53D30                                         PGTFORNB14032013900005170                                                                                                                               00        
0330002300069J00000192563700001109910000002175416000003530917SK AUTOMOTIVE S/A DISTR AUTOPE14032013000000000110991000000000000000000000000000000140320130000000001109910000000000000004887                900005171           09      00        
0330002300070Z70976E1E2DE3E12C23AE292                                         PGTFORNB14032013900005171                                                                                                                               00        
0330002300071J00023796563700001550003178190000018354800421050SK AUTOMOTIVE S/A DISTR AUTOPE14032013000000000155000000000000000000000000000000000140320130000000001550000000000000000004888                900005172           09      00        
0330002300072Z70976E11C70220E53B746D0                                         PGTFORNB14032013900005172                                                                                                                               00        
0330002300073J00034191563700006833351128859801543184122228000UNIVERSAL AUTOMOTIVE SYSTEMS S14032013000000000683335000000000000000000000000000000140320130000000006833350000000000000004889                900005173           09      00        
0330002300074Z70976E138BF45B0F72C27A0                                         PGTFORNB14032013900005173                                                                                                                               00        
0330002300075J00023796563700003709101495090000013825900119200VALCLEI IND E COM LTDA        14032013000000000370910000000000000000000000000000000140320130000000003709100000000000000004890                900005174           09      00        
0330002300076Z70976E1C9286197F23C51FF                                         PGTFORNB14032013900005174                                                                                                                               00        
0330002300077J00000191563700001033200000001291892000004745917VESPOR AUTOMOTIVE DIST DE AUTO14032013000000000103320000000000000000000000000000000140320130000000001033200000000000000004891                900005175           09      00        
0330002300078Z70976E1C0C6894634ED7488                                         PGTFORNB14032013900005175                                                                                                                               00        
0330002300079J00039993563700000405271770102435404061860231001CAR CENTRAL DE AUTOPECAS E ROL14032013000000000040527000000000000000000000000000000140320130000000000405270000000000000004846                900005134           09      00        
0330002300080Z70976E1DD1699510D6DEC0D                                         PGTFORNB14032013900005134                                                                                                                               00        
0330002300081J00039991563700000206601770102441904061860231001CAR CENTRAL DE AUTOPECAS E ROL14032013000000000020660000000000000000000000000000000140320130000000000206600000000000000004847                900005135           09      00        
0330002300082Z70976E1D0C421CBEECF63B2                                         PGTFORNB14032013900005135                                                                                                                               00        
03300025         000084000000000005539462000000000000000000310314                                                                                                                                                                               
03300031C2003031 2054375370001370033006500490028050300065 0000480000414 AUTO GERAL DE ITU LTDA                                                                              00000                                   00000000                    
0330003300001A0007002370336770000000019291 MAX GEAR IND E COM DE AUTO PEC4892                14032013BRL000000000000000000000000454967900005126           14032013000000000454967                                        07          000        
0330003300002B   202821683000173                              00000                                                  00000000  140320130000000004549670000000000000000000000000000000000000000000000000000000000000000                00        
0330003300003Z70976E16D31FD924A553B5C                                         PGTFORNB14032013900005126                                                                                                                               00        
0330003300004A0007003410027800000000599279 REGINAVES IND E COM DE AVES   4893                14032013BRL000000000000000000000000025122900005127           14032013000000000025122                                        07          000        
0330003300005B   242234005000803                              00000                                                  00000000  140320130000000000251220000000000000000000000000000000000000000000000000000000000000000                00        
0330003300006Z70976E1ED2ECD55C3BEEB05                                         PGTFORNB14032013900005127                                                                                                                               00        
03300035         000008000000000000480089000000000000000000030314                                                                                                                                                                               
03399999         000003000110000000                                                                                                                                                                                                             
