03300000         2054375370001370033006500490028050300065 0000480000414 AUTO GERAL DE ITU LTDA        SANTANDER                               20711201202250200003106000000                                                                     
03300011C2030030 2054375370001370033006500490028050300065 0000480000414 AUTO GERAL DE ITU LTDA                                                                              00000                                   00000000                    
0330001300001J00003397551000000688809421259200000000347620101GUMP MOTORS COMPONENTES AUTOMO0711201200000000006888000000000000000000000000000000007112012000000000068880000000000000000519                 900000802           09      00        
0330001300002Z70976E11922737E459075D5                                         PGTFORNB07112012900000802                                                                                                                               00        
0330001300003J00035699551000000704760689070323450000004888085DISTRIBUIDORA AUTOMOTIVA LTDA 0711201200000000007047600000000000000000000000000000007112012000000000070476000000000000000514                 900000809           09      00        
0330001300004Z70976E1AD2D87FE9718E5AF                                         PGTFORNB07112012900000809                                                                                                                               00        
0330001300005J00035699551000000295770689070323420000004888096DISTRIBUIDORA AUTOMOTIVA LTDA 0711201200000000002957700000000000000000000000000000007112012000000000029577000000000000000515                 900000810           09      00        
0330001300006Z70976E132DE3AA1E9BEFDE2                                         PGTFORNB07112012900000810                                                                                                                               00        
0330001300007J00003391551000013833709148017000000001707710104IND E COM AUTO PECAS REI LTDA 0711201200000000138337000000000000000000000000000000007112012000000001383370000000000000000520                 900000803           09      00        
0330001300008Z70976E1DB854E2434268856                                         PGTFORNB07112012900000803                                                                                                                               00        
0330001300009J00003395551000005131009141963300000007083640201VALERIA DAVANSO AGUADO        0711201200000000051310000000000000000000000000000000007112012000000000513100000000000000000533                 900000804           09      00        
0330001300010Z70976E145F0478090E83015                                         PGTFORNB07112012900000804                                                                                                                               00        
03300015         000012000000000002065403000000000000000000301107                                                                                                                                                                               
03300021C2031030 2054375370001370033006500490028050300065 0000480000414 AUTO GERAL DE ITU LTDA                                                                              00000                                   00000000                    
0330002300001J00023798551000000395150138092263000003401453000OBB CONSULTORIA E PARTICIPACOE0711201200000000003951500000000000000000000000000000007112012000000000039515000000000000000516                 900000811           09      00        
0330002300002Z70976E16C22AFE2DB85A638                                         PGTFORNB07112012900000811                                                                                                                               00        
0330002300003J00023792551000000272960138092284000003501370000OBB CONSULTORIA E PARTICIPACOE0711201200000000002729600000000000000000000000000000007112012000000000027296000000000000000517                 900000812           09      00        
0330002300004Z70976E147BF8549F750ECAC                                         PGTFORNB07112012900000812                                                                                                                               00        
0330002300005J00034193551000000359921125010653150548006287000ELETROPAR AUTOPECAS LTDA      0711201200000000003599200000000000000000000000000000007112012000000000035992000000000000000518                 900000813           09      00        
0330002300006Z70976E1E134A2D090139ADA                                         PGTFORNB07112012900000813                                                                                                                               00        
0330002300007J00034198551000002280001125239491730018215004000MEF SUL C I EXPORTACAO LTDA   0711201200000000022800000000000000000000000000000000007112012000000000228000000000000000000521                 900000814           09      00        
0330002300008Z70976E15648650B02DAAEC1                                         PGTFORNB07112012900000814                                                                                                                               00        
0330002300009J00023797551000000420000136092284000003301269910MEMORIAL COMERCIO DE PECAS LTD0711201200000000004200000000000000000000000000000000007112012000000000042000000000000000000522                 900000815           09      00        
0330002300010Z70976E1066D1587AC37C846                                         PGTFORNB07112012900000815                                                                                                                               00        
0330002300011J00034191551000000807331561575409046906089823000MULTGEAR I SERV USIN LTDA EPP 0711201200000000008073300000000000000000000000000000007112012000000000080733000000000000000523                 900000816           09      00        
0330002300012Z70976E1B659D9BD76D12699                                         PGTFORNB07112012900000816                                                                                                                               00        
0330002300013J00034191551000002949291125309744200191074004000POLIPECAS COML E IMP LTDA     0711201200000000029492900000000002064500000000000000007112012000000000274284000000000000000524                 900000817           09      00        
0330002300014Z70976E1543F631D76D8C997                                         PGTFORNB07112012900000817                                                                                                                               00        
0330002300015J00000192551000000253000000001244482993004800517RPT DISTRIBUIDORA DE AUTO PECA0711201200000000002530000000000000000000000000000000007112012000000000025300000000000000000525                 900000818           09      00        
0330002300016Z70976E1E7E8D4FE7FEDB4B4                                         PGTFORNB07112012900000818                                                                                                                               00        
0330002300017J00034198551000000206601124783577783197239910000EDUARDO SARAIVA               0711201200000000002066000000000000000000000000000000007112012000000000020660000000000000000526                 900000819           09      00        
0330002300018Z70976E192B8F6EC2B4A789E                                         PGTFORNB07112012900000819                                                                                                                               00        
0330002300019J00000191551000000350000000001572502000001589617SHARK TRATORES E PECAS LTDA   0711201200000000003500000000000000000000000000000000007112012000000000035000000000000000000527                 900000820           09      00        
0330002300020Z70976E127861BCEE21E35A1                                         PGTFORNB07112012900000820                                                                                                                               00        
0330002300021J00023792551000000595983395090000004927100650000SORANA SUL                    0711201200000000005959800000000000000000000000000000007112012000000000059598000000000000000528                 900000821           09      00        
0330002300022Z70976E1B89DE3E943F5D72E                                         PGTFORNB07112012900000821                                                                                                                               00        
0330002300023J00023794551000000178913395090000004928500650000SORANA SUL                    0711201200000000001789100000000000000000000000000000007112012000000000017891000000000000000529                 900000822           09      00        
0330002300024Z70976E140FBADD4440FD796                                         PGTFORNB07112012900000822                                                                                                                               00        
0330002300025J00000198551000000952700441395013733260008018911T-PARTS COMERCIAL E IMPORTADOR0711201200000000009527000000000000000000000000000000007112012000000000095270000000000000000530                 900000823           09      00        
0330002300026Z70976E1FB3ECA08DA3E6657                                         PGTFORNB07112012900000823                                                                                                                               00        
0330002300027J00034194551000001087591124763163137646210281000TWINGLASS VIDROS LTDA         0711201200000000010875900000000000000000000000000000007112012000000000108759000000000000000531                 900000824           09      00        
0330002300028Z70976E15A627A33D2665BD6                                         PGTFORNB07112012900000824                                                                                                                               00        
0330002300029J00000197551000002608840441731398833400001200031UNIVERSAL AUTOMOTIVE SYSTEMS S0711201200000000026088400000000000000000000000000000007112012000000000260884000000000000000532                 900000825           09      00        
0330002300030Z70976E1A9C67135CC5EF7E0                                         PGTFORNB07112012900000825                                                                                                                               00        
0330002300031J00034191553900000010001092192339682938014558000SODEXO PASS DO BRASIL SERV E C0612201200000000000100000000000000000000000000000000007112012000000000001000000000000000000534                 900000826           09      00        
0330002300032Z70976E146DEDDE55052F2A2                                         PGTFORNB07112012900000826                                                                                                                               00        
0330002300033J00023798551000000264713371090000833642400719500AVEBRAZ COMERCIO DE VEICULOS E0711201200000000002647100000000000000000000000000000007112012000000000026471000000000000000510                 900000805           09      00        
0330002300034Z70976E1DB5B4CBB4C2C1B13                                         PGTFORNB07112012900000805                                                                                                                               00        
0330002300035J00034191551000000430401124863226650076000777000CENTER PECAS FABBRI LTDA      0711201200000000004304000000000000000000000000000000007112012000000000043040000000000000000511                 900000806           09      00        
0330002300036Z70976E12300AF4D90BB7DDD                                         PGTFORNB07112012900000806                                                                                                                               00        
0330002300037J00034198551000000055701124863226730076000777000CENTER PECAS FABBRI LTDA      0711201200000000000557000000000000000000000000000000007112012000000000005570000000000000000512                 900000807           09      00        
0330002300038Z70976E13AC716F89F484484                                         PGTFORNB07112012900000807                                                                                                                               00        
0330002300039J00000191551000000526000000001748318000003597417DIP DISTRIBUIDORA DE PECAS LTD0711201200000000005260000000000000000000000000000000007112012000000000052600000000000000000513                 900000808           09      00        
0330002300040Z70976E1FBC312D171C78A9B                                         PGTFORNB07112012900000808                                                                                                                               00        
03300025         000042000000000001479863000000000000000000311107                                                                                                                                                                               
03399999         000002000056000000                                                                                                                                                                                                             
