03300000         2054375370001370033006500490028050300065 0000480000414 AUTO GERAL DE ITU LTDA        SANTANDER                               21101201302180700015206000000                                                                     
03300011C2030030 2054375370001370033006500490028050300065 0000480000414 AUTO GERAL DE ITU LTDA                                                                              00000                                   00000000                    
0330001300001J00035694557500000901900689070323480000004897224DISTRIBUIDORA AUTOMOTIVA S/A  11012013000000000090190000000000000000000000000000000110120130000000000901900000000000000002783                900003066           09      00        
0330001300002Z70976E19C854B6749C7A175                                         PGTFORNB11012013900003066                                                                                                                               00        
03300015         000004000000000000090190000000000000000000300111                                                                                                                                                                               
03300021C2031030 2054375370001370033006500490028050300065 0000480000414 AUTO GERAL DE ITU LTDA                                                                              00000                                   00000000                    
0330002300001J00034191557500000339561123941117390017749003000DOVAC INDUSTRIA E COM LTDA    11012013000000000033956000000000001697000000000000000110120130000000000322590000000000000002784                900003067           09      00        
0330002300002Z70976E150B33B3E7BADE05B                                         PGTFORNB11012013900003067                                                                                                                               00        
0330002300003J00034195557500001651531126160918342938000052000EATON LTDA                    11012013000000000165153000000000000000000000000000000110120130000000001651530000000000000002787                900003070           09      00        
0330002300004Z70976E12613CB183859C62E                                         PGTFORNB11012013900003070                                                                                                                               00        
0330002300005J00034193557500000324111126465363292938000052000EATON LTDA                    11012013000000000032411000000000000000000000000000000110120130000000000324110000000000000002789                900003071           09      00        
0330002300006Z70976E146312CAE45898B20                                         PGTFORNB11012013900003071                                                                                                                               00        
0330002300007J00034195557500000487931126465360712938000052000EATON LTDA                    11012013000000000048793000000000000000000000000000000110120130000000000487930000000000000002790                900003072           09      00        
0330002300008Z70976E12C567D87FD50BBCC                                         PGTFORNB11012013900003072                                                                                                                               00        
0330002300009J00034197557500000090521126500547892938000052000EATON LTDA                    11012013000000000009052000000000000000000000000000000110120130000000000090520000000000000002791                900003073           09      00        
0330002300010Z70976E18E63F870032A21FA                                         PGTFORNB11012013900003073                                                                                                                               00        
0330002300011J00034191557500000929271126931846272938000052000EATON LTDA                    11012013000000000092927000000000000000000000000000000110120130000000000929270000000000000002792                900003074           09      00        
0330002300012Z70976E1E218F99D3C657284                                         PGTFORNB11012013900003074                                                                                                                               00        
0330002300013J00000193557500001061790443587265733620000200231BAP AUTOMOTIVA LTDA           11012013000000000106179000000000000000000000000000000110120130000000001061790000000000000002767                900003051           09      00        
0330002300014Z70976E1FF274D8016526EEB                                         PGTFORNB11012013900003051                                                                                                                               00        
0330002300015J00034194557500000979001126911708758514325201000BODIPASA BOMBAS DIESEL PAULIST11012013000000000097900000000000000000000000000000000110120130000000000979000000000000000002768                900003052           09      00        
0330002300016Z70976E1C31C7C19D6904712                                         PGTFORNB11012013900003052                                                                                                                               00        
0330002300017J00034192557500000025001127150273660076000777000CENTER PECAS FABBRI LTDA      11012013000000000002500000000000000000000000000000000110120130000000000025000000000000000002769                900003053           09      00        
0330002300018Z70976E1773A1BC769EB1700                                         PGTFORNB11012013900003053                                                                                                                               00        
0330002300019J00034195557500000610001126905558940076000777000CENTER PECAS FABBRI LTDA      11012013000000000061000000000000000000000000000000000110120130000000000610000000000000000002770                900003054           09      00        
0330002300020Z70976E1E84D9FBFA78B5254                                         PGTFORNB11012013900003054                                                                                                                               00        
0330002300021J00039995557500001511141766534491602680075859001COBRA ROLAMENTOS E AUTO PECAS 11012013000000000151114000000000000000000000000000000110120130000000001511140000000000000002771                900003055           09      00        
0330002300022Z70976E1BCF3CF9D6B5FB860                                         PGTFORNB11012013900003055                                                                                                                               00        
0330002300023J00039998557500000688801766534531902680075859001COBRA ROLAMENTOS E AUTO PECAS 11012013000000000068880000000000000000000000000000000110120130000000000688800000000000000002772                900003056           09      00        
0330002300024Z70976E157AF8C692CE96257                                         PGTFORNB11012013900003056                                                                                                                               00        
0330002300025J00023798557500000261870138092328000003301453000OBB CONSULTORIA E PARTICIPACOE11012013000000000026187000000000000000000000000000000110120130000000000261870000000000000002785                900003068           09      00        
0330002300026Z70976E173B1CA9F73262BF2                                         PGTFORNB11012013900003068                                                                                                                               00        
0330002300027J00023791557500000296560138092349000002401453000OBB CONSULTORIA E PARTICIPACOE11012013000000000029656000000000000000000000000000000110120130000000000296560000000000000002786                900003069           09      00        
0330002300028Z70976E1F2C7891376B88EE2                                         PGTFORNB11012013900003069                                                                                                                               00        
0330002300029J00039991557500000375121766534510602680075859001COBRA ROLAMENTOS E AUTO PECAS 11012013000000000037512000000000000000000000000000000110120130000000000375120000000000000002773                900003057           09      00        
0330002300030Z70976E173F0C06A595AC217                                         PGTFORNB11012013900003057                                                                                                                               00        
0330002300031J00039999557500000187561766534511402680075859001COBRA ROLAMENTOS E AUTO PECAS 11012013000000000018756000000000000000000000000000000110120130000000000187560000000000000002774                900003058           09      00        
0330002300032Z70976E1FA60927ED738714C                                         PGTFORNB11012013900003058                                                                                                                               00        
0330002300033J00039998557500000310911766534533502680075859001COBRA ROLAMENTOS E AUTO PECAS 11012013000000000031091000000000000000000000000000000110120130000000000310910000000000000002775                900003059           09      00        
0330002300034Z70976E1D6077ECBBEBD556A                                         PGTFORNB11012013900003059                                                                                                                               00        
0330002300035J00023791557500000380413262090000030850900935470COMDIP COMERCIAL DISTR DE PECA11012013000000000038041000000000000000000000000000000110120130000000000380410000000000000002777                900003060           09      00        
0330002300036Z70976E1F54FEF7FDD6EB835                                         PGTFORNB11012013900003060                                                                                                                               00        
0330002300037J00023791557500000317173262090000033047600935470COMDIP COMERCIAL DISTR DE PECA11012013000000000031717000000000000000000000000000000110120130000000000317170000000000000002778                900003061           09      00        
0330002300038Z70976E15E9C2676342EA4D0                                         PGTFORNB11012013900003061                                                                                                                               00        
0330002300039J00023791557500000662172002061301389300100829680COMERCIAL AUTOMOTIVA S.A.     11012013000000000066217000000000000000000000000000000110120130000000000662170000000000000002779                900003062           09      00        
0330002300040Z70976E158A74775CE4982BB                                         PGTFORNB11012013900003062                                                                                                                               00        
0330002300041J00034191557500000198421571098279774522114471000COML NV MILLENNIUN A P LTDA EP11012013000000000019842000000000000992000000000000000110120130000000000188500000000000000002780                900003063           09      00        
0330002300042Z70976E151998C88EB6E45C0                                         PGTFORNB11012013900003063                                                                                                                               00        
0330002300043J00034192557500003358981126367368062938030539000DELPHI AUTOM SYSTEMS BR LTDA  11012013000000000335898000000000000000000000000000000110120130000000003358980000000000000002781                900003064           09      00        
0330002300044Z70976E109D90E6312D9ABD5                                         PGTFORNB11012013900003064                                                                                                                               00        
0330002300045J00000194557500000523000000001563680000003054717DIRECOES HIDRAULICAS LONDRINA 11012013000000000052300000000000000000000000000000000110120130000000000523000000000000000002782                900003065           09      00        
0330002300046Z70976E1FBA4B6E971823076                                         PGTFORNB11012013900003065                                                                                                                               00        
0330002300047J00034197557500001056381090030066770046365078000VIGORITO CAMILOPOLIS          11012013000000000105638000000000000000000000000000000110120130000000001056380000000000000002793                900003075           09      00        
0330002300048Z70976E182695B16A03C66D3                                         PGTFORNB11012013900003075                                                                                                                               00        
0330002300049J00034194557500001673851090304306240109276204000GIRANDO COMERCIO DE PECAS LTDA11012013000000000167385000000000000000000000000000000110120130000000001673850000000000000002794                900003076           09      00        
0330002300050Z70976E18C57C33EF4560D14                                         PGTFORNB11012013900003076                                                                                                                               00        
0330002300051J00023797557500004566813114091294868203501763000BANCO SAFRA S/A               11012013000000000456681000000000000000000000000000000110120130000000004566810000000000000002795                900003077           09      00        
0330002300052Z70976E14CAB68B0FD27682D                                         PGTFORNB11012013900003077                                                                                                                               00        
0330002300053J00034191557500000473071090008348272938050420000ITA PECAS PARA VEIC COM E SERV11012013000000000047307000000000000000000000000000000110120130000000000473070000000000000002796                900003078           09      00        
0330002300054Z70976E198BB703F994FD354                                         PGTFORNB11012013900003078                                                                                                                               00        
0330002300055J00023798557500000254003372097672311588900767230MAGGI VEICULOS LTDA           11012013000000000025400000000000000000000000000000000110120130000000000254000000000000000002797                900003079           09      00        
0330002300056Z70976E1F6E4BD7B2FD0DA65                                         PGTFORNB11012013900003079                                                                                                                               00        
0330002300057J00000191557500000888760443254988133440000206131POLI FILTRO IND E COMERCIO LTD11012013000000000088876000000000000000000000000000000110120130000000000888760000000000000002798                900003080           09      00        
0330002300058Z70976E1CE2D303A1B251026                                         PGTFORNB11012013900003080                                                                                                                               00        
0330002300059J00039992557500001384222315353345805313093513001REAL MOTO PECAS LTDA          11012013000000000138422000000000000000000000000000000110120130000000001384220000000000000002799                900003081           09      00        
0330002300060Z70976E13F02E824CCD0E57D                                         PGTFORNB11012013900003081                                                                                                                               00        
0330002300061J00039998557500001257382315361444005313093513001REAL MOTO PECAS LTDA          11012013000000000125738000000000000000000000000000000110120130000000001257380000000000000002800                900003082           09      00        
0330002300062Z70976E19CBBE9873BD52B8A                                         PGTFORNB11012013900003082                                                                                                                               00        
0330002300063J00034199557500000288141571059382290278483557000AUTO POSTO ESTRADAO DE ITU LTD11012013000000000028814000000000000000000000000000000110120130000000000288140000000000000002801                900003083           09      00        
0330002300064Z70976E16A18FC826AB99937                                         PGTFORNB11012013900003083                                                                                                                               00        
0330002300065J00034196557500000616091571052309466260139677000ABDELNOR II COM COMB LTDA     11012013000000000061609000000000000000000000000000000110120130000000000616090000000000000002802                900003084           09      00        
0330002300066Z70976E1215E75D3694D8852                                         PGTFORNB11012013900003084                                                                                                                               00        
03300025         000068000000000002800263000000000000000000310111                                                                                                                                                                               
03399999         000002000074000000                                                                                                                                                                                                             
