03300000         2054375370001370033006500490028050300065 0000480000414 AUTO GERAL DE ITU LTDA        SANTANDER                               20811201202222400003406000000                                                                     
03300011C2030030 2054375370001370033006500490028050300065 0000480000414 AUTO GERAL DE ITU LTDA                                                                              00000                                   00000000                    
0330001300001J00003399551100000448009173505500000005462750203BODIPASA BOMBAS DIESEL PAULIST0811201200000000004480000000000000000000000000000000008112012000000000044800000000000000000543                 900000833           09      00        
0330001300002Z70976E1098D142F96B44909                                         PGTFORNB08112012900000833                                                                                                                               00        
0330001300003J00003391551100002623699482966200000020327830104CAR CENTRAL DE AUTOPECAS E ROL0811201200000000026236900000000000000000000000000000008112012000000000262369000000000000000544                 900000834           09      00        
0330001300004Z70976E174883FC0DDE650A5                                         PGTFORNB08112012900000834                                                                                                                               00        
0330001300005J00003395551100000340209140743000000000904840203ROM COML DE AUTOPECAS LTDA    0811201200000000003402000000000000000000000000000000008112012000000000034020000000000000000559                 900000835           09      00        
0330001300006Z70976E1828F45411C22D454                                         PGTFORNB08112012900000835                                                                                                                               00        
0330001300007J00035691551100000191900689070323440000005551329DISTRIBUIDORA AUTOMOTIVA LTDA 0811201200000000001919000000000000000000000000000000008112012000000000019190000000000000000553                 900000846           09      00        
0330001300008Z70976E1A3D4D81FD55EAE90                                         PGTFORNB08112012900000846                                                                                                                               00        
0330001300009J00035691551100000425950689070323400000004888379DISTRIBUIDORA AUTOMOTIVA LTDA 0811201200000000004259500000000000000000000000000000008112012000000000042595000000000000000554                 900000847           09      00        
0330001300010Z70976E151CD06C0A11DEA1F                                         PGTFORNB08112012900000847                                                                                                                               00        
03300015         000012000000000000402974000000000000000000301108                                                                                                                                                                               
03300021C2031030 2054375370001370033006500490028050300065 0000480000414 AUTO GERAL DE ITU LTDA                                                                              00000                                   00000000                    
0330002300001J00023798551100000302730138092271000001501453000OBB CONSULTORIA E PARTICIPACOE0811201200000000003027300000000000000000000000000000008112012000000000030273000000000000000555                 900000848           09      00        
0330002300002Z70976E1D6048DBCC505EA41                                         PGTFORNB08112012900000848                                                                                                                               00        
0330002300003J00000195551100006127260441856527435710000216111RN IND E COM DE LENTES E LANTE0811201200000000061272600000000000000000000000000000008112012000000000612726000000000000000576                 900000867           09      00        
0330002300004Z70976E19445FA8241FE39B2                                         PGTFORNB08112012900000867                                                                                                                               00        
0330002300005J00023795551100000560963395061180232798200028140ROCHESTER DISTR DE AUTOPECAS S0811201200000000005609600000000000000000000000000000008112012000000000056096000000000000000577                 900000868           09      00        
0330002300006Z70976E1696D1EF97E38F055                                         PGTFORNB08112012900000868                                                                                                                               00        
0330002300007J00000194551100000250390000001244482993005356017RPT DISTR DE AUTO PCS         0811201200000000002503900000000000000000000000000000008112012000000000025039000000000000000578                 900000869           09      00        
0330002300008Z70976E19D11F731166AD783                                         PGTFORNB08112012900000869                                                                                                                               00        
0330002300009J00023795551100000284794130074130005337000050880SOUZA RAMOS COM E IMP LTDA    0811201200000000002847900000000000000000000000000000008112012000000000028479000000000000000579                 900000870           09      00        
0330002300010Z70976E149DCABBF611A4772                                         PGTFORNB08112012900000870                                                                                                                               00        
0330002300011J00034194551100010469371090000115345199147918000UNIBOMBAS IND COM DE AUTOPECAS0811201200000000104693700000000000000000000000000000008112012000000001046937000000000000000580                 900000871           09      00        
0330002300012Z70976E1BFE6B6E6CAB005DD                                         PGTFORNB08112012900000871                                                                                                                               00        
0330002300013J00023794000000000000002025062025186004400001600BARROS E FILHOS LTDA          0811201200000000015813100000000000000000000000000000008112012000000000158131000000000000000581                 900000872           09      00        
0330002300014Z70976E1236E672DD6383FD8                                         PGTFORNB08112012900000872                                                                                                                               00        
0330002300015J00034198551100000912251124389182222938030539000DELPHI AUTOM SYSTEMS BR LTDA  0811201200000000009122500000000000000000000000000000008112012000000000091225000000000000000551                 900000844           09      00        
0330002300016Z70976E18B1B37F81F776E8B                                         PGTFORNB08112012900000844                                                                                                                               00        
0330002300017J00000192551100003596191610087068514830000770017DIAS  DIAS DISTR DE PECAS LTDA0811201200000000035961900000000000000000000000000000008112012000000000359619000000000000000552                 900000845           09      00        
0330002300018Z70976E18D454FC3AD089E3F                                         PGTFORNB08112012900000845                                                                                                                               00        
0330002300019J00034197551100000563191122932223972938000052000EATON LTDA                    0811201200000000005631900000000000000000000000000000008112012000000000056319000000000000000556                 900000849           09      00        
0330002300020Z70976E1F714AC11F197FFC7                                         PGTFORNB08112012900000849                                                                                                                               00        
0330002300021J00034191551100000157111124949564962938000052000EATON LTDA                    0811201200000000001571100000000000000000000000000000008112012000000000015711000000000000000557                 900000850           09      00        
0330002300022Z70976E1BD85F7197241179D                                         PGTFORNB08112012900000850                                                                                                                               00        
0330002300023J00034191551100000131761124949573872938000052000EATON LTDA                    0811201200000000001317600000000000000000000000000000008112012000000000013176000000000000000558                 900000851           09      00        
0330002300024Z70976E1555D38D4196531F5                                         PGTFORNB08112012900000851                                                                                                                               00        
0330002300025J00034198551100000360101090303976740109276204000GIRANDO COMERCIO DE PECAS LTDA0811201200000000003601000000000000000000000000000000008112012000000000036010000000000000000563                 900000855           09      00        
0330002300026Z70976E17A0E649756EBD719                                         PGTFORNB08112012900000855                                                                                                                               00        
0330002300027J00034198551100000037681090303974500109276204000GIRANDO COMERCIO DE PECAS LTDA0811201200000000000376800000000000000000000000000000008112012000000000003768000000000000000564                 900000856           09      00        
0330002300028Z70976E1720D8A6CB0228611                                         PGTFORNB08112012900000856                                                                                                                               00        
0330002300029J00000199551100001137540439884598212030007414511HT COMPONENTES AUTOMOTIVOS LTD0811201200000000011375400000000000000000000000000000008112012000000000113754000000000000000565                 900000857           09      00        
0330002300030Z70976E1A2A1766FD32BEBDC                                         PGTFORNB08112012900000857                                                                                                                               00        
0330002300031J00034197551100000652401124872551953909030599000HYDRONLUBZ IND C EQUIPAMENTOS 0811201200000000006524000000000000000000000000000000008112012000000000065240000000000000000567                 900000858           09      00        
0330002300032Z70976E1947520FB3EF8B43B                                         PGTFORNB08112012900000858                                                                                                                               00        
0330002300033J00023791551100000185142500090256566130000000340ODAPEL DISTR DE AUTOPECAS LTDA0811201200000000001851400000000000000000000000000000008112012000000000018514000000000000000568                 900000859           09      00        
0330002300034Z70976E15FDE0DD20DD12DFB                                         PGTFORNB08112012900000859                                                                                                                               00        
0330002300035J00023793551100000789172500090256566144400000340ODAPEL DISTR DE AUTOPECAS LTDA0811201200000000007891700000000000000000000000000000008112012000000000078917000000000000000569                 900000860           09      00        
0330002300036Z70976E198D5993CB859934E                                         PGTFORNB08112012900000860                                                                                                                               00        
0330002300037J00034198551100000717271124837294092938107808000ELIVEL AUTOMOTORES LTDA       0811201200000000007172700000000000000000000000000000008112012000000000071727000000000000000560                 900000852           09      00        
0330002300038Z70976E1A36E0DCCD2C7E1AD                                         PGTFORNB08112012900000852                                                                                                                               00        
0330002300039J00034194551100000216381090000523100046365078000VIGORITO CAMILOPOLIS          0811201200000000002163800000000000000000000000000000008112012000000000021638000000000000000561                 900000853           09      00        
0330002300040Z70976E1499DF6C3FCD6C016                                         PGTFORNB08112012900000853                                                                                                                               00        
0330002300041J00034191551100001548251090303974430109276204000GIRANDO COMERCIO DE PECAS LTDA0811201200000000015482500000000000000000000000000000008112012000000000154825000000000000000562                 900000854           09      00        
0330002300042Z70976E17D978D4527A434A1                                         PGTFORNB08112012900000854                                                                                                                               00        
0330002300043J00023791551100000199923371090000833716700719500AVEBRAZ COM DE VEICULOS E PECA0811201200000000001999200000000000000000000000000000008112012000000000019992000000000000000541                 900000836           09      00        
0330002300044Z70976E1DBF2044C4F322B04                                         PGTFORNB08112012900000836                                                                                                                               00        
0330002300045J00000198551100000321900441847735733620000200231BAP AUTOMOTIVA LTDA           0811201200000000003219000000000000000000000000000000008112012000000000032190000000000000000542                 900000837           09      00        
0330002300046Z70976E18797FC6440663DB4                                         PGTFORNB08112012900000837                                                                                                                               00        
0330002300047J00039997551100000365131761800868104061860231001CAR CENTRAL DE AUTOPECAS E ROL0811201200000000003651300000000000000000000000000000008112012000000000036513000000000000000545                 900000838           09      00        
0330002300048Z70976E1BA3A05BAC6979035                                         PGTFORNB08112012900000838                                                                                                                               00        
0330002300049J00034193551100000132001124863225660076000777000CENTER PECAS FABBRI LTDA      0811201200000000001320000000000000000000000000000000008112012000000000013200000000000000000546                 900000839           09      00        
0330002300050Z70976E1FFA8BDD325F3F4F7                                         PGTFORNB08112012900000839                                                                                                                               00        
0330002300051J00034192551100000035901124863226320076000777000CENTER PECAS FABBRI LTDA      0811201200000000000359000000000000000000000000000000008112012000000000003590000000000000000547                 900000840           09      00        
0330002300052Z70976E1B06CB7808807D706                                         PGTFORNB08112012900000840                                                                                                                               00        
0330002300053J00023793551100000867373262090000028930800935470COMDIP COML DISTR DE PECAS LTD0811201200000000008673700000000000000000000000000000008112012000000000086737000000000000000548                 900000841           09      00        
0330002300054Z70976E1CA7873459930DDDC                                         PGTFORNB08112012900000841                                                                                                                               00        
0330002300055J00023792551100001257913262090000029283900935470COMDIP COML DISTR DE PECAS LTD0811201200000000012579100000000000000000000000000000008112012000000000125791000000000000000549                 900000842           09      00        
0330002300056Z70976E1674186FD972C87E8                                         PGTFORNB08112012900000842                                                                                                                               00        
0330002300057J00000191551100000394300000002101041441623283611DECAL LINE COM PREST SERV SILK0811201200000000003943000000000000000000000000000000008112012000000000039430000000000000000550                 900000843           09      00        
0330002300058Z70976E19003208AAD556D63                                         PGTFORNB08112012900000843                                                                                                                               00        
0330002300059J00039997551100000253988144664736904540096965001PELLEGRINO DISTR DE AUTOPECAS 0811201200000000002539800000000000000000000000000000008112012000000000025398000000000000000570                 900000861           09      00        
0330002300060Z70976E1A7CDC0CEE66B7AD4                                         PGTFORNB08112012900000861                                                                                                                               00        
0330002300061J00023796551100000633313484092255000014401129000PETRONAS LUBRIFICANTES BRASIL 0811201200000000006333100000000000000000000000000000008112012000000000063331000000000000000571                 900000862           09      00        
0330002300062Z70976E1A7D03710CC173327                                         PGTFORNB08112012900000862                                                                                                                               00        
0330002300063J00023791551100000612443484092282000025001129000PETRONAS LUBRIFICANTES BRASIL 0811201200000000006124400000000000000000000000000000008112012000000000061244000000000000000572                 900000863           09      00        
0330002300064Z70976E13CD4A868EC4E231A                                         PGTFORNB08112012900000863                                                                                                                               00        
0330002300065J00034196551100000363001124764345610384625000000PECAS AUTOMOTIVAS ZEENE LTDA  0811201200000000003630000000000000000000000000000000008112012000000000036300000000000000000573                 900000864           09      00        
0330002300066Z70976E1731D30AA7D29FC52                                         PGTFORNB08112012900000864                                                                                                                               00        
0330002300067J00034194551100001745941125543475030191074004000POLIPECAS COMERCIAL E IMPORTAD0811201200000000017459400000000001222200000000000000008112012000000000162372000000000000000574                 900000865           09      00        
0330002300068Z70976E1E249B9950E4071CB                                         PGTFORNB08112012900000865                                                                                                                               00        
0330002300069J00000193551100000673660000002096856000002170717PRV COM DE PECAS LTDA         0811201200000000006736600000000000000000000000000000008112012000000000067366000000000000000575                 900000866           09      00        
0330002300070Z70976E1EF60E9F65BEDA3D7                                         PGTFORNB08112012900000866                                                                                                                               00        
03300025         000072000000000003831578000000000000000000311108                                                                                                                                                                               
03399999         000002000086000000                                                                                                                                                                                                             
