03300000         2054375370001370033006500490028050300065 0000480000414 AUTO GERAL DE ITU LTDA        SANTANDER                               23110201202333400001906000000                                                                     
03300011C2030030 2054375370001370033006500490028050300065 0000480000414 AUTO GERAL DE ITU LTDA                                                                              00000                                   00000000                    
0330001300001J00003391550300000520569421259200000000336500101GUMP MOTORS COMPONENTES AUTOM 3110201200000000005205600000000000000000000000000000031102012000000000052056000000000000000261                 900000542           09      00        
0330001300002Z70976E1EB1A98729EA80ED8                                         PGTFORNB31102012900000542                                                                                                                               00        
0330001300003J00003396550300000481969513931700000103150200101DISTRIBUIDORA AUTOMOTIVA S/A  3110201200000000004819600000000000000000000000000000031102012000000000048196000000000000000267                 900000543           09      00        
0330001300004Z70976E13F2356B8D752A7A6                                         PGTFORNB31102012900000543                                                                                                                               00        
0330001300005J00035697550300000370940689070323430000004886966DISTRIBUIDORA AUTOMOTIVA S/A  3110201200000000003709400000000000000000000000000000031102012000000000037094000000000000000264                 900000556           09      00        
0330001300006Z70976E16B2102A33DEC31C6                                         PGTFORNB31102012900000556                                                                                                                               00        
0330001300007J00035691550300000234740689070323470000004887002DISTRIBUIDORA AUTOMOTIVA S/A  3110201200000000002347400000000000000000000000000000031102012000000000023474000000000000000265                 900000557           09      00        
0330001300008Z70976E141ABF1BE75E5D524                                         PGTFORNB31102012900000557                                                                                                                               00        
0330001300009J00035694550300000096140689070323460000004887201DISTRIBUIDORA AUTOMOTIVA S/A  3110201200000000000961400000000000000000000000000000031102012000000000009614000000000000000266                 900000558           09      00        
0330001300010Z70976E1FF408BF9D7A15427                                         PGTFORNB31102012900000558                                                                                                                               00        
03300015         000012000000000000170434000000000000000000301031                                                                                                                                                                               
03300021C2031030 2054375370001370033006500490028050300065 0000480000414 AUTO GERAL DE ITU LTDA                                                                              00000                                   00000000                    
0330002300001J33334191550200000103651121763802130017749003000DOVAC INDUSTRIA E COM LTDA    3010201200000000001036500000000000984700000000000000030102012000000000000518000000000000000246                 900000536           09      ZAZ4      
03300025         000003000000000000000518000000000000000000311030                                                                                                                                                                               
03300031C2031030 2054375370001370033006500490028050300065 0000480000414 AUTO GERAL DE ITU LTDA                                                                              00000                                   00000000                    
0330003300001J00039994550300001017042053136124605313093513001REAL MOTO PECAS LTDA          3110201200000000010170400000000000000000000000000000031102012000000000101704000000000000000268                 900000559           09      00        
0330003300002Z70976E1A2A52B6A3F62F124                                         PGTFORNB31102012900000559                                                                                                                               00        
0330003300003J00034199550300000132991090303928570109276204000GIRANDO COMERCIO DE PECAS LTDA3110201200000000001329900000000000000000000000000000031102012000000000013299000000000000000269                 900000560           09      00        
0330003300004Z70976E1198917A674488059                                         PGTFORNB31102012900000560                                                                                                                               00        
0330003300005J00034194550300000189001124686865900076000777000CENTER PECAS FABBRI LTDA      3110201200000000001890000000000000000000000000000000031102012000000000018900000000000000000256                 900000549           09      00        
0330003300006Z70976E14F69B3696F891AE0                                         PGTFORNB31102012900000549                                                                                                                               00        
0330003300007J00034191550300000094501124686866160076000777000CENTER PECAS FABBRI LTDA      3110201200000000000945000000000000000000000000000000031102012000000000009450000000000000000257                 900000550           09      00        
0330003300008Z70976E1B50255694BD69CBE                                         PGTFORNB31102012900000550                                                                                                                               00        
0330003300009J00039991550300000339348144664296004540096965001PELLEGRINO DISTR DE AUTO PECAS3110201200000000003393400000000000000000000000000000031102012000000000033934000000000000000270                 900000561           09      00        
0330003300010Z70976E1E38F369D42D24C9C                                         PGTFORNB31102012900000561                                                                                                                               00        
0330003300011J00000195550300000527700000001748318000003597317DIP DISTR DE PECAS LTDA       3110201200000000005277000000000000000000000000000000031102012000000000052770000000000000000271                 900000562           09      00        
0330003300012Z70976E1C413D1C2E4BDAA05                                         PGTFORNB31102012900000562                                                                                                                               00        
0330003300013J00039996550300000472728144664274004540096965001PELLEGRINO DISTR  DE AUTO PECA3110201200000000004727200000000000000000000000000000031102012000000000047272000000000000000272                 900000563           09      00        
0330003300014Z70976E17B45502216762478                                         PGTFORNB31102012900000563                                                                                                                               00        
0330003300015J00000199550300002406640000002096856000002045417PRV COMERCIO DE PECAS LTDA    3110201200000000024066400000000000000000000000000000031102012000000000240664000000000000000273                 900000564           09      00        
0330003300016Z70976E181D46C454A9E66D3                                         PGTFORNB31102012900000564                                                                                                                               00        
0330003300017J00039994550300000154691761335877303280030090001ITAVEMA ITALIA VEICULOS E MAQU3110201200000000001546900000000000000000000000000000031102012000000000015469000000000000000274                 900000565           09      00        
0330003300018Z70976E1078A928CAD89ADD9                                         PGTFORNB31102012900000565                                                                                                                               00        
0330003300019J00023794550300000300002221092278000001000333330JANCAP AUTO COMERCIAL LTDA    3110201200000000003000000000000000000000000000000000031102012000000000030000000000000000000275                 900000566           09      00        
0330003300020Z70976E1EA92781EDCE853D3                                         PGTFORNB31102012900000566                                                                                                                               00        
0330003300021J00034199550300002781001124629652712938016363000RR DONNELLEY MOORE EDT GR LTDA3110201200000000027810000000000000000000000000000000031102012000000000278100000000000000000276                 900000567           09      00        
0330003300022Z70976E1BCC6ED879425ECE0                                         PGTFORNB31102012900000567                                                                                                                               00        
0330003300023J00023798550300000210001998190000008939300503970VANUCCI IMPORTACAO EXPORT. E C3110201200000000002100000000000000000000000000000000031102012000000000021000000000000000000277                 900000568           09      00        
0330003300024Z70976E134A5A6CD0745F18F                                         PGTFORNB31102012900000568                                                                                                                               00        
0330003300025J00000193550300000250950000001244482993005211217RPT DISTR DE AUTO PCS         3110201200000000002509500000000000000000000000000000031102012000000000025095000000000000000278                 900000569           09      00        
0330003300026Z70976E16062971E85AA94BC                                         PGTFORNB31102012900000569                                                                                                                               00        
0330003300027J00023792550300000828952221092276000006500333330JANCAP AUTO COMERCIAL LTDA    3110201200000000008289500000000000000000000000000000031102012000000000082895000000000000000279                 900000570           09      00        
0330003300028Z70976E16D4D88C6E82352F1                                         PGTFORNB31102012900000570                                                                                                                               00        
0330003300029J00039991550300000308941761257143003280030090001ITAVEMA ITALIA VEICULOS E MAQU3110201200000000003089400000000000000000000000000000031102012000000000030894000000000000000280                 900000571           09      00        
0330003300030Z70976E1E8D0C629AA82549A                                         PGTFORNB31102012900000571                                                                                                                               00        
0330003300031J00023791550300000395150138092263000003301453000OBB CONSULTORIA E PARTICIPACOE3110201200000000003951500000000000000000000000000000031102012000000000039515000000000000000281                 900000572           09      00        
0330003300032Z70976E163B432CCFF3D1620                                         PGTFORNB31102012900000572                                                                                                                               00        
0330003300033J00000196550300000143260000001597457122106461317PETROBRAS DISTRIB             3110201200000000001432600000000000000000000000000000031102012000000000014326000000000000000282                 900000573           09      00        
0330003300034Z70976E17530153269F8F3C4                                         PGTFORNB31102012900000573                                                                                                                               00        
0330003300035J000001995503000028849900000024299314417064125112AR INDUSTRIA E COMERCIO LTDA 3110201200000000028849900000000000000000000000000000031102012000000000288499000000000000000283                 900000574           09      00        
0330003300036Z70976E130780F1D48DA5011                                         PGTFORNB31102012900000574                                                                                                                               00        
0330003300037J00023791550300000647534130072299000152405005930W DISTRIBUIDORA LTDA          3110201200000000006475300000000000000000000000000000031102012000000000064753000000000000000284                 900000575           09      00        
0330003300038Z70976E12776C9F06963776F                                         PGTFORNB31102012900000575                                                                                                                               00        
0330003300039J00010491550300000028539786171517705437537000124SINDICATO DOS EMPREGADOS NO CO3110201200000000000285300000000000000000000000000000031102012000000000002853000000000000000285                 900000576           09      00        
0330003300040Z70976E169111D84F99B39FC                                         PGTFORNB31102012900000576                                                                                                                               00        
0330003300041J00010499550300000028539786171517705437537000424SINDICATO DOS EMPREGADOS NO CO3110201200000000000285300000000000000000000000000000031102012000000000002853000000000000000286                 900000577           09      00        
0330003300042Z70976E13C3CEFE922AB1B40                                         PGTFORNB31102012900000577                                                                                                                               00        
0330003300043J00034191550300003117361125042212790191074004000POLIPECAS COML E IMP. LTDA    3110201200000000031173600000000002182200000000000000031102012000000000289914000000000000000251                 900000544           09      00        
0330003300044Z70976E169D9DD1A76DEBD46                                         PGTFORNB31102012900000544                                                                                                                               00        
0330003300045J00034198550300001758401124832149492938017569000FRAS-LE S/A                   3110201200000000017584000000000000000000000000000000031102012000000000175840000000000000000252                 900000545           09      00        
0330003300046Z70976E1BBE8B0697630965A                                         PGTFORNB31102012900000545                                                                                                                               00        
0330003300047J00034196550300000016801124686866320076000777000CENTER PECAS FABBRI LTDA      3110201200000000000168000000000000000000000000000000031102012000000000001680000000000000000258                 900000551           09      00        
0330003300048Z70976E19DDBAB3E75274229                                         PGTFORNB31102012900000551                                                                                                                               00        
0330003300049J00023796550300000721233372092291000000105096800METALURGICA SCHADEK LTDA      3110201200000000007212300000000000000000000000000000031102012000000000072123000000000000000259                 900000552           09      00        
0330003300050Z70976E13D225B21C0B51AD6                                         PGTFORNB31102012900000552                                                                                                                               00        
0330003300051J00034196550300000522961090019437701012930309000DECAR AUTOPECAS LTDA          3110201200000000005229600000000000000000000000000000031102012000000000052296000000000000000260                 900000553           09      00        
0330003300052Z70976E1FFA9D9EEBDEC75CB                                         PGTFORNB31102012900000553                                                                                                                               00        
0330003300053J00023792550300000118503394093704058020100039600DE NIGRIS DISTR DE VEIC LTDA  3110201200000000001185000000000000000000000000000000031102012000000000011850000000000000000262                 900000554           09      00        
0330003300054Z70976E1E8290FAF130DDFF2                                         PGTFORNB31102012900000554                                                                                                                               00        
0330003300055J00039991550300000517551762080786911960078237001BAP AUTOMOTIVA LTDA           3110201200000000005175500000000000000000000000000000031102012000000000051755000000000000000263                 900000555           09      00        
0330003300056Z70976E19EF767BE1D08E2A5                                         PGTFORNB31102012900000555                                                                                                                               00        
0330003300057J00034191550300001077101124967933430078267192000DISTPECAS P/AUTOS ANHEMBI LTDA3110201200000000010771000000000000000000000000000000031102012000000000107710000000000000000253                 900000546           09      00        
0330003300058Z70976E127B7CFE613D299A1                                         PGTFORNB31102012900000546                                                                                                                               00        
0330003300059J00000198550300000500000441395014333260008018911T-PARTS COMERCIAL E IMPORTADOR3110201200000000005000000000000000000000000000000000031102012000000000050000000000000000000254                 900000547           09      00        
0330003300060Z70976E1E064E15758B7C779                                         PGTFORNB31102012900000547                                                                                                                               00        
0330003300061J00034196550300000140501124686866240076000777000CENTER PECAS FABBRI LTDA      3110201200000000001405000000000000000000000000000000031102012000000000014050000000000000000255                 900000548           09      00        
0330003300062Z70976E1270B01E696F09CE8                                         PGTFORNB31102012900000548                                                                                                                               00        
03300035         000064000000000002241463000000000000000000311031                                                                                                                                                                               
03399999         000003000081000000                                                                                                                                                                                                             
