03300000         2054375370001370033006500490028050300065 0000480000414 AUTO GERAL DE ITU LTDA        SANTANDER                               22801201303070400018506000000                                                                     
03300011C2030030 2054375370001370033006500490028050300065 0000480000414 AUTO GERAL DE ITU LTDA                                                                              00000                                   00000000                    
0330001300001J00003396559200001798069482966200000024119620104CAR CENTRAL DE AUTOPECAS E ROL28012013000000000179806000000000000000000000000000000280120130000000001798060000000000000003278                900003537           09      00        
0330001300002Z70976E1257CB5878FC9AE7F                                         PGTFORNB28012013900003537                                                                                                                               00        
0330001300003J00003391559200000430389513931700000103847900101DISTRIBUIDORA AUTOMOTIVA S/A  28012013000000000043038000000000000000000000000000000280120130000000000430380000000000000003280                900003538           09      00        
0330001300004Z70976E1B30A262BD7CE199E                                         PGTFORNB28012013900003538                                                                                                                               00        
0330001300005J00003399559200000190349513931700000103858000101DISTRIBUIDORA AUTOMOTIVA S/A  28012013000000000019034000000000000000000000000000000280120130000000000190340000000000000003281                900003539           09      00        
0330001300006Z70976E1AEF1AF9BDEBC96B0                                         PGTFORNB28012013900003539                                                                                                                               00        
0330001300007J00035691559200000188270689070323420000004899267DISTRIBUIDORA AUTOMOTIVA S/A  28012013000000000018827000000000000000000000000000000280120130000000000188270000000000000003282                900003564           09      00        
0330001300008Z70976E17879D9845B333921                                         PGTFORNB28012013900003564                                                                                                                               00        
03300015         000010000000000000260705000000000000000000300128                                                                                                                                                                               
03300021C2031030 2054375370001370033006500490028050300065 0000480000414 AUTO GERAL DE ITU LTDA                                                                              00000                                   00000000                    
0330002300001J00034191559200000181941127091074062938000052000EATON LTDA                    28012013000000000018194000000000000000000000000000000280120130000000000181940000000000000003283                900003565           09      00        
0330002300002Z70976E14097572DF13A64DC                                         PGTFORNB28012013900003565                                                                                                                               00        
0330002300003J00023797559000000283050495092338000019800995600CAOA CAMINHOES LTDA           26012013000000000028305000000000000000000000000000000280120130000000000283050000000000000003255                900003540           09      00        
0330002300004Z70976E1296F043334CEF217                                         PGTFORNB28012013900003540                                                                                                                               00        
0330002300005J00034192559000000325501127217851710076000777000CENTER PECAS FABBRI LTDA      26012013000000000032550000000000000000000000000000000280120130000000000325500000000000000003256                900003541           09      00        
0330002300006Z70976E1DD747C80CAF0C99E                                         PGTFORNB28012013900003541                                                                                                                               00        
0330002300007J00034197559000000210001127217851890076000777000CENTER PECAS FABBRI LTDA      26012013000000000021000000000000000000000000000000000280120130000000000210000000000000000003257                900003542           09      00        
0330002300008Z70976E14F3DA73295C7D836                                         PGTFORNB28012013900003542                                                                                                                               00        
0330002300009J00034197559000000023801127217852050076000777000CENTER PECAS FABBRI LTDA      26012013000000000002380000000000000000000000000000000280120130000000000023800000000000000003258                900003543           09      00        
0330002300010Z70976E136627C7E41874CE6                                         PGTFORNB28012013900003543                                                                                                                               00        
0330002300011J00034191559000004094311127254120872938030539000DELPHI AUTOM SYSTEMS BR LTDA  26012013000000000409431000000000000000000000000000000280120130000000004094310000000000000003259                900003544           09      00        
0330002300012Z70976E19D48D397753AFDA4                                         PGTFORNB28012013900003544                                                                                                                               00        
0330002300013J00034197559200000590601126422892952938107808000ELIVEL AUTOMOTORES LTDA       28012013000000000059060000000000000000000000000000000280120130000000000590600000000000000003284                900003566           09      00        
0330002300014Z70976E156AC26B7E9A7FCBE                                         PGTFORNB28012013900003566                                                                                                                               00        
0330002300015J00039995559200000132231766459019004540079149001BANCO SOFISA SA               28012013000000000013223000000000000000000000000000000280120130000000000132230000000000000003305                900003587           09      00        
0330002300016Z70976E195C79D74FD97C703                                         PGTFORNB28012013900003587                                                                                                                               00        
0330002300017J00034199559200000632001127211253112938074016000ITAVOX VEICULOS               28012013000000000063200000000000000000000000000000000280120130000000000632000000000000000003288                900003570           09      00        
0330002300018Z70976E152ECD18CB7EDA277                                         PGTFORNB28012013900003570                                                                                                                               00        
0330002300019J00023791559200005246193367093016000000100042290MAX GEAR IND E COM DE AUTO PEC28012013000000000524619000000000000000000000000000000280120130000000005246190000000000000003289                900003571           09      00        
0330002300020Z70976E19A5CF826A9059506                                         PGTFORNB28012013900003571                                                                                                                               00        
0330002300021J00039991559200000249368144668310104540096965001PELLEGRINO DISTRIBUIDORA DE AU28012013000000000024936000000000000000000000000000000280120130000000000249360000000000000003290                900003572           09      00        
0330002300022Z70976E109365508C2F64990                                         PGTFORNB28012013900003572                                                                                                                               00        
0330002300023J00039991559200000278088144668301204540096965001PELLEGRINO DISTRIBUIDORA DE AU28012013000000000027808000000000000000000000000000000280120130000000000278080000000000000003291                900003573           09      00        
0330002300024Z70976E183B94F78BB220074                                         PGTFORNB28012013900003573                                                                                                                               00        
0330002300025J00023794559200000874443484092348000021501129000PETRONAS LUBRIFICANTES BRASIL 28012013000000000087444000000000000000000000000000000280120130000000000874440000000000000003292                900003574           09      00        
0330002300026Z70976E1A9FC202E97ADE1B8                                         PGTFORNB28012013900003574                                                                                                                               00        
0330002300027J00023793559200000265333484092341000054201129000PETRONAS LUBRIFICANTES BRASIL 28012013000000000026533000000000000000000000000000000280120130000000000265330000000000000003293                900003575           09      00        
0330002300028Z70976E1A5FFABBEE606E91D                                         PGTFORNB28012013900003575                                                                                                                               00        
0330002300029J00023791559200010328883484092341000053601129000PETRONAS LUBRIFICANTES BRASIL 28012013000000001032888000000000000000000000000000000280120130000000010328880000000000000003294                900003576           09      00        
0330002300030Z70976E1F12C0F5D7A4AB6CA                                         PGTFORNB28012013900003576                                                                                                                               00        
0330002300031J00023792559200001439033484092341000053901129000PETRONAS LUBRIFICANTES BRASIL 28012013000000000143903000000000000000000000000000000280120130000000001439030000000000000003295                900003577           09      00        
0330002300032Z70976E1AE7437F84647FA4A                                         PGTFORNB28012013900003577                                                                                                                               00        
0330002300033J00039991559200005385192315391919405313093513001REAL MOTO PECAS LTDA          28012013000000000538519000000000000000000000000000000280120130000000005385190000000000000003296                900003578           09      00        
0330002300034Z70976E167ED500AA31EE380                                         PGTFORNB28012013900003578                                                                                                                               00        
0330002300035J00039999559200000613072315372037105313093513001REAL MOTO PECAS LTDA          28012013000000000061307000000000000000000000000000000280120130000000000613070000000000000003297                900003579           09      00        
0330002300036Z70976E156ABB46F0C46E8E6                                         PGTFORNB28012013900003579                                                                                                                               00        
0330002300037J00039994559200000704242315395938205313093513001REAL MOTO PECAS LTDA          28012013000000000070424000000000000000000000000000000280120130000000000704240000000000000003298                900003580           09      00        
0330002300038Z70976E1E3880BB4F131EDD2                                         PGTFORNB28012013900003580                                                                                                                               00        
0330002300039J00023792559200000720073395061180232879400028140ROCHESTER DISTRIBUIDORA DE AUT28012013000000000072007000000000000000000000000000000280120130000000000720070000000000000003299                900003581           09      00        
0330002300040Z70976E117D68D904AA1F1B0                                         PGTFORNB28012013900003581                                                                                                                               00        
0330002300041J00023798559200000552593395090000005104400650000SORANA SUL                    28012013000000000055259000000000000000000000000000000280120130000000000552590000000000000003300                900003582           09      00        
0330002300042Z70976E1149BB536C7BC3611                                         PGTFORNB28012013900003582                                                                                                                               00        
0330002300043J00000191559200000041070443790643033260008018911T-PARTS COML E IMP DE AUTOPECA28012013000000000004107000000000000000000000000000000280120130000000000041070000000000000003301                900003583           09      00        
0330002300044Z70976E1B2287E7607C85144                                         PGTFORNB28012013900003583                                                                                                                               00        
0330002300045J00023798559200003268223178190000018299300421050TUPER DISTRIB. PROD. METALURGI28012013000000000326822000000000000000000000000000000280120130000000003268220000000000000003302                900003584           09      00        
0330002300046Z70976E177C8439C2CB5CF86                                         PGTFORNB28012013900003584                                                                                                                               00        
0330002300047J00000194559200001226500000001291892000004563717VESPOR AUTOMOTIVE DIST DE AUTO28012013000000000122650000000000000000000000000000000280120130000000001226500000000000000003303                900003585           09      00        
0330002300048Z70976E1BA042B1528D5589E                                         PGTFORNB28012013900003585                                                                                                                               00        
0330002300049J00000199559200002125980000001291892000004565817VESPOR AUTOMOTIVE DIST DE AUTO28012013000000000212598000000000000000000000000000000280120130000000002125980000000000000003304                900003586           09      00        
0330002300050Z70976E16EC76BDC89483ABA                                         PGTFORNB28012013900003586                                                                                                                               00        
0330002300051J00034194559000000230421127254119642938030539000DELPHI AUTOM SYSTEMS BR LTDA  26012013000000000023042000000000000000000000000000000280120130000000000230420000000000000003260                900003545           09      00        
0330002300052Z70976E1F923818D5CB3D863                                         PGTFORNB28012013900003545                                                                                                                               00        
0330002300053J00034192559000000105451127254120202938030539000DELPHI AUTOM SYSTEMS BR LTDA  26012013000000000010545000000000000000000000000000000280120130000000000105450000000000000003261                900003546           09      00        
0330002300054Z70976E13F00FCCC70A6E271                                         PGTFORNB28012013900003546                                                                                                                               00        
0330002300055J00034196559000000126051127254119312938030539000DELPHI AUTOM SYSTEMS BR LTDA  26012013000000000012605000000000000000000000000000000280120130000000000126050000000000000003262                900003547           09      00        
0330002300056Z70976E11DE7888599C5BCBE                                         PGTFORNB28012013900003547                                                                                                                               00        
0330002300057J00034193559000000307771127254120532938030539000DELPHI AUTOM SYSTEMS BR LTDA  26012013000000000030777000000000000000000000000000000280120130000000000307770000000000000003263                900003548           09      00        
0330002300058Z70976E16653FACE80A12715                                         PGTFORNB28012013900003548                                                                                                                               00        
0330002300059J00034191559000000126051127254119072938030539000DELPHI AUTOM SYSTEMS BR LTDA  26012013000000000012605000000000000000000000000000000280120130000000000126050000000000000003264                900003549           09      00        
0330002300060Z70976E119301F817EF08BDC                                         PGTFORNB28012013900003549                                                                                                                               00        
0330002300061J00000191559000002662900000001458137443573999831DISTRIBUIDORA BRASUL DE AUTOPE26012013000000000266290000000000000000000000000000000280120130000000002662900000000000000003265                900003550           09      00        
0330002300062Z70976E1CE584CB92A624550                                         PGTFORNB28012013900003550                                                                                                                               00        
0330002300063J00000199559000003909720000001458137443573999531DISTRIBUIDORA BRASUL DE AUTOPE26012013000000000390972000000000000000000000000000000280120130000000003909720000000000000003266                900003551           09      00        
0330002300064Z70976E1E5DCA477407B148B                                         PGTFORNB28012013900003551                                                                                                                               00        
0330002300065J00042295559000000581007115000051187559450518241ISAPA IMP COM LTDA            26012013000000000058100000000000000000000000000000000280120130000000000581000000000000000003267                900003552           09      00        
0330002300066Z70976E155C192DF7C9D6D19                                         PGTFORNB28012013900003552                                                                                                                               00        
0330002300067J00034193559000000469001126945301170384625000000PECAS AUTOMOTIVAS ZEENE LTDA  26012013000000000046900000000000000000000000000000000280120130000000000469000000000000000003268                900003553           09      00        
0330002300068Z70976E15111560D12A81116                                         PGTFORNB28012013900003553                                                                                                                               00        
0330002300069J00039997559000000152102315377803505313093513001REAL MOTO PECAS LTDA          26012013000000000015210000000000000000000000000000000280120130000000000152100000000000000003269                900003554           09      00        
0330002300070Z70976E1CB36BD41CE3515E3                                         PGTFORNB28012013900003554                                                                                                                               00        
0330002300071J00023799559000000230953395061180232875000028140ROCHESTER DISTRIBUIDORA DE AUT26012013000000000023095000000000000000000000000000000280120130000000000230950000000000000003270                900003555           09      00        
0330002300072Z70976E110C3A4217B6C9FEA                                         PGTFORNB28012013900003555                                                                                                                               00        
0330002300073J00023792559000001281501998190000010217500503970VANUCCI IMPORTACAO EXPORT. E C26012013000000000128150000000000000000000000000000000280120130000000001281500000000000000003271                900003556           09      00        
0330002300074Z70976E14F096FC911226F6E                                         PGTFORNB28012013900003556                                                                                                                               00        
0330002300075J00034192559100000188971126520577310237417159000ACCIOLY SA IMP E COM          27012013000000000018897000000000000000000000000000000280120130000000000188970000000000000003272                900003557           09      00        
0330002300076Z70976E13569ACCAF2FF350D                                         PGTFORNB28012013900003557                                                                                                                               00        
0330002300077J00034193559100000559431090008746172938050420000ITA PECAS PARA VEIC COM E SERV27012013000000000055943000000000000000000000000000000280120130000000000559430000000000000003273                900003558           09      00        
0330002300078Z70976E189F3A5E00A97A77A                                         PGTFORNB28012013900003558                                                                                                                               00        
0330002300079J00023792559100000658903394090000013387200324600MORELATE DISTRIBUIDORA DE AUTO27012013000000000065890000000000000000000000000000000280120130000000000658900000000000000003274                900003559           09      00        
0330002300080Z70976E15235D5B5042C9730                                         PGTFORNB28012013900003559                                                                                                                               00        
0330002300081J00040992559000000945005267115800100200071427810UNIMED SALTO/ITU COOP TRAB MED26012013000000000094500000000000000000000000000000000280120130000000000945000000000000000003275                900003560           09      00        
0330002300082Z70976E1423D8F02AE531AB9                                         PGTFORNB28012013900003560                                                                                                                               00        
0330002300083J00034195559000000357151571252009150278483557000AUTO POSTO ESTRADAO DE ITU LTD26012013000000000035715000000000000000000000000000000280120130000000000357150000000000000003276                900003561           09      00        
0330002300084Z70976E124095339218F35F3                                         PGTFORNB28012013900003561                                                                                                                               00        
0330002300085J00034193559100000103651750000135068949044674000CENTRO AUTOMOTIVO ITUZAO LTDA 27012013000000000010365000000000000000000000000000000280120130000000000103650000000000000003277                900003562           09      00        
0330002300086Z70976E108310D24E19C0748                                         PGTFORNB28012013900003562                                                                                                                               00        
0330002300087J00039992559200000148811767010721304061860231001CAR CENTRAL DE AUTOPECAS E ROL28012013000000000014881000000000000000000000000000000280120130000000000148810000000000000003279                900003563           09      00        
0330002300088Z70976E1272A29DEF2F4CEE1                                         PGTFORNB28012013900003563                                                                                                                               00        
0330002300089J00039994559200000362001766459020404540079149001BANCO SOFISA SA               28012013000000000036200000000000000000000000000000000280120130000000000362000000000000000003306                900003588           09      00        
0330002300090Z70976E1B485C5E87E3C4632                                         PGTFORNB28012013900003588                                                                                                                               00        
0330002300091J00023791559200000636000092092335000001700165930WILSON RUSSO AUTOPECAS LTDA   28012013000000000063600000000000000000000000000000000280120130000000000636000000000000000003307                900003589           09      00        
0330002300092Z70976E1FB75EC544F581E1E                                         PGTFORNB28012013900003589                                                                                                                               00        
0330002300093J00000192559200000420000000002384522000000014517MPB MAQUINAS 2007 IND COM E SE28012013000000000042000000000000000000000000000000000280120130000000000420000000000000000003308                900003590           09      00        
0330002300094Z70976E1D722F7631E22E035                                         PGTFORNB28012013900003590                                                                                                                               00        
0330002300095J00034191559200000647311127839760310191074004000POLIPECAS COMERCIAL E IMPORTAD28012013000000000064731000000000000000000000000000000280120130000000000647310000000000000003309                900003591           09      00        
0330002300096Z70976E173E5EEFF7EA9490E                                         PGTFORNB28012013900003591                                                                                                                               00        
0330002300097J00023794559100000650793395061180232876400028140ROCHESTER DISTRIBUIDORA DE AUT27012013000000000065079000000000000000000000000000000280120130000000000650790000000000000003310                900003592           09      00        
0330002300098Z70976E166737B9E2F4C0AB5                                         PGTFORNB28012013900003592                                                                                                                               00        
0330002300099J00034196559200000248491127144747590046365078000FELICIO VIGORITO FILHOS LTDA  28012013000000000024849000000000000000000000000000000280120130000000000248490000000000000003285                900003567           09      00        
0330002300100Z70976E108BBCFC5E32DB423                                         PGTFORNB28012013900003567                                                                                                                               00        
0330002300101J00034194559200000506301126927914480765234976000GIANCAR DISTR AUTO PECAS LTDA 28012013000000000050630000000000000000000000000000000280120130000000000506300000000000000003286                900003568           09      00        
0330002300102Z70976E133DACB6F5CFE306B                                         PGTFORNB28012013900003568                                                                                                                               00        
0330002300103J00000191559200000453000000001451672442886058311BANCO VOTORANTIM SA           28012013000000000045300000000000000000000000000000000280120130000000000453000000000000000003287                900003569           09      00        
0330002300104Z70976E134EA8C1D77EA9FFE                                         PGTFORNB28012013900003569                                                                                                                               00        
03300025         000106000000000005686038000000000000000000310128                                                                                                                                                                               
03399999         000002000118000000                                                                                                                                                                                                             
