03300000         2054375370001370033006500490028050300065 0000480000414 AUTO GERAL DE ITU LTDA        SANTANDER                               21601201302182400016106000000                                                                     
03300011C2030030 2054375370001370033006500490028050300065 0000480000414 AUTO GERAL DE ITU LTDA                                                                              00000                                   00000000                    
0330001300001J00035698558000000213860689070323410000004897387DISTRIBUIDORA AUTOMOTIVA S/A  16012013000000000021386000000000000000000000000000000160120130000000000213860000000000000002913                900003200           09      00        
0330001300002Z70976E137DBC33FC82034B6                                         PGTFORNB16012013900003200                                                                                                                               00        
0330001300003J00035691558000000400500689070323430000004897369DISTRIBUIDORA AUTOMOTIVA S/A  16012013000000000040050000000000000000000000000000000160120130000000000400500000000000000002914                900003201           09      00        
0330001300004Z70976E1A544BB68E801AAB0                                         PGTFORNB16012013900003201                                                                                                                               00        
0330001300005J00003392558000000496689173505500000006043990203BODIPASA BOMBAS DIESEL PAULIST16012013000000000049668000000000000000000000000000000160120130000000000496680000000000000002909                900003193           09      00        
0330001300006Z70976E1C9ED524AD246917E                                         PGTFORNB16012013900003193                                                                                                                               00        
0330001300007J00003391558000001058809513931700000103754570101DISTRIBUIDORA AUTOMOTIVA S/A  16012013000000000105880000000000000000000000000000000160120130000000001058800000000000000002915                900003194           09      00        
0330001300008Z70976E16E8FF68F4069B092                                         PGTFORNB16012013900003194                                                                                                                               00        
03300015         000010000000000000216984000000000000000000300116                                                                                                                                                                               
03300021C2031030 2054375370001370033006500490028050300065 0000480000414 AUTO GERAL DE ITU LTDA                                                                              00000                                   00000000                    
0330002300001J00039995558000000578891766845199311960078237001BAP AUTOMOTIVA LTDA           16012013000000000057889000000000000000000000000000000160120130000000000578890000000000000002907                900003195           09      00        
0330002300002Z70976E1696BED6844430A08                                         PGTFORNB16012013900003195                                                                                                                               00        
0330002300003J00034192558000001354001126364504991248021303000BANCO FIBRA SA                16012013000000000135400000000000000000000000000000000160120130000000001354000000000000000002908                900003196           09      00        
0330002300004Z70976E1F8928F8C26C88BD2                                         PGTFORNB16012013900003196                                                                                                                               00        
0330002300005J00034191558000000029501126997136760076000777000CENTER PECAS FABBRI LTDA      16012013000000000002950000000000000000000000000000000160120130000000000029500000000000000002910                900003197           09      00        
0330002300006Z70976E1DF9DF0AAE366DC71                                         PGTFORNB16012013900003197                                                                                                                               00        
0330002300007J00034193558000000016701126997136430076000777000CENTER PECAS FABBRI LTDA      16012013000000000001670000000000000000000000000000000160120130000000000016700000000000000002911                900003198           09      00        
0330002300008Z70976E164CDB7E17F4AC91A                                         PGTFORNB16012013900003198                                                                                                                               00        
0330002300009J00034191558000000610001126997136500076000777000CENTER PECAS FABBRI LTDA      16012013000000000061000000000000000000000000000000000160120130000000000610000000000000000002912                900003199           09      00        
0330002300010Z70976E106E4C15798616949                                         PGTFORNB16012013900003199                                                                                                                               00        
0330002300011J00034193558000000051961127179647492938000052000EATON LTDA                    16012013000000000005196000000000000000000000000000000160120130000000000051960000000000000002916                900003202           09      00        
0330002300012Z70976E16A10453E3C8CDCB3                                         PGTFORNB16012013900003202                                                                                                                               00        
0330002300013J00034191558000000248431127105073620548006287000ELETROPAR AUTOPECAS LTDA      16012013000000000024843000000000000000000000000000000160120130000000000248430000000000000002917                900003203           09      00        
0330002300014Z70976E1B179122927E33C4C                                         PGTFORNB16012013900003203                                                                                                                               00        
0330002300015J00034191558000006449641127293184622938017569000FRAS-LE S/A                   16012013000000000644964000000000000000000000000000000160120130000000006449640000000000000002918                900003204           09      00        
0330002300016Z70976E135FEC52149F83A7B                                         PGTFORNB16012013900003204                                                                                                                               00        
0330002300017J00034191558000008266321127293184542938017569000FRAS-LE S/A                   16012013000000000826632000000000000000000000000000000160120130000000008266320000000000000002919                900003205           09      00        
0330002300018Z70976E17B333F1F499438CC                                         PGTFORNB16012013900003205                                                                                                                               00        
0330002300019J00034193558000000469001126945301090384625000000PECAS AUTOMOTIVAS ZEENE LTDA  16012013000000000046900000000000000000000000000000000160120130000000000469000000000000000002920                900003206           09      00        
0330002300020Z70976E150D4C19AFA808B8D                                         PGTFORNB16012013900003206                                                                                                                               00        
0330002300021J00023796558000007442240104093014000001202773500PLATANUS AUTOPECAS LTDA       16012013000000000744224000000000000000000000000000000160120130000000007442240000000000000002921                900003207           09      00        
0330002300022Z70976E18C79759851B85AFD                                         PGTFORNB16012013900003207                                                                                                                               00        
0330002300023J00023795558000000302290545090000031011800705060TONINI DISTRIBUIDORA LTDA     16012013000000000030229000000000000000000000000000000160120130000000000302290000000000000002922                900003208           09      00        
0330002300024Z70976E1F36D8DE16E2FA8CB                                         PGTFORNB16012013900003208                                                                                                                               00        
0330002300025J00039996558000000990512400457987506573205239001RODONAVES TRANSP E ENCOMENDAS 16012013000000000099051000000000000000000000000000000160120130000000000990510000000000000002923                900003209           09      00        
0330002300026Z70976E1D72155DAFD4A3137                                         PGTFORNB16012013900003209                                                                                                                               00        
0330002300027J00039993558000000146672400457988306573205239001RODONAVES TRANSP E ENCOMENDAS 16012013000000000014667000000000000000000000000000000160120130000000000146670000000000000002924                900003210           09      00        
0330002300028Z70976E12976BE21D61DB0E3                                         PGTFORNB16012013900003210                                                                                                                               00        
0330002300029J00039997558000000027963512576000000036521301632RODONAVES TRANSP E ENCOMENDAS 16012013000000000002796000000000000000000000000000000160120130000000000027960000000000000002925                900003211           09      00        
0330002300030Z70976E171F2B97AD3FF8502                                         PGTFORNB16012013900003211                                                                                                                               00        
03300025         000032000000000002698411000000000000000000310116                                                                                                                                                                               
03300031C2003031 2054375370001370033006500490028050300065 0000480000414 AUTO GERAL DE ITU LTDA                                                                              00000                                   00000000                    
0330003300001A0007002370339440000000039721 DE NIGRIS DISTRIBUIDORA DE VEI2931                16012013BRL000000000000000000000000021566900003189           16012013000000000021566                                        07          000        
0330003300002B   261591459000100                              00000                                                  00000000  160120130000000000215660000000000000000000000000000000000000000000000000000000000000000                00        
0330003300003Z70976E1A74B52B06E5E4303                                         PGTFORNB16012013900003189                                                                                                                               00        
0330003300004A0007002370339440000000039721 DE NIGRIS DISTRIBUIDORA DE VEI2932                16012013BRL000000000000000000000000032924900003190           16012013000000000032924                                        07          000        
0330003300005B   261591459000100                              00000                                                  00000000  160120130000000000329240000000000000000000000000000000000000000000000000000000000000000                00        
0330003300006Z70976E106D3C663414AE1D5                                         PGTFORNB16012013900003190                                                                                                                               00        
0330003300007A0007002370339440000000039721 DE NIGRIS DISTRIBUIDORA DE VEI2933                16012013BRL000000000000000000000000014784900003191           16012013000000000014784                                        07          000        
0330003300008B   261591459000100                              00000                                                  00000000  160120130000000000147840000000000000000000000000000000000000000000000000000000000000000                00        
0330003300009Z70976E19D7B560E21F35F12                                         PGTFORNB16012013900003191                                                                                                                               00        
0330003300010A0007002370339440000000039721 DE NIGRIS DISTRIBUIDORA DE VEI2934                16012013BRL000000000000000000000000212841900003192           16012013000000000212841                                        07          000        
0330003300011B   261591459000100                              00000                                                  00000000  160120130000000002128410000000000000000000000000000000000000000000000000000000000000000                00        
0330003300012Z70976E1053C1F5BD529C7BE                                         PGTFORNB16012013900003192                                                                                                                               00        
03300035         000014000000000000282115000000000000000000030116                                                                                                                                                                               
03399999         000003000058000000                                                                                                                                                                                                             
