03300000         2054375370001370033006500490028050300065 0000480000414 AUTO GERAL DE ITU LTDA        SANTANDER                               20102201302225200019706000000                                                                     
03300011C2030030 2054375370001370033006500490028050300065 0000480000414 AUTO GERAL DE ITU LTDA                                                                              00000                                   00000000                    
0330001300001J00003398559600003337099499820000000000354670104KS PRODUTOS AUTOMOTIVOS LTDA  01022013000000000333709000000000000000000000000000000010220130000000003337090000000000000003439                900003703           09      00        
0330001300002Z70976E1DEE84D8524D30F10                                         PGTFORNB01022013900003703                                                                                                                               00        
0330001300003J00003396559600021081259489019100000092218670104KSPG AUTOMOTIVE BRASIL LTDA   01022013000000002108125000000000000000000000000000000010220130000000021081250000000000000003440                900003704           09      00        
0330001300004Z70976E158D5C8D8B5EFD4EE                                         PGTFORNB01022013900003704                                                                                                                               00        
0330001300005J00003396559600000417609512606100000031798180101SERRAF DISTR DE PECAS PARA MOT01022013000000000041760000000000000000000000000000000010220130000000000417600000000000000003452                900003705           09      00        
0330001300006Z70976E13CCE4E40E5EFB6E8                                         PGTFORNB01022013900003705                                                                                                                               00        
0330001300007J00035691559600000222100689070323400000003260158DISTRIBUIDORA AUTOMOTIVA S/A  01022013000000000022210000000000000000000000000000000010220130000000000222100000000000000003431                900003718           09      00        
0330001300008Z70976E121B11954BB9F18EE                                         PGTFORNB01022013900003718                                                                                                                               00        
03300015         000010000000000002505804000000000000000000300201                                                                                                                                                                               
03300021C2031030 2054375370001370033006500490028050300065 0000480000414 AUTO GERAL DE ITU LTDA                                                                              00000                                   00000000                    
0330002300001J00023791559600000296560138092349000002701453000OBB CONSULTORIA E PARTICIPACOE01022013000000000029656000000000000000000000000000000010220130000000000296560000000000000003432                900003719           09      00        
0330002300002Z70976E129C3FB3BDF63BDA0                                         PGTFORNB01022013900003719                                                                                                                               00        
0330002300003J00034196559600000112201127179769822938000052000EATON LTDA                    01022013000000000011220000000000000000000000000000000010220130000000000112200000000000000003435                900003722           09      00        
0330002300004Z70976E11D58DAE8EA336738                                         PGTFORNB01022013900003722                                                                                                                               00        
0330002300005J00034193559600000152481126689749942938000052000EATON LTDA                    01022013000000000015248000000000000000000000000000000010220130000000000152480000000000000003436                900003723           09      00        
0330002300006Z70976E1970032E04724DEDA                                         PGTFORNB01022013900003723                                                                                                                               00        
0330002300007J00034191559600000320001561732628920069177186000FRANCIULLI COM PECAS LTDA EPP 01022013000000000032000000000000000000000000000000000010220130000000000320000000000000000003437                900003724           09      00        
0330002300008Z70976E1A3D021268E7B1A40                                         PGTFORNB01022013900003724                                                                                                                               00        
0330002300009J00034197559600000132731090304402500109276204000GIRANDO COMERCIO DE PECAS LTDA01022013000000000013273000000000000000000000000000000010220130000000000132730000000000000003438                900003725           09      00        
0330002300010Z70976E1371F8564B29DC60B                                         PGTFORNB01022013900003725                                                                                                                               00        
0330002300011J00039995559600005385192315391920805313093513001REAL MOTO PECAS LTDA          01022013000000000538519000000000000000000000000000000010220130000000005385190000000000000003449                900003734           09      00        
0330002300012Z70976E13D9ADFFA0493D541                                         PGTFORNB01022013900003734                                                                                                                               00        
0330002300013J00039998559600000771443133508370105313093513001REAL MOTO PECAS LTDA          01022013000000000077144000000000000000000000000000000010220130000000000771440000000000000003450                900003735           09      00        
0330002300014Z70976E1C08D47431CBFF48E                                         PGTFORNB01022013900003735                                                                                                                               00        
0330002300015J00039993559600000283552315389354305313093513001REAL MOTO PECAS LTDA          01022013000000000028355000000000000000000000000000000010220130000000000283550000000000000003451                900003736           09      00        
0330002300016Z70976E16F2E913833E9926C                                         PGTFORNB01022013900003736                                                                                                                               00        
0330002300017J00034198559600000186831127695406293184122228000UNIVERSAL AUTOMOTIVE SYSTEMS S01022013000000000018683000000000000000000000000000000010220130000000000186830000000000000003453                900003737           09      00        
0330002300018Z70976E1F1829CDC0A3E3EC9                                         PGTFORNB01022013900003737                                                                                                                               00        
0330002300019J00000191559600000930630442891154134200002431331ZM S/A                        01022013000000000093063000000000000000000000000000000010220130000000000930630000000000000003454                900003738           09      00        
0330002300020Z70976E16AC641286D91CFB6                                         PGTFORNB01022013900003738                                                                                                                               00        
0330002300021J00039991559600001559502400469179906573205239001RODONAVES TRANSP E ENCOMENDAS 01022013000000000155950000000000000000000000000000000010220130000000001559500000000000000003455                900003739           09      00        
0330002300022Z70976E155E47087E2B3D1DA                                         PGTFORNB01022013900003739                                                                                                                               00        
0330002300023J00000192559600000250000000001729432000000059717MG TELECOMUNICACOES E INFORMAT01022013000000000025000000000000000000000000000000000010220130000000000250000000000000000003456                900003740           09      00        
0330002300024Z70976E1F86BE7A02C4FE03E                                         PGTFORNB01022013900003740                                                                                                                               00        
0330002300025J00023791559600000505462372196600102002200360080TELEFONICA BRASIL S/A         01022013000000000050546000000000000000000000000000000010220130000000000505460000000000000003457                900003741           09      00        
0330002300026Z70976E152AAF255B9073B41                                         PGTFORNB01022013900003741                                                                                                                               00        
0330002300027J00034192559600002848761127179772382938000052000EATON LTDA                    01022013000000000284876000000000000000000000000000000010220130000000002848760000000000000003433                900003720           09      00        
0330002300028Z70976E1C94141B575295804                                         PGTFORNB01022013900003720                                                                                                                               00        
0330002300029J00034198559600000329461127179769412938000052000EATON LTDA                    01022013000000000032946000000000000000000000000000000010220130000000000329460000000000000003434                900003721           09      00        
0330002300030Z70976E18004B587FA4C56F6                                         PGTFORNB01022013900003721                                                                                                                               00        
0330002300031J00023791559600005813461226091130183253800000070APLIC COM IND DE AUTO PECAS LT01022013000000000581346000000000000000000000000000000010220130000000005813460000000000000003419                900003706           09      00        
0330002300032Z70976E1DEB89039C1EDEDC9                                         PGTFORNB01022013900003706                                                                                                                               00        
0330002300033J00023794559600000205213371090000833815000719500AVEBRAZ COMERCIO DE VEICULOS E01022013000000000020521000000000000000000000000000000010220130000000000205210000000000000003420                900003707           09      00        
0330002300034Z70976E1BC47701B1E212C79                                         PGTFORNB01022013900003707                                                                                                                               00        
0330002300035J00034195559600000867501126229895671248021303000BANCO FIBRA SA                01022013000000000086750000000000000000000000000000000010220130000000000867500000000000000003421                900003708           09      00        
0330002300036Z70976E1F0EE606CDD6F7553                                         PGTFORNB01022013900003708                                                                                                                               00        
0330002300037J00023794559600001524253114091294475499601763000BANCO SAFRA S/A               01022013000000000152425000000000000000000000000000000010220130000000001524250000000000000003422                900003709           09      00        
0330002300038Z70976E1484B14B39D72DC4E                                         PGTFORNB01022013900003709                                                                                                                               00        
0330002300039J00034194559600000979001126911708838514325201000BODIPASA BOMBAS DIESEL PAULIST01022013000000000097900000000000000000000000000000000010220130000000000979000000000000000003423                900003710           09      00        
0330002300040Z70976E117C745F7D8F0F0F3                                         PGTFORNB01022013900003710                                                                                                                               00        
0330002300041J00000193559600004607010000001681743000000535117BRUNKO IND E COM DE AUTOPECAS 01022013000000000460701000000000000000000000000000000010220130000000004607010000000000000003424                900003711           09      00        
0330002300042Z70976E1204A0ED1841B256C                                         PGTFORNB01022013900003711                                                                                                                               00        
0330002300043J00034198559600000263001127338650290076000777000CENTER PECAS FABBRI LTDA      01022013000000000026300000000000000000000000000000000010220130000000000263000000000000000003425                900003712           09      00        
0330002300044Z70976E16A8AF3409E087736                                         PGTFORNB01022013900003712                                                                                                                               00        
0330002300045J00034195559600009833281127527812550360545834000COBRA ROLAMENTOS E AUTO PECAS 01022013000000000983328000000000000000000000000000000010220130000000009833280000000000000003426                900003713           09      00        
0330002300046Z70976E19EFC4CD6F4C36D80                                         PGTFORNB01022013900003713                                                                                                                               00        
0330002300047J00034191559600001112481127527814790360545834000COBRA ROLAMENTOS E AUTO PECAS 01022013000000000111248000000000000000000000000000000010220130000000001112480000000000000003427                900003714           09      00        
0330002300048Z70976E19DD757C3E5F4DC7A                                         PGTFORNB01022013900003714                                                                                                                               00        
0330002300049J00023791559600000727923262090000033045800935470COMDIP COMERCIAL DISTR DE PECA01022013000000000072792000000000000000000000000000000010220130000000000727920000000000000003428                900003715           09      00        
0330002300050Z70976E176B5862042A7AAF8                                         PGTFORNB01022013900003715                                                                                                                               00        
0330002300051J00023797559600000991892002061301398249100829680COMERCIAL AUTOMOTIVA S.A.     01022013000000000099189000000000000000000000000000000010220130000000000991890000000000000003429                900003716           09      00        
0330002300052Z70976E1C060F44A952BFBE6                                         PGTFORNB01022013900003716                                                                                                                               00        
0330002300053J00034191559600000664001571381294114522114471000COML NV MILLENNIUN A P LTDA EP01022013000000000066400000000000003320000000000000000010220130000000000630800000000000000003430                900003717           09      00        
0330002300054Z70976E1282BDDF176A2969E                                         PGTFORNB01022013900003717                                                                                                                               00        
0330002300055J00023798559600000530003372097672311626200767230MAGGI VEICULOS LTDA           01022013000000000053000000000000000000000000000000000010220130000000000530000000000000000003441                900003726           09      00        
0330002300056Z70976E1B49003BE10337EB7                                         PGTFORNB01022013900003726                                                                                                                               00        
0330002300057J00000192559600000062500000001653885000003400118MG TELECOMUNICACOES E INFORMAT01022013000000000006250000000000000000000000000000000010220130000000000062500000000000000003442                900003727           09      00        
0330002300058Z70976E1621A5F7266078EB6                                         PGTFORNB01022013900003727                                                                                                                               00        
0330002300059J00039994559600000534638144668575904540096965001PELLEGRINO DISTRIBUIDORA DE AU01022013000000000053463000000000000000000000000000000010220130000000000534630000000000000003443                900003728           09      00        
0330002300060Z70976E120FD6BEF15C6DA23                                         PGTFORNB01022013900003728                                                                                                                               00        
0330002300061J00039997559600000583898144668598804540096965001PELLEGRINO DISTRIBUIDORA DE AU01022013000000000058389000000000000000000000000000000010220130000000000583890000000000000003444                900003729           09      00        
0330002300062Z70976E13A5835D782BA5150                                         PGTFORNB01022013900003729                                                                                                                               00        
0330002300063J00039996559600000650902696551077904540096965001PELLEGRINO DISTRIBUIDORA DE AU01022013000000000065090000000000000000000000000000000010220130000000000650900000000000000003445                900003730           09      00        
0330002300064Z70976E1244C494D9918D22A                                         PGTFORNB01022013900003730                                                                                                                               00        
0330002300065J00034194559600000438841127959313960191074004000POLIPECAS COMERCIAL E IMPORTAD01022013000000000043884000000000003072000000000000000010220130000000000408120000000000000003446                900003731           09      00        
0330002300066Z70976E116D3B85E8D0A4512                                         PGTFORNB01022013900003731                                                                                                                               00        
0330002300067J00000197559600000869150442876992533200000052731RAYTON INDUSTRIAL SA          01022013000000000086915000000000000000000000000000000010220130000000000869150000000000000003447                900003732           09      00        
0330002300068Z70976E193484984B0A83BBE                                         PGTFORNB01022013900003732                                                                                                                               00        
0330002300069J00039992559600000542292315392735905313093513001REAL MOTO PECAS LTDA          01022013000000000054229000000000000000000000000000000010220130000000000542290000000000000003448                900003733           09      00        
0330002300070Z70976E15D88D215C3CF240B                                         PGTFORNB01022013900003733                                                                                                                               00        
03300025         000072000000000004580207000000000000000000310201                                                                                                                                                                               
03300031C2003031 2054375370001370033006500490028050300065 0000480000414 AUTO GERAL DE ITU LTDA                                                                              00000                                   00000000                    
0330003300001A0007000010292380000000041920 SATTURNO SOROCABA TELEFONIA LT3459                01022013BRL000000000000000000000000100290900003701           01022013000000000100290                                        07          000        
0330003300002B   200106697000180                              00000                                                  00000000  010220130000000001002900000000000000000000000000000000000000000000000000000000000000000                00        
0330003300003Z70976E1915234003D272C9E                                         PGTFORNB01022013900003701                                                                                                                               00        
0330003300004A0007000010292380000000041920 SATTURNO SOROCABA TELEFONIA LT3460                01022013BRL000000000000000000000000058656900003702           01022013000000000058656                                        07          000        
0330003300005B   200106697000180                              00000                                                  00000000  010220130000000000586560000000000000000000000000000000000000000000000000000000000000000                00        
0330003300006Z70976E1DF1B46D1A1B3FA58                                         PGTFORNB01022013900003702                                                                                                                               00        
03300035         000008000000000000158946000000000000000000030201                                                                                                                                                                               
03399999         000003000092000000                                                                                                                                                                                                             
