03300000         2054375370001370033006500490028050300065 0000480000414 AUTO GERAL DE ITU LTDA        SANTANDER                               20111201202252600002306000000                                                                     
03300011C2030030 2054375370001370033006500490028050300065 0000480000414 AUTO GERAL DE ITU LTDA                                                                              00000                                   00000000                    
0330001300001J00035694550400000112570689070323430000004887253DISTRIBUIDORA AUTOMOTIVA S.A  0111201200000000001125700000000000000000000000000000001112012000000000011257000000000000000313                 900000606           09      00        
0330001300002Z70976E1B7F1833EA4753230                                         PGTFORNB01112012900000606                                                                                                                               00        
0330001300003J00035694550400000297900689070323420000004887221DISTRIBUIDORA DE AUTOMOTIVA LT0111201200000000002979000000000000000000000000000000001112012000000000029790000000000000000314                 900000607           09      00        
0330001300004Z70976E14C09A8A4D18D9F9E                                         PGTFORNB01112012900000607                                                                                                                               00        
0330001300005J00003391550400002703209482966200000020327750104CAR CENTRAL DE AUTOPECAS ROLAM0111201200000000027032000000000000000000000000000000001112012000000000270320000000000000000324                 900000580           09      00        
0330001300006Z70976E14C3EECA7754E9654                                         PGTFORNB01112012900000580                                                                                                                               00        
0330001300007J00003398550400021046389485738000000090351170203DRIVEWAY INDUSTRIA BRASILEIRA 0111201200000000210463800000000018359500000000000000001112012000000001921043000000000000000325                 900000581           09      00        
0330001300008Z70976E1BAF3DDDCDA09E56C                                         PGTFORNB01112012900000581                                                                                                                               00        
0330001300009J00003397550400000874369485738000000090352730104DRIVEWAY INDUSTRIA BRASILEIRA 0111201200000000008743600000000000000000000000000000001112012000000000087436000000000000000326                 900000582           09      00        
0330001300010Z70976E1BEF372030701E423                                         PGTFORNB01112012900000582                                                                                                                               00        
03300015         000012000000000002319846000000000000000000301101                                                                                                                                                                               
03300021C2031030 2054375370001370033006500490028050300065 0000480000414 AUTO GERAL DE ITU LTDA                                                                              00000                                   00000000                    
0330002300001J00000198550400002029950000001112151000000000117PARQUE DIST SUPRIMENTOS PARA E0111201200000000020299500000000000000000000000000000001112012000000000202995000000000000000290                 900000583           09      00        
0330002300002Z70976E102444FDB26821479                                         PGTFORNB01112012900000583                                                                                                                               00        
0330002300003J00039996550400000268361762204424204540096965001PELLEGRINO COM DISTR DE AUTOPE0111201200000000002683600000000000000000000000000000001112012000000000026836000000000000000291                 900000584           09      00        
0330002300004Z70976E1BB32A4D2ECC6A6FD                                         PGTFORNB01112012900000584                                                                                                                               00        
0330002300005J00034191550400000104171815720495080017749003000DOVAC INDUSTRIA E COM LTDA    0111201200000000001041700000000000000000000000000000001112012000000000010417000000000000000292                 900000585           09      00        
0330002300006Z70976E113A29DB9C60E48E0                                         PGTFORNB01112012900000585                                                                                                                               00        
0330002300007J00034193550400000685341124653153918351016152000MANDO MACHINERY LTDA          0111201200000000006853400000000000000000000000000000001112012000000000068534000000000000000293                 900000586           09      00        
0330002300008Z70976E158DD3AA7C7639813                                         PGTFORNB01112012900000586                                                                                                                               00        
0330002300009J00023795550400000707493395090000004692600650000SORANA SUL                    0111201200000000007074900000000000000000000000000000001112012000000000070749000000000000000294                 900000587           09      00        
0330002300010Z70976E186A96B4E41422FCF                                         PGTFORNB01112012900000587                                                                                                                               00        
0330002300011J00023793550400000475273262090000028514200935470COMDIP COMERCIAL DE PECAS LTDA0111201200000000004752700000000000000000000000000000001112012000000000047527000000000000000295                 900000588           09      00        
0330002300012Z70976E1CB9312F9ED22C825                                         PGTFORNB01112012900000588                                                                                                                               00        
0330002300013J00000196550400000241570000001244482993004955917RPT DISTRIBUIDORA DE AUTO PCS 0111201200000000002415700000000000000000000000000000001112012000000000024157000000000000000296                 900000589           09      00        
0330002300014Z70976E16C42D0CA1D2E750B                                         PGTFORNB01112012900000589                                                                                                                               00        
0330002300015J00023798550400005980852028192272000003400375550MASTER SISTEMAS AUTOMOTIVOS LT0111201200000000059808500000000000000000000000000000001112012000000000598085000000000000000297                 900000590           09      00        
0330002300016Z70976E14919D05D5471CD4B                                         PGTFORNB01112012900000590                                                                                                                               00        
0330002300017J00023794550400000360001384022278000000500020270IMPACTUS DISTR PCS E ACESS P/A0111201200000000003600000000000000000000000000000000001112012000000000036000000000000000000298                 900000591           09      00        
0330002300018Z70976E1949B312477569769                                         PGTFORNB01112012900000591                                                                                                                               00        
0330002300019J00023792550400000323000501092278000001100468660DIP DISTRIBUIDORA DE PECAS    0111201200000000003230000000000000000000000000000000001112012000000000032300000000000000000299                 900000592           09      00        
0330002300020Z70976E1E475BDA15897CACA                                         PGTFORNB01112012900000592                                                                                                                               00        
0330002300021J00000193550400000246020000002096857000000556717PTD COMERCIO DE PECAS LTDA    0111201200000000002460200000000000000000000000000000001112012000000000024602000000000000000300                 900000593           09      00        
0330002300022Z70976E19FAB752EE90ACEA4                                         PGTFORNB01112012900000593                                                                                                                               00        
0330002300023J00034194550400000082711124678697342938000052000EATON LTDA                    0111201200000000000827100000000000000000000000000000001112012000000000008271000000000000000301                 900000594           09      00        
0330002300024Z70976E18FA701FE375A1ADB                                         PGTFORNB01112012900000594                                                                                                                               00        
0330002300025J00034196550400000506101122740511612938000052000EATON LTDA                    0111201200000000005061000000000000000000000000000000001112012000000000050610000000000000000302                 900000595           09      00        
0330002300026Z70976E14A19B1F977D4A7AE                                         PGTFORNB01112012900000595                                                                                                                               00        
0330002300027J00023791550400000302730138092271000001401453000OBB CONSULTORIA E PARTICIPACOE0111201200000000003027300000000000000000000000000000001112012000000000030273000000000000000303                 900000596           09      00        
0330002300028Z70976E19C0E4029057C1D8F                                         PGTFORNB01112012900000596                                                                                                                               00        
0330002300029J00023791550400000399003114091292533491001763000BANCO SAFRA S/A               0111201200000000003990000000000000000000000000000000001112012000000000039900000000000000000304                 900000597           09      00        
0330002300030Z70976E14EB80F0B79B516F3                                         PGTFORNB01112012900000597                                                                                                                               00        
0330002300031J00023793550400000409033484092261000012301129000PETRONAS LUBRIFICANTES BRASIL 0111201200000000004090300000000000000000000000000000001112012000000000040903000000000000000305                 900000598           09      00        
0330002300032Z70976E1A4C3AE0545DF6C5A                                         PGTFORNB01112012900000598                                                                                                                               00        
0330002300033J00000192550400000241570000001244482976000609917RENOVA AUTO PECAS LTDA ME     0111201200000000002415700000000000000000000000000000001112012000000000024157000000000000000306                 900000599           09      00        
0330002300034Z70976E1D78C7097D77AC483                                         PGTFORNB01112012900000599                                                                                                                               00        
0330002300035J00023797550400002500043484092247000036301129000PETRONAS LUBRIFICANTES BRASIL 0111201200000000025000400000000000000000000000000000001112012000000000250004000000000000000307                 900000600           09      00        
0330002300036Z70976E12B4B301A10AA4506                                         PGTFORNB01112012900000600                                                                                                                               00        
0330002300037J00039996550400000376191761800867304061860231001CAR CENTRAL DE AUTOPECAS E ROL0111201200000000003761900000000000000000000000000000001112012000000000037619000000000000000308                 900000601           09      00        
0330002300038Z70976E1E36E7D861B129F6C                                         PGTFORNB01112012900000601                                                                                                                               00        
0330002300039J00039994550400000021491762089741804540575219001TRELLEBORG AUTOMOTIVE DO BRASI0111201200000000000214900000000000000000000000000000001112012000000000002149000000000000000309                 900000602           09      00        
0330002300040Z70976E19816F39C634A4ACD                                         PGTFORNB01112012900000602                                                                                                                               00        
0330002300041J00039995550400002762731762089739604540575219001TRELLEBORG AUTOMOTIVE DO BRASI0111201200000000027627300000000000000000000000000000001112012000000000276273000000000000000310                 900000603           09      00        
0330002300042Z70976E1DAF0406B01610D16                                         PGTFORNB01112012900000603                                                                                                                               00        
0330002300043J00034197550400000954581124670569362938107808000ELIVEL AUTOMOTORES LTDA       0111201200000000009545800000000000000000000000000000001112012000000000095458000000000000000311                 900000604           09      00        
0330002300044Z70976E1E6E80BB66A894753                                         PGTFORNB01112012900000604                                                                                                                               00        
0330002300045J00034198550400000319991090303931030109276204000GIRANDO COMERCIO DE PECAS LTDA0111201200000000003199900000000000000000000000000000001112012000000000031999000000000000000312                 900000605           09      00        
0330002300046Z70976E10310D45421C58AC6                                         PGTFORNB01112012900000605                                                                                                                               00        
0330002300047J00039997550400000696762053138364905313093513001REAL MOTO PECAS LTDA          0111201200000000006967600000000000000000000000000000001112012000000000069676000000000000000315                 900000608           09      00        
0330002300048Z70976E160FC8004B94B00A8                                         PGTFORNB01112012900000608                                                                                                                               00        
0330002300049J00023799550400000163162002061201364889100829680COMERCIAL AUTOMOTIVA S.A.     0111201200000000001631600000000000000000000000000000001112012000000000016316000000000000000316                 900000609           09      00        
0330002300050Z70976E1B001D495741F6E5D                                         PGTFORNB01112012900000609                                                                                                                               00        
0330002300051J00023797550400000210712002061201364625100829680COMERCIAL AUTOMOTIVA S.A.     0111201200000000002107100000000000000000000000000000001112012000000000021071000000000000000317                 900000610           09      00        
0330002300052Z70976E1171819106F54AA37                                         PGTFORNB01112012900000610                                                                                                                               00        
0330002300053J00023791550400000331163395061180232790900028140ROCHESTER DISTRIBUIDORA DE AUT0111201200000000003311600000000000000000000000000000001112012000000000033116000000000000000318                 900000611           09      00        
0330002300054Z70976E1F053DA862B12178E                                         PGTFORNB01112012900000611                                                                                                                               00        
0330002300055J00000195550400000179580000002175416000002522417SK AUTOMOTIVE S/A DIST AUTOPEC0111201200000000001795800000000000000000000000000000001112012000000000017958000000000000000319                 900000612           09      00        
0330002300056Z70976E14086F65C3C2545C6                                         PGTFORNB01112012900000612                                                                                                                               00        
0330002300057J00000196550400000629120000001148003000006794217VESPOR AUTOMOTIVE DISTR DE AUT0111201200000000006291200000000000000000000000000000001112012000000000062912000000000000000320                 900000613           09      00        
0330002300058Z70976E1DD7ABA0E06F9D951                                         PGTFORNB01112012900000613                                                                                                                               00        
0330002300059J00000198550400010751920000001291892000004231017VESPOR AUTOMOTIVE DISTR DE AUT0111201200000000107519200000000000000000000000000000001112012000000001075192000000000000000321                 900000614           09      00        
0330002300060Z70976E1DA0ADD6C90B93B7D                                         PGTFORNB01112012900000614                                                                                                                               00        
0330002300061J00023791550400001951123391020007156913400010210INTERSMART COM IMP EXP EQUIP E0111201200000000019511200000000000000000000000000000001112012000000000195112000000000000000322                 900000615           09      00        
0330002300062Z70976E1E81141420EEC4483                                         PGTFORNB01112012900000615                                                                                                                               00        
0330002300063J00039991550400000844622053127144105313093513001REAL MOTO PECAS LTDA          0111201200000000008446200000000000000000000000000000001112012000000000084462000000000000000323                 900000616           09      00        
0330002300064Z70976E1A120F165926CD940                                         PGTFORNB01112012900000616                                                                                                                               00        
0330002300065J00034194550400000906441125060939243150173205000LG FIXA COM AUTO PECAS LTDA   0111201200000000009064400000000000000000000000000000001112012000000000090644000000000000000327                 900000617           09      00        
0330002300066Z70976E191ABD7E2642E6E92                                         PGTFORNB01112012900000617                                                                                                                               00        
0330002300067J00000196550400002472190000001291892000004231817VESPOR AUTOMOTIVE DIST DE AUTO0111201200000000024721900000000000000000000000000000001112012000000000247219000000000000000328                 900000618           09      00        
0330002300068Z70976E1A22C8F5C18FC9058                                         PGTFORNB01112012900000618                                                                                                                               00        
0330002300069J00000191550400001156720000001148003000006794117VESPOR AUTOMOTIVE DIST DE AUTO0111201200000000011567200000000000000000000000000000001112012000000000115672000000000000000329                 900000619           09      00        
0330002300070Z70976E140583E709B9ACC5D                                         PGTFORNB01112012900000619                                                                                                                               00        
0330002300071J00000195550400001782170000001148003000006794017VESPOR AUTOMOTIVE DIST DE AUTO0111201200000000017821700000000000000000000000000000001112012000000000178217000000000000000330                 900000620           09      00        
0330002300072Z70976E1AAC50C96512B574F                                         PGTFORNB01112012900000620                                                                                                                               00        
0330002300073J00034196550400001249351125255679733129414797000DOFAB USINAGEM LTDA EPP       0111201200000000012493500000000000000000000000000000001112012000000000124935000000000000000331                 900000621           09      00        
0330002300074Z70976E1ACA881ACAFF1828F                                         PGTFORNB01112012900000621                                                                                                                               00        
0330002300075J00023796550400001138893372091122910486500731020MAGGI AUTOMOVEIS LTDA         0111201200000000011388900000000000000000000000000000001112012000000000113889000000000000000332                 900000622           09      00        
0330002300076Z70976E1DD7BD6AD73A34FB8                                         PGTFORNB01112012900000622                                                                                                                               00        
0330002300077J00023795550400000593822372196600092676600360080TELEFONICA BRASIL S/A         0111201200000000005938200000000000000000000000000000001112012000000000059382000000000000000333                 900000623           09      00        
0330002300078Z70976E18E3BAEE67353449C                                         PGTFORNB01112012900000623                                                                                                                               00        
0330002300079J00039991550400000061942400392966006573205239001RODONAVES TRANSP E ENCOMENDAS 0111201200000000000619400000000000000000000000000000001112012000000000006194000000000000000334                 900000624           09      00        
0330002300080Z70976E18CB4681611B2220A                                         PGTFORNB01112012900000624                                                                                                                               00        
0330002300081J00039996550400001760432400392965106573205239001RODONAVES TRANSP E ENCOMENDAS 0111201200000000017604300000000000000000000000000000001112012000000000176043000000000000000335                 900000625           09      00        
0330002300082Z70976E1147F1BF2649DA72A                                         PGTFORNB01112012900000625                                                                                                                               00        
03300025         000084000000000004717828000000000000000000311101                                                                                                                                                                               
03399999         000002000098000000                                                                                                                                                                                                             
