03300000         2054375370001370033006500490028050300065 0000480000414 AUTO GERAL DE ITU LTDA        SANTANDER                               21312201202183800010006000000                                                                     
03300011C2030030 2054375370001370033006500490028050300065 0000480000414 AUTO GERAL DE ITU LTDA                                                                              00000                                   00000000                    
0330001300001J00003391554600003200219504444800000000708580101BOSAL DO BARSIL LTDA          13122012000000000320021000000000000000000000000000000131220120000000003200210000000000000001774                900002104           09      00        
0330001300002Z70976E1396428EE571F07BE                                         PGTFORNB13122012900002104                                                                                                                               00        
0330001300003J00003393554600003998739499820000000000250700104KS PRODUTOS AUTOMOTIVOS LTDA  13122012000000000399873000000000000000000000000000000131220120000000003998730000000000000001786                900002105           09      00        
0330001300004Z70976E19068C1543521F0C3                                         PGTFORNB13122012900002105                                                                                                                               00        
0330001300005J00003391554600013886089489019100000092063370104KSPG AUTOMOTIVE BRASIL LTDA   13122012000000001388608000000000000000000000000000000131220120000000013886080000000000000001787                900002106           09      00        
0330001300006Z70976E1B8CBE2CDB8CD857A                                         PGTFORNB13122012900002106                                                                                                                               00        
0330001300007J00035699554600000582340409503986700000000239502ITA PECAS PARA VEIC COM E SERV13122012000000000058234000000000000000000000000000000131220120000000000582340000000000000001783                900002117           09      00        
0330001300008Z70976E17A8AED2054020896                                         PGTFORNB13122012900002117                                                                                                                               00        
03300015         000010000000000002166736000000000000000000301213                                                                                                                                                                               
03300021C2031030 2054375370001370033006500490028050300065 0000480000414 AUTO GERAL DE ITU LTDA                                                                              00000                                   00000000                    
0330002300001J00034191554600000486331090008383232938050420000ITA PECAS PARA VEIC COM E SERV13122012000000000048633000000000000000000000000000000131220120000000000486330000000000000001784                900002118           09      00        
0330002300002Z70976E15C3E3C387EAC1E62                                         PGTFORNB13122012900002118                                                                                                                               00        
0330002300003J00034191554600012806861090000158245199147918000UNIBOMBAS IND COM DE AUTOPECAS13122012000000001280686000000000000000000000000000000131220120000000012806860000000000000001805                900002137           09      00        
0330002300004Z70976E1322EDAD48704EFB3                                         PGTFORNB13122012900002137                                                                                                                               00        
0330002300005J00034191554600001006261126358628920017328824000MTE THOMSON IND COM LTDA      13122012000000000100626000000000000000000000000000000131220120000000001006260000000000000001788                900002120           09      00        
0330002300006Z70976E1030BFC89A1043E05                                         PGTFORNB13122012900002120                                                                                                                               00        
0330002300007J00034192000000000000001219800648601012365225000PACAEMBU AUTO PECAS LTDA      13122012000000000251142000000000000000000000000000000131220120000000002511420000000000000001789                900002121           09      00        
0330002300008Z70976E10E3AAF10DF8858A4                                         PGTFORNB13122012900002121                                                                                                                               00        
0330002300009J00039999554600000150181763952275003280030090001ITAVEMA ITALIA VEICULOS E MAQU13122012000000000015018000000000000000000000000000000131220120000000000150180000000000000001785                900002119           09      00        
0330002300010Z70976E185F40169E7D64EC7                                         PGTFORNB13122012900002119                                                                                                                               00        
0330002300011J00034192554600003279551126394859890390497683000AUTIMEX COM IMPORTACAO E EXPOR13122012000000000327955000000000000000000000000000000131220120000000003279550000000000000001772                900002107           09      00        
0330002300012Z70976E12A0A2B8D95C03B9A                                         PGTFORNB13122012900002107                                                                                                                               00        
0330002300013J00023791554600000653333114091293598241801763000BANCO SAFRA S/A               13122012000000000065333000000000000000000000000000000131220120000000000653330000000000000001773                900002108           09      00        
0330002300014Z70976E144AC84ED93D0468B                                         PGTFORNB13122012900002108                                                                                                                               00        
0330002300015J00023791554600000718370495092262000040500995600CAOA CAMINHOES LTDA           13122012000000000071837000000000000000000000000000000131220120000000000718370000000000000001775                900002109           09      00        
0330002300016Z70976E194E8D507AB790E22                                         PGTFORNB13122012900002109                                                                                                                               00        
0330002300017J00023792554600000481553262090000030075900935470COMDIP COMERCIAL DISTR DE PECA13122012000000000048155000000000000000000000000000000131220120000000000481550000000000000001776                900002110           09      00        
0330002300018Z70976E11359FEED29F4EBF0                                         PGTFORNB13122012900002110                                                                                                                               00        
0330002300019J00034192554600000267121125945731182938107808000ELIVEL AUTOMOTORES LTDA       13122012000000000026712000000000000000000000000000000131220120000000000267120000000000000001777                900002111           09      00        
0330002300020Z70976E180E3F3C1A03106AE                                         PGTFORNB13122012900002111                                                                                                                               00        
0330002300021J00034192554600000546621125945720862938107808000ELIVEL AUTOMOTORES LTDA       13122012000000000054662000000000000000000000000000000131220120000000000546620000000000000001778                900002112           09      00        
0330002300022Z70976E142382CBF1C775C86                                         PGTFORNB13122012900002112                                                                                                                               00        
0330002300023J00039991554600000380831763167501804570524809001F CONFUORTO IND COM PCS LTDA  13122012000000000038083000000000000000000000000000000131220120000000000380830000000000000001779                900002113           09      00        
0330002300024Z70976E1B76D2CA7F07FE8F3                                         PGTFORNB13122012900002113                                                                                                                               00        
0330002300025J00034191554600001088521124191957580046365078000FELICIO VIGORITO FILHOS LTDA  13122012000000000108852000000000000000000000000000000131220120000000001088520000000000000001780                900002114           09      00        
0330002300026Z70976E119B2A0BC2E7AD41C                                         PGTFORNB13122012900002114                                                                                                                               00        
0330002300027J00034198554600000095341090304146510109276204000GIRANDO COMERCIO DE PECAS LTDA13122012000000000009534000000000000000000000000000000131220120000000000095340000000000000001781                900002115           09      00        
0330002300028Z70976E11E4082D47373AEE3                                         PGTFORNB13122012900002115                                                                                                                               00        
0330002300029J00034194554600000324831090304146440109276204000GIRANDO COMERCIO DE PECAS LTDA13122012000000000032483000000000000000000000000000000131220120000000000324830000000000000001782                900002116           09      00        
0330002300030Z70976E173C877B23226731D                                         PGTFORNB13122012900002116                                                                                                                               00        
0330002300031J00034195000000000000001219800648941012365225000PACAEMBU AUTO PECAS LTDA      13122012000000000101133000000000000000000000000000000131220120000000001011330000000000000001790                900002122           09      00        
0330002300032Z70976E1C21CF55646540F8B                                         PGTFORNB13122012900002122                                                                                                                               00        
0330002300033J00034197000000000000001219800648521012365225000PACAEMBU AUTO PECAS LTDA      13122012000000000066968000000000000000000000000000000131220120000000000669680000000000000001791                900002123           09      00        
0330002300034Z70976E1479F266D0DBE704C                                         PGTFORNB13122012900002123                                                                                                                               00        
0330002300035J00034195000000000000001219800648451012365225000PACAEMBU AUTO PECAS LTDA      13122012000000000036148000000000000000000000000000000131220120000000000361480000000000000001792                900002124           09      00        
0330002300036Z70976E19E329E1C1D7CE2BC                                         PGTFORNB13122012900002124                                                                                                                               00        
0330002300037J00023795554600000832120151091323350021801251750PECA MAIS COMERCIO DE AUTO PEC13122012000000000083212000000000000000000000000000000131220120000000000832120000000000000001793                900002125           09      00        
0330002300038Z70976E19D46941E151E133E                                         PGTFORNB13122012900002125                                                                                                                               00        
0330002300039J00039996554600000475522696545386404540096965001PELLEGRINO DISTRIBUIDORA DE AU13122012000000000047552000000000000000000000000000000131220120000000000475520000000000000001794                900002126           09      00        
0330002300040Z70976E18B4A22B4A83BF398                                         PGTFORNB13122012900002126                                                                                                                               00        
0330002300041J00023794554600000438013484092289000016401129000PETRONAS LUBRIFICANTES BRASIL 13122012000000000043801000000000000000000000000000000131220120000000000438010000000000000001795                900002127           09      00        
0330002300042Z70976E1F39735DC04094D3C                                         PGTFORNB13122012900002127                                                                                                                               00        
0330002300043J00034199554600000329441126513817360191074004000POLIPECAS COMERCIAL E IMPORTAD13122012000000000032944000000000002306000000000000000131220120000000000306380000000000000001796                900002128           09      00        
0330002300044Z70976E14583BA60CBBE2552                                         PGTFORNB13122012900002128                                                                                                                               00        
0330002300045J00039994554600000569302315301059505313093513001REAL MOTO PECAS LTDA          13122012000000000056930000000000000000000000000000000131220120000000000569300000000000000001797                900002129           09      00        
0330002300046Z70976E152FE921034838DE3                                         PGTFORNB13122012900002129                                                                                                                               00        
0330002300047J00039991554600000689332315311454405313093513001REAL MOTO PECAS LTDA          13122012000000000068933000000000000000000000000000000131220120000000000689330000000000000001798                900002130           09      00        
0330002300048Z70976E14DE4602AF3022BAB                                         PGTFORNB13122012900002130                                                                                                                               00        
0330002300049J00039997554600000750002315311369605313093513001REAL MOTO PECAS LTDA          13122012000000000075000000000000000000000000000000000131220120000000000750000000000000000001799                900002131           09      00        
0330002300050Z70976E1106EBC5FDB885171                                         PGTFORNB13122012900002131                                                                                                                               00        
0330002300051J00023793554600000179253395090000005057200650000SORANA SUL                    13122012000000000017925000000000000000000000000000000131220120000000000179250000000000000001800                900002132           09      00        
0330002300052Z70976E188EABB46A012C04C                                         PGTFORNB13122012900002132                                                                                                                               00        
0330002300053J00023799554600000464944130074130005876400050880SOUZA RAMOS COM E IMP LTDA    13122012000000000046494000000000000000000000000000000131220120000000000464940000000000000001801                900002133           09      00        
0330002300054Z70976E1416831BC6C107999                                         PGTFORNB13122012900002133                                                                                                                               00        
0330002300055J00000191554600002326490000001103966442781709711TARANTO COML IMP E EXP        13122012000000000232649000000000000000000000000000000131220120000000002326490000000000000001802                900002134           09      00        
0330002300056Z70976E1D531F0708BBC6307                                         PGTFORNB13122012900002134                                                                                                                               00        
0330002300057J00000199554600019706820000001103966442781710111TARANTO COML IMP E EXP        13122012000000001970682000000000000000000000000000000131220120000000019706820000000000000001803                900002135           09      00        
0330002300058Z70976E1AD3F769F18285CA0                                         PGTFORNB13122012900002135                                                                                                                               00        
0330002300059J00034197554600011863171126358610760017697418000THOMSON C I COM PROD AUT LTDA 13122012000000001186317000000000000000000000000000000131220120000000011863170000000000000001804                900002136           09      00        
0330002300060Z70976E1F36A2F752DC5A04F                                         PGTFORNB13122012900002136                                                                                                                               00        
03300025         000062000000000006544093000000000000000000311213                                                                                                                                                                               
03399999         000002000074000000                                                                                                                                                                                                             
