03300000         2054375370001370033006500490028050300065 0000480000414 AUTO GERAL DE ITU LTDA        SANTANDER                               20312201203435600007806000000                                                                     
03300011C2030030 2054375370001370033006500490028050300065 0000480000414 AUTO GERAL DE ITU LTDA                                                                              00000                                   00000000                    
0330001300001J00003394553600000369419513931700000103410560101DISTRIBUIDORA AUTOMOTIVA S.A  03122012000000000036941000000000000000000000000000000031220120000000000369410000000000000001340                900001599           09      00        
0330001300002Z70976E12BF333CE957FDB7D                                         PGTFORNB03122012900001599                                                                                                                               00        
0330001300003J00035691553600000299400689070323490000004891523DISTRIBUIDORA AUTOMOTIVA S.A  03122012000000000029940000000000000000000000000000000031220120000000000299400000000000000001341                900001628           09      00        
0330001300004Z70976E1568CDB89EFFA76F1                                         PGTFORNB03122012900001628                                                                                                                               00        
0330001300005J00035694553600000180370689070323470000004891566DISTRIBUIDORA AUTOMOTIVA S.A  03122012000000000018037000000000000000000000000000000031220120000000000180370000000000000001342                900001629           09      00        
0330001300006Z70976E11B5614780F7D17B8                                         PGTFORNB03122012900001629                                                                                                                               00        
03300015         000008000000000000084918000000000000000000301203                                                                                                                                                                               
03300021C2011030 2054375370001370033006500490028050300065 0000480000414 AUTO GERAL DE ITU LTDA                                                                              00000                                   00000000                    
0330002300001O00084800000012330000895924709999994426828011773NEXTEL TELECOMUNICACOES LTDA  03122012031220120000000001233001368                900001661                                                                               B1        
0330002300002O00084810000007075500895924559999994426828281773NEXTEL TELECOMUNICACOES LTDA  03122012031220120000000000707551369                900001662                                                                               B1        
0330002300003O00084810000004348200895924899999994426827931773NEXTEL TELECOMUNICACOES LTDA  03122012031220120000000000434821370                900001663                                                                               B1        
0330002300004O00083690000003132201103001625328000210005915015CIA PIRATININGA DE FORCA E LUZ03122012031220120000000000313221372                900001664                                                                               B1        
0330002300005O00083640000003143201103002331516760210001465384CIA PIRATININGA DE FORCA E LUZ03122012031220120000000000314321373                900001665                                                                               B1        
03300025         000007000000000000300291000000000000000000                                                                                                                                                                                     
03300031C2031030 2054375370001370033006500490028050300065 0000480000414 AUTO GERAL DE ITU LTDA                                                                              00000                                   00000000                    
0330003300001J00023799553600000275503484092275000123101129000PETRONAS LUBRIFICANTES BRASIL 03122012000000000027550000000000000000000000000000000031220120000000000275500000000000000001356                900001643           09      00        
0330003300002Z70976E119C54ABFBADFB4F6                                         PGTFORNB03122012900001643                                                                                                                               00        
0330003300003J00023791553600000261320138092296000004301453000OBB CONSULTORIA E PARTICIPACOE03122012000000000026132000000000000000000000000000000031220120000000000261320000000000000001343                900001630           09      00        
0330003300004Z70976E17500D438E04E9BF6                                         PGTFORNB03122012900001630                                                                                                                               00        
0330003300005J00023795553600000149003371090000833765800719500AVEBRAZ COM DE VEICULOS E PECA03122012000000000014900000000000000000000000000000000031220120000000000149000000000000000001336                900001624           09      00        
0330003300006Z70976E195F4700DD7FC217F                                         PGTFORNB03122012900001624                                                                                                                               00        
0330003300007J00023791553600005381594130072333000000205102210BREMSEN WAYSER IND E COM LTDA 03122012000000000538159000000000000000000000000000000031220120000000005381590000000000000001337                900001625           09      00        
0330003300008Z70976E181AF54799E8F7A97                                         PGTFORNB03122012900001625                                                                                                                               00        
0330003300009J00000197553600000397811823850324429130010401917CAMPINAS DIESEL LTDA          03122012000000000039781000000000000000000000000000000031220120000000000397810000000000000001338                900001626           09      00        
0330003300010Z70976E12559487F4517588B                                         PGTFORNB03122012900001626                                                                                                                               00        
0330003300011J00000199553600001459000442141581219140000100711CDMD COM DE VEICULOS AUTOMOTOR03122012000000000145900000000000000000000000000000000031220120000000001459000000000000000001339                900001627           09      00        
0330003300012Z70976E1BC2F3B36CB0797D1                                         PGTFORNB03122012900001627                                                                                                                               00        
0330003300013J00034194553600000080981124849344532938000052000EATON  LTDA                   03122012000000000008098000000000000000000000000000000031220120000000000080980000000000000001344                900001631           09      00        
0330003300014Z70976E11A5F86E4901A5A2A                                         PGTFORNB03122012900001631                                                                                                                               00        
0330003300015J00039992553600007224232053177713205313093513001REAL MOTO PECAS LTDA          03122012000000000722423000000000000000000000000000000031220120000000007224230000000000000001397                900001691           09      00        
0330003300016Z70976E1BCDF5DEFCE3F36FB                                         PGTFORNB03122012900001691                                                                                                                               00        
0330003300017J00034194553600000276001125274888632938000052000EATON  LTDA                   03122012000000000027600000000000000000000000000000000031220120000000000276000000000000000001345                900001632           09      00        
0330003300018Z70976E112C7691E16A63459                                         PGTFORNB03122012900001632                                                                                                                               00        
0330003300019J00034192553600000049171124849344612938000052000EATON  LTDA                   03122012000000000004917000000000000000000000000000000031220120000000000049170000000000000001346                900001633           09      00        
0330003300020Z70976E18C49CC6151E281A5                                         PGTFORNB03122012900001633                                                                                                                               00        
0330003300021J00034196553400000049001125515964820076000777000CENTER PECAS FABBRI LTDA      01122012000000000004900000000000000000000000000000000031220120000000000049000000000000000001311                900001600           09      00        
0330003300022Z70976E1E8FF4FA090151F2F                                         PGTFORNB03122012900001600                                                                                                                               00        
0330003300023J00034197553600000065131125274916102938000052000EATON  LTDA                   03122012000000000006513000000000000000000000000000000031220120000000000065130000000000000001347                900001634           09      00        
0330003300024Z70976E179446B0A5BC24F30                                         PGTFORNB03122012900001634                                                                                                                               00        
0330003300025J00034192553600000297911124818122150548006287000ELETROPAR AUTOPECAS LTDA      03122012000000000029791000000000000000000000000000000031220120000000000297910000000000000001348                900001635           09      00        
0330003300026Z70976E1B0F861EF762E9C34                                         PGTFORNB03122012900001635                                                                                                                               00        
0330003300027J00034194553600000591941090000458268052016014000IRMAOS FERRETI E CIA LTDA     03122012000000000059194000000000000000000000000000000031220120000000000591940000000000000001349                900001636           09      00        
0330003300028Z70976E1742C352E3C40BD58                                         PGTFORNB03122012900001636                                                                                                                               00        
0330003300029J00023797553600007338763484092275000074801129000PETRONAS LUBRIFICANTES BRASIL 03122012000000000733876000000000000000000000000000000031220120000000007338760000000000000001357                900001644           09      00        
0330003300030Z70976E10023ED782462BE4A                                         PGTFORNB03122012900001644                                                                                                                               00        
0330003300031J00023793553600002669293484092275000075101129000PETRONAS LUBRIFICANTES BRASIL 03122012000000000266929000000000000000000000000000000031220120000000002669290000000000000001358                900001645           09      00        
0330003300032Z70976E12F098224882CA8AB                                         PGTFORNB03122012900001645                                                                                                                               00        
0330003300033J00023794553600000233323484092291000014201129000PETRONAS LUBRIFICANTES BRASIL 03122012000000000023332000000000000000000000000000000031220120000000000233320000000000000001359                900001646           09      00        
0330003300034Z70976E15431BB8F13AB1F71                                         PGTFORNB03122012900001646                                                                                                                               00        
0330003300035J00039997553600006369462053187214305313093513001REAL MOTO PECAS LTDA          03122012000000000636946000000000000000000000000000000031220120000000006369460000000000000001360                900001647           09      00        
0330003300036Z70976E1D4DF644E34B5BD6A                                         PGTFORNB03122012900001647                                                                                                                               00        
0330003300037J00039991553600000078312400418441206573205239001RODONAVES TRANSP E ENCOMENDAS 03122012000000000007831000000000000000000000000000000031220120000000000078310000000000000001366                900001653           09      00        
0330003300038Z70976E1DC4E2568CCECE95D                                         PGTFORNB03122012900001653                                                                                                                               00        
0330003300039J00039995553600000318172053179606405313093513001REAL MOTO PECAS LTDA          03122012000000000031817000000000000000000000000000000031220120000000000318170000000000000001361                900001648           09      00        
0330003300040Z70976E1B6240D4785F382B5                                         PGTFORNB03122012900001648                                                                                                                               00        
0330003300041J00023792553600001333973395061180232823700028140REAL MOTO PECAS LTDA          03122012000000000133397000000000000000000000000000000031220120000000001333970000000000000001362                900001649           09      00        
0330003300042Z70976E167D40EB2E1B53EEB                                         PGTFORNB03122012900001649                                                                                                                               00        
0330003300043J00000195553600000278000000002175416000002733417SK AUTOMOTIVE S/A DIST AUTOPEC03122012000000000027800000000000000000000000000000000031220120000000000278000000000000000001363                900001650           09      00        
0330003300044Z70976E1AE8E7AB61EE44F5D                                         PGTFORNB03122012900001650                                                                                                                               00        
0330003300045J00039995553600001946562400418440406573205239001RODONAVES TRANSP E ENCOMENDAS 03122012000000000194656000000000000000000000000000000031220120000000001946560000000000000001367                900001654           09      00        
0330003300046Z70976E15216B060E7C2B5D9                                         PGTFORNB03122012900001654                                                                                                                               00        
0330003300047J00023792553400000525962372196600095755600360080TELEFONICA BRASIL S/A         01122012000000000052596000000000000000000000000000000031220120000000000525960000000000000001371                900001655           09      00        
0330003300048Z70976E13F858C1A381E4143                                         PGTFORNB03122012900001655                                                                                                                               00        
0330003300049J00034191553600000658601815918170100109276204000GIRANDO COMERCIO DE PECAS LTDA03122012000000000065860000000000000000000000000000000031220120000000000658600000000000000001374                900001668           09      00        
0330003300050Z70976E12384E3782BEE4051                                         PGTFORNB03122012900001668                                                                                                                               00        
0330003300051J00034197553600000196851815918193050109276204000GIRANDO COMERCIO DE PECAS LTDA03122012000000000019685000000000000000000000000000000031220120000000000196850000000000000001375                900001669           09      00        
0330003300052Z70976E19D7A065D8031606E                                         PGTFORNB03122012900001669                                                                                                                               00        
0330003300053J00034191553600000139171815918202790109276204000GIRANDO COMERCIO DE PECAS LTDA03122012000000000013917000000000000000000000000000000031220120000000000139170000000000000001376                900001670           09      00        
0330003300054Z70976E1B72697E86F7A0827                                         PGTFORNB03122012900001670                                                                                                                               00        
0330003300055J00034191553600000341051815918211752938074016000ITAVOX VEICULOS               03122012000000000034105000000000000000000000000000000031220120000000000341050000000000000001377                900001671           09      00        
0330003300056Z70976E1B750BD4EADC60359                                         PGTFORNB03122012900001671                                                                                                                               00        
0330003300057J00034197553600000218051815918220952938000052000EATON  LTDA                   03122012000000000021805000000000000000000000000000000031220120000000000218050000000000000001378                900001672           09      00        
0330003300058Z70976E1A573FF3D04933D3B                                         PGTFORNB03122012900001672                                                                                                                               00        
0330003300059J00034194553600000084001815918240262938000052000EATON  LTDA                   03122012000000000008400000000000000000000000000000000031220120000000000084000000000000000001379                900001673           09      00        
0330003300060Z70976E130466885393F1BFE                                         PGTFORNB03122012900001673                                                                                                                               00        
0330003300061J00034194553600000074141815918247862938000052000EATON  LTDA                   03122012000000000007414000000000000000000000000000000031220120000000000074140000000000000001380                900001674           09      00        
0330003300062Z70976E123589ADA7B453885                                         PGTFORNB03122012900001674                                                                                                                               00        
0330003300063J00034196553600000066201815918255512938000052000EATON  LTDA                   03122012000000000006620000000000000000000000000000000031220120000000000066200000000000000001381                900001675           09      00        
0330003300064Z70976E1558C4A8515162920                                         PGTFORNB03122012900001675                                                                                                                               00        
0330003300065J00034191553600000210441815918261872938000052000EATON  LTDA                   03122012000000000021044000000000000000000000000000000031220120000000000210440000000000000001382                900001676           09      00        
0330003300066Z70976E19C2790D2C8EEC7EB                                         PGTFORNB03122012900001676                                                                                                                               00        
0330003300067J00034195553600000728761815918224140360545834000COBRA ROLAMENTOS AUTOPECAS LTD03122012000000000072876000000000000000000000000000000031220120000000000728760000000000000001383                900001677           09      00        
0330003300068Z70976E130E0C52EC366E04D                                         PGTFORNB03122012900001677                                                                                                                               00        
0330003300069J00034191553600000150681815918270250360545834000COBRA ROLAMENTOS AUTOPECAS LTD03122012000000000015068000000000000000000000000000000031220120000000000150680000000000000001384                900001678           09      00        
0330003300070Z70976E13149AF2D572A5FF9                                         PGTFORNB03122012900001678                                                                                                                               00        
0330003300071J00034193553600000284231815918278010360545834000COBRA ROLAMENTOS AUTOPECAS LTD03122012000000000028423000000000000000000000000000000031220120000000000284230000000000000001385                900001679           09      00        
0330003300072Z70976E1CFD6DAA8CFA30E6F                                         PGTFORNB03122012900001679                                                                                                                               00        
0330003300073J00023796553600000292054130072321000125805005930FW DISTRIBUIDORA LTDA         03122012000000000029205000000000000000000000000000000031220120000000000292050000000000000001386                900001680           09      00        
0330003300074Z70976E1293B06670B71494B                                         PGTFORNB03122012900001680                                                                                                                               00        
0330003300075J00023797553600000254060138092300000006401370000BBL SISTEMAS OPERACIONAIS LTDA03122012000000000025406000000000000000000000000000000031220120000000000254060000000000000001387                900001681           09      00        
0330003300076Z70976E1EF26D05D8055E4E3                                         PGTFORNB03122012900001681                                                                                                                               00        
0330003300077J00023791553600000766243262090000029333600935470COMDIP COMERCIAL DISTR DE PECA03122012000000000076624000000000000000000000000000000031220120000000000766240000000000000001388                900001682           09      00        
0330003300078Z70976E1918AEBEB1161B63D                                         PGTFORNB03122012900001682                                                                                                                               00        
0330003300079J00023797553600000383843262090000030850600935470COMDIP COMERCIAL DISTR DE PECA03122012000000000038384000000000000000000000000000000031220120000000000383840000000000000001389                900001683           09      00        
0330003300080Z70976E129FDBE4916B96A25                                         PGTFORNB03122012900001683                                                                                                                               00        
0330003300081J00023797553600000374593381090000008910901801540BRASILWAGEN COM VEICULOS SA   03122012000000000037459000000000000000000000000000000031220120000000000374590000000000000001390                900001684           09      00        
0330003300082Z70976E1CA2E9E4E02613013                                         PGTFORNB03122012900001684                                                                                                                               00        
0330003300083J00023799553600000483993392022304000026201078260MF CAMBUCI DISTR DE AUTOPECAS 03122012000000000048399000000000000000000000000000000031220120000000000483990000000000000001391                900001685           09      00        
0330003300084Z70976E1C94DDAA2D63A6F4E                                         PGTFORNB03122012900001685                                                                                                                               00        
0330003300085J00023797553600000895233316190000001035800088700AGRAMDIESEL COM IMP E EXP LTDA03122012000000000089523000000000000000000000000000000031220120000000000895230000000000000001392                900001686           09      00        
0330003300086Z70976E14D8767DB10429D86                                         PGTFORNB03122012900001686                                                                                                                               00        
0330003300087J00023793553600000341813394090000012079400324600MORELAT DISTRIBUIDORA DE AUTO 03122012000000000034181000000000000000000000000000000031220120000000000341810000000000000001393                900001687           09      00        
0330003300088Z70976E1228A50458F26134F                                         PGTFORNB03122012900001687                                                                                                                               00        
0330003300089J00000195553600004161990000002096856000002045517PRV COM DE PECAS LTDA         03122012000000000416199000000000000000000000000000000031220120000000004161990000000000000001394                900001688           09      00        
0330003300090Z70976E16FA9CB2EECCA2001                                         PGTFORNB03122012900001688                                                                                                                               00        
0330003300091J00000191553600000371850000002096856000002163017PRV COM DE PECAS LTDA         03122012000000000037185000000000000000000000000000000031220120000000000371850000000000000001395                900001689           09      00        
0330003300092Z70976E1147F908755D33B5F                                         PGTFORNB03122012900001689                                                                                                                               00        
0330003300093J00039999553600000377332053178356605313093513001REAL MOTO PECAS LTDA          03122012000000000037733000000000000000000000000000000031220120000000000377330000000000000001396                900001690           09      00        
0330003300094Z70976E1C6F43D6AEEFC4488                                         PGTFORNB03122012900001690                                                                                                                               00        
0330003300095J00039997553600000450061763026948204540079149001BANCO SOFISA SA               03122012000000000045006000000000000000000000000000000031220120000000000450060000000000000001364                900001651           09      00        
0330003300096Z70976E11A10F6F6A5DA09BD                                         PGTFORNB03122012900001651                                                                                                                               00        
0330003300097J00039991553600000019321763026949004540079149001BANCO SOFISA SA               03122012000000000001932000000000000000000000000000000031220120000000000019320000000000000001365                900001652           09      00        
0330003300098Z70976E1FC73FBEC49885536                                         PGTFORNB03122012900001652                                                                                                                               00        
0330003300099J00039996553600001066932053186385305313093513001REAL MOTO PECAS LTDA          03122012000000000106693000000000000000000000000000000031220120000000001066930000000000000001398                900001692           09      00        
0330003300100Z70976E18AD98F1A545F6ECC                                         PGTFORNB03122012900001692                                                                                                                               00        
0330003300101J00039991553600000345892053176607605313093513001REAL MOTO PECAS LTDA          03122012000000000034589000000000000000000000000000000031220120000000000345890000000000000001399                900001693           09      00        
0330003300102Z70976E1B2E6B176F0B65C41                                         PGTFORNB03122012900001693                                                                                                                               00        
0330003300103J00039997553600001902022053186289005313093513001REAL MOTO PECAS LTDA          03122012000000000190202000000000000000000000000000000031220120000000001902020000000000000001400                900001694           09      00        
0330003300104Z70976E1FB94874F5E39ABCD                                         PGTFORNB03122012900001694                                                                                                                               00        
0330003300105J00039991553600000732481764101423004540096965001PELLEGRINO DIST DE AUTOPECAS L03122012000000000073248000000000000000000000000000000031220120000000000732480000000000000001401                900001695           09      00        
0330003300106Z70976E1A1ACAB8106C88035                                         PGTFORNB03122012900001695                                                                                                                               00        
0330003300107J00039995553600000312661761257144903280030090001ITAVEMA ITALIA VEIC E MAQUINAS03122012000000000031266000000000000000000000000000000031220120000000000312660000000000000001402                900001696           09      00        
0330003300108Z70976E17DDDBA54766031F9                                         PGTFORNB03122012900001696                                                                                                                               00        
0330003300109J00039997553600000200341764073581311960078237001BAP AUTOMOTIVA LTDA           03122012000000000020034000000000000000000000000000000031220120000000000200340000000000000001403                900001697           09      00        
0330003300110Z70976E104BD6F9A4C935746                                         PGTFORNB03122012900001697                                                                                                                               00        
0330003300111J00034195553600000344961815918243834522114471000COML NV MILLENNIUM A P LTD EPP03122012000000000034496000000000000000000000000000000031220120000000000344960000000000000001404                900001698           09      00        
0330003300112Z70976E185B92757381AADF1                                         PGTFORNB03122012900001698                                                                                                                               00        
0330003300113J00039991553600004037552671466832203435718856001SERASA S.A                    03122012000000000403755000000000000000000000000000000031220120000000004037550000000000000001405                900001699           09      00        
0330003300114Z70976E19A7D009BD3BB71F1                                         PGTFORNB03122012900001699                                                                                                                               00        
0330003300115J00034199553600002247571126092005741446685057000KT COMP AUTOMOTIVOS LTDA      03122012000000000224757000000000000000000000000000000031220120000000002247570000000000000001350                900001637           09      00        
0330003300116Z70976E19F93A60578ECAF8B                                         PGTFORNB03122012900001637                                                                                                                               00        
0330003300117J00023796553600001020352500090256567583800000340ODAPEL DISTR DE AUTO PECAS LTD03122012000000000102035000000000000000000000000000000031220120000000001020350000000000000001351                900001638           09      00        
0330003300118Z70976E133B15130651ED2A5                                         PGTFORNB03122012900001638                                                                                                                               00        
0330003300119J00023794553600000509882500090256567583300000340ODAPEL DISTR DE AUTO PECAS LTD03122012000000000050988000000000000000000000000000000031220120000000000509880000000000000001352                900001639           09      00        
0330003300120Z70976E122A8CE3F838E034A                                         PGTFORNB03122012900001639                                                                                                                               00        
0330003300121J00023798553600000343302500090256567579400000340ODAPEL DISTR DE AUTO PECAS LTD03122012000000000034330000000000000000000000000000000031220120000000000343300000000000000001353                900001640           09      00        
0330003300122Z70976E1F68D7C8CFC1C0F3D                                         PGTFORNB03122012900001640                                                                                                                               00        
0330003300123J00034197000000000000001219800627571012365225000PACAEMBU AUTO PECAS LTDA      03122012000000000107478000000000000000000000000000000031220120000000001074780000000000000001354                900001641           09      00        
0330003300124Z70976E1B5C1958F751CF972                                         PGTFORNB03122012900001641                                                                                                                               00        
0330003300125J00034193000000000000001219800627321012365225000PACAEMBU AUTO PECAS LTDA      03122012000000000500438000000000000000000000000000000031220120000000005004380000000000000001355                900001642           09      00        
0330003300126Z70976E1DD1FF5713BA28570                                         PGTFORNB03122012900001642                                                                                                                               00        
0330003300127J00034198553400000109501125515964740076000777000CENTER PECAS FABBRI LTDA      01122012000000000010950000000000000000000000000000000031220120000000000109500000000000000001312                900001601           09      00        
0330003300128Z70976E10491FB006209C735                                         PGTFORNB03122012900001601                                                                                                                               00        
0330003300129J00034196553400000055501125685373700076000777000CENTER PECAS FABBRI LTDA      01122012000000000005550000000000000000000000000000000031220120000000000055500000000000000001313                900001602           09      00        
0330003300130Z70976E1DA6E233BB9ABAE9B                                         PGTFORNB03122012900001602                                                                                                                               00        
0330003300131J00034197553400000025001125515965080076000777000CENTER PECAS FABBRI LTDA      01122012000000000002500000000000000000000000000000000031220120000000000025000000000000000001314                900001603           09      00        
0330003300132Z70976E10CA7D634D4677671                                         PGTFORNB03122012900001603                                                                                                                               00        
0330003300133J00034191553400000021821125192415282938000052000EATON  LTDA                   01122012000000000002182000000000000000000000000000000031220120000000000021820000000000000001315                900001604           09      00        
0330003300134Z70976E1DF2240A8ECCB52E5                                         PGTFORNB03122012900001604                                                                                                                               00        
0330003300135J00034193553400000825771125192405532938000052000EATON  LTDA                   01122012000000000082577000000000000000000000000000000031220120000000000825770000000000000001316                900001605           09      00        
0330003300136Z70976E17CCC252AFE7DDBE8                                         PGTFORNB03122012900001605                                                                                                                               00        
0330003300137J00034199553400000954571124670569442938107808000ELIVEL AUTOMOTORES LTDA       01122012000000000095457000000000000000000000000000000031220120000000000954570000000000000001317                900001606           09      00        
0330003300138Z70976E1D6F77173E3BFF771                                         PGTFORNB03122012900001606                                                                                                                               00        
0330003300139J00023791553400000377003372190000001567305064650JC FELIVEL DISTR VEICULOS LTDA01122012000000000037700000000000000000000000000000000031220120000000000377000000000000000001318                900001607           09      00        
0330003300140Z70976E1327AA44A64ADBE39                                         PGTFORNB03122012900001607                                                                                                                               00        
0330003300141J00034199553400000549341124653154178351016152000MANDO MACHINERY LTDA          01122012000000000054934000000000000000000000000000000031220120000000000549340000000000000001319                900001608           09      00        
0330003300142Z70976E1B50132D23156CB78                                         PGTFORNB03122012900001608                                                                                                                               00        
0330003300143J00023796553400000359952500090256567368300000340ODAPEL DISTR DE AUTO PECAS LTD01122012000000000035995000000000000000000000000000000031220120000000000359950000000000000001320                900001609           09      00        
0330003300144Z70976E10333DA19244FF204                                         PGTFORNB03122012900001609                                                                                                                               00        
0330003300145J00034199553400000371001125156759190384625000000PECAS AUTOMOTIVAS ZEENE LTDA  01122012000000000037100000000000000000000000000000000031220120000000000371000000000000000001321                900001610           09      00        
0330003300146Z70976E1B93B6AFDE7D07E7E                                         PGTFORNB03122012900001610                                                                                                                               00        
0330003300147J00023792553400000707473395090000004692700650000SORANA SUL                    01122012000000000070747000000000000000000000000000000031220120000000000707470000000000000001322                900001611           09      00        
0330003300148Z70976E1D050BD2EA25514A0                                         PGTFORNB03122012900001611                                                                                                                               00        
0330003300149J00034191553500000220011126110130802938036635000DAYCO POWER TRANSMISSION      02122012000000000022001000000000000000000000000000000031220120000000000220010000000000000001323                900001612           09      00        
0330003300150Z70976E13353F85069AA2FFD                                         PGTFORNB03122012900001612                                                                                                                               00        
0330003300151J00000192553500000500504584341682600370004790718DB DISTRIBUIDORA DE BATERIA LT02122012000000000050050000000000000000000000000000000031220120000000000500500000000000000001324                900001613           09      00        
0330003300152Z70976E1ECED2B20149BA187                                         PGTFORNB03122012900001613                                                                                                                               00        
0330003300153J00000199553500002349354584341682500370004790718DB DISTRIBUIDORA DE BATERIA LT02122012000000000234935000000000000000000000000000000031220120000000002349350000000000000001325                900001614           09      00        
0330003300154Z70976E147F89960C3FC71DA                                         PGTFORNB03122012900001614                                                                                                                               00        
0330003300155J00034194553500000395491125632965192938000052000EATON  LTDA                   02122012000000000039549000000000000000000000000000000031220120000000000395490000000000000001326                900001615           09      00        
0330003300156Z70976E1777E74EE6409EBCB                                         PGTFORNB03122012900001615                                                                                                                               00        
0330003300157J00034193553500000094261125274856952938000052000EATON  LTDA                   02122012000000000009426000000000000000000000000000000031220120000000000094260000000000000001327                900001616           09      00        
0330003300158Z70976E112B6F7306AFC939A                                         PGTFORNB03122012900001616                                                                                                                               00        
0330003300159J00034191553500000138671125274857112938000052000EATON  LTDA                   02122012000000000013867000000000000000000000000000000031220120000000000138670000000000000001328                900001617           09      00        
0330003300160Z70976E1B32909FFF56F854E                                         PGTFORNB03122012900001617                                                                                                                               00        
0330003300161J00034191553500000115951125632967332938000052000EATON  LTDA                   02122012000000000011595000000000000000000000000000000031220120000000000115950000000000000001329                900001618           09      00        
0330003300162Z70976E144788252D3154235                                         PGTFORNB03122012900001618                                                                                                                               00        
0330003300163J00023799553500000436563394090000010690600324600MORELAT DISTRIBUIDORA DE AUTO 02122012000000000043656000000000000000000000000000000031220120000000000436560000000000000001330                900001619           09      00        
0330003300164Z70976E165CA7625CAEECD0B                                         PGTFORNB03122012900001619                                                                                                                               00        
0330003300165J00000198553500000637010000001216979441306179631NOVA DISTRIBUIDORA DE VEICULOS02122012000000000063701000000000000000000000000000000031220120000000000637010000000000000001331                900001620           09      00        
0330003300166Z70976E11350AF4EE102218C                                         PGTFORNB03122012900001620                                                                                                                               00        
0330003300167J00034199553400000243321126340822780466660099000POLO COMERCIO INTERNACIONAL LT01122012000000000024332000000000000000000000000000000031220120000000000243320000000000000001333                900001621           09      00        
0330003300168Z70976E1631544E0D7554A54                                         PGTFORNB03122012900001621                                                                                                                               00        
0330003300169J00034192553600006544941125328299296873115130000AMR AUTOPARTS EMP EXP LTDA    03122012000000000654494000000000000000000000000000000031220120000000006544940000000000000001334                900001622           09      00        
0330003300170Z70976E1C68C015AA90A4874                                         PGTFORNB03122012900001622                                                                                                                               00        
0330003300171J00034198553600000902501124690667507460278760000ASTRO TECNOLOGIA I C LTDA     03122012000000000090250000000000000000000000000000000031220120000000000902500000000000000001335                900001623           09      00        
0330003300172Z70976E131DEE2F049EBBE63                                         PGTFORNB03122012900001623                                                                                                                               00        
03300035         000174000000000008605348000000000000000000311203                                                                                                                                                                               
03300041C2003031 2054375370001370033006500490028050300065 0000480000414 AUTO GERAL DE ITU LTDA                                                                              00000                                   00000000                    
0330004300001A0007002370056060000000404209 JUNTAS SANTA CRUZ LTDA        1407                03122012BRL000000000000000000000000059648900001667           03122012000000000059648                                        07          000        
0330004300002B   277644102000174                              00000                                                  00000000  031220120000000000596480000000000000000000000000000000000000000000000000000000000000000                00        
0330004300003Z70976E1034C7EF5F8FCCCE6                                         PGTFORNB03122012900001667                                                                                                                               00        
03300045         000005000000000000059648000000000000000000031203                                                                                                                                                                               
03399999         000004000196000000                                                                                                                                                                                                             
