03300000         2054375370001370033006500490028050300065 0000480000414 AUTO GERAL DE ITU LTDA        SANTANDER                               22711201202225100006506000000                                                                     
03300011C2030030 2054375370001370033006500490028050300065 0000480000414 AUTO GERAL DE ITU LTDA                                                                              00000                                   00000000                    
0330001300001J00003391553000001612589513931700000103376010101DISTRIBUIDORA ATOMOTIVA S.A   27112012000000000161258000000000000000000000000000000271120120000000001612580000000000000001165                900001452           09      00        
0330001300002Z70976E17D03160FA1D70F0D                                         PGTFORNB27112012900001452                                                                                                                               00        
0330001300003J00003398553000000500639513931700000103377920101DISTRIBUIDORA ATOMOTIVA S.A   27112012000000000050063000000000000000000000000000000271120120000000000500630000000000000001166                900001453           09      00        
0330001300004Z70976E133CF16BDD44C4DC0                                         PGTFORNB27112012900001453                                                                                                                               00        
03300015         000006000000000000211321000000000000000000301127                                                                                                                                                                               
03300021C2031030 2054375370001370033006500490028050300065 0000480000414 AUTO GERAL DE ITU LTDA                                                                              00000                                   00000000                    
0330002300001J00039999553000000181211763797575711960078237001BAP AUTOMOTIVA LTDA           27112012000000000018121000000000000000000000000000000271120120000000000181210000000000000001162                900001454           09      00        
0330002300002Z70976E19879552706FC0374                                         PGTFORNB27112012900001454                                                                                                                               00        
0330002300003J00039993553000000663751763797574911960078237001BAP AUTOMOTIVA LTDA           27112012000000000066375000000000000000000000000000000271120120000000000663750000000000000001163                900001455           09      00        
0330002300004Z70976E12F3EB746E3095013                                         PGTFORNB27112012900001455                                                                                                                               00        
0330002300005J00023796553000000524793389092319000010000120490CHG AUTOMOTIVA LTDA           27112012000000000052479000000000000000000000000000000271120120000000000524790000000000000001164                900001456           09      00        
0330002300006Z70976E158041972DAF9CE37                                         PGTFORNB27112012900001456                                                                                                                               00        
0330002300007J00034191553000000012271125094704262938000052000EATON  LTDA                   27112012000000000001227000000000000000000000000000000271120120000000000012270000000000000001167                900001457           09      00        
0330002300008Z70976E1BA5DDEF378859F6B                                         PGTFORNB27112012900001457                                                                                                                               00        
0330002300009J00034199553000000236771124678835862938000052000EATON  LTDA                   27112012000000000023677000000000000000000000000000000271120120000000000236770000000000000001168                900001458           09      00        
0330002300010Z70976E1D597B3C2F6C6DBD8                                         PGTFORNB27112012900001458                                                                                                                               00        
0330002300011J00034191553000000825661125094681562938000052000EATON  LTDA                   27112012000000000082566000000000000000000000000000000271120120000000000825660000000000000001169                900001459           09      00        
0330002300012Z70976E143C1451FFCA2BC8B                                         PGTFORNB27112012900001459                                                                                                                               00        
0330002300013J00034193553000000490221125094705412938000052000EATON  LTDA                   27112012000000000049022000000000000000000000000000000271120120000000000490220000000000000001170                900001460           09      00        
0330002300014Z70976E1D6A8C6CC8FF1A877                                         PGTFORNB27112012900001460                                                                                                                               00        
0330002300015J00034197553000000130041125094702852938000052000EATON  LTDA                   27112012000000000013004000000000000000000000000000000271120120000000000130040000000000000001171                900001461           09      00        
0330002300016Z70976E1487C51BA2EDD25A1                                         PGTFORNB27112012900001461                                                                                                                               00        
0330002300017J00034191553000000349741098887857910046365078000FELICIO VIGORITO FILHOS LTDA  27112012000000000034974000000000000000000000000000000271120120000000000349740000000000000001172                900001462           09      00        
0330002300018Z70976E1234073C5B2BA57F4                                         PGTFORNB27112012900001462                                                                                                                               00        
0330002300019J00000194553000002238460441544140901790000407011H S COMERCIO DE ADESIVOS LTDA 27112012000000000223846000000000000000000000000000000271120120000000002238460000000000000001173                900001463           09      00        
0330002300020Z70976E1FC132FE53D12E55D                                         PGTFORNB27112012900001463                                                                                                                               00        
0330002300021J00023794553000007602970284281321210548400742060INDUSTRIAS DEL RECAMBIO DO BRA27112012000000000760297000000000000000000000000000000271120120000000007602970000000000000001174                900001464           09      00        
0330002300022Z70976E1C52D040147786AEF                                         PGTFORNB27112012900001464                                                                                                                               00        
0330002300023J00034195553000000281851090008083752938050420000ITA PECAS PARA VEIC COM SERV L27112012000000000028185000000000000000000000000000000271120120000000000281850000000000000001175                900001465           09      00        
0330002300024Z70976E17B3AAE42F998A814                                         PGTFORNB27112012900001465                                                                                                                               00        
0330002300025J00000197553000004722250442085501134280000630911JOFUND S/A                    27112012000000000472225000000000000000000000000000000271120120000000004722250000000000000001176                900001466           09      00        
0330002300026Z70976E142AA5F28697F9026                                         PGTFORNB27112012900001466                                                                                                                               00        
0330002300027J00034194553000000599061124470530458351016152000MANDO MACHINERY LTDA          27112012000000000059906000000000000000000000000000000271120120000000000599060000000000000001177                900001467           09      00        
0330002300028Z70976E1479F7647A16B8C4B                                         PGTFORNB27112012900001467                                                                                                                               00        
0330002300029J00023793553000005891053398022306000002001220000MASAFLEX IND E COM LTDA       27112012000000000589105000000000000000000000000000000271120120000000005891050000000000000001178                900001468           09      00        
0330002300030Z70976E1D7C4DE6127D1E40B                                         PGTFORNB27112012900001468                                                                                                                               00        
0330002300031J00039996553000000671312696543770204540096965001PELLEGRINO DIST DE AUTOPECAS L27112012000000000067131000000000000000000000000000000271120120000000000671310000000000000001179                900001469           09      00        
0330002300032Z70976E1C8FDEA26BD5BE7F7                                         PGTFORNB27112012900001469                                                                                                                               00        
0330002300033J00023791553000001742593484092271000011601129000PETRONAS LUBRIFICANTES BRASIL 27112012000000000174259000000000000000000000000000000271120120000000001742590000000000000001180                900001470           09      00        
0330002300034Z70976E1E30B3F6473B51B57                                         PGTFORNB27112012900001470                                                                                                                               00        
0330002300035J00023795553000001973200151091323180013701251750PECA MAIS COM DE AUTOPECAS LTD27112012000000000197320000000000000000000000000000000271120120000000001973200000000000000001181                900001471           09      00        
0330002300036Z70976E1F15248B8F99F3767                                         PGTFORNB27112012900001471                                                                                                                               00        
0330002300037J00039994553000004420732053169141605313093513001REAL MOTO PECAS LTDA          27112012000000000442073000000000000000000000000000000271120120000000004420730000000000000001182                900001472           09      00        
0330002300038Z70976E1C131E2B8B1706578                                         PGTFORNB27112012900001472                                                                                                                               00        
0330002300039J00000191553000000210800442072921433260008018911T-PARTS COML E IMP DE AUTOPECA27112012000000000021080000000000000000000000000000000271120120000000000210800000000000000001183                900001473           09      00        
0330002300040Z70976E10B1F708D7E55474E                                         PGTFORNB27112012900001473                                                                                                                               00        
0330002300041J00034197553000000983511125389769893184597502000UNIVERSAL AUTOMOTIVE SYSTEMS S27112012000000000098351000000000000000000000000000000271120120000000000983510000000000000001184                900001474           09      00        
0330002300042Z70976E1BB1808BF6DAA3181                                         PGTFORNB27112012900001474                                                                                                                               00        
0330002300043J00000192553000000583580000001148003000006922217VESPOR AUTOMOTIVE DIST DE AUTO27112012000000000058358000000000000000000000000000000271120120000000000583580000000000000001185                900001475           09      00        
0330002300044Z70976E1471C13438401694A                                         PGTFORNB27112012900001475                                                                                                                               00        
0330002300045J00039997553000000018373882601943010190038826001ELETROPERFIL PRODS ELETRO META27112012000000000001837000000000000000000000000000000271120120000000000018370000000000000001186                900001476           09      00        
0330002300046Z70976E12E0642AD225A8CA4                                         PGTFORNB27112012900001476                                                                                                                               00        
0330002300047J00039993553000000109063882601868010190038826001ELETROPERFIL PRODS ELETRO META27112012000000000010906000000000000000000000000000000271120120000000000109060000000000000001187                900001477           09      00        
0330002300048Z70976E13C61193AEFB68F2F                                         PGTFORNB27112012900001477                                                                                                                               00        
0330002300049J00034192553000000346911750000096298949044674000CENTRO AUTOMOTIVO ITUZAO LTDA 27112012000000000034691000000000000000000000000000000271120120000000000346910000000000000001188                900001478           09      00        
0330002300050Z70976E1CBC55333E7FB15A3                                         PGTFORNB27112012900001478                                                                                                                               00        
0330002300051J00034193553000002827661126144484160191074004000POLIPECAS COMERCIAL E IMPORTAD27112012000000000282766000000000019794000000000000000271120120000000002629720000000000000001191                900001479           09      00        
0330002300052Z70976E1C1CE94BCA0390512                                         PGTFORNB27112012900001479                                                                                                                               00        
03300025         000054000000000003843987000000000000000000311127                                                                                                                                                                               
03399999         000002000062000000                                                                                                                                                                                                             
