03300000         2054375370001370033006500490028050300065 0000480000414 AUTO GERAL DE ITU LTDA        BANCO SANTANDER                         10104201310132700013106000000                                        G4016PF00531               G4
03300011C2030030 205437537000137003300650049002805030006550000480000414 AUTO GERAL DE ITU LTDA                                                AV DR OCTAVIANO PEREIRA MENDES01333               ITU                 13301000SP                  
0330001300001J00003396565500001266699489019100000092433480104KSPG AUTOMOTIVE BRASIL LTDA   01042013000000000126669000000000000000000000000000000010420130000000001266690000000000000005440                                    00                
03300015         000003000000000000126669000000000000000000                                                                                                                                                                                     
03300021C2031030 205437537000137003300650049002805030006550000480000414 AUTO GERAL DE ITU LTDA                                                AV DR OCTAVIANO PEREIRA MENDES01333               ITU                 13301000SP                  
0330002300001J00034196565500000219751128955985740940062003000CHG AUTOMOTIVA LTDA           01042013000000000021975000000000000000000000000000000010420130000000000219750000000000000005418                                    00                
0330002300002J00034193565500000537531129386903210940062003000CHG AUTOMOTIVA LTDA           01042013000000000053753000000000000000000000000000000010420130000000000537530000000000000005419                                    00                
0330002300003J00023791565500000256362002061301419349100829680COMERCIAL AUTOMOTIVA S.A.     01042013000000000025636000000000000000000000000000000010420130000000000256360000000000000005420                                    00                
0330002300004J00034199565500000435031572281802584522114471000COML NV MILLENNIUN A P LTDA EP01042013000000000043503000000000002175000000000000000010420130000000000413280000000000000005421                                    00                
0330002300005J00035694565500000676400689070323430000005583190DISTRIBUIDORA AUTOMOTIVA S.A. 01042013000000000067640000000000000000000000000000000010420130000000000676400000000000000005422                                    00                
0330002300006J00035697565500000392110689070323430000003268158DISTRIBUIDORA AUTOMOTIVA S.A. 01042013000000000039211000000000000000000000000000000010420130000000000392110000000000000005423                                    00                
0330002300007J00035691565500000379900689070323440000003268405DISTRIBUIDORA AUTOMOTIVA S.A. 01042013000000000037990000000000000000000000000000000010420130000000000379900000000000000005424                                    00                
0330002300008J00023796565500000407760138093049000007101370000BBL SISTEMAS OPERACIONAIS LTDA01042013000000000040776000000000000000000000000000000010420130000000000407760000000000000005425                                    00                
0330002300009J00023797565500000285470138093057000002301370000BBL SISTEMAS OPERACIONAIS LTDA01042013000000000028547000000000000000000000000000000010420130000000000285470000000000000005426                                    00                
0330002300010J00023791565500000272600138093063000007001370000BBL SISTEMAS OPERACIONAIS LTDA01042013000000000027260000000000000000000000000000000010420130000000000272600000000000000005427                                    00                
0330002300011J00034191565500000181931128269709422938000052000EATON LTDA                    01042013000000000018193000000000000000000000000000000010420130000000000181930000000000000005428                                    00                
0330002300012J00034196565500001299021128269706782938000052000EATON LTDA                    01042013000000000129902000000000000000000000000000000010420130000000001299020000000000000005429                                    00                
0330002300013J00034191565500000717971129069709522938000052000EATON LTDA                    01042013000000000071797000000000000000000000000000000010420130000000000717970000000000000005430                                    00                
0330002300014J00034198565500000580261129069709372938000052000EATON LTDA                    01042013000000000058026000000000000000000000000000000010420130000000000580260000000000000005431                                    00                
0330002300015J00000196565500001310000000001702613000000095017F5 CREATIVE FILMS LTDA        01042013000000000131000000000000000000000000000000000010420130000000001310000000000000000005432                                    00                
0330002300016J00034191565500011895491129196000912938017569000FRAS-LE S/A                   01042013000000001189549000000000000000000000000000000010420130000000011895490000000000000005433                                    00                
0330002300017J00023792565500000378484130073074000041505005930FW DISTRIBUIDORA LTDA         01042013000000000037848000000000000000000000000000000010420130000000000378480000000000000005434                                    00                
0330002300018J00034196565500008128911090304703150109276204000GIRANDO COMERCIO DE PECAS LTDA01042013000000000812891000000000000000000000000000000010420130000000008128910000000000000005435                                    00                
0330002300019J00034192565500000179991090304709920109276204000GIRANDO COMERCIO DE PECAS LTDA01042013000000000017999000000000000000000000000000000010420130000000000179990000000000000005436                                    00                
0330002300020J00023791565500001015162709091330845439500148090GUETTI COML ATACADISTA LTDA   01042013000000000101516000000000000000000000000000000010420130000000001015160000000000000005437                                    00                
0330002300021J00042292565500001835637115000060671434049930282ATHENABANCO FOMENTO MERC LTDA 01042013000000000183563000000000000000000000000000000010420130000000001835630000000000000005438                                    00                
0330002300022J00023791565500001764510086093060000008300170000A FIRMA ASSESSORIA EM COBRANCA01042013000000000176451000000000000000000000000000000010420130000000001764510000000000000005439                                    00                
0330002300023J00023794565500000158003372090000006028100584500MAGGI CAMINHOES LTDA          01042013000000000015800000000000000000000000000000000010420130000000000158000000000000000005441                                    00                
0330002300024J00023797565500000125003372090000006023700584500MAGGI CAMINHOES LTDA          01042013000000000012500000000000000000000000000000000010420130000000000125000000000000000005442                                    00                
0330002300025J00023791565500000090843372094000204559100400020MAGGI LE NOM AUTOMOTORES LTDA 01042013000000000009084000000000000000000000000000000010420130000000000090840000000000000005443                                    00                
0330002300026J00023799565500000360000136093032000002401269910MEMORIAL COMERCIO DE PECAS LTD01042013000000000036000000000000000000000000000000000010420130000000000360000000000000000005444                                    00                
0330002300027J00023795565500000409622500090256574569700000340ODAPEL DISTRIBUIDORA DE AUTO P01042013000000000040962000000000000000000000000000000010420130000000000409620000000000000005445                                    00                
0330002300028J00023797565500000415682500090256574710600000340ODAPEL DISTRIBUIDORA DE AUTO P01042013000000000041568000000000000000000000000000000010420130000000000415680000000000000005446                                    00                
0330002300029J00023796565500000376252500090256574698400000340ODAPEL DISTRIBUIDORA DE AUTO P01042013000000000037625000000000000000000000000000000010420130000000000376250000000000000005447                                    00                
0330002300030J00023791565500000529502500090256574811900000340ODAPEL DISTRIBUIDORA DE AUTO P01042013000000000052950000000000000000000000000000000010420130000000000529500000000000000005448                                    00                
0330002300031J00039995565500000565608144671683204540096965001PELLEGRINO DISTRIBUIDORA DE AU01042013000000000056560000000000000000000000000000000010420130000000000565600000000000000005449                                    00                
0330002300032J00039997565500001744632995120785105313093513001REAL MOTO PECAS LTDA          01042013000000000174463000000000000000000000000000000010420130000000001744630000000000000005450                                    00                
0330002300033J00023794565500000732753395093050000002300028140ROCHESTER DISTRIBUIDORA DE AUT01042013000000000073275000000000000000000000000000000010420130000000000732750000000000000005451                                    00                
0330002300034J00000198565500000190900000001572502000001904917SHARK TRATORES E PECAS LTDA   01042013000000000019090000000000000000000000000000000010420130000000000190900000000000000005452                                    00                
0330002300035J00000191565500000902700000002175416000003674117SK AUTOMOTIVE S/A DISTR AUTOPE01042013000000000090270000000000000000000000000000000010420130000000000902700000000000000005453                                    00                
0330002300036J00034191565500000180001128042736572938069560000TEMPO AUTOMOVEIS PECAS LTDA   01042013000000000018000000000000000000000000000000000010420130000000000180000000000000000005454                                    00                
0330002300037J00034191565500000242111128042736242938069560000TEMPO AUTOMOVEIS PECAS LTDA   01042013000000000024211000000000000000000000000000000010420130000000000242110000000000000005455                                    00                
0330002300038J00034193565500000142611127318333262938069560000TEMPO AUTOMOVEIS PECAS LTDA   01042013000000000014261000000000000000000000000000000010420130000000000142610000000000000005456                                    00                
0330002300039J00000194565500000516840000001291892000004806817VESPOR AUTOMOTIVE DIST DE AUTO01042013000000000051684000000000000000000000000000000010420130000000000516840000000000000005457                                    00                
0330002300040J00039993565500000097851770505282404540079149001BANCO SOFISA SA               01042013000000000009785000000000000000000000000000000010420130000000000097850000000000000005458                                    00                
0330002300041J00039993565500000249821770505283204540079149001BANCO SOFISA SA               01042013000000000024982000000000000000000000000000000010420130000000000249820000000000000005459                                    00                
0330002300042J00039991565500001627352400512080906573205239001RODONAVES TRANSP E ENCOMENDAS 01042013000000000162735000000000000000000000000000000010420130000000001627350000000000000005460                                    00                
0330002300043J00039995565500000169232400512081706573205239001RODONAVES TRANSP E ENCOMENDAS 01042013000000000016923000000000000000000000000000000010420130000000000169230000000000000005461                                    00                
0330002300044J00039993565500000116772400512082506573205239001RODONAVES TRANSP E ENCOMENDAS 01042013000000000011677000000000000000000000000000000010420130000000000116770000000000000005462                                    00                
0330002300045J00023795565500000540832372196600108313100360080TELEFONICA BRASIL S/A         01042013000000000054083000000000000000000000000000000010420130000000000540830000000000000005463                                    00                
0330002300046J00000192565500000147800000001555704202000136817VIRTUAL EXPRESS TRANSPORTES E 01042013000000000014780000000000000000000000000000000010420130000000000147800000000000000005464                                    00                
03300025         000048000000000004376119000000000000000000                                                                                                                                                                                     
03300031C2011010 205437537000137003300650049002805030006550000480000414 AUTO GERAL DE ITU LTDA                                                AV DR OCTAVIANO PEREIRA MENDES01333               ITU                 13301000SP                  
0330003300001O00084610000000711710291158440287777003136130401TELEFONICA                    01042013010420130000000000071175465                                                                                                                  
0330003300002B   000000000000000                              00000                                                  00000000  010420130000000000000000000000000000000000000000000000000000000000000000000000000000              0000000        
0330003300003O00084610000030590600800011208554953503131130401VIVO-SP                       01042013010420130000000003059065466                                                                                                                  
0330003300004B   000000000000000                              00000                                                  00000000  010420130000000000000000000000000000000000000000000000000000000000000000000000000000              0000000        
03300035         000006000000000000313023                                                                                                                                                                                                       
03399999         000003000059                                                                                                                                                                                                                   
