03300000         2054375370001370033006500490028050300065 0000480000414 AUTO GERAL DE ITU LTDA        BANCO SANTANDER                         10701201310512100006706000000                                        G4016PF00528               G4
03300011C2030030 205437537000137003300650049002805030006550000480000414 AUTO GERAL DE ITU LTDA                                                AV DR OCTAVIANO PEREIRA MENDES01333               ITU                 13301000SP                  
0330001300001J00003399557000000380829140743000000001122750203ROM COMERCIAL DE AUTO PECAS LT06012013000000000038082000000000000000000000000000000070120130000000000380820000000000000002639                                    00                
0330001300002J00003391557100002573749482966200000023000600104CAR CENTRAL DE AUTOPECAS E ROL07012013000000000257374000000000000000000000000000000070120130000000002573740000000000000002647                                    00                
0330001300003J00003392557100000108479482966200000022780140104CAR CENTRAL DE AUTOPECAS E ROL07012013000000000010847000000000000000000000000000000070120130000000000108470000000000000002648                                    00                
0330001300004J00003397557100000407979482966200000022777780104CAR CENTRAL DE AUTOPECAS E ROL07012013000000000040797000000000000000000000000000000070120130000000000407970000000000000002652                                    00                
0330001300005J00003395557100000629469474127700000007003390203LUPORINI DISTR DE AUTOPECAS LT07012013000000000062946000000000000000000000000000000070120130000000000629460000000000000002662                                    00                
0330001300006J00003393557100000556659474127700000007092200203LUPORINI DISTR DE AUTOPECAS LT07012013000000000055665000000000000000000000000000000070120130000000000556650000000000000002663                                    00                
03300015         000008000000000000465711000000000000000000                                                                                                                                                                                     
03300021C2031030 205437537000137003300650049002805030006550000480000414 AUTO GERAL DE ITU LTDA                                                AV DR OCTAVIANO PEREIRA MENDES01333               ITU                 13301000SP                  
0330002300001J00034191556900000034001126648869780076000777000CENTER PECAS FABBRI LTDA      05012013000000000003400000000000000000000000000000000070120130000000000034000000000000000002619                                    00                
0330002300002J00034191556900000756361126256781752938000052000EATON LTDA                    05012013000000000075636000000000000000000000000000000070120130000000000756360000000000000002620                                    00                
0330002300003J00034194556900000093591126256783812938000052000EATON LTDA                    05012013000000000009359000000000000000000000000000000070120130000000000093590000000000000002621                                    00                
0330002300004J00034199556900001887291126256778212938000052000EATON LTDA                    05012013000000000188729000000000000000000000000000000070120130000000001887290000000000000002622                                    00                
0330002300005J00034191556900000243951126736422552938000052000EATON LTDA                    05012013000000000024395000000000000000000000000000000070120130000000000243950000000000000002623                                    00                
0330002300006J00034193556900000817091126736418852938000052000EATON LTDA                    05012013000000000081709000000000000000000000000000000070120130000000000817090000000000000002624                                    00                
0330002300007J00034197556900000124141125828292582938000052000EATON LTDA                    05012013000000000012414000000000000000000000000000000070120130000000000124140000000000000002625                                    00                
0330002300008J00034199556900000163991125828284822938000052000EATON LTDA                    05012013000000000016399000000000000000000000000000000070120130000000000163990000000000000002626                                    00                
0330002300009J00039991556900000434371764692768404570524809001F CONFUORTO IND COM PCS LTDA  05012013000000000043437000000000000000000000000000000070120130000000000434370000000000000002627                                    00                
0330002300010J00034191556900002489561126905308552938017569000FRAS-LE S/A                   05012013000000000248956000000000000000000000000000000070120130000000002489560000000000000002628                                    00                
0330002300011J00023791556900000330883394090000013848200324600MORELATE DISTRIBUIDORA DE AUTO05012013000000000033088000000000000000000000000000000070120130000000000330880000000000000002629                                    00                
0330002300012J00000192556900000206570000001216979443123674831NOVA DISTRIBUIDORA DE VEICULOS05012013000000000020657000000000000000000000000000000070120130000000000206570000000000000002630                                    00                
0330002300013J00034199557000000473201126821355980237417159000ACCIOLY SA IMP E COM          06012013000000000047320000000000000000000000000000000070120130000000000473200000000000000002631                                    00                
0330002300014J00034195557000000125001126648869860076000777000CENTER PECAS FABBRI LTDA      06012013000000000012500000000000000000000000000000000070120130000000000125000000000000000002632                                    00                
0330002300015J00034192557000000499401126631397750017749003000DOVAC INDUSTRIA E COM LTDA    06012013000000000049940000000000001483000000000000000070120130000000000484570000000000000002633                                    00                
0330002300016J00034195557000000042621126298774682938000052000EATON LTDA                    06012013000000000004262000000000000000000000000000000070120130000000000042620000000000000002634                                    00                
0330002300017J00034191557000000279681126298794152938000052000EATON LTDA                    06012013000000000027968000000000000000000000000000000070120130000000000279680000000000000002635                                    00                
0330002300018J00034191557000000580261126774890912938000052000EATON LTDA                    06012013000000000058026000000000000000000000000000000070120130000000000580260000000000000002636                                    00                
0330002300019J00034196557000000112071125853598082938000052000EATON LTDA                    06012013000000000011207000000000000000000000000000000070120130000000000112070000000000000002637                                    00                
0330002300020J00034196557000000487931125853605092938000052000EATON LTDA                    06012013000000000048793000000000000000000000000000000070120130000000000487930000000000000002638                                    00                
0330002300021J00023792557000000712802386092305000002100028910FERROL IND E COM LTDA         06012013000000000071280000000000000000000000000000000070120130000000000712800000000000000002640                                    00                
0330002300022J00034195557000000331931126745330166676980086000NOVA DISTRIBUIDORA DE VEICULOS06012013000000000033193000000000000000000000000000000070120130000000000331930000000000000002641                                    00                
0330002300023J00023797557000000578463395090000004927300650000SORANA SUL                    06012013000000000057846000000000000000000000000000000070120130000000000578460000000000000002642                                    00                
0330002300024J00023791556900004180493391020007157328800010210INTERSMART COM IMP EXP EQUIP E05012013000000000418049000000000000000000000000000000070120130000000004180490000000000000002643                                    00                
0330002300025J00000191557100001362270443038352218690003493111J. INVEST MAXX FACTORING FOMEN07012013000000000136227000000000000000000000000000000070120130000000001362270000000000000002644                                    00                
0330002300026J00034197557100000224001561663012964518080884000CAMPOS SALLES C LTDA EPP      07012013000000000022400000000000000000000000000000000070120130000000000224000000000000000002645                                    00                
0330002300027J00023794557100000884150495092318000081400995600CAOA CAMINHOES LTDA           07012013000000000088415000000000000000000000000000000070120130000000000884150000000000000002646                                    00                
0330002300028J00039994557100000292981766148962604061860231001CAR CENTRAL DE AUTOPECAS E ROL07012013000000000029298000000000000000000000000000000070120130000000000292980000000000000002649                                    00                
0330002300029J00039991557100000506431766148964204061860231001CAR CENTRAL DE AUTOPECAS E ROL07012013000000000050643000000000000000000000000000000070120130000000000506430000000000000002650                                    00                
0330002300030J00039991557100000264161766148956104061860231001CAR CENTRAL DE AUTOPECAS E ROL07012013000000000026416000000000000000000000000000000070120130000000000264160000000000000002651                                    00                
0330002300031J00039994557100000230741766148960004061860231001CAR CENTRAL DE AUTOPECAS E ROL07012013000000000023074000000000000000000000000000000070120130000000000230740000000000000002653                                    00                
0330002300032J00023793557100000096772917090000008966300041120CMD MOTORS LTDA               07012013000000000009677000000000000000000000000000000070120130000000000096770000000000000002654                                    00                
0330002300033J00000191557100001764734584341710700370004790718DB DISTRIBUIDORA DE BATERIAS L07012013000000000176473000000000000000000000000000000070120130000000001764730000000000000002655                                    00                
0330002300034J00034192557100000988211126184011892938030539000DELPHI AUTOM SYSTEMS BR LTDA  07012013000000000098821000000000000000000000000000000070120130000000000988210000000000000002656                                    00                
0330002300035J00023792557100000286140138092338000003901370000BBL SISTEMAS OPERACIONAIS LTDA07012013000000000028614000000000000000000000000000000070120130000000000286140000000000000002657                                    00                
0330002300036J00034196557100001228011126362754822938000052000EATON LTDA                    07012013000000000122801000000000000000000000000000000070120130000000001228010000000000000002658                                    00                
0330002300037J00034198557100000112071125872099932938000052000EATON LTDA                    07012013000000000011207000000000000000000000000000000070120130000000000112070000000000000002659                                    00                
0330002300038J00034199557100000717471124837294252938107808000ELIVEL AUTOMOTORES LTDA       07012013000000000071747000000000000000000000000000000070120130000000000717470000000000000002660                                    00                
0330002300039J00034191557100001049001126612914872938074040000ITAVOX VEICULOS               07012013000000000104900000000000000000000000000000000070120130000000001049000000000000000002661                                    00                
0330002300040J00034195557100000182561090101441650278764519000MAGGI MOTOS LTDA              07012013000000000018256000000000000000000000000000000070120130000000000182560000000000000002664                                    00                
0330002300041J00023792557100000822003372097672311502700767230MAGGI VEICULOS LTDA           07012013000000000082200000000000000000000000000000000070120130000000000822000000000000000002665                                    00                
0330002300042J00034192557100000080201090003044160513598375000MARCOS PAULO HOLTZ SOROCABA EP07012013000000000008020000000000000000000000000000000070120130000000000080200000000000000002666                                    00                
0330002300043J00023791557100000275362028192340000001700375550MASTER SISTEMAS AUTOMOTIVOS LT07012013000000000027536000000000000000000000000000000070120130000000000275360000000000000002667                                    00                
0330002300044J00039992557100001567692315331768205313093513001REAL MOTO PECAS LTDA          07012013000000000156769000000000000000000000000000000070120130000000001567690000000000000002668                                    00                
0330002300045J00039997557100000799912315331942105313093513001REAL MOTO PECAS LTDA          07012013000000000079991000000000000000000000000000000070120130000000000799910000000000000002669                                    00                
0330002300046J00034193557100001176001127256923572938016363000RR DONNELLEY MOORE EDT GR LTDA07012013000000000117600000000000000000000000000000000070120130000000001176000000000000000002670                                    00                
0330002300047J00000197557100014366180000001103966443466243411TARANTO COML IMP E EXP        07012013000000001436618000000000000000000000000000000070120130000000014366180000000000000002671                                    00                
0330002300048J00000191557100001267120000001103966443466243511TARANTO COML IMP E EXP        07012013000000000126712000000000000000000000000000000070120130000000001267120000000000000002672                                    00                
0330002300049J00000194557100000620500000001103966443466243611TARANTO COML IMP E EXP        07012013000000000062050000000000000000000000000000000070120130000000000620500000000000000002673                                    00                
0330002300050J00034194557100000207611125711949462938069560000TEMPO AUTOMOVEIS PECAS LTDA   07012013000000000020761000000000000000000000000000000070120130000000000207610000000000000002674                                    00                
0330002300051J00034199557100000122431126621267402938069560000TEMPO AUTOMOVEIS PECAS LTDA   07012013000000000012243000000000000000000000000000000070120130000000000122430000000000000002675                                    00                
0330002300052J00039995557100000145281765725671404540079149001BANCO SOFISA SA               07012013000000000014528000000000000000000000000000000070120130000000000145280000000000000002676                                    00                
0330002300053J00039993557100000364651765725670604540079149001BANCO SOFISA SA               07012013000000000036465000000000000000000000000000000070120130000000000364650000000000000002677                                    00                
0330002300054J00039991557100001313402315331780105313093513001REAL MOTO PECAS LTDA          07012013000000000131340000000000000000000000000000000070120130000000001313400000000000000002684                                    00                
03300025         000056000000000004928882000000000000000000                                                                                                                                                                                     
03300031C2011010 205437537000137003300650049002805030006550000480000414 AUTO GERAL DE ITU LTDA                                                AV DR OCTAVIANO PEREIRA MENDES01333               ITU                 13301000SP                  
0330003300001O00085830000085528501791301075520508054375370001FGTS GRF CONVENIO 0179        07012013070120130000000008552852678                                                                                                                  
0330003300002B   800054375370001                              00000                                                  00000000  070120130000000000000000000000000000000000000000000000000000000000000000000000000000              0000000        
0330003300003O00085880000019955001791301075520508054375370002FGTS GRF CONVENIO 0179        07012013070120130000000001995502679                                                                                                                  
0330003300004B   800054375370002                              00000                                                  00000000  070120130000000000000000000000000000000000000000000000000000000000000000000000000000              0000000        
0330003300005O00085850000024025501791301075520508054375370003FGTS GRF CONVENIO 0179        07012013070120130000000002402552680                                                                                                                  
0330003300006B   800054375370003                              00000                                                  00000000  070120130000000000000000000000000000000000000000000000000000000000000000000000000000              0000000        
0330003300007O00085810000011203201791301075520508054375370004FGTS GRF CONVENIO 0179        07012013070120130000000001120322681                                                                                                                  
0330003300008B   800054375370004                              00000                                                  00000000  070120130000000000000000000000000000000000000000000000000000000000000000000000000000              0000000        
0330003300009O00085810000026413501791301075520508054375370005FGTS GRF CONVENIO 0179        07012013070120130000000002641352682                                                                                                                  
0330003300010B   800054375370005                              00000                                                  00000000  070120130000000000000000000000000000000000000000000000000000000000000000000000000000              0000000        
0330003300011O00085800000014555501791301075520508054375370006FGTS GRF CONVENIO 0179        07012013070120130000000001455552683                                                                                                                  
0330003300012B   800054375370006                              00000                                                  00000000  070120130000000000000000000000000000000000000000000000000000000000000000000000000000              0000000        
03300035         000014000000000001816812                                                                                                                                                                                                       
03399999         000003000080                                                                                                                                                                                                                   
