03300000         2054375370001370033006500490028050300065 0000480000414 AUTO GERAL DE ITU LTDA        BANCO SANTANDER                         10703201310572200011306000000                                        G4016PF00529               G4
03300011C2003031 2054375370001370033006500490028050300065 0000480000414 AUTO GERAL DE ITU LTDA                                                AV DR OCTAVIANO PEREIRA MENDES01333               ITU                 13301000SP                  
0330001300001A0007003410156900000000151903 EDER PAULO NUNES ARAUJO INFORM4668                07032013BRL000000000000000000000000135851                    00000000000000000000000                                        07          0          
0330001300002B   207205757000160                              00000                                                  00000000  070320130000000001358510000000000000000000000000000000000000000000000000000000000000000           00000          
03300015         000004000000000000135851000000000000000000                                                                                                                                                                                     
03300021C2030030 205437537000137003300650049002805030006550000480000414 AUTO GERAL DE ITU LTDA                                                AV DR OCTAVIANO PEREIRA MENDES01333               ITU                 13301000SP                  
0330002300001J00003393563000000232609513931700000104203470101DISTRIBUIDORA AUTOMOTIVA S.A. 07032013000000000023260000000000000000000000000000000070320130000000000232600000000000000004627                                    00                
0330002300002J00003391563000000277859492147000000000572900104J FREITAS COM IMP E EXP LTDA  07032013000000000027785000000000000000000000000000000070320130000000000277850000000000000004635                                    00                
03300025         000004000000000000051045000000000000000000                                                                                                                                                                                     
03300031C2031030 205437537000137003300650049002805030006550000480000414 AUTO GERAL DE ITU LTDA                                                AV DR OCTAVIANO PEREIRA MENDES01333               ITU                 13301000SP                  
0330003300001J00000191563000002097000444344196619140000100711CDMD COM DE VEICULOS AUTOMOTOR07032013000000000209700000000000000000000000000000000070320130000000002097000000000000000004614                                    00                
0330003300002J00034197563000000198501128278357710076000777000CENTER PECAS FABBRI LTDA      07032013000000000019850000000000000000000000000000000070320130000000000198500000000000000004615                                    00                
0330003300003J00034192563000000030001128278357890076000777000CENTER PECAS FABBRI LTDA      07032013000000000003000000000000000000000000000000000070320130000000000030000000000000000004616                                    00                
0330003300004J00034191563000002002001128278357480076000777000CENTER PECAS FABBRI LTDA      07032013000000000200200000000000000000000000000000000070320130000000002002000000000000000004617                                    00                
0330003300005J00034195563000000243001128413446510076000777000CENTER PECAS FABBRI LTDA      07032013000000000024300000000000000000000000000000000070320130000000000243000000000000000004618                                    00                
0330003300006J00034193563000000299001128413446360076000777000CENTER PECAS FABBRI LTDA      07032013000000000029900000000000000000000000000000000070320130000000000299000000000000000004619                                    00                
0330003300007J00034191563000000331001128413446440076000777000CENTER PECAS FABBRI LTDA      07032013000000000033100000000000000000000000000000000070320130000000000331000000000000000004620                                    00                
0330003300008J00023797563000004875873396092356000000600008270CINPAL CIA IND DE PECAS P/ AUT07032013000000000487587000000000000000000000000000000070320130000000004875870000000000000004621                                    00                
0330003300009J00023791563000000119492002061301410185100829680COMERCIAL AUTOMOTIVA S.A.     07032013000000000011949000000000000000000000000000000070320130000000000119490000000000000004622                                    00                
0330003300010J00034191563000000845001127849287421446662742000COML FIX IMPL RODOVIARIOS LTDA07032013000000000084500000000000000000000000000000000070320130000000000845000000000000000004623                                    00                
0330003300011J00000195563000002742830000002267479000014555117DECAR AUTOPECAS LTDA          07032013000000000274283000000000000000000000000000000070320130000000002742830000000000000004624                                    00                
0330003300012J00035691563000000308420689070323450000003264544DISTRIBUIDORA AUTOMOTIVA S.A. 07032013000000000030842000000000000000000000000000000070320130000000000308420000000000000004625                                    00                
0330003300013J00035691563000000131800689070323430000003264611DISTRIBUIDORA AUTOMOTIVA S.A. 07032013000000000013180000000000000000000000000000000070320130000000000131800000000000000004626                                    00                
0330003300014J00035691563000000476720689070323490000003264607DISTRIBUIDORA AUTOMOTIVA S.A. 07032013000000000047672000000000000000000000000000000070320130000000000476720000000000000004628                                    00                
0330003300015J00034194563000000296181126631397910017749003000DOVAC INDUSTRIA E COM LTDA    07032013000000000029618000000000001480000000000000000070320130000000000281380000000000000004629                                    00                
0330003300016J00034191563000000323251128285608572938107808000ELIVEL AUTOMOTORES LTDA       07032013000000000032325000000000000000000000000000000070320130000000000323250000000000000004630                                    00                
0330003300017J00034192563000009136871128430416932938017569000FRAS-LE S/A                   07032013000000000913687000000000000000000000000000000070320130000000009136870000000000000004631                                    00                
0330003300018J00000191563000022215640444712380826590000460931FREIOS CONTROIL LTDA          07032013000000002221564000000000000000000000000000000070320130000000022215640000000000000004632                                    00                
0330003300019J00034193563000000263231090304577670109276204000GIRANDO COMERCIO DE PECAS LTDA07032013000000000026323000000000000000000000000000000070320130000000000263230000000000000004633                                    00                
0330003300020J00034196563000001082001126612915032938074040000ITAVOX VEICULOS               07032013000000000108200000000000000000000000000000000070320130000000001082000000000000000004634                                    00                
0330003300021J00023795563000000354613391093039000095400003730RED FIDC MULTISETORIAL LP     07032013000000000035461000000000000000000000000000000070320130000000000354610000000000000004636                                    00                
0330003300022J00034198563000000219781128097811832938025125000MAHLE METAL LEVE S/A          07032013000000000021978000000000000000000000000000000070320130000000000219780000000000000004637                                    00                
0330003300023J00034191563000000434971128097811672938025125000MAHLE METAL LEVE S/A          07032013000000000043497000000000000000000000000000000070320130000000000434970000000000000004638                                    00                
0330003300024J00034199563000000054771128097811752938025125000MAHLE METAL LEVE S/A          07032013000000000005477000000000000000000000000000000070320130000000000054770000000000000004639                                    00                
0330003300025J00034194563000000651741128097810762938025125000MAHLE METAL LEVE S/A          07032013000000000065174000000000000000000000000000000070320130000000000651740000000000000004640                                    00                
0330003300026J00034193563000000078311128097810922938025125000MAHLE METAL LEVE S/A          07032013000000000007831000000000000000000000000000000070320130000000000078310000000000000004641                                    00                
0330003300027J00034196563000000110241128097810842938025125000MAHLE METAL LEVE S/A          07032013000000000011024000000000000000000000000000000070320130000000000110240000000000000004642                                    00                
0330003300028J00023796563000004665732514093060000001400092830ORI TRUCK COM DE AUTO PECAS LT07032013000000000466573000000000000000000000000000000070320130000000004665730000000000000004643                                    00                
0330003300029J00034192000000000000001219866870521012365225000PACAEMBU AUTO PECAS LTDA      07032013000000000213809000000000000000000000000000000070320130000000002138090000000000000004644                                    00                
0330003300030J00039998563000000284988144670390004540096965001PELLEGRINO DISTRIBUIDORA DE AU07032013000000000028498000000000000000000000000000000070320130000000000284980000000000000004645                                    00                
0330003300031J00039991563000001579538144670333104540096965001PELLEGRINO DISTRIBUIDORA DE AU07032013000000000157953000000000000000000000000000000070320130000000001579530000000000000004646                                    00                
0330003300032J00023797563000000283263484093036000093701129000PETRONAS LUBRIFICANTES BRASIL 07032013000000000028326000000000000000000000000000000070320130000000000283260000000000000004647                                    00                
0330003300033J00000191563000002428590000001597457132189959517PETROBRAS DISTRIBUIDORA       07032013000000000242859000000000000000000000000000000070320130000000002428590000000000000004648                                    00                
0330003300034J00000197563000002976190000001597457132189959217PETROBRAS DISTRIBUIDORA       07032013000000000297619000000000000000000000000000000070320130000000002976190000000000000004649                                    00                
0330003300035J00000194563000002997100000001597457132189959817PETROBRAS DISTRIBUIDORA       07032013000000000299710000000000000000000000000000000070320130000000002997100000000000000004650                                    00                
0330003300036J00000191563000001110100000001597457132189991617PETROBRAS DISTRIBUIDORA       07032013000000000111010000000000000000000000000000000070320130000000001110100000000000000004651                                    00                
0330003300037J00000193563000005411270000001597457132189960117PETROBRAS DISTRIBUIDORA       07032013000000000541127000000000000000000000000000000070320130000000005411270000000000000004652                                    00                
0330003300038J00039994563000000261803133556323105313093513001REAL MOTO PECAS LTDA          07032013000000000026180000000000000000000000000000000070320130000000000261800000000000000004653                                    00                
0330003300039J00039998563000000277933133556349505313093513001REAL MOTO PECAS LTDA          07032013000000000027793000000000000000000000000000000070320130000000000277930000000000000004654                                    00                
0330003300040J00023794563000000796573395061180232917000028140ROCHESTER DISTRIBUIDORA DE AUT07032013000000000079657000000000000000000000000000000070320130000000000796570000000000000004655                                    00                
0330003300041J00023796563000000500070545090000033013400705060TONINI DISTRIBUIDORA LTDA     07032013000000000050007000000000000000000000000000000070320130000000000500070000000000000004656                                    00                
0330003300042J00034192563000000426091128719979158949010469000TSA TECN SIST AUTOM LTDA      07032013000000000042609000000000000000000000000000000070320130000000000426090000000000000004657                                    00                
0330003300043J00000191563000004675500444681707033400000334251UNIAO COM BORR AUTO PECAS LTDA07032013000000000467550000000000000000000000000000000070320130000000004675500000000000000004658                                    00                
0330003300044J00034191563000002842101128628017873184122228000UNIVERSAL AUTOMOTIVE SYSTEMS S07032013000000000284210000000000000000000000000000000070320130000000002842100000000000000004659                                    00                
03300035         000046000000000008356232000000000000000000                                                                                                                                                                                     
03300041C2011010 205437537000137003300650049002805030006550000480000414 AUTO GERAL DE ITU LTDA                                                AV DR OCTAVIANO PEREIRA MENDES01333               ITU                 13301000SP                  
0330004300001O00084610000024758410291160934127777002135130227TELEFONICA                    07032013070320130000000002475844660                                                                                                                  
0330004300002B   000000000000000                              00000                                                  00000000  070320130000000000000000000000000000000000000000000000000000000000000000000000000000              0000000        
0330004300003O00084610000018043410291160934127777001139130127TELEFONICA                    07032013070320130000000001804344661                                                                                                                  
0330004300004B   000000000000000                              00000                                                  00000000  070320130000000000000000000000000000000000000000000000000000000000000000000000000000              0000000        
03300045         000006000000000000428018                                                                                                                                                                                                       
03300051C2011010 205437537000137003300650049002805030006550000480000414 AUTO GERAL DE ITU LTDA                                                AV DR OCTAVIANO PEREIRA MENDES01333               ITU                 13301000SP                  
0330005300001O00085890000055911201791303075540508054375370001FGTS GRF CONVENIO 0179        07032013070320130000000005591124662                                                                                                                  
0330005300002B   800054375370001                              00000                                                  00000000  070320130000000000000000000000000000000000000000000000000000000000000000000000000000              0000000        
0330005300003O00085820000013471901791303075540508054375370002FGTS GRF CONVENIO 0179        07032013070320130000000001347194663                                                                                                                  
0330005300004B   800054375370002                              00000                                                  00000000  070320130000000000000000000000000000000000000000000000000000000000000000000000000000              0000000        
0330005300005O00085830000016415101791303075540508054375370003FGTS GRF CONVENIO 0179        07032013070320130000000001641514664                                                                                                                  
0330005300006B   800054375370003                              00000                                                  00000000  070320130000000000000000000000000000000000000000000000000000000000000000000000000000              0000000        
0330005300007O00085870000007623701791303075540508054375370004FGTS GRF CONVENIO 0179        07032013070320130000000000762374665                                                                                                                  
0330005300008B   800054375370004                              00000                                                  00000000  070320130000000000000000000000000000000000000000000000000000000000000000000000000000              0000000        
0330005300009O00085850000017449701791303075540508054375370005FGTS GRF CONVENIO 0179        07032013070320130000000001744974666                                                                                                                  
0330005300010B   800054375370005                              00000                                                  00000000  070320130000000000000000000000000000000000000000000000000000000000000000000000000000              0000000        
0330005300011O00085820000009486201791303075540508054375370006FGTS GRF CONVENIO 0179        07032013070320130000000000948624667                                                                                                                  
0330005300012B   800054375370006                              00000                                                  00000000  070320130000000000000000000000000000000000000000000000000000000000000000000000000000              0000000        
03300055         000014000000000001203578                                                                                                                                                                                                       
03399999         000005000076                                                                                                                                                                                                                   
