03300000         2054375370001370033006500490028050300065 0000480000414 AUTO GERAL DE ITU LTDA        BANCO SANTANDER                         10802201313221000009506000000                                        G4016PF00529               G4
03300011C2031030 205437537000137003300650049002805030006550000480000414 AUTO GERAL DE ITU LTDA                                                AV DR OCTAVIANO PEREIRA MENDES01333               ITU                 13301000SP                  
0330001300001J00023796560300019249363392023030000001000000550DRIVEWAY INDUSTRIA BRASILEIRA 08022013000000001924936000000000000000000000000000000080220130000000019249360000000000000003707                                    00                
0330001300002J00034199560300010167961127889654190765884705000NEBLINELGA I ACES P/AUTO LTDA 08022013000000001016796000000000000000000000000000000080220130000000010167960000000000000003708                                    00                
0330001300003J00023792000000000000002025062025186043400001600BARROS E FILHOS LTDA          08022013000000000138328000000000000000000000000000000080220130000000001383280000000000000003709                                    00                
03300015         000005000000000003080060000000000000000000                                                                                                                                                                                     
03300021C2011010 205437537000137003300650049002805030006550000480000414 AUTO GERAL DE ITU LTDA                                                AV DR OCTAVIANO PEREIRA MENDES01333               ITU                 13301000SP                  
0330002300001O00083620000004929601103003395112620210002565404CIA PIRATININGA DE FORCA E LUZ08022013080220130000000000492963710                                                                                                                  
0330002300002B   000000000000000                              00000                                                  00000000  080220130000000000000000000000000000000000000000000000000000000000000000000000000000              0000000        
03300025         000004000000000000049296                                                                                                                                                                                                       
03300031C2011010 205437537000137003300650049002805030006550000480000414 AUTO GERAL DE ITU LTDA                                                AV DR OCTAVIANO PEREIRA MENDES01333               ITU                 13301000SP                  
0330003300001O00085880000064827801791302085530548054375370001FGTS GRF CONVENIO 0179        08022013080220130000000006482783711                                                                                                                  
0330003300002B   800054375370001                              00000                                                  00000000  080220130000000000000000000000000000000000000000000000000000000000000000000000000000              0000000        
0330003300003O00085800000014575701791302085530548054375370002FGTS GRF CONVENIO 0179        08022013080220130000000001457573712                                                                                                                  
0330003300004B   800054375370002                              00000                                                  00000000  080220130000000000000000000000000000000000000000000000000000000000000000000000000000              0000000        
0330003300005O00085890000016948001791302085530538054375370003FGTS GRF CONVENIO 0179        08022013080220130000000001694803713                                                                                                                  
0330003300006B   800054375370003                              00000                                                  00000000  080220130000000000000000000000000000000000000000000000000000000000000000000000000000              0000000        
0330003300007O00085800000008169401791302085530538054375370004FGTS GRF CONVENIO 0179        08022013080220130000000000816943714                                                                                                                  
0330003300008B   800054375370004                              00000                                                  00000000  080220130000000000000000000000000000000000000000000000000000000000000000000000000000              0000000        
0330003300009O00085870000018888401791302085530548054375370005FGTS GRF CONVENIO 0179        08022013080220130000000001888843715                                                                                                                  
0330003300010B   800054375370005                              00000                                                  00000000  080220130000000000000000000000000000000000000000000000000000000000000000000000000000              0000000        
0330003300011O00085800000010005001791302085530538054375370006FGTS GRF CONVENIO 0179        08022013080220130000000001000503716                                                                                                                  
0330003300012B   800054375370006                              00000                                                  00000000  080220130000000000000000000000000000000000000000000000000000000000000000000000000000              0000000        
03300035         000014000000000001334143                                                                                                                                                                                                       
03399999         000003000025                                                                                                                                                                                                                   
