03300000         2054375370001370033006500490028050300065 0000480000414 AUTO GERAL DE ITU LTDA        BANCO SANTANDER                         10801201317280000007006000000                                        G4016PF00528               G4
03300011C2003031 2054375370001370033006500490028050300065 0000480000414 AUTO GERAL DE ITU LTDA                                                AV DR OCTAVIANO PEREIRA MENDES01333               ITU                 13301000SP                  
0330001300001A0007000010420210000000105007 REAL MOTO PECAS LTDA          2723                09012013BRL000000000000000000000000138422                    00000000000000000000000                                        07          0          
0330001300002B   225630302000174                              00000                                                  00000000  090120130000000001384220000000000000000000000000000000000000000000000000000000000000000           00000          
03300015         000004000000000000138422000000000000000000                                                                                                                                                                                     
03399999         000001000006                                                                                                                                                                                                                   
