03300000         2054375370001370033006500490028050300065 0000480000414 AUTO GERAL DE ITU LTDA        BANCO SANTANDER                         11101201309195900007306000000                                        G4016PF00528               G4
03300011C2031030 205437537000137003300650049002805030006550000480000414 AUTO GERAL DE ITU LTDA                                                AV DR OCTAVIANO PEREIRA MENDES01333               ITU                 13301000SP                  
0330001300001J00000193557500001061790443587265733620000200231BAP AUTOMOTIVA LTDA           11012013000000000106179000000000000000000000000000000110120130000000001061790000000000000002767                                    00                
0330001300002J00034194557500000979001126911708758514325201000BODIPASA BOMBAS DIESEL PAULIST11012013000000000097900000000000000000000000000000000110120130000000000979000000000000000002768                                    00                
0330001300003J00034192557500000025001127150273660076000777000CENTER PECAS FABBRI LTDA      11012013000000000002500000000000000000000000000000000110120130000000000025000000000000000002769                                    00                
0330001300004J00034195557500000610001126905558940076000777000CENTER PECAS FABBRI LTDA      11012013000000000061000000000000000000000000000000000110120130000000000610000000000000000002770                                    00                
0330001300005J00039995557500001511141766534491602680075859001COBRA ROLAMENTOS E AUTO PECAS 11012013000000000151114000000000000000000000000000000110120130000000001511140000000000000002771                                    00                
0330001300006J00039998557500000688801766534531902680075859001COBRA ROLAMENTOS E AUTO PECAS 11012013000000000068880000000000000000000000000000000110120130000000000688800000000000000002772                                    00                
0330001300007J00039991557500000375121766534510602680075859001COBRA ROLAMENTOS E AUTO PECAS 11012013000000000037512000000000000000000000000000000110120130000000000375120000000000000002773                                    00                
0330001300008J00039999557500000187561766534511402680075859001COBRA ROLAMENTOS E AUTO PECAS 11012013000000000018756000000000000000000000000000000110120130000000000187560000000000000002774                                    00                
0330001300009J00039998557500000310911766534533502680075859001COBRA ROLAMENTOS E AUTO PECAS 11012013000000000031091000000000000000000000000000000110120130000000000310910000000000000002775                                    00                
0330001300010J00023791557500000380413262090000030850900935470COMDIP COMERCIAL DISTR DE PECA11012013000000000038041000000000000000000000000000000110120130000000000380410000000000000002777                                    00                
0330001300011J00023791557500000317173262090000033047600935470COMDIP COMERCIAL DISTR DE PECA11012013000000000031717000000000000000000000000000000110120130000000000317170000000000000002778                                    00                
0330001300012J00023791557500000662172002061301389300100829680COMERCIAL AUTOMOTIVA S.A.     11012013000000000066217000000000000000000000000000000110120130000000000662170000000000000002779                                    00                
0330001300013J00034191557500000198421571098279774522114471000COML NV MILLENNIUN A P LTDA EP11012013000000000019842000000000000992000000000000000110120130000000000188500000000000000002780                                    00                
0330001300014J00034192557500003358981126367368062938030539000DELPHI AUTOM SYSTEMS BR LTDA  11012013000000000335898000000000000000000000000000000110120130000000003358980000000000000002781                                    00                
0330001300015J00000194557500000523000000001563680000003054717DIRECOES HIDRAULICAS LONDRINA 11012013000000000052300000000000000000000000000000000110120130000000000523000000000000000002782                                    00                
0330001300016J00035694557500000901900689070323480000004897224DISTRIBUIDORA AUTOMOTIVA S/A  11012013000000000090190000000000000000000000000000000110120130000000000901900000000000000002783                                    00                
0330001300017J00034191557500000339561123941117390017749003000DOVAC INDUSTRIA E COM LTDA    11012013000000000033956000000000001697000000000000000110120130000000000322590000000000000002784                                    00                
0330001300018J00023798557500000261870138092328000003301453000OBB CONSULTORIA E PARTICIPACOE11012013000000000026187000000000000000000000000000000110120130000000000261870000000000000002785                                    00                
0330001300019J00023791557500000296560138092349000002401453000OBB CONSULTORIA E PARTICIPACOE11012013000000000029656000000000000000000000000000000110120130000000000296560000000000000002786                                    00                
0330001300020J00034195557500001651531126160918342938000052000EATON LTDA                    11012013000000000165153000000000000000000000000000000110120130000000001651530000000000000002787                                    00                
0330001300021J00034193557500000324111126465363292938000052000EATON LTDA                    11012013000000000032411000000000000000000000000000000110120130000000000324110000000000000002789                                    00                
0330001300022J00034195557500000487931126465360712938000052000EATON LTDA                    11012013000000000048793000000000000000000000000000000110120130000000000487930000000000000002790                                    00                
0330001300023J00034197557500000090521126500547892938000052000EATON LTDA                    11012013000000000009052000000000000000000000000000000110120130000000000090520000000000000002791                                    00                
0330001300024J00034191557500000929271126931846272938000052000EATON LTDA                    11012013000000000092927000000000000000000000000000000110120130000000000929270000000000000002792                                    00                
0330001300025J00034197557500001056381090030066770046365078000VIGORITO CAMILOPOLIS          11012013000000000105638000000000000000000000000000000110120130000000001056380000000000000002793                                    00                
0330001300026J00034194557500001673851090304306240109276204000GIRANDO COMERCIO DE PECAS LTDA11012013000000000167385000000000000000000000000000000110120130000000001673850000000000000002794                                    00                
0330001300027J00023797557500004566813114091294868203501763000BANCO SAFRA S/A               11012013000000000456681000000000000000000000000000000110120130000000004566810000000000000002795                                    00                
0330001300028J00034191557500000473071090008348272938050420000ITA PECAS PARA VEIC COM E SERV11012013000000000047307000000000000000000000000000000110120130000000000473070000000000000002796                                    00                
0330001300029J00023798557500000254003372097672311588900767230MAGGI VEICULOS LTDA           11012013000000000025400000000000000000000000000000000110120130000000000254000000000000000002797                                    00                
0330001300030J00000191557500000888760443254988133440000206131POLI FILTRO IND E COMERCIO LTD11012013000000000088876000000000000000000000000000000110120130000000000888760000000000000002798                                    00                
0330001300031J00039992557500001384222315353345805313093513001REAL MOTO PECAS LTDA          11012013000000000138422000000000000000000000000000000110120130000000001384220000000000000002799                                    00                
0330001300032J00039998557500001257382315361444005313093513001REAL MOTO PECAS LTDA          11012013000000000125738000000000000000000000000000000110120130000000001257380000000000000002800                                    00                
0330001300033J00034199557500000288141571059382290278483557000AUTO POSTO ESTRADAO DE ITU LTD11012013000000000028814000000000000000000000000000000110120130000000000288140000000000000002801                                    00                
0330001300034J00034196557500000616091571052309466260139677000ABDELNOR II COM COMB LTDA     11012013000000000061609000000000000000000000000000000110120130000000000616090000000000000002802                                    00                
03300015         000036000000000002890453000000000000000000                                                                                                                                                                                     
03300021C2011010 205437537000137003300650049002805030006550000480000414 AUTO GERAL DE ITU LTDA                                                AV DR OCTAVIANO PEREIRA MENDES01333               ITU                 13301000SP                  
0330002300001O00085660000000741600253038760416212761000044513SEFAZ SP IPVA                 11012013110120130000000000074162803                                                                                                                  
0330002300002B   000000000000000                              00000                                                  00000000  110120130000000000000000000000000000000000000000000000000000000000000000000000000000              0000000        
0330002300003O00085690000000826400253038760503226201000044513SEFAZ SP IPVA                 11012013110120130000000000082642804                                                                                                                  
0330002300004B   000000000000000                              00000                                                  00000000  110120130000000000000000000000000000000000000000000000000000000000000000000000000000              0000000        
0330002300005O00085690000000935200253066950511092481000044513SEFAZ SP IPVA                 11012013110120130000000000093522805                                                                                                                  
0330002300006B   000000000000000                              00000                                                  00000000  110120130000000000000000000000000000000000000000000000000000000000000000000000000000              0000000        
0330002300007O00085620000000688700253038760410232191000044513SEFAZ SP IPVA                 11012013110120130000000000068872806                                                                                                                  
0330002300008B   000000000000000                              00000                                                  00000000  110120130000000000000000000000000000000000000000000000000000000000000000000000000000              0000000        
0330002300009O00085610000000954400253066950523057891000044513SEFAZ SP IPVA                 11012013110120130000000000095442807                                                                                                                  
0330002300010B   000000000000000                              00000                                                  00000000  110120130000000000000000000000000000000000000000000000000000000000000000000000000000              0000000        
0330002300011O00085690000000954400253066950523057851000044513SEFAZ SP IPVA                 11012013110120130000000000095442808                                                                                                                  
0330002300012B   000000000000000                              00000                                                  00000000  110120130000000000000000000000000000000000000000000000000000000000000000000000000000              0000000        
0330002300013O00085660000008017200253038760602027511000044513SEFAZ SP IPVA                 11012013110120130000000000801722809                                                                                                                  
0330002300014B   000000000000000                              00000                                                  00000000  110120130000000000000000000000000000000000000000000000000000000000000000000000000000              0000000        
03300025         000016000000000000131179                                                                                                                                                                                                       
03399999         000002000054                                                                                                                                                                                                                   
