03300000         2054375370001370033006500490028050300065 0000480000414 AUTO GERAL DE ITU LTDA        BANCO SANTANDER                         11112201210365200005006000000                                        G4016PF00528               G4
03300011C2003031 2054375370001370033006500490028050300065 0000480000414 AUTO GERAL DE ITU LTDA                                                AV DR OCTAVIANO PEREIRA MENDES01333               ITU                 13301000SP                  
0330001300001A0007000010154660000002050374 GERAL PARTS COM PECAS E ABRASI1724                11122012BRL000000000000000000000000031346                    00000000000000000000000                                        07          0          
0330001300002B   252472438000176                              00000                                                  00000000  111220120000000000313460000000000000000000000000000000000000000000000000000000000000000           00000          
03300015         000004000000000000031346000000000000000000                                                                                                                                                                                     
03300021C2030030 205437537000137003300650049002805030006550000480000414 AUTO GERAL DE ITU LTDA                                                AV DR OCTAVIANO PEREIRA MENDES01333               ITU                 13301000SP                  
0330002300001J00003397554400000476709421259200000000396750101GUMP MOTORS COMPONENTES AUTOM 11122012000000000047670000000000000000000000000000000111220120000000000476700000000000000001705                                    00                
03300025         000003000000000000047670000000000000000000                                                                                                                                                                                     
03300031C2031030 205437537000137003300650049002805030006550000480000414 AUTO GERAL DE ITU LTDA                                                AV DR OCTAVIANO PEREIRA MENDES01333               ITU                 13301000SP                  
0330003300001J00023795000000000000000527060527214008100069550AGROSTAHL SA IND E COM        11122012000000000908151000000000000000000000000000000111220120000000009081510000000000000001692                                    00                
0330003300002J00023796554400000359003398190000022216801324600DIBRACAM COMERCIAL LTDA       11122012000000000035900000000000000000000000000000000111220120000000000359000000000000000001693                                    00                
0330003300003J00035691554400000183890689070323480000004892985DISTRIBUIDORA AUTOMOTIVA S.A  11122012000000000018389000000000000000000000000000000111220120000000000183890000000000000001694                                    00                
0330003300004J00035696554400000276100689070323460000004892987DISTRIBUIDORA AUTOMOTIVA S.A  11122012000000000027610000000000000000000000000000000111220120000000000276100000000000000001695                                    00                
0330003300005J00034199554400000012271125094800452938000052000EATON  LTDA                   11122012000000000001227000000000000000000000000000000111220120000000000012270000000000000001696                                    00                
0330003300006J00034193554400000825661125094794432938000052000EATON  LTDA                   11122012000000000082566000000000000000000000000000000111220120000000000825660000000000000001697                                    00                
0330003300007J00034191554400000490231125094813812938000052000EATON  LTDA                   11122012000000000049023000000000000000000000000000000111220120000000000490230000000000000001698                                    00                
0330003300008J00034195554400000130031125094799712938000052000EATON  LTDA                   11122012000000000013003000000000000000000000000000000111220120000000000130030000000000000001699                                    00                
0330003300009J00034192554400000351271125995519452938000052000EATON  LTDA                   11122012000000000035127000000000000000000000000000000111220120000000000351270000000000000001700                                    00                
0330003300010J00039994554400000891461763494288204570524809001F CONFUORTO IND COM PCS LTDA  11122012000000000089146000000000000000000000000000000111220120000000000891460000000000000001701                                    00                
0330003300011J00034191554400002377381126291793782938017569000FRAS-LE S/A                   11122012000000000237738000000000000000000000000000000111220120000000002377380000000000000001702                                    00                
0330003300012J00034194554400000780001125797986490765234976000GIANCAR DISTR AUTO PECAS LTDA 11122012000000000078000000000000000000000000000000000111220120000000000780000000000000000001703                                    00                
0330003300013J00034194554400000127471090304135130109276204000GIRANDO COMERCIO DE PECAS LTDA11122012000000000012747000000000000000000000000000000111220120000000000127470000000000000001704                                    00                
0330003300014J00000198554400002238460441544140801790000407011H S COMERCIO DE ADESIVOS LTDA 11122012000000000223846000000000000000000000000000000111220120000000002238460000000000000001706                                    00                
0330003300015J00000196554400009715390000001512535000001405517MODEFER INDUSTRIA DE AUTO PECA11122012000000000971539000000000000000000000000000000111220120000000009715390000000000000001707                                    00                
0330003300016J00023793554400000209303394090000012689700324600MORELATE DISTR AUTOPECAS LTDA 11122012000000000020930000000000000000000000000000000111220120000000000209300000000000000001708                                    00                
0330003300017J00034191554400000953441090000469380452910011000ONIM DISTR DE AUTOPECAS LTDA  11122012000000000095344000000000000000000000000000000111220120000000000953440000000000000001709                                    00                
0330003300018J00039991554400001242708144666165504540096965001PELLEGRINO DIST DE AUTOPECAS L11122012000000000124270000000000000000000000000000000111220120000000001242700000000000000001710                                    00                
0330003300019J00039999554400000599128144666164704540096965001PELLEGRINO DIST DE AUTOPECAS L11122012000000000059912000000000000000000000000000000111220120000000000599120000000000000001711                                    00                
0330003300020J00039991554400000327548144666166304540096965001PELLEGRINO DIST DE AUTOPECAS L11122012000000000032754000000000000000000000000000000111220120000000000327540000000000000001712                                    00                
0330003300021J00039991554400000436552696545136504540096965001PELLEGRINO DIST DE AUTOPECAS L11122012000000000043655000000000000000000000000000000111220120000000000436550000000000000001713                                    00                
0330003300022J00034199554400000371001125156759270384625000000PECAS AUTOMOTIVAS ZEENE LTDA  11122012000000000037100000000000000000000000000000000111220120000000000371000000000000000001714                                    00                
0330003300023J00034192554400001008191126269385520191074004000POLIPECAS COMERCIAL E IMPORTAD11122012000000000100819000000000007057000000000000000111220120000000000937620000000000000001715                                    00                
0330003300024J00034191554400000780881126269385600191074004000POLIPECAS COMERCIAL E IMPORTAD11122012000000000078088000000000005466000000000000000111220120000000000726220000000000000001716                                    00                
0330003300025J00039996554400006369462053187216005313093513001REAL MOTO PECAS LTDA          11122012000000000636946000000000000000000000000000000111220120000000006369460000000000000001717                                    00                
0330003300026J00039992554400001385402053187893105313093513001REAL MOTO PECAS LTDA          11122012000000000138540000000000000000000000000000000111220120000000001385400000000000000001718                                    00                
0330003300027J00034191554400003177341126265235030017697418000THOMSON C I COM PROD AUT LTDA 11122012000000000317734000000000000000000000000000000111220120000000003177340000000000000001719                                    00                
0330003300028J00039993554400000238761764969435404540575219001TRELLEBORG AUTOMOTIVE DO BRASI11122012000000000023876000000000000000000000000000000111220120000000000238760000000000000001720                                    00                
0330003300029J00039995554400000352041764969422204540575219001TRELLEBORG AUTOMOTIVE DO BRASI11122012000000000035204000000000000000000000000000000111220120000000000352040000000000000001721                                    00                
0330003300030J00034193554400006446581126244518143184122228000TRELLEBORG AUTOMOTIVE DO BRASI11122012000000000644658000000000000000000000000000000111220120000000006446580000000000000001722                                    00                
0330003300031J00034199554400000983511125389769973184597502000TRELLEBORG AUTOMOTIVE DO BRASI11122012000000000098351000000000000000000000000000000111220120000000000983510000000000000001723                                    00                
0330003300032J00034194554500000228801750000006028949044674000CENTRO AUTOMOTIVO ITUZAO LTDA 12122012000000000022880000000000000000000000000000000111220120000000000228800000000000000001725                                    00                
0330003300033J00039997554400000635182315305041405313093513001REAL MOTO PECAS LTDA          11122012000000000063518000000000000000000000000000000111220120000000000635180000000000000001726                                    00                
03300035         000035000000000005346068000000000000000000                                                                                                                                                                                     
03399999         000003000044                                                                                                                                                                                                                   
