03300000         2054375370001370033006500490028050300065 0000480000414 AUTO GERAL DE ITU LTDA        BANCO SANTANDER                         11302201310391200009606000000                                        G4016PF00529               G4
03300011C2003031 2054375370001370033006500490028050300065 0000480000414 AUTO GERAL DE ITU LTDA                                                AV DR OCTAVIANO PEREIRA MENDES01333               ITU                 13301000SP                  
0330001300001A0007000010292380000000041920 SATTURNO SOROCABA TELEFONIA LT3879                13022013BRL000000000000000000000000026975                    00000000000000000000000                                        07          0          
0330001300002B   200106697000180                              00000                                                  00000000  130220130000000000269750000000000000000000000000000000000000000000000000000000000000000           00000          
0330001300003A0007000010154660000002050374 GERAL PARTS COM PECAS E ABRASI3880                13022013BRL000000000000000000000000100274                    00000000000000000000000                                        07          0          
0330001300004B   252472438000176                              00000                                                  00000000  130220130000000001002740000000000000000000000000000000000000000000000000000000000000000           00000          
0330001300005A0007002370123190000000029912 F.CONFUORTO IND E COM DE PECAS3881                13022013BRL000000000000000000000000331290                    00000000000000000000000                                        07          0          
0330001300006B   243024991000155                              00000                                                  00000000  130220130000000003312900000000000000000000000000000000000000000000000000000000000000000           00000          
03300015         000008000000000000458539000000000000000000                                                                                                                                                                                     
03300021C2030030 205437537000137003300650049002805030006550000480000414 AUTO GERAL DE ITU LTDA                                                AV DR OCTAVIANO PEREIRA MENDES01333               ITU                 13301000SP                  
0330002300001J00003394560600000400009492147000000000543800104J FREITAS COM IMP E EXP LTDA  11022013000000000040000000000000000000000000000000000130220130000000000400000000000000000003769                                    00                
0330002300002J00003393560600001754729145594000000030647940102NEVESCAR IND E COM DE AUTO PEC11022013000000000175472000000000000000000000000000000130220130000000001754720000000000000003775                                    00                
03300025         000004000000000000215472000000000000000000                                                                                                                                                                                     
03300031C2031030 205437537000137003300650049002805030006550000480000414 AUTO GERAL DE ITU LTDA                                                AV DR OCTAVIANO PEREIRA MENDES01333               ITU                 13301000SP                  
0330003300001J00023791560400002320841316090000009935100009000APS DISTRIBUIDORA DE AUTOPECAS09022013000000000232084000000000000000000000000000000130220130000000002320840000000000000003717                                    00                
0330003300002J00023791560400000990003114091294905609001763000BODIPASA BOMBAS DIESEL PAULIST09022013000000000099000000000000000000000000000000000130220130000000000990000000000000000003718                                    00                
0330003300003J00034196560400002063501127508453671248021303000BANCO FIBRA SA                09022013000000000206350000000000000000000000000000000130220130000000002063500000000000000003719                                    00                
0330003300004J00023798560400000375530495092352000020100995600CAOA CAMINHOES LTDA           09022013000000000037553000000000000000000000000000000130220130000000000375530000000000000003720                                    00                
0330003300005J00034195560400000214501127455773490076000777000CENTER PECAS FABBRI LTDA      09022013000000000021450000000000000000000000000000000130220130000000000214500000000000000003721                                    00                
0330003300006J00034191560400000349501127455773560076000777000CENTER PECAS FABBRI LTDA      09022013000000000034950000000000000000000000000000000130220130000000000349500000000000000003722                                    00                
0330003300007J00034194560400001282001127455773640076000777000CENTER PECAS FABBRI LTDA      09022013000000000128200000000000000000000000000000000130220130000000001282000000000000000003723                                    00                
0330003300008J00034192560400000163001127455774140076000777000CENTER PECAS FABBRI LTDA      09022013000000000016300000000000000000000000000000000130220130000000000163000000000000000003724                                    00                
0330003300009J00039998560400000223993200079408103436080189001COFIPE VEICULOS LTDA          09022013000000000022399000000000000000000000000000000130220130000000000223990000000000000003725                                    00                
0330003300010J00034199560400001358791127413546282938036635000DAYCO POWER TRANSMISSION      09022013000000000135879000000000000000000000000000000130220130000000001358790000000000000003726                                    00                
0330003300011J00034191560400004094311127254120952938030539000DELPHI AUTOM SYSTEMS BR LTDA  09022013000000000409431000000000000000000000000000000130220130000000004094310000000000000003727                                    00                
0330003300012J00034194560400000230421127254119722938030539000DELPHI AUTOM SYSTEMS BR LTDA  09022013000000000023042000000000000000000000000000000130220130000000000230420000000000000003728                                    00                
0330003300013J00034199560400000105451127254120382938030539000DELPHI AUTOM SYSTEMS BR LTDA  09022013000000000010545000000000000000000000000000000130220130000000000105450000000000000003729                                    00                
0330003300014J00034191560400000126051127254119152938030539000DELPHI AUTOM SYSTEMS BR LTDA  09022013000000000012605000000000000000000000000000000130220130000000000126050000000000000003730                                    00                
0330003300015J00034193560400000307771127254120612938030539000DELPHI AUTOM SYSTEMS BR LTDA  09022013000000000030777000000000000000000000000000000130220130000000000307770000000000000003731                                    00                
0330003300016J00034192560400000126051127254119492938030539000DELPHI AUTOM SYSTEMS BR LTDA  09022013000000000012605000000000000000000000000000000130220130000000000126050000000000000003732                                    00                
0330003300017J00034192560400000142101127566977132938000052000EATON LTDA                    09022013000000000014210000000000000000000000000000000130220130000000000142100000000000000003733                                    00                
0330003300018J00034191560400000758111126874986452938107808000ELIVEL AUTOMOTORES LTDA       09022013000000000075811000000000000000000000000000000130220130000000000758110000000000000003734                                    00                
0330003300019J00023791560400000658903394090000014077900324600MORELATE DISTRIBUIDORA DE AUTO09022013000000000065890000000000000000000000000000000130220130000000000658900000000000000003735                                    00                
0330003300020J00023795560400000357112500090256571314600000340ODAPEL DISTRIBUIDORA DE AUTO P09022013000000000035711000000000000000000000000000000130220130000000000357110000000000000003736                                    00                
0330003300021J00023797560400000275203395061180232892100028140ROCHESTER DISTRIBUIDORA DE AUT09022013000000000027520000000000000000000000000000000130220130000000000275200000000000000003737                                    00                
0330003300022J00023791560400000170313395090000005234800650000SORANA SUL                    09022013000000000017031000000000000000000000000000000130220130000000000170310000000000000003738                                    00                
0330003300023J00034194560400004942991127899172780480001510000SUSIN FRANCESCUTTI METAL LTDA 09022013000000000494299000000000000000000000000000000130220130000000004942990000000000000003739                                    00                
0330003300024J00034197560500000939321571485387926260139677000ABDELNOR II COM COMB LTDA     10022013000000000093932000000000000000000000000000000130220130000000000939320000000000000003740                                    00                
0330003300025J00034197560500000070001127948751159107002439000AUTO PECAS CASTRO LTDA        10022013000000000007000000000000000000000000000000000130220130000000000070000000000000000003741                                    00                
0330003300026J00034194560500000107601127502456260076000777000CENTER PECAS FABBRI LTDA      10022013000000000010760000000000000000000000000000000130220130000000000107600000000000000003742                                    00                
0330003300027J00034191560500000628861127607208162938000052000EATON LTDA                    10022013000000000062886000000000000000000000000000000130220130000000000628860000000000000003743                                    00                
0330003300028J00034191560500002003231127607206672938000052000EATON LTDA                    10022013000000000200323000000000000000000000000000000130220130000000002003230000000000000003744                                    00                
0330003300029J00034194560500000039911127607203452938000052000EATON LTDA                    10022013000000000003991000000000000000000000000000000130220130000000000039910000000000000003745                                    00                
0330003300030J00034197560500001056371090030066850046365078000VIGORITO CAMILOPOLIS          10022013000000000105637000000000000000000000000000000130220130000000001056370000000000000003746                                    00                
0330003300031J00034191560500000473061090008348352938050420000ITA PECAS PARA VEIC COM E SERV10022013000000000047306000000000000000000000000000000130220130000000000473060000000000000003747                                    00                
0330003300032J00000194560500000117650000001216979443854180031NOVA DISTRIBUIDORA DE VEICULOS10022013000000000011765000000000000000000000000000000130220130000000000117650000000000000003748                                    00                
0330003300033J00023793560500000370162500090256571433900000340ODAPEL DISTRIBUIDORA DE AUTO P10022013000000000037016000000000000000000000000000000130220130000000000370160000000000000003749                                    00                
0330003300034J00000193560500001717140000001291892000004610917VESPOR AUTOMOTIVE DIST DE AUTO10022013000000000171714000000000000000000000000000000130220130000000001717140000000000000003750                                    00                
0330003300035J00000191560500001229550000001148003000007268317VESPOR AUTOMOTIVE DIST DE AUTO10022013000000000122955000000000000000000000000000000130220130000000001229550000000000000003751                                    00                
0330003300036J00000191560500000548000000001148003000007268417VESPOR AUTOMOTIVE DIST DE AUTO10022013000000000054800000000000000000000000000000000130220130000000000548000000000000000003752                                    00                
0330003300037J00039998560600000852461768208747111960078237001BAP AUTOMOTIVA LTDA           11022013000000000085246000000000000000000000000000000130220130000000000852460000000000000003753                                    00                
0330003300038J00034193560600001927481090000101260278067418000CAPITAL EMBALAGENS DESCAT LTDA11022013000000000192748000000000000000000000000000000130220130000000001927480000000000000003754                                    00                
0330003300039J00023794560600000252852002061301401239100829680COMERCIAL AUTOMOTIVA S.A.     11022013000000000025285000000000000000000000000000000130220130000000000252850000000000000003755                                    00                
0330003300040J00034192560600001672161127929802480624085833000COMERCIAL DE AUTO PECAS EMBREP11022013000000000167216000000000000000000000000000000130220130000000001672160000000000000003756                                    00                
0330003300041J00000198560600000358671931721545926590040800017PIRELLI PNEUS S.A             11022013000000000035867000000000000000000000000000000130220130000000000358670000000000000003757                                    00                
0330003300042J00023798560600000339770138093007000006401370000BBL SISTEMAS OPERACIONAIS LTDA11022013000000000033977000000000000000000000000000000130220130000000000339770000000000000003758                                    00                
0330003300043J00034195560600000116711127650558042938000052000EATON LTDA                    11022013000000000011671000000000000000000000000000000130220130000000000116710000000000000003759                                    00                
0330003300044J00034191560600000033491127650555722938000052000EATON LTDA                    11022013000000000003349000000000000000000000000000000130220130000000000033490000000000000003760                                    00                
0330003300045J00034197560600000181931127091102772938000052000EATON LTDA                    11022013000000000018193000000000000000000000000000000130220130000000000181930000000000000003761                                    00                
0330003300046J00034194560600000310621127650555982938000052000EATON LTDA                    11022013000000000031062000000000000000000000000000000130220130000000000310620000000000000003762                                    00                
0330003300047J00034196560600000546771125945721022938107808000ELIVEL AUTOMOTORES LTDA       11022013000000000054677000000000000000000000000000000130220130000000000546770000000000000003763                                    00                
0330003300048J00034191560600000248491127144766220046365078000FELICIO VIGORITO FILHOS LTDA  11022013000000000024849000000000000000000000000000000130220130000000000248490000000000000003764                                    00                
0330003300049J00034192560600002133911127954424770295821649000FREIOS CONTROIL LTDA          11022013000000000213391000000000000000000000000000000130220130000000002133910000000000000003765                                    00                
0330003300050J00034198560600017613791127954424850295821649000FREIOS CONTROIL LTDA          11022013000000001761379000000000000000000000000000000130220130000000017613790000000000000003766                                    00                
0330003300051J00034191560600000486341090008383492938050420000ITA PECAS PARA VEIC COM E SERV11022013000000000048634000000000000000000000000000000130220130000000000486340000000000000003767                                    00                
0330003300052J00039991560600000121881767511807803280030090001ITAVEMA ITALIA VEICULOS E MAQU11022013000000000012188000000000000000000000000000000130220130000000000121880000000000000003768                                    00                
0330003300053J00000191560600000753080000001292592443196935511K PARTS INDUSTRIA E COMERCIO D11022013000000000075308000000000000000000000000000000130220130000000000753080000000000000003770                                    00                
0330003300054J00023795560600000077003372090000005844900584500MAGGI CAMINHOES LTDA          11022013000000000007700000000000000000000000000000000130220130000000000077000000000000000003771                                    00                
0330003300055J00023791560600000340003372094000204525900400020MAGGI LE NOM AUTOMOTORES LTDA 11022013000000000034000000000000000000000000000000000130220130000000000340000000000000000003772                                    00                
0330003300056J00023792560600000253933372097672311589000767230MAGGI VEICULOS LTDA           11022013000000000025393000000000000000000000000000000130220130000000000253930000000000000003773                                    00                
0330003300057J00023793560600002523222028193030000002600375550MASTER SISTEMAS AUTOMOTIVOS LT11022013000000000252322000000000000000000000000000000130220130000000002523220000000000000003774                                    00                
0330003300058J00023792560600003114672500090256571468700000340ODAPEL DISTRIBUIDORA DE AUTO P11022013000000000311467000000000000000000000000000000130220130000000003114670000000000000003776                                    00                
0330003300059J00023796560600000813592500090256571459000000340ODAPEL DISTRIBUIDORA DE AUTO P11022013000000000081359000000000000000000000000000000130220130000000000813590000000000000003777                                    00                
0330003300060J00023794560600000353402500090256571458700000340ODAPEL DISTRIBUIDORA DE AUTO P11022013000000000035340000000000000000000000000000000130220130000000000353400000000000000003778                                    00                
0330003300061J00023791560600002315222500090256571458400000340ODAPEL DISTRIBUIDORA DE AUTO P11022013000000000231522000000000000000000000000000000130220130000000002315220000000000000003779                                    00                
0330003300062J00034198000000000000001219837545251012365225000PACAEMBU AUTO PECAS LTDA      11022013000000000197768000000000000000000000000000000130220130000000001977680000000000000003780                                    00                
0330003300063J00034191000000000000001219837544751012365225000PACAEMBU AUTO PECAS LTDA      11022013000000000041060000000000000000000000000000000130220130000000000410600000000000000003781                                    00                
0330003300064J00034197000000000000001219837545091012365225000PACAEMBU AUTO PECAS LTDA      11022013000000000105434000000000000000000000000000000130220130000000001054340000000000000003782                                    00                
0330003300065J00039993560600000434078144669070104540096965001PELLEGRINO DISTRIBUIDORA DE AU11022013000000000043407000000000000000000000000000000130220130000000000434070000000000000003783                                    00                
0330003300066J00034191560600000467451128026523570191074004000POLIPECAS COMERCIAL E IMPORTAD11022013000000000046745000000000003272000000000000000130220130000000000434730000000000000003784                                    00                
0330003300067J00039997560600000863133133525134505313093513001REAL MOTO PECAS LTDA          11022013000000000086313000000000000000000000000000000130220130000000000863130000000000000003785                                    00                
0330003300068J00039999560600007971723133524281805313093513001REAL MOTO PECAS LTDA          11022013000000000797172000000000000000000000000000000130220130000000007971720000000000000003786                                    00                
0330003300069J00039992560600000702642315395940405313093513001REAL MOTO PECAS LTDA          11022013000000000070264000000000000000000000000000000130220130000000000702640000000000000003787                                    00                
0330003300070J00023793560600000153603395061180232894700028140ROCHESTER DISTRIBUIDORA DE AUT11022013000000000015360000000000000000000000000000000130220130000000000153600000000000000003788                                    00                
0330003300071J00034196560600000245001128045502868513014608000SATTURNO SOROCABA TELEFONIA LT11022013000000000024500000000000000000000000000000000130220130000000000245000000000000000003789                                    00                
0330003300072J00000197560600000895020000001451450000036328717SK AUTOMOTIVE S/A DISTR AUTOPE11022013000000000089502000000000000000000000000000000130220130000000000895020000000000000003790                                    00                
0330003300073J00000191560600002256120000001451450000036328017SK AUTOMOTIVE S/A DISTR AUTOPE11022013000000000225612000000000000000000000000000000130220130000000002256120000000000000003791                                    00                
0330003300074J00000195560600000637650000001453829000005179317SK AUTOMOTIVE S/A DISTR AUTOPE11022013000000000063765000000000000000000000000000000130220130000000000637650000000000000003792                                    00                
0330003300075J00000191560600001858010000001451450000036326117SK AUTOMOTIVE S/A DISTR AUTOPE11022013000000000185801000000000000000000000000000000130220130000000001858010000000000000003793                                    00                
0330003300076J00039991560600000130942200366193103436188842001TIETE VEICULOS S/A            11022013000000000013094000000000000000000000000000000130220130000000000130940000000000000003794                                    00                
0330003300077J00034198560600000654341128073973211623002571000USIPACK IND E COM LTDA        11022013000000000065434000000000000000000000000000000130220130000000000654340000000000000003795                                    00                
0330003300078J00034198560600000734471090000215665199147918000UNIBOMBAS IND COM DE AUTOPECAS11022013000000000073447000000000000000000000000000000130220130000000000734470000000000000003796                                    00                
0330003300079J00039995560600000502021767595845904540079149001BANCO SOFISA SA               11022013000000000050202000000000000000000000000000000130220130000000000502020000000000000003797                                    00                
0330003300080J00039992560600000693511767595847504540079149001BANCO SOFISA SA               11022013000000000069351000000000000000000000000000000130220130000000000693510000000000000003798                                    00                
0330003300081J00039994560600000644651767595846704540079149001BANCO SOFISA SA               11022013000000000064465000000000000000000000000000000130220130000000000644650000000000000003799                                    00                
0330003300082J00023796000000000000000527060527214013600069550AGROSTAHL SA IND E COM        12022013000000000936320000000000000000000000000000000130220130000000009363200000000000000003800                                    00                
0330003300083J00023791560700000110923371090000833898500719500AVEBRAZ COMERCIO DE VEICULOS E12022013000000000011092000000000000000000000000000000130220130000000000110920000000000000003801                                    00                
0330003300084J00034193560700000572501127600304718514325201000BODIPASA BOMBAS DIESEL PAULIST12022013000000000057250000000000000000000000000000000130220130000000000572500000000000000003802                                    00                
0330003300085J00034191560700000039881750000143228949044674000CENTRO AUTOMOTIVO ITUZAO LTDA 12022013000000000003988000000000000000000000000000000130220130000000000039880000000000000003803                                    00                
0330003300086J00023799560700001054563397093032000002600008840CINDUMEL CIA IND DE METAIS E L12022013000000000105456000000000000000000000000000000130220130000000001054560000000000000003804                                    00                
0330003300087J00023795560700000096383397093032000002700008840CINDUMEL CIA IND DE METAIS E L12022013000000000009638000000000000000000000000000000130220130000000000096380000000000000003805                                    00                
0330003300088J00023791560700001674323397093032000002500008840CINDUMEL CIA IND DE METAIS E L12022013000000000167432000000000000000000000000000000130220130000000001674320000000000000003806                                    00                
0330003300089J00023795560700000049003398190000023162201324600DIBRACAM COMERCIAL LTDA       12022013000000000004900000000000000000000000000000000130220130000000000049000000000000000003807                                    00                
0330003300090J00034191560700000075471127330741432938000052000EATON LTDA                    12022013000000000007547000000000000000000000000000000130220130000000000075470000000000000003808                                    00                
0330003300091J00034198560700000198691127862895232938000052000EATON LTDA                    12022013000000000019869000000000000000000000000000000130220130000000000198690000000000000003809                                    00                
0330003300092J00034195560700000575231090304457960109276204000GIRANDO COMERCIO DE PECAS LTDA12022013000000000057523000000000000000000000000000000130220130000000000575230000000000000003810                                    00                
0330003300093J00034197000000000000001219837548141012365225000PACAEMBU AUTO PECAS LTDA      12022013000000000018810000000000000000000000000000000130220130000000000188100000000000000003811                                    00                
0330003300094J00034197560700001830241127770446303048155083000PARQUE DIST SUPRIMENTOS PARA E12022013000000000183024000000000000000000000000000000130220130000000001830240000000000000003812                                    00                
0330003300095J00023794560700000838600151091330290052401251750PECA MAIS COMERCIO DE AUTO PEC12022013000000000083860000000000000000000000000000000130220130000000000838600000000000000003813                                    00                
0330003300096J00034192560700000434501127308225930384625000000PECAS AUTOMOTIVAS ZEENE LTDA  12022013000000000043450000000000000000000000000000000130220130000000000434500000000000000003814                                    00                
0330003300097J00039996560700000370008144669113904540096965001PELLEGRINO DISTRIBUIDORA DE AU12022013000000000037000000000000000000000000000000000130220130000000000370000000000000000003815                                    00                
0330003300098J00034194560700001790021128161293350191074004000POLIPECAS COMERCIAL E IMPORTAD12022013000000000179002000000000012530000000000000000130220130000000001664720000000000000003816                                    00                
0330003300099J00039995560700005065333133509830005313093513001REAL MOTO PECAS LTDA          12022013000000000506533000000000000000000000000000000130220130000000005065330000000000000003817                                    00                
0330003300100J00039991560700000486913133508406605313093513001REAL MOTO PECAS LTDA          12022013000000000048691000000000000000000000000000000130220130000000000486910000000000000003818                                    00                
0330003300101J00039992560700000514943133515791805313093513001REAL MOTO PECAS LTDA          12022013000000000051494000000000000000000000000000000130220130000000000514940000000000000003819                                    00                
0330003300102J00023799560700003459232403090000000076400230450UMA UNIAO DE MARCAS AUTOMOTIVA12022013000000000345923000000000000000000000000000000130220130000000003459230000000000000003822                                    00                
0330003300103J00034191560800000914251128014720476830231038000ALESSANDRO MEDEIROS B EPP     13022013000000000091425000000000000000000000000000000130220130000000000914250000000000000003823                                    00                
0330003300104J00000191560800005800530000002373133443842872011ARCA IND E COM IMP E EXPORT   13022013000000000580053000000000000000000000000000000130220130000000005800530000000000000003824                                    00                
0330003300105J00034192560800001603851128113310430390497683000AUTIMEX COM IMPORTACAO E EXPOR13022013000000000160385000000000000000000000000000000130220130000000001603850000000000000003825                                    00                
0330003300106J00039994560800000716631767563059304061860231001CAR CENTRAL DE AUTOPECAS E ROL13022013000000000071663000000000000000000000000000000130220130000000000716630000000000000003826                                    00                
0330003300107J00039991560800000540711767563056904061860231001CAR CENTRAL DE AUTOPECAS E ROL13022013000000000054071000000000000000000000000000000130220130000000000540710000000000000003827                                    00                
0330003300108J00039994560800000205461767563120404061860231001CAR CENTRAL DE AUTOPECAS E ROL13022013000000000020546000000000000000000000000000000130220130000000000205460000000000000003828                                    00                
0330003300109J00034198560800000048001127871383070076000777000CENTER PECAS FABBRI LTDA      13022013000000000004800000000000000000000000000000000130220130000000000048000000000000000003829                                    00                
0330003300110J00034196560800000265001127755885130076000777000CENTER PECAS FABBRI LTDA      13022013000000000026500000000000000000000000000000000130220130000000000265000000000000000003830                                    00                
0330003300111J00034196560800000352001127755884220076000777000CENTER PECAS FABBRI LTDA      13022013000000000035200000000000000000000000000000000130220130000000000352000000000000000003831                                    00                
0330003300112J00034193560800001422001127871382990076000777000CENTER PECAS FABBRI LTDA      13022013000000000142200000000000000000000000000000000130220130000000001422000000000000000003832                                    00                
0330003300113J00023792560800000491506348093007000112301024500DAYCO POWER TRANSMISSION      13022013000000000049150000000000000000000000000000000130220130000000000491500000000000000003834                                    00                
0330003300114J00000196560800009031954584340000000000100006921DB DISTRIBUIDORA DE BATERIAS L13022013000000000903195000000000000000000000000000000130220130000000009031950000000000000003835                                    00                
0330003300115J00000193560800003985034584340000000000100007021DB DISTRIBUIDORA DE BATERIAS L13022013000000000398503000000000000000000000000000000130220130000000003985030000000000000003836                                    00                
0330003300116J00039991560800000646943005510750103430712744001DISTRIBUIDORA AUTOMOTIVA S/A  13022013000000000064694000000000000000000000000000000130220130000000000646940000000000000003838                                    00                
0330003300117J00035693560800000204590689070323470000003261423DISTRIBUIDORA AUTOMOTIVA S/A  13022013000000000020459000000000000000000000000000000130220130000000000204590000000000000003839                                    00                
0330003300118J00035695560800000242800689070323430000003261658DISTRIBUIDORA AUTOMOTIVA S/A  13022013000000000024280000000000000000000000000000000130220130000000000242800000000000000003840                                    00                
0330003300119J00035691560800000228970689070323460000003261390DISTRIBUIDORA AUTOMOTIVA S/A  13022013000000000022897000000000000000000000000000000130220130000000000228970000000000000003842                                    00                
0330003300120J00035691560800000294420689070323410000003261684DISTRIBUIDORA AUTOMOTIVA S/A  13022013000000000029442000000000000000000000000000000130220130000000000294420000000000000003843                                    00                
0330003300121J00039998560800000368673005510529003430712744001DISTRIBUIDORA AUTOMOTIVA S/A  13022013000000000036867000000000000000000000000000000130220130000000000368670000000000000003844                                    00                
0330003300122J00034196560800000050421127216724862938000052000EATON LTDA                    13022013000000000005042000000000000000000000000000000130220130000000000050420000000000000003845                                    00                
0330003300123J00034191560800000137551090304465210109276204000GIRANDO COMERCIO DE PECAS LTDA13022013000000000013755000000000000000000000000000000130220130000000000137550000000000000003846                                    00                
0330003300124J00023792560800001978040086092339000013400170000A FIRMA ASSESSORIA EM COBRANCA13022013000000000197804000000000000000000000000000000130220130000000001978040000000000000003847                                    00                
0330003300125J00039998560800000223428144669184804540096965001PELLEGRINO DISTRIBUIDORA DE AU13022013000000000022342000000000000000000000000000000130220130000000000223420000000000000003848                                    00                
0330003300126J00023798560800000874443484092348000021601129000PETRONAS LUBRIFICANTES BRASIL 13022013000000000087444000000000000000000000000000000130220130000000000874440000000000000003849                                    00                
0330003300127J00023791560800003767822724091330300037600071500PIAVE INDUSTRIA E COMERCIO LTD13022013000000000376782000000000000000000000000000000130220130000000003767820000000000000003850                                    00                
0330003300128J00023795560800000785040545090000029912700705060TONINI DISTRIBUIDORA LTDA     13022013000000000078504000000000000000000000000000000130220130000000000785040000000000000003851                                    00                
0330003300129J00034191560800003511311127947464808949010469000TSA TECN SIST AUTOM LTDA      13022013000000000351131000000000000000000000000000000130220130000000003511310000000000000003853                                    00                
0330003300130J00034192560800003003101090000219885199147918000UNIBOMBAS IND COM DE AUTOPECAS13022013000000000300310000000000000000000000000000000130220130000000003003100000000000000003854                                    00                
0330003300131J00023795560800000242261998190000011360700503970VANUCCI IMPORTACAO EXPORT. E C13022013000000000024226000000000000000000000000000000130220130000000000242260000000000000003855                                    00                
0330003300132J00034191560500000321231571496385200278483557000AUTO POSTO ESTRADAO DE ITU LTD10022013000000000032123000000000000000000000000000000130220130000000000321230000000000000003857                                    00                
0330003300133J00000191560600000147300000001555704202000130817VIRTUAL EXPRESS TRANSPORTES E 11022013000000000014730000000000000000000000000000000130220130000000000147300000000000000003858                                    00                
0330003300134J00000195560700000075001931721547026590040800017PIRELLI PNEUS S.A             12022013000000000007500000000000000000000000000000000130220130000000000075000000000000000003859                                    00                
0330003300135J00034191560500008222431127914266070076004985000UNIMED SOROCABA COOP TRABALHO 10022013000000000822243000000000000000000000000000000130220130000000008222430000000000000003860                                    00                
0330003300136J00040996560500013536015267115800100200071471550UNIMED SALTO/ITU COOP TRAB MED10022013000000001353601000000000000000000000000000000130220130000000013536010000000000000003861                                    00                
0330003300137J00040991560500001668005267115800100200071474141UNIMED SALTO/ITU COOP TRAB MED10022013000000000166800000000000000000000000000000000130220130000000001668000000000000000003862                                    00                
0330003300138J00034198560500000000001750174817388052145193000SINDICATO DOS EMPREGADOS NO CO10022013000000000070809000000000000000000000000000000130220130000000000708090000000000000003863                                    00                
0330003300139J00034193560500000000001750174817468052145193000SINDICATO DOS EMPREGADOS NO CO10022013000000000015434000000000000000000000000000000130220130000000000154340000000000000003864                                    00                
0330003300140J00034191560500000000001750174817128052145193000SINDICATO DOS EMPREGADOS NO CO10022013000000000008325000000000000000000000000000000130220130000000000083250000000000000003865                                    00                
0330003300141J00034191560500000000001750179171038052145193000SINDICATO DOS EMPREGADOS NO CO10022013000000000020733000000000000000000000000000000130220130000000000207330000000000000003866                                    00                
0330003300142J00034196560500000000001750174817208052145193000SINDICATO DOS EMPREGADOS NO CO10022013000000000010863000000000000000000000000000000130220130000000000108630000000000000003867                                    00                
0330003300143J00010498560700000000009223380213031200300612098SIND. DOS COND. DE VEICULOS RO12022013000000000002900000000000000000000000000000000130220130000000000029000000000000000003872                                    00                
0330003300144J00023791560700000589272372196600102791800360080TELEFONICA BRASIL S/A         12022013000000000058927000000000000000000000000000000130220130000000000589270000000000000003873                                    00                
0330003300145J00034199000000000301351750457132432938010580000EMPRESA BRASILEIRA DE TELECOMU10022013000000000030135000000000000000000000000000000130220130000000000301350000000000000003874                                    00                
03300035         000147000000000018868359000000000000000000                                                                                                                                                                                     
03300041C2011010 205437537000137003300650049002805030006550000480000414 AUTO GERAL DE ITU LTDA                                                AV DR OCTAVIANO PEREIRA MENDES01333               ITU                 13301000SP                  
0330004300001O00084640000010900010299916142879601000464201377TELEFONICA                    13022013130220130000000001090003875                                                                                                                  
0330004300002B   000000000000000                              00000                                                  00000000  130220130000000000000000000000000000000000000000000000000000000000000000000000000000              0000000        
0330004300003O00084680000010900010299916142845101000464191377TELEFONICA                    13022013130220130000000001090003876                                                                                                                  
0330004300004B   000000000000000                              00000                                                  00000000  130220130000000000000000000000000000000000000000000000000000000000000000000000000000              0000000        
0330004300005O00084630000026693310299916113340001000464181377TELEFONICA                    13022013130220130000000002669333877                                                                                                                  
0330004300006B   000000000000000                              00000                                                  00000000  130220130000000000000000000000000000000000000000000000000000000000000000000000000000              0000000        
03300045         000008000000000000484933                                                                                                                                                                                                       
03300051C2011010 205437537000137003300650049002805030006550000480000414 AUTO GERAL DE ITU LTDA                                                AV DR OCTAVIANO PEREIRA MENDES01333               ITU                 13301000SP                  
0330005300001O00081690000000050044042013021113010000000444539PM SOROCABA                   13022013130220130000000000005003878                                                                                                                  
0330005300002B   000000000000000                              00000                                                  00000000  130220130000000000000000000000000000000000000000000000000000000000000000000000000000              0000000        
03300055         000004000000000000000500                                                                                                                                                                                                       
03399999         000005000173                                                                                                                                                                                                                   
