03300000         2054375370001370033006500490028050300065 0000480000414 AUTO GERAL DE ITU LTDA        BANCO SANTANDER                         11401201310030200007406000000                                        G4016PF00528               G4
03300011C2030030 205437537000137003300650049002805030006550000480000414 AUTO GERAL DE ITU LTDA                                                AV DR OCTAVIANO PEREIRA MENDES01333               ITU                 13301000SP                  
0330001300001J00003391557800002498049482966200000023000790104CAR CENTRAL DE AUTOPECAS E ROL14012013000000000249804000000000000000000000000000000140120130000000002498040000000000000002833                                    00                
03300015         000003000000000000249804000000000000000000                                                                                                                                                                                     
03300021C2031030 205437537000137003300650049002805030006550000480000414 AUTO GERAL DE ITU LTDA                                                AV DR OCTAVIANO PEREIRA MENDES01333               ITU                 13301000SP                  
0330002300001J00023791557600004711350329192349000012000024120AD PAPEIS LTDA                12012013000000000471135000000000000000000000000000000140120130000000004711350000000000000002810                                    00                
0330002300002J00023791557600004973981316090000009701300009000APS DISTRIBUIDORA DE AUTOPECAS12012013000000000497398000000000000000000000000000000140120130000000004973980000000000000002811                                    00                
0330002300003J00023799557600000145271316090000009701100009000APS DISTRIBUIDORA DE AUTOPECAS12012013000000000014527000000000000000000000000000000140120130000000000145270000000000000002812                                    00                
0330002300004J00023791557600000490961316090000009700400009000APS DISTRIBUIDORA DE AUTOPECAS12012013000000000049096000000000000000000000000000000140120130000000000490960000000000000002813                                    00                
0330002300005J00034191557600000867501126229895591248021303000BANCO FIBRA SA                12012013000000000086750000000000000000000000000000000140120130000000000867500000000000000002814                                    00                
0330002300006J00023794557600001524253114091294475498801763000BANCO SAFRA S/A               12012013000000000152425000000000000000000000000000000140120130000000001524250000000000000002815                                    00                
0330002300007J00034196557600000348001126997136680076000777000CENTER PECAS FABBRI LTDA      12012013000000000034800000000000000000000000000000000140120130000000000348000000000000000002816                                    00                
0330002300008J00034194557600000546611125945720942938107808000ELIVEL AUTOMOTORES LTDA       12012013000000000054661000000000000000000000000000000140120130000000000546610000000000000002817                                    00                
0330002300009J00034196557600000798001570859148398169066506000GUPE DISTR DE AUTOPECAS LTDA  12012013000000000079800000000000000000000000000000000140120130000000000798000000000000000002818                                    00                
0330002300010J00034191557600000486331090008383312938050420000ITA PECAS PARA VEIC COM E SERV12012013000000000048633000000000000000000000000000000140120130000000000486330000000000000002819                                    00                
0330002300011J00039996557600000150181763952276803280030090001ITAVEMA ITALIA VEICULOS E MAQU12012013000000000015018000000000000000000000000000000140120130000000000150180000000000000002820                                    00                
0330002300012J00000195557600000274180000001292592443196935411K PARTS INDUSTRIA E COMERCIO D12012013000000000027418000000000000000000000000000000140120130000000000274180000000000000002821                                    00                
0330002300013J00023794557600000258153394090000014218700324600MORELATE DISTRIBUIDORA DE AUTO12012013000000000025815000000000000000000000000000000140120130000000000258150000000000000002822                                    00                
0330002300014J00023794557600000453082500090256569401400000340ODAPEL DISTRIBUIDORA DE AUTO P12012013000000000045308000000000000000000000000000000140120130000000000453080000000000000002823                                    00                
0330002300015J00023791557600000376002500090256569401300000340ODAPEL DISTRIBUIDORA DE AUTO P12012013000000000037600000000000000000000000000000000140120130000000000376000000000000000002824                                    00                
0330002300016J00023795557600000179253395090000005057300650000SORANA SUL                    12012013000000000017925000000000000000000000000000000140120130000000000179250000000000000002825                                    00                
0330002300017J00023791557600000369390545090000031734100705060TONINI DISTRIBUIDORA LTDA     12012013000000000036939000000000000000000000000000000140120130000000000369390000000000000002826                                    00                
0330002300018J00034191557700000188971126520577230237417159000ACCIOLY SA IMP E COM          13012013000000000018897000000000000000000000000000000140120130000000000188970000000000000002827                                    00                
0330002300019J00034199557700000189001126997136350076000777000CENTER PECAS FABBRI LTDA      13012013000000000018900000000000000000000000000000000140120130000000000189000000000000000002828                                    00                
0330002300020J00034198557700000095921126993591576676980086000NOVA DISTRIBUIDORA DE VEICULOS13012013000000000009592000000000000000000000000000000140120130000000000095920000000000000002829                                    00                
0330002300021J00023793557700000325752500090256569448900000340ODAPEL DISTRIBUIDORA DE AUTO P13012013000000000032575000000000000000000000000000000140120130000000000325750000000000000002830                                    00                
0330002300022J00023791557700000348160545090000031787600705060TONINI DISTRIBUIDORA LTDA     13012013000000000034816000000000000000000000000000000140120130000000000348160000000000000002831                                    00                
0330002300023J00023794557800000090003372090000016244905040000ABRAO REZE COM DE VEICULOS LTD14012013000000000009000000000000000000000000000000000140120130000000000090000000000000000002832                                    00                
0330002300024J00039991557800000491531766148965004061860231001CAR CENTRAL DE AUTOPECAS E ROL14012013000000000049153000000000000000000000000000000140120130000000000491530000000000000002834                                    00                
0330002300025J00039991557800000256391766148957004061860231001CAR CENTRAL DE AUTOPECAS E ROL14012013000000000025639000000000000000000000000000000140120130000000000256390000000000000002835                                    00                
0330002300026J00039995557800000223961766148961804061860231001CAR CENTRAL DE AUTOPECAS E ROL14012013000000000022396000000000000000000000000000000140120130000000000223960000000000000002836                                    00                
0330002300027J00000192557800002396064584341716400370004790718DB DISTRIBUIDORA DE BATERIAS L14012013000000000239606000000000000000000000000000000140120130000000002396060000000000000002837                                    00                
0330002300028J00000195557800005445584584341716500370004790718DB DISTRIBUIDORA DE BATERIAS L14012013000000000544558000000000000000000000000000000140120130000000005445580000000000000002838                                    00                
0330002300029J00000198557800001184360000002267479000014298217DECAR AUTOPECAS LTDA          14012013000000000118436000000000000000000000000000000140120130000000001184360000000000000002839                                    00                
0330002300030J00023794557800000286140138092338000004001370000BBL SISTEMAS OPERACIONAIS LTDA14012013000000000028614000000000000000000000000000000140120130000000000286140000000000000002840                                    00                
0330002300031J00034191557800000452661126111175502938000052000EATON LTDA                    14012013000000000045266000000000000000000000000000000140120130000000000452660000000000000002841                                    00                
0330002300032J00034194557800000187451127091040072938000052000EATON LTDA                    14012013000000000018745000000000000000000000000000000140120130000000000187450000000000000002842                                    00                
0330002300033J00034199557800000248561127144680660046365078000FELICIO VIGORITO FILHOS LTDA  14012013000000000024856000000000000000000000000000000140120130000000000248560000000000000002843                                    00                
0330002300034J00034191557800000506291126927914220765234976000GIANCAR DISTR AUTO PECAS LTDA 14012013000000000050629000000000000000000000000000000140120130000000000506290000000000000002844                                    00                
0330002300035J00023794557800001044720086092339000011600170000A FIRMA ASSESSORIA EM COBRANCA14012013000000000104472000000000000000000000000000000140120130000000001044720000000000000002845                                    00                
0330002300036J00023799557800001978040086092339000013500170000A FIRMA ASSESSORIA EM COBRANCA14012013000000000197804000000000000000000000000000000140120130000000001978040000000000000002846                                    00                
0330002300037J00023799557800000340003372094000204511600400020MAGGI LE NOM AUTOMOTORES LTDA 14012013000000000034000000000000000000000000000000000140120130000000000340000000000000000002847                                    00                
0330002300038J00034196557800002907151127289339560206012825000METALURGICA RIGITEC LTDA      14012013000000000290715000000000000000000000000000000140120130000000002907150000000000000002848                                    00                
0330002300039J00023792557800000874433484092348000021401129000PETRONAS LUBRIFICANTES BRASIL 14012013000000000087443000000000000000000000000000000140120130000000000874430000000000000002849                                    00                
0330002300040J00023799557800000265333484092341000054101129000PETRONAS LUBRIFICANTES BRASIL 14012013000000000026533000000000000000000000000000000140120130000000000265330000000000000002850                                    00                
0330002300041J00023796557800010328883484092341000053501129000PETRONAS LUBRIFICANTES BRASIL 14012013000000001032888000000000000000000000000000000140120130000000010328880000000000000002851                                    00                
0330002300042J00023798557800001439033484092341000053801129000PETRONAS LUBRIFICANTES BRASIL 14012013000000000143903000000000000000000000000000000140120130000000001439030000000000000002852                                    00                
0330002300043J00039994557800001729422315362914505313093513001REAL MOTO PECAS LTDA          14012013000000000172942000000000000000000000000000000140120130000000001729420000000000000002853                                    00                
0330002300044J00039994557800000880282315361064905313093513001REAL MOTO PECAS LTDA          14012013000000000088028000000000000000000000000000000140120130000000000880280000000000000002854                                    00                
0330002300045J00023795557800000785040545090000029912600705060TONINI DISTRIBUIDORA LTDA     14012013000000000078504000000000000000000000000000000140120130000000000785040000000000000002855                                    00                
0330002300046J00039991557800000145281765725672204540079149001BANCO SOFISA SA               14012013000000000014528000000000000000000000000000000140120130000000000145280000000000000002856                                    00                
0330002300047J00039998557800000364661765725673004540079149001BANCO SOFISA SA               14012013000000000036466000000000000000000000000000000140120130000000000364660000000000000002857                                    00                
0330002300048J00039995557800000149741766459015804540079149001BANCO SOFISA SA               14012013000000000014974000000000000000000000000000000140120130000000000149740000000000000002858                                    00                
0330002300049J00039991557800000557481766459016604540079149001BANCO SOFISA SA               14012013000000000055748000000000000000000000000000000140120130000000000557480000000000000002859                                    00                
0330002300050J00034191557800001890751090006238630054846332000GT COMERCIO DE LUBRIFICANTES L14012013000000000189075000000000000000000000000000000140120130000000001890750000000000000002860                                    00                
0330002300051J00023799557600001248902372196600099650200360080TELEFONICA BRASIL S/A         12012013000000000124890000000000000000000000000000000140120130000000001248900000000000000002861                                    00                
0330002300052J00034194557600000144511750000125168949044674000CENTRO AUTOMOTIVO ITUZAO LTDA 12012013000000000014451000000000000000000000000000000140120130000000000144510000000000000002862                                    00                
0330002300053J00000199557700000215000000001653885000003240118MG TELECOMUNICACOES E INFORMAT13012013000000000021500000000000000000000000000000000140120130000000000215000000000000000002863                                    00                
0330002300054J00000191557700000120000000001729432000000057717MG TELECOMUNICACOES E INFORMAT13012013000000000012000000000000000000000000000000000140120130000000000120000000000000000002864                                    00                
0330002300055J00000196557800000237700000001555704202000119217VIRTUAL EXPRESS TRANSPORTES E 14012013000000000023770000000000000000000000000000000140120130000000000237700000000000000002865                                    00                
03300025         000057000000000005751560000000000000000000                                                                                                                                                                                     
03300031C2011010 205437537000137003300650049002805030006550000480000414 AUTO GERAL DE ITU LTDA                                                AV DR OCTAVIANO PEREIRA MENDES01333               ITU                 13301000SP                  
0330003300001O00083620000006124901103001635747020210002565404CIA PIRATININGA DE FORCA E LUZ14012013140120130000000000612492866                                                                                                                  
0330003300002B   000000000000000                              00000                                                  00000000  140120130000000000000000000000000000000000000000000000000000000000000000000000000000              0000000        
0330003300003O00084650000010900010299916142845101000073441377TELEFONICA                    14012013140120130000000001090002867                                                                                                                  
0330003300004B   000000000000000                              00000                                                  00000000  140120130000000000000000000000000000000000000000000000000000000000000000000000000000              0000000        
0330003300005O00084600000010900010299916142879601000073451377TELEFONICA                    14012013140120130000000001090002868                                                                                                                  
0330003300006B   000000000000000                              00000                                                  00000000  140120130000000000000000000000000000000000000000000000000000000000000000000000000000              0000000        
0330003300007O00084600000026693310299916113340001000073431377TELEFONICA                    14012013140120130000000002669332869                                                                                                                  
0330003300008B   000000000000000                              00000                                                  00000000  140120130000000000000000000000000000000000000000000000000000000000000000000000000000              0000000        
03300035         000010000000000000546182                                                                                                                                                                                                       
03300041C2011010 205437537000137003300650049002805030006550000480000414 AUTO GERAL DE ITU LTDA                                                AV DR OCTAVIANO PEREIRA MENDES01333               ITU                 13301000SP                  
0330004300001O00085610000000688700253038760410232192000044513SEFAZ SP IPVA                 14012013140120130000000000068872870                                                                                                                  
0330004300002B   000000000000000                              00000                                                  00000000  140120130000000000000000000000000000000000000000000000000000000000000000000000000000              0000000        
0330004300003O00085680000000935200253066950511092482000044513SEFAZ SP IPVA                 14012013140120130000000000093522871                                                                                                                  
0330004300004B   000000000000000                              00000                                                  00000000  140120130000000000000000000000000000000000000000000000000000000000000000000000000000              0000000        
0330004300005O00085680000000826400253038760503226202000044513SEFAZ SP IPVA                 14012013140120130000000000082642872                                                                                                                  
0330004300006B   000000000000000                              00000                                                  00000000  140120130000000000000000000000000000000000000000000000000000000000000000000000000000              0000000        
0330004300007O00085600000000954400253066950523057892000044513SEFAZ SP IPVA                 14012013140120130000000000095442873                                                                                                                  
0330004300008B   000000000000000                              00000                                                  00000000  140120130000000000000000000000000000000000000000000000000000000000000000000000000000              0000000        
0330004300009O00085670000003322200253038760419179362000044513SEFAZ SP IPVA                 14012013140120130000000000332222874                                                                                                                  
0330004300010B   000000000000000                              00000                                                  00000000  140120130000000000000000000000000000000000000000000000000000000000000000000000000000              0000000        
0330004300011O00085660000006084400253038760605010472000044513SEFAZ SP IPVA                 14012013140120130000000000608442875                                                                                                                  
0330004300012B   000000000000000                              00000                                                  00000000  140120130000000000000000000000000000000000000000000000000000000000000000000000000000              0000000        
03300045         000014000000000000128113                                                                                                                                                                                                       
03399999         000004000086                                                                                                                                                                                                                   
