03300000         2054375370001370033006500490028050300065 0000480000414 AUTO GERAL DE ITU LTDA        BANCO SANTANDER                         11504201310530500014106000000                                        G4016PF00531               G4
03300011C2003031 2054375370001370033006500490028050300065 0000480000414 AUTO GERAL DE ITU LTDA                                                AV DR OCTAVIANO PEREIRA MENDES01333               ITU                 13301000SP                  
0330001300001A0007002370161400000000575402 AUTO POSTO CENTURY CAR LTDA   5988                15042013BRL000000000000000000000000053496                    00000000000000000000000                                        07          0          
0330001300002B   210417359000112                              00000                                                  00000000  150420130000000000534960000000000000000000000000000000000000000000000000000000000000000           00000          
03300015         000004000000000000053496000000000000000000                                                                                                                                                                                     
03300021C2030030 205437537000137003300650049002805030006550000480000414 AUTO GERAL DE ITU LTDA                                                AV DR OCTAVIANO PEREIRA MENDES01333               ITU                 13301000SP                  
0330002300001J00003391566900006487469513931700000104558500101DISTRIBUIDORA AUTOMOTIVA S.A. 15042013000000000648746000000000000000000000000000000150420130000000006487460000000000000005935                                    00                
0330002300002J00003398566900001310299513931700000104553290101DISTRIBUIDORA AUTOMOTIVA S.A. 15042013000000000131029000000000000000000000000000000150420130000000001310290000000000000005939                                    00                
0330002300003J00003393566900004227909513931700000104552640101DISTRIBUIDORA AUTOMOTIVA S.A. 15042013000000000422790000000000000000000000000000000150420130000000004227900000000000000005941                                    00                
0330002300004J00003393566900001434459513931700000104553880101DISTRIBUIDORA AUTOMOTIVA S.A. 15042013000000000143445000000000000000000000000000000150420130000000001434450000000000000005943                                    00                
0330002300005J00003397566900003592259484466100000057585010101DISTRIBUIDORA AUTOMOTIVA S.A. 15042013000000000359225000000000000000000000000000000150420130000000003592250000000000000005945                                    00                
0330002300006J00003393566900000195109474127700000007795800203LUPORINI DISTR DE AUTOPECAS LT15042013000000000019510000000000000000000000000000000150420130000000000195100000000000000005954                                    00                
0330002300007J00003396566900001710009128344800001000384250101RADIO CIDADE DE ITU LTDA      15042013000000000171000000000000000000000000000000000150420130000000001710000000000000000005965                                    00                
03300025         000009000000000001895745000000000000000000                                                                                                                                                                                     
03300031C2031030 205437537000137003300650049002805030006550000480000414 AUTO GERAL DE ITU LTDA                                                AV DR OCTAVIANO PEREIRA MENDES01333               ITU                 13301000SP                  
0330003300001J00034195566700000049001129384593130076000777000CENTER PECAS FABBRI LTDA      13042013000000000004900000000000000000000000000000000150420130000000000049000000000000000005907                                    00                
0330003300002J00034191566700000050401129384593050076000777000CENTER PECAS FABBRI LTDA      13042013000000000005040000000000000000000000000000000150420130000000000050400000000000000005908                                    00                
0330003300003J00034191566700000075001129384592970076000777000CENTER PECAS FABBRI LTDA      13042013000000000007500000000000000000000000000000000150420130000000000075000000000000000005909                                    00                
0330003300004J00034191566700000723001129384482090076000777000CENTER PECAS FABBRI LTDA      13042013000000000072300000000000000000000000000000000150420130000000000723000000000000000005910                                    00                
0330003300005J00034193566700000277531129421684702938000052000EATON LTDA                    13042013000000000027753000000000000000000000000000000150420130000000000277530000000000000005911                                    00                
0330003300006J00034198566700001189691129320255812938107808000ELIVEL AUTOMOTORES LTDA       13042013000000000118969000000000000000000000000000000150420130000000001189690000000000000005912                                    00                
0330003300007J00023794566700000607852565093059000000300127520KJ INDUSTRIAS REUNIDAS LTDA   13042013000000000060785000000000000000000000000000000150420130000000000607850000000000000005913                                    00                
0330003300008J00023797566700001766443395061180232960600028140ROCHESTER DISTRIBUIDORA DE AUT13042013000000000176644000000000000000000000000000000150420130000000001766440000000000000005914                                    00                
0330003300009J00075696566800001076171319102003307303061941001AUTO POSTO REI DA CASTELO PORT14042013000000000107617000000000000000000000000000000150420130000000001076170000000000000005915                                    00                
0330003300010J00034195566800000038701129384593620076000777000CENTER PECAS FABBRI LTDA      14042013000000000003870000000000000000000000000000000150420130000000000038700000000000000005916                                    00                
0330003300011J00034193566800000124001129384593210076000777000CENTER PECAS FABBRI LTDA      14042013000000000012400000000000000000000000000000000150420130000000000124000000000000000005917                                    00                
0330003300012J00034191566800000090001129384593390076000777000CENTER PECAS FABBRI LTDA      14042013000000000009000000000000000000000000000000000150420130000000000090000000000000000005918                                    00                
0330003300013J00034192566800000759931129069769832938000052000EATON LTDA                    14042013000000000075993000000000000000000000000000000150420130000000000759930000000000000005919                                    00                
0330003300014J00034194566800002145271129069766782938000052000EATON LTDA                    14042013000000000214527000000000000000000000000000000150420130000000002145270000000000000005920                                    00                
0330003300015J00034195566800000159671129069765532938000052000EATON LTDA                    14042013000000000015967000000000000000000000000000000150420130000000000159670000000000000005921                                    00                
0330003300016J00034197566800000108361129069792432938000052000EATON LTDA                    14042013000000000010836000000000000000000000000000000150420130000000000108360000000000000005922                                    00                
0330003300017J00034191566800000661031090011142292938050420000ITA PECAS PARA VEIC COM E SERV14042013000000000066103000000000000000000000000000000150420130000000000661030000000000000005923                                    00                
0330003300018J00034191566800000624331128880970630384625000000PECAS AUTOMOTIVAS ZEENE LTDA  14042013000000000062433000000000000000000000000000000150420130000000000624330000000000000005924                                    00                
0330003300019J00034191566800004984651090000452120940192784000THV AUTOMOTIVA IND E COM LTDA 14042013000000000498465000000000000000000000000000000150420130000000004984650000000000000005925                                    00                
0330003300020J00034195566800001396501090001547680049498934000ZAPPAROLI INDUSTRIA E COMERCIO14042013000000000139650000000000000000000000000000000150420130000000001396500000000000000005926                                    00                
0330003300021J00023795566900000074973371090000834006800719500AVEBRAZ COMERCIO DE VEICULOS E15042013000000000007497000000000000000000000000000000150420130000000000074970000000000000005927                                    00                
0330003300022J00023795566900003558340549093079000002100698000BODIPASA BOMBAS DIESEL PAULIST15042013000000000355834000000000000000000000000000000150420130000000003558340000000000000005928                                    00                
0330003300023J00034195566900000077501090000366260278067418000CAPITAL EMBALAGENS DESCAT LTDA15042013000000000007750000000000000000000000000000000150420130000000000077500000000000000005929                                    00                
0330003300024J00000195566900001797000445317893919140000100711CDMD COM DE VEICULOS AUTOMOTOR15042013000000000179700000000000000000000000000000000150420130000000001797000000000000000005930                                    00                
0330003300025J00039991566900000850492830011541311950973110001COMERCIAL AUTOMOTIVA S.A.     15042013000000000085049000000000019303000000000000000150420130000000000657460000000000000005931                                    00                
0330003300026J00039999566900000384952830000122111950973110001COMERCIAL AUTOMOTIVA S.A.     15042013000000000038495000000000009990000000000000000150420130000000000285050000000000000005932                                    00                
0330003300027J00000192566900000074000000001563680000003225217DIRECOES HIDRAULICAS LONDRINA 15042013000000000007400000000000000000000000000000000150420130000000000074000000000000000005933                                    00                
0330003300028J00035696566900000570750689070323420000005586509DISTRIBUIDORA AUTOMOTIVA S.A. 15042013000000000057075000000000000000000000000000000150420130000000000570750000000000000005934                                    00                
0330003300029J00035691566900003969410689070323420000005586327DISTRIBUIDORA AUTOMOTIVA S.A. 15042013000000000396941000000000000000000000000000000150420130000000003969410000000000000005936                                    00                
0330003300030J00000194566900001028400000001603012003101204517DISTRIBUIDORA AUTOMOTIVA S.A. 15042013000000000102840000000000000000000000000000000150420130000000001028400000000000000005937                                    00                
0330003300031J00000196566900005572240000001603012003101204617DISTRIBUIDORA AUTOMOTIVA S.A. 15042013000000000557224000000000000000000000000000000150420130000000005572240000000000000005938                                    00                
0330003300032J00000196566900001026840000001603012003101203417DISTRIBUIDORA AUTOMOTIVA S.A. 15042013000000000102684000000000000000000000000000000150420130000000001026840000000000000005940                                    00                
0330003300033J00000191566900000964730000001603012003101204817DISTRIBUIDORA AUTOMOTIVA S.A. 15042013000000000096473000000000000000000000000000000150420130000000000964730000000000000005942                                    00                
0330003300034J00000194566900000222100000001603012003101229217DISTRIBUIDORA AUTOMOTIVA S.A. 15042013000000000022210000000000000000000000000000000150420130000000000222100000000000000005944                                    00                
0330003300035J00023799566900000407760138093049000007301370000BBL SISTEMAS OPERACIONAIS LTDA15042013000000000040776000000000000000000000000000000150420130000000000407760000000000000005946                                    00                
0330003300036J00023791566900000285470138093057000002501370000BBL SISTEMAS OPERACIONAIS LTDA15042013000000000028547000000000000000000000000000000150420130000000000285470000000000000005947                                    00                
0330003300037J00023793566900000272600138093063000007201370000BBL SISTEMAS OPERACIONAIS LTDA15042013000000000027260000000000000000000000000000000150420130000000000272600000000000000005948                                    00                
0330003300038J00034199566900000696861129069820802938000052000EATON LTDA                    15042013000000000069686000000000000000000000000000000150420130000000000696860000000000000005949                                    00                
0330003300039J00034196566900000563191129069820562938000052000EATON LTDA                    15042013000000000056319000000000000000000000000000000150420130000000000563190000000000000005950                                    00                
0330003300040J00034192566900000188531090304780110109276204000GIRANDO COMERCIO DE PECAS LTDA15042013000000000018853000000000000000000000000000000150420130000000000188530000000000000005951                                    00                
0330003300041J00034197566900000273811090304782760109276204000GIRANDO COMERCIO DE PECAS LTDA15042013000000000027381000000000000000000000000000000150420130000000000273810000000000000005952                                    00                
0330003300042J00034191566900000182191090304782840109276204000GIRANDO COMERCIO DE PECAS LTDA15042013000000000018219000000000000000000000000000000150420130000000000182190000000000000005953                                    00                
0330003300043J00034192566900000110931090003435390513598375000MARCOS PAULO HOLTZ SOROCABA EP15042013000000000011093000000000000000000000000000000150420130000000000110930000000000000005955                                    00                
0330003300044J00023799566900000247812500090256575727900000340ODAPEL DISTRIBUIDORA DE AUTO P15042013000000000024781000000000000000000000000000000150420130000000000247810000000000000005956                                    00                
0330003300045J00034199566900000711801572359187300513635268000OPPORTUNITY COMUN MARK LTDA   15042013000000000071180000000000000000000000000000000150420130000000000711800000000000000005957                                    00                
0330003300046J00034194566900002447921572359108930513635268000OPPORTUNITY COMUN MARK LTDA   15042013000000000244792000000000000000000000000000000150420130000000002447920000000000000005958                                    00                
0330003300047J00034197566900001107061572358960920513635268000OPPORTUNITY COMUN MARK LTDA   15042013000000000110706000000000000000000000000000000150420130000000001107060000000000000005959                                    00                
0330003300048J00034191000000000000001219730078921012365225000PACAEMBU AUTO PECAS LTDA      15042013000000000151200000000000000000000000000000000150420130000000001512000000000000000005960                                    00                
0330003300049J00023794566900000337951741093066000007600445740PECAS AUTOMOTIVAS ZEENE LTDA  15042013000000000033795000000000000000000000000000000150420130000000000337950000000000000005961                                    00                
0330003300050J00039992566900000702688144672288304540096965001PELLEGRINO DISTRIBUIDORA DE AU15042013000000000070268000000000000000000000000000000150420130000000000702680000000000000005962                                    00                
0330003300051J00039999566900000665448145182779004540096965001PELLEGRINO DISTRIBUIDORA DE AU15042013000000000066544000000000000000000000000000000150420130000000000665440000000000000005963                                    00                
0330003300052J00034191566900003715521129854395230191074004000POLIPECAS COMERCIAL E IMPORTAD15042013000000000371552000000000026009000000000000000150420130000000003455430000000000000005964                                    00                
0330003300053J00039997566900000615052995146711005313093513001REAL MOTO PECAS LTDA          15042013000000000061505000000000000000000000000000000150420130000000000615050000000000000005966                                    00                
0330003300054J00039999566900000299202995132460205313093513001REAL MOTO PECAS LTDA          15042013000000000029920000000000000000000000000000000150420130000000000299200000000000000005967                                    00                
0330003300055J00039999566900000312602995133649005313093513001REAL MOTO PECAS LTDA          15042013000000000031260000000000000000000000000000000150420130000000000312600000000000000005968                                    00                
0330003300056J00039991566900000535562995132595105313093513001REAL MOTO PECAS LTDA          15042013000000000053556000000000000000000000000000000150420130000000000535560000000000000005969                                    00                
0330003300057J00039996566900003056162995145878105313093513001REAL MOTO PECAS LTDA          15042013000000000305616000000000000000000000000000000150420130000000003056160000000000000005970                                    00                
0330003300058J00039991566900000572742995130980805313093513001REAL MOTO PECAS LTDA          15042013000000000057274000000000000000000000000000000150420130000000000572740000000000000005971                                    00                
0330003300059J00023792566900000655960545090000033223800705060TONINI DISTRIBUIDORA LTDA     15042013000000000065596000000000000000000000000000000150420130000000000655960000000000000005972                                    00                
0330003300060J00023799566900007592343178190000018398800421050TUPER DISTRIB. PROD. METALURGI15042013000000000759234000000000000000000000000000000150420130000000007592340000000000000005973                                    00                
0330003300061J00034191566900009791671090001306490076635200000TV ALIANCA PAULISTA SA        15042013000000000979167000000000000000000000000000000150420130000000009791670000000000000005974                                    00                
0330003300062J00034199566900002847201090001312740076635200000TV ALIANCA PAULISTA SA        15042013000000000284720000000000000000000000000000000150420130000000002847200000000000000005975                                    00                
0330003300063J00023792566900004428253384060000095080103001430TV RECORD DE BAURU LTDA       15042013000000000442825000000000000000000000000000000150420130000000004428250000000000000005976                                    00                
0330003300064J00023791566900000605111998190000012002200503970VANUCCI IMPORTACAO EXPORT. E C15042013000000000060511000000000000000000000000000000150420130000000000605110000000000000005977                                    00                
0330003300065J00023791566900004148812002193079000315700001270INDUSTRIAS ROMI SA            15042013000000000414881000000000000000000000000000000150420130000000004148810000000000000005978                                    00                
0330003300066J00023795566900004148812002193079000325800001270INDUSTRIAS ROMI SA            15042013000000000414881000000000000000000000000000000150420130000000004148810000000000000005979                                    00                
0330003300067J00034197566900000479311129624783202938012875000INDUSTRIAS ROMI SA            15042013000000000047931000000000000000000000000000000150420130000000000479310000000000000005980                                    00                
0330003300068J00034198566900000479311129624810922938012875000INDUSTRIAS ROMI SA            15042013000000000047931000000000000000000000000000000150420130000000000479310000000000000005981                                    00                
0330003300069J00039998566900000046293512576000000037982310532RODONAVES TRANSP E ENCOMENDAS 15042013000000000004629000000000000000000000000000000150420130000000000046290000000000000005982                                    00                
0330003300070J00010495566900000632001038349992106548950101024CIVS ASSESSORIA SINDICAL      15042013000000000063200000000000000000000000000000000150420130000000000632000000000000000005983                                    00                
0330003300071J00000191566900000978720000002325672000073058418PREFEITURA DA ESTANCIA TURISTI15042013000000000097872000000000000000000000000000000150420130000000000978720000000000000005984                                    00                
03300035         000073000000000009318083000000000000000000                                                                                                                                                                                     
03300041C2011010 205437537000137003300650049002805030006550000480000414 AUTO GERAL DE ITU LTDA                                                AV DR OCTAVIANO PEREIRA MENDES01333               ITU                 13301000SP                  
0330004300001O00082620000000683300910000020131306194690100104SAAE SOROCABA                 15042013150420130000000000068335987                                                                                                                  
0330004300002B   000000000000000                              00000                                                  00000000  150420130000000000000000000000000000000000000000000000000000000000000000000000000000              0000000        
03300045         000004000000000000006833                                                                                                                                                                                                       
03300051C2011010 205437537000137003300650049002805030006550000480000414 AUTO GERAL DE ITU LTDA                                                AV DR OCTAVIANO PEREIRA MENDES01333               ITU                 13301000SP                  
0330005300001O00081770000001572021482013041521480001471160313PM ITU                        15042013150420130000000000157205985                                                                                                                  
0330005300002B   000000000000000                              00000                                                  00000000  150420130000000000000000000000000000000000000000000000000000000000000000000000000000              0000000        
0330005300003O00081730000000637221482013041521480001471180313PM ITU                        15042013150420130000000000063725986                                                                                                                  
0330005300004B   000000000000000                              00000                                                  00000000  150420130000000000000000000000000000000000000000000000000000000000000000000000000000              0000000        
03300055         000006000000000000022092                                                                                                                                                                                                       
03399999         000005000098                                                                                                                                                                                                                   
