03300000         2054375370001370033006500490028050300065 0000480000414 AUTO GERAL DE ITU LTDA        BANCO SANTANDER                         11502201311124000009906000000                                        G4016PF00529               G4
03300011C2030030 205437537000137003300650049002805030006550000480000414 AUTO GERAL DE ITU LTDA                                                AV DR OCTAVIANO PEREIRA MENDES01333               ITU                 13301000SP                  
0330001300001J00003399561000000164009185433000000001565070104BECAP COM DE AUTO PECAS LTDA  15022013000000000016400000000000000000000000000000000150220130000000000164000000000000000003938                                    00                
0330001300002J00003399561000001282529482966200000024926870104CAR CENTRAL DE AUTOPECAS E ROL15022013000000000128252000000000000000000000000000000150220130000000001282520000000000000003939                                    00                
0330001300003J00003395561000001115339482966200000025363580104CAR CENTRAL DE AUTOPECAS E ROL15022013000000000111533000000000000000000000000000000150220130000000001115330000000000000003940                                    00                
0330001300004J00003391561000000394559558893600000000349080104NOVA GERA COMERCIO DE PECAS LT15022013000000000039455000000000000000000000000000000150220130000000000394550000000000000003960                                    00                
0330001300005J00003394561000000644159121618000000004244200203TARANTO COML IMP E EXP        15022013000000000064415000000000000000000000000000000150220130000000000644150000000000000003990                                    00                
0330001300006J00003396561000000046759121618000000004244390203TARANTO COML IMP E EXP        15022013000000000004675000000000000000000000000000000150220130000000000046750000000000000003991                                    00                
0330001300007J00003391561000001596009128344800001000374610101RADIO CIDADE DE ITU LTDA      15022013000000000159600000000000000000000000000000000150220130000000001596000000000000000004000                                    00                
03300015         000009000000000000524330000000000000000000                                                                                                                                                                                     
03300021C2031030 205437537000137003300650049002805030006550000480000414 AUTO GERAL DE ITU LTDA                                                AV DR OCTAVIANO PEREIRA MENDES01333               ITU                 13301000SP                  
0330002300001J00039998561000000955861768564530011960078237001BAP AUTOMOTIVA LTDA           15022013000000000095586000000000000000000000000000000150220130000000000955860000000000000003934                                    00                
0330002300002J00039998561000002924611768564532711960078237001BAP AUTOMOTIVA LTDA           15022013000000000292461000000000000000000000000000000150220130000000002924610000000000000003935                                    00                
0330002300003J00039998561000001765341768564531911960078237001BAP AUTOMOTIVA LTDA           15022013000000000176534000000000000000000000000000000150220130000000001765340000000000000003936                                    00                
0330002300004J00039991561000001510641768564529711960078237001BAP AUTOMOTIVA LTDA           15022013000000000151064000000000000000000000000000000150220130000000001510640000000000000003937                                    00                
0330002300005J00039993561000000403111768236274004061860231001CAR CENTRAL DE AUTOPECAS E ROL15022013000000000040311000000000000000000000000000000150220130000000000403110000000000000003941                                    00                
0330002300006J00039991561000000274011768558887004061860231001CAR CENTRAL DE AUTOPECAS E ROL15022013000000000027401000000000000000000000000000000150220130000000000274010000000000000003942                                    00                
0330002300007J00039996561000000294051768236291004061860231001CAR CENTRAL DE AUTOPECAS E ROL15022013000000000029405000000000000000000000000000000150220130000000000294050000000000000003943                                    00                
0330002300008J00034199561000005107401127932371920360545834000COBRA ROLAMENTOS E AUTO PECAS 15022013000000000510740000000000000000000000000000000150220130000000005107400000000000000003944                                    00                
0330002300009J00034199561000000373881127932380420360545834000COBRA ROLAMENTOS E AUTO PECAS 15022013000000000037388000000000000000000000000000000150220130000000000373880000000000000003945                                    00                
0330002300010J00034191561000000840891127932375490360545834000COBRA ROLAMENTOS E AUTO PECAS 15022013000000000084089000000000000000000000000000000150220130000000000840890000000000000003946                                    00                
0330002300011J00023794561000000727923262090000033045900935470COMDIP COMERCIAL DISTR DE PECA15022013000000000072792000000000000000000000000000000150220130000000000727920000000000000003947                                    00                
0330002300012J00034194561000000532031571572478964522114471000COML NV MILLENNIUN A P LTDA EP15022013000000000053203000000000000000000000000000000150220130000000000532030000000000000003948                                    00                
0330002300013J00000194561000000800340000001011760000003980718COMPEL DISTR E COM DE AUTO PEC15022013000000000080034000000000000000000000000000000150220130000000000800340000000000000003949                                    00                
0330002300014J00000194561000000454400000001011760000003980918COMPEL DISTR E COM DE AUTO PEC15022013000000000045440000000000000000000000000000000150220130000000000454400000000000000003950                                    00                
0330002300015J00000191561000000192470000001011760000003979518COMPEL DISTR E COM DE AUTO PEC15022013000000000019247000000000000000000000000000000150220130000000000192470000000000000003951                                    00                
0330002300016J00000192561000000183550000001011760000003981018COMPEL DISTR E COM DE AUTO PEC15022013000000000018355000000000000000000000000000000150220130000000000183550000000000000003952                                    00                
0330002300017J00035694561000000289670689070323440000003261921DISTRIBUIDORA AUTOMOTIVA S/A  15022013000000000028967000000000000000000000000000000150220130000000000289670000000000000003953                                    00                
0330002300018J00035694561000000419760689070323420000003262038DISTRIBUIDORA AUTOMOTIVA S/A  15022013000000000041976000000000000000000000000000000150220130000000000419760000000000000003954                                    00                
0330002300019J00034192561000002848771127216728092938000052000EATON LTDA                    15022013000000000284877000000000000000000000000000000150220130000000002848770000000000000003955                                    00                
0330002300020J00034196561000000329461127179838142938000052000EATON LTDA                    15022013000000000032946000000000000000000000000000000150220130000000000329460000000000000003956                                    00                
0330002300021J00034191561000000112211127179837492938000052000EATON LTDA                    15022013000000000011221000000000000000000000000000000150220130000000000112210000000000000003957                                    00                
0330002300022J00034194561000000099341127788968632938000052000EATON LTDA                    15022013000000000009934000000000000000000000000000000150220130000000000099340000000000000003958                                    00                
0330002300023J00034191561000000548051127788967722938000052000EATON LTDA                    15022013000000000054805000000000000000000000000000000150220130000000000548050000000000000003959                                    00                
0330002300024J00034194561000000408271126197001910046365078000FELICIO VIGORITO FILHOS LTDA  15022013000000000040827000000000000000000000000000000150220130000000000408270000000000000003961                                    00                
0330002300025J00034193561000003856891090304486910109276204000GIRANDO COMERCIO DE PECAS LTDA15022013000000000385689000000000000000000000000000000150220130000000003856890000000000000003962                                    00                
0330002300026J00034194561000000329801090304483860109276204000GIRANDO COMERCIO DE PECAS LTDA15022013000000000032980000000000000000000000000000000150220130000000000329800000000000000003963                                    00                
0330002300027J00000199561000000549900000002384889443901953311INCOPARTS IND E COM DE PECAS L15022013000000000054990000000000000000000000000000000150220130000000000549900000000000000003964                                    00                
0330002300028J00034198561000008275101128039222131446685057000KT COMP AUTOMOTIVOS LTDA      15022013000000000827510000000000000000000000000000000150220130000000008275100000000000000003965                                    00                
0330002300029J00074591561000001075913314080403011770073963904LNG IMP EXP DE AUTOPECAS LTDA 15022013000000000107591000000000000000000000000000000150220130000000001075910000000000000003966                                    00                
0330002300030J00034199561000004283781127685162322938025125000MAHLE METAL LEVE S/A          15022013000000000428378000000000000000000000000000000150220130000000004283780000000000000003967                                    00                
0330002300031J00034194561000003671851127685162242938025125000MAHLE METAL LEVE S/A          15022013000000000367185000000000000000000000000000000150220130000000003671850000000000000003968                                    00                
0330002300032J00034191561000000150881127685162162938025125000MAHLE METAL LEVE S/A          15022013000000000015088000000000000000000000000000000150220130000000000150880000000000000003969                                    00                
0330002300033J00034191561000000075441127685161822938025125000MAHLE METAL LEVE S/A          15022013000000000007544000000000000000000000000000000150220130000000000075440000000000000003970                                    00                
0330002300034J00023793561000001979442500090256571742400000340MAHLE METAL LEVE S/A          15022013000000000197944000000000000000000000000000000150220130000000001979440000000000000003971                                    00                
0330002300035J00034191000000000000001219837557201012365225000PACAEMBU AUTO PECAS LTDA      15022013000000000032898000000000000000000000000000000150220130000000000328980000000000000003972                                    00                
0330002300036J00039991561000000334226696535018804540096965001PELLEGRINO DISTRIBUIDORA DE AU15022013000000000033422000000000000000000000000000000150220130000000000334220000000000000003973                                    00                
0330002300037J00039993561000006848882696552714004540096965001PELLEGRINO DISTRIBUIDORA DE AU15022013000000000684888000000000000000000000000000000150220130000000006848880000000000000003974                                    00                
0330002300038J00039992561000010405378144669334404540096965001PELLEGRINO DISTRIBUIDORA DE AU15022013000000001040537000000000000000000000000000000150220130000000010405370000000000000003975                                    00                
0330002300039J00039991561000002801142696552683704540096965001PELLEGRINO DISTRIBUIDORA DE AU15022013000000000280114000000000000000000000000000000150220130000000002801140000000000000003976                                    00                
0330002300040J00039994561000001796988144669328004540096965001PELLEGRINO DISTRIBUIDORA DE AU15022013000000000179698000000000000000000000000000000150220130000000001796980000000000000003977                                    00                
0330002300041J00039997561000004818222696552730204540096965001PELLEGRINO DISTRIBUIDORA DE AU15022013000000000481822000000000000000000000000000000150220130000000004818220000000000000003978                                    00                
0330002300042J00039994561000002174692696552731004540096965001PELLEGRINO DISTRIBUIDORA DE AU15022013000000000217469000000000000000000000000000000150220130000000002174690000000000000003979                                    00                
0330002300043J00039994561000000508388145178872804540096965001PELLEGRINO DISTRIBUIDORA DE AU15022013000000000050838000000000000000000000000000000150220130000000000508380000000000000003980                                    00                
0330002300044J00039993561000002089676696535006404540096965001PELLEGRINO DISTRIBUIDORA DE AU15022013000000000208967000000000000000000000000000000150220130000000002089670000000000000003981                                    00                
0330002300045J00039991561000000729926696535008004540096965001PELLEGRINO DISTRIBUIDORA DE AU15022013000000000072992000000000000000000000000000000150220130000000000729920000000000000003982                                    00                
0330002300046J00039991561000000360268145178868004540096965001PELLEGRINO DISTRIBUIDORA DE AU15022013000000000036026000000000000000000000000000000150220130000000000360260000000000000003983                                    00                
0330002300047J00034197561000011194701128161293270191074004000POLIPECAS COMERCIAL E IMPORTAD15022013000000001119470000000000237077000000000000000150220130000000008823930000000000000003984                                    00                
0330002300048J00039991561000007971713133524282605313093513001REAL MOTO PECAS LTDA          15022013000000000797171000000000000000000000000000000150220130000000007971710000000000000003985                                    00                
0330002300049J00039998561000000863123133525135305313093513001REAL MOTO PECAS LTDA          15022013000000000086312000000000000000000000000000000150220130000000000863120000000000000003986                                    00                
0330002300050J00039991561000000769843133508372805313093513001REAL MOTO PECAS LTDA          15022013000000000076984000000000000000000000000000000150220130000000000769840000000000000003987                                    00                
0330002300051J00039991561000000805623133521708205313093513001REAL MOTO PECAS LTDA          15022013000000000080562000000000000000000000000000000150220130000000000805620000000000000003988                                    00                
0330002300052J00000198561000000226020444004968233260008018911T-PARTS COML E IMP DE AUTOPECA15022013000000000022602000000000000000000000000000000150220130000000000226020000000000000003989                                    00                
0330002300053J00000198561000003570640443310691834200002431331ZM S/A                        15022013000000000357064000000000000000000000000000000150220130000000003570640000000000000003992                                    00                
0330002300054J00034191561000000517651127697397672938012875000INDUSTRIAS ROMI SA            15022013000000000051765000000000000000000000000000000150220130000000000517650000000000000003993                                    00                
0330002300055J00034193561000000517651127697386862938012875000INDUSTRIAS ROMI SA            15022013000000000051765000000000000000000000000000000150220130000000000517650000000000000003994                                    00                
0330002300056J00023794561000004148812002193017000069500001270INDUSTRIAS ROMI SA            15022013000000000414881000000000000000000000000000000150220130000000004148810000000000000003995                                    00                
0330002300057J00023794561000004148812002193017000021300001270INDUSTRIAS ROMI SA            15022013000000000414881000000000000000000000000000000150220130000000004148810000000000000003996                                    00                
0330002300058J00010499561000000000003670732000200040001950466SINDICATO DOS EMPREGADOS NO CO15022013000000000016650000000000000000000000000000000150220130000000000166500000000000000003997                                    00                
0330002300059J00034196561000000711801571491744610513635268000OPPORTUNITY COMUN MARK LTDA   15022013000000000071180000000000000000000000000000000150220130000000000711800000000000000003998                                    00                
0330002300060J00034191561000002847201090001265140076635200000TV ALIANCA PAULISTA SA        15022013000000000284720000000000000000000000000000000150220130000000002847200000000000000003999                                    00                
0330002300061J00034195000000000399961750459391372938010580000EMPRESA BRASILEIRA DE TELECOMU15022013000000000039996000000000000000000000000000000150220130000000000399960000000000000004003                                    00                
03300025         000063000000000011633099000000000000000000                                                                                                                                                                                     
03300031C2011010 205437537000137003300650049002805030006550000480000414 AUTO GERAL DE ITU LTDA                                                AV DR OCTAVIANO PEREIRA MENDES01333               ITU                 13301000SP                  
0330003300001O00081720000000708021482013021521480001412570113PM ITU                        15022013150220130000000000070804001                                                                                                                  
0330003300002B   000000000000000                              00000                                                  00000000  150220130000000000000000000000000000000000000000000000000000000000000000000000000000              0000000        
0330003300003O00081710000001633221482013021521480001412560113PM ITU                        15022013150220130000000000163324002                                                                                                                  
0330003300004B   000000000000000                              00000                                                  00000000  150220130000000000000000000000000000000000000000000000000000000000000000000000000000              0000000        
03300035         000006000000000000023412                                                                                                                                                                                                       
03399999         000003000080                                                                                                                                                                                                                   
