03300000         2054375370001370033006500490028050300065 0000480000414 AUTO GERAL DE ITU LTDA        BANCO SANTANDER                         11801201310234900007806000000                                        G4016PF00528               G4
03300011C2030030 205437537000137003300650049002805030006550000480000414 AUTO GERAL DE ITU LTDA                                                AV DR OCTAVIANO PEREIRA MENDES01333               ITU                 13301000SP                  
0330001300001J00003391558200001485989513931700000103781970101DISTRIBUIDORA AUTOMOTIVA S/A  18012013000000000148598000000000000000000000000000000180120130000000001485980000000000000002982                                    00                
0330001300002J00003399558200000902659121618000000004041280203TARANTO COML IMP E EXP        18012013000000000090265000000000000000000000000000000180120130000000000902650000000000000003017                                    00                
03300015         000004000000000000238863000000000000000000                                                                                                                                                                                     
03300021C2031030 205437537000137003300650049002805030006550000480000414 AUTO GERAL DE ITU LTDA                                                AV DR OCTAVIANO PEREIRA MENDES01333               ITU                 13301000SP                  
0330002300001J00023792558200000233353371090000833802300719500AVEBRAZ COMERCIO DE VEICULOS E18012013000000000023335000000000000000000000000000000180120130000000000233350000000000000002973                                    00                
0330002300002J00034199558200000292001127149286300076000777000CENTER PECAS FABBRI LTDA      18012013000000000029200000000000000000000000000000000180120130000000000292000000000000000002974                                    00                
0330002300003J00034191558200000099501127149286630076000777000CENTER PECAS FABBRI LTDA      18012013000000000009950000000000000000000000000000000180120130000000000099500000000000000002975                                    00                
0330002300004J00039994558200000600311766840140602680075859001COBRA ROLAMENTOS E AUTO PECAS 18012013000000000060031000000000000000000000000000000180120130000000000600310000000000000002976                                    00                
0330002300005J00023795558200000728183262090000033045700935470COMDIP COMERCIAL DISTR DE PECA18012013000000000072818000000000000000000000000000000180120130000000000728180000000000000002977                                    00                
0330002300006J00023791558200001033032002061301389451100829680COMERCIAL AUTOMOTIVA S.A.     18012013000000000103303000000000000000000000000000000180120130000000001033030000000000000002978                                    00                
0330002300007J00034197558200000067061571174967164522114471000COML NV MILLENNIUN A P LTDA EP18012013000000000006706000000000000335000000000000000180120130000000000063710000000000000002979                                    00                
0330002300008J00023797558200002169990119060000000969600682000CORCERAMA COM DE AUTOPECAS LTD18012013000000000216999000000000000000000000000000000180120130000000002169990000000000000002980                                    00                
0330002300009J00035691558200000137540689070323480000004897919DISTRIBUIDORA AUTOMOTIVA S/A  18012013000000000013754000000000000000000000000000000180120130000000000137540000000000000002981                                    00                
0330002300010J00035691558200001796730689070323420000005566980DISTRIBUIDORA AUTOMOTIVA S/A  18012013000000000179673000000000000000000000000000000180120130000000001796730000000000000002983                                    00                
0330002300011J00035692558200000771500689070323470000004897969DISTRIBUIDORA AUTOMOTIVA S/A  18012013000000000077150000000000000000000000000000000180120130000000000771500000000000000002984                                    00                
0330002300012J00035691558200001609260689070323420000005748471DISTRIBUIDORA AUTOMOTIVA S/A  18012013000000000160926000000000000000000000000000000180120130000000001609260000000000000002985                                    00                
0330002300013J00035695558200000533940689070323440000004897970DISTRIBUIDORA AUTOMOTIVA S/A  18012013000000000053394000000000000000000000000000000180120130000000000533940000000000000002986                                    00                
0330002300014J00035691558200000209000689070323420000004897790DISTRIBUIDORA AUTOMOTIVA S/A  18012013000000000020900000000000000000000000000000000180120130000000000209000000000000000002987                                    00                
0330002300015J00023798558200000296560138092349000002501453000OBB CONSULTORIA E PARTICIPACOE18012013000000000029656000000000000000000000000000000180120130000000000296560000000000000002988                                    00                
0330002300016J00034191558200002935091127179661242938000052000EATON LTDA                    18012013000000000293509000000000000000000000000000000180120130000000002935090000000000000002989                                    00                
0330002300017J00034191558200000339441127179663712938000052000EATON LTDA                    18012013000000000033944000000000000000000000000000000180120130000000000339440000000000000002990                                    00                
0330002300018J00034194558200000115601127179663482938000052000EATON LTDA                    18012013000000000011560000000000000000000000000000000180120130000000000115600000000000000002991                                    00                
0330002300019J00034196558200000152491126689708442938000052000EATON LTDA                    18012013000000000015249000000000000000000000000000000180120130000000000152490000000000000002992                                    00                
0330002300020J00034195558200000408281126196978500046365078000FELICIO VIGORITO FILHOS LTDA  18012013000000000040828000000000000000000000000000000180120130000000000408280000000000000002993                                    00                
0330002300021J00034191558200000444001090304328280109276204000GIRANDO COMERCIO DE PECAS LTDA18012013000000000044400000000000000000000000000000000180120130000000000444000000000000000002994                                    00                
0330002300022J00034192558200001087211090304328100109276204000GIRANDO COMERCIO DE PECAS LTDA18012013000000000108721000000000000000000000000000000180120130000000001087210000000000000002995                                    00                
0330002300023J00034196558200000170071090304323230109276204000GIRANDO COMERCIO DE PECAS LTDA18012013000000000017007000000000000000000000000000000180120130000000000170070000000000000002996                                    00                
0330002300024J00034191558200004798211816220984490352848675000IND E COMERCIO LUSAR LTDA     18012013000000000479821000000000000000000000000000000180120130000000004798210000000000000002997                                    00                
0330002300025J00023796558200000173003372097672307842100536350MAGGI MOTOS LTDA              18012013000000000017300000000000000000000000000000000180120130000000000173000000000000000002998                                    00                
0330002300026J00023796558200000243203394090000014517600324600MORELATE DISTRIBUIDORA DE AUTO18012013000000000024320000000000000000000000000000000180120130000000000243200000000000000002999                                    00                
0330002300027J00023797558200000659103394090000014466800324600MORELATE DISTRIBUIDORA DE AUTO18012013000000000065910000000000000000000000000000000180120130000000000659100000000000000003000                                    00                
0330002300028J00039999558200002263778144667826404540096965001PELLEGRINO DISTRIBUIDORA DE AU18012013000000000226377000000000000000000000000000000180120130000000002263770000000000000003001                                    00                
0330002300029J00039998558200002376328144667827204540096965001PELLEGRINO DISTRIBUIDORA DE AU18012013000000000237632000000000000000000000000000000180120130000000002376320000000000000003002                                    00                
0330002300030J00039991558200002064856696534567204540096965001PELLEGRINO DISTRIBUIDORA DE AU18012013000000000206485000000000000000000000000000000180120130000000002064850000000000000003003                                    00                
0330002300031J00039994558200002244946696534565604540096965001PELLEGRINO DISTRIBUIDORA DE AU18012013000000000224494000000000000000000000000000000180120130000000002244940000000000000003004                                    00                
0330002300032J00039995558200000503078145176730504540096965001PELLEGRINO DISTRIBUIDORA DE AU18012013000000000050307000000000000000000000000000000180120130000000000503070000000000000003005                                    00                
0330002300033J00039996558200015029578144667828004540096965001PELLEGRINO DISTRIBUIDORA DE AU18012013000000001502957000000000000000000000000000000180120130000000015029570000000000000003006                                    00                
0330002300034J00039992558200001096442696549210004540096965001PELLEGRINO DISTRIBUIDORA DE AU18012013000000000109644000000000000000000000000000000180120130000000001096440000000000000003007                                    00                
0330002300035J00000196558200000868890442876992433200000052731RAYTON INDUSTRIAL SA          18012013000000000086889000000000000000000000000000000180120130000000000868890000000000000003008                                    00                
0330002300036J00039996558200001697582315362311205313093513001REAL MOTO PECAS LTDA          18012013000000000169758000000000000000000000000000000180120130000000001697580000000000000003009                                    00                
0330002300037J00039997558200001255772315361445805313093513001REAL MOTO PECAS LTDA          18012013000000000125577000000000000000000000000000000180120130000000001255770000000000000003010                                    00                
0330002300038J00039991558200001729432315362915305313093513001REAL MOTO PECAS LTDA          18012013000000000172943000000000000000000000000000000180120130000000001729430000000000000003011                                    00                
0330002300039J00023799558200000368653395061180232864800028140ROCHESTER DISTRIBUIDORA DE AUT18012013000000000036865000000000000000000000000000000180120130000000000368650000000000000003012                                    00                
0330002300040J00000192558200000058000443580499019140000644711SHARK TRATORES E PECAS LTDA   18012013000000000005800000000000000000000000000000000180120130000000000058000000000000000003013                                    00                
0330002300041J00000192558200000130000000001572502000001796617SHARK TRATORES E PECAS LTDA   18012013000000000013000000000000000000000000000000000180120130000000000130000000000000000003014                                    00                
0330002300042J00023791558200000289023395090000005187600650000SORANA SUL                    18012013000000000028902000000000000000000000000000000180120130000000000289020000000000000003015                                    00                
0330002300043J00034198558200009300001127090352928495258256000SEGVEL COMERCIAL LTDA         18012013000000000930000000000000000000000000000000000180120130000000009300000000000000000003016                                    00                
0330002300044J00023794558200003531951495090000013728900119200VALCLEI IND E COM LTDA        18012013000000000353195000000000000000000000000000000180120130000000003531950000000000000003018                                    00                
0330002300045J00000194558200003570640443310691734200002431331ZM S/A                        18012013000000000357064000000000000000000000000000000180120130000000003570640000000000000003019                                    00                
0330002300046J00075692558200000974831319102003307302369518001AUTO POSTO REI DA CASTELO PORT18012013000000000097483000000000000000000000000000000180120130000000000974830000000000000003020                                    00                
0330002300047J00034195558200003178881090000469200452910011000ONIN DISTR DE AUTOPECAS LTDA  18012013000000000317888000000000000000000000000000000180120130000000003178880000000000000003032                                    00                
03300025         000049000000000007463289000000000000000000                                                                                                                                                                                     
03300031C2017010 205437537000137003300650049002805030006550000480000414 AUTO GERAL DE ITU LTDA                                                AV DR OCTAVIANO PEREIRA MENDES01333               ITU                 13301000SP                  
0330003300001N0003021                                    AUTO GERAL DE ITU LTDA        18012013000000002745731002100020543753700013717122012000000002323072000000000422659000000000000000                                                       
0330003300002B   205437537000137                              00000                                                  00000000  180120130000000000000000000000000000000000000000000000000000000000000000000000000000              0000000        
0330003300003N0003022                                    AUTO GERAL DE ITU LTDA - SALTO18012013000000000621100002100020543753700021817122012000000000522582000000000098518000000000000000                                                       
0330003300004B   000000000000000                              00000                                                  00000000  180120130000000000000000000000000000000000000000000000000000000000000000000000000000              0000000        
0330003300005N0003023                                    AUTO GERAL DE ITU LTDA - SOROC18012013000000000682494002100020543753700030717122012000000000572394000000000110100000000000000000                                                       
0330003300006B   000000000000000                              00000                                                  00000000  180120130000000000000000000000000000000000000000000000000000000000000000000000000000              0000000        
0330003300007N0003024                                    AUTO GERAL DE ITU LTDA FILIAL 18012013000000000350876002100020543753700048017122012000000000294463000000000056413000000000000000                                                       
0330003300008B   000000000000000                              00000                                                  00000000  180120130000000000000000000000000000000000000000000000000000000000000000000000000000              0000000        
0330003300009N0003025                                    AUTO GERAL DE ITU LTDA - INDAI18012013000000000825436002100020543753700056017122012000000000693557000000000131879000000000000000                                                       
0330003300010B   000000000000000                              00000                                                  00000000  180120130000000000000000000000000000000000000000000000000000000000000000000000000000              0000000        
0330003300011N0003026                                    AUTO GERAL DE ITU LTDA. PORTO 18012013000000000439429002100020543753700064117122012000000000368847000000000070582000000000000000                                                       
0330003300012B   000000000000000                              00000                                                  00000000  180120130000000000000000000000000000000000000000000000000000000000000000000000000000              0000000        
03300035         000014000000000005665066                                                                                                                                                                                                       
03300041C2016010 205437537000137003300650049002805030006550000480000414 AUTO GERAL DE ITU LTDA                                                AV DR OCTAVIANO PEREIRA MENDES01333               ITU                 13301000SP                  
0330004300001N0003027                                    AUTO GERAL DE ITU LTDA        18012013000000000059590000561020543753700013716301120120000000000000000000000000005389500000000000515700000000000053820122012                            
0330004300002B   205437537000137                              00000                                                  00000000  201220120000000000000000000000000000000000000000000000000000000000000000000000000000              0000000        
0330004300003N0003028                                    AUTO GERAL DE ITU LTDA        18012013000000000125288000561020543753700013716311220120000000000000000000000000012528800000000000000000000000000000018012013                            
0330004300004B   205437537000137                              00000                                                  00000000  180120130000000000000000000000000000000000000000000000000000000000000000000000000000              0000000        
03300045         000006000000000000184878                                                                                                                                                                                                       
03300051C2011010 205437537000137003300650049002805030006550000480000414 AUTO GERAL DE ITU LTDA                                                AV DR OCTAVIANO PEREIRA MENDES01333               ITU                 13301000SP                  
0330005300001O00083650000007386301103002382047580210015162745CIA PIRATININGA DE FORCA E LUZ18012013180120130000000000738633031                                                                                                                  
0330005300002B   000000000000000                              00000                                                  00000000  180120130000000000000000000000000000000000000000000000000000000000000000000000000000              0000000        
03300055         000004000000000000073863                                                                                                                                                                                                       
03300061C2011010 205437537000137003300650049002805030006550000480000414 AUTO GERAL DE ITU LTDA                                                AV DR OCTAVIANO PEREIRA MENDES01333               ITU                 13301000SP                  
0330006300001O00085600000000774200253038760503228036000044513SEFAZ SP IPVA                 18012013180120130000000000077423029                                                                                                                  
0330006300002B   000000000000000                              00000                                                  00000000  180120130000000000000000000000000000000000000000000000000000000000000000000000000000              0000000        
0330006300003O00085680000005301200253038760520268006000044513SEFAZ SP IPVA                 18012013180120130000000000530123030                                                                                                                  
0330006300004B   000000000000000                              00000                                                  00000000  180120130000000000000000000000000000000000000000000000000000000000000000000000000000              0000000        
03300065         000006000000000000060754                                                                                                                                                                                                       
03399999         000006000085                                                                                                                                                                                                                   
