03300000         2054375370001370033006500490028050300065 0000480000414 AUTO GERAL DE ITU LTDA        BANCO SANTANDER                         11803201310143300012006000000                                        G4016PF00529               G4
03300011C2030030 205437537000137003300650049002805030006550000480000414 AUTO GERAL DE ITU LTDA                                                AV DR OCTAVIANO PEREIRA MENDES01333               ITU                 13301000SP                  
0330001300001J00003396564100000210009185433000000001810300203BECAP COM DE AUTO PECAS LTDA  18032013000000000021000000000000000000000000000000000180320130000000000210000000000000000004982                                    00                
0330001300002J00003394564100003658679482285400000091874210203JOFUND S/A                    18032013000000000365867000000000000000000000000000000180320130000000003658670000000000000004996                                    00                
0330001300003J00003394564100000845499184001020020000353240203MARIA HENRIQUETA SILVA TROFINO18032013000000000084549000000000000000000000000000000180320130000000000845490000000000000004998                                    00                
03300015         000005000000000000471416000000000000000000                                                                                                                                                                                     
03300021C2031030 205437537000137003300650049002805030006550000480000414 AUTO GERAL DE ITU LTDA                                                AV DR OCTAVIANO PEREIRA MENDES01333               ITU                 13301000SP                  
0330002300001J00023791563900000349021316090000010285400009000APS DISTRIBUIDORA DE AUTOPECAS16032013000000000034902000000000000000000000000000000180320130000000000349020000000000000004952                                    00                
0330002300002J00034197563900000373501128596066600076000777000CENTER PECAS FABBRI LTDA      16032013000000000037350000000000000000000000000000000180320130000000000373500000000000000004953                                    00                
0330002300003J00034192563900000064001128596066860076000777000CENTER PECAS FABBRI LTDA      16032013000000000006400000000000000000000000000000000180320130000000000064000000000000000004954                                    00                
0330002300004J00034193563900000034001128596066780076000777000CENTER PECAS FABBRI LTDA      16032013000000000003400000000000000000000000000000000180320130000000000034000000000000000004955                                    00                
0330002300005J00034192563900000625631127567624758351016152000MANDO MACHINERY LTDA          16032013000000000062563000000000000000000000000000000180320130000000000625630000000000000004956                                    00                
0330002300006J00023792563900000265313484093030000049501129000PETRONAS LUBRIFICANTES BRASIL 16032013000000000026531000000000000000000000000000000180320130000000000265310000000000000004957                                    00                
0330002300007J00023797563900008726613484093030000049601129000PETRONAS LUBRIFICANTES BRASIL 16032013000000000872661000000000000000000000000000000180320130000000008726610000000000000004958                                    00                
0330002300008J00023799563900000611923395061180232927700028140ROCHESTER DISTRIBUIDORA DE AUT16032013000000000061192000000000000000000000000000000180320130000000000611920000000000000004959                                    00                
0330002300009J00034192563900008161691127899173020480001510000SUSIN FRANCESCUTTI METAL LTDA 16032013000000000816169000000000000000000000000000000180320130000000008161690000000000000004960                                    00                
0330002300010J00023798563900000655970545090000033223700705060TONINI DISTRIBUIDORA LTDA     16032013000000000065597000000000000000000000000000000180320130000000000655970000000000000004961                                    00                
0330002300011J00034193563900000107001091478222770513721555000VENANPECAS LTDA               16032013000000000010700000000000000000000000000000000180320130000000000107000000000000000004962                                    00                
0330002300012J00034199563900000214001091478223350513721555000VENANPECAS LTDA               16032013000000000021400000000000000000000000000000000180320130000000000214000000000000000004963                                    00                
0330002300013J00034191564000000360651128180340040237417159000ACCIOLY SA IMP E COM          17032013000000000036065000000000000000000000000000000180320130000000000360650000000000000004964                                    00                
0330002300014J00075697564000000663361319102003307302828150001AUTO POSTO REI DA CASTELO PORT17032013000000000066336000000000000000000000000000000180320130000000000663360000000000000004965                                    00                
0330002300015J00034199564000000774001128458876060076000777000CENTER PECAS FABBRI LTDA      17032013000000000077400000000000000000000000000000000180320130000000000774000000000000000004966                                    00                
0330002300016J00034192564000000299001128458876140076000777000CENTER PECAS FABBRI LTDA      17032013000000000029900000000000000000000000000000000180320130000000000299000000000000000004967                                    00                
0330002300017J00034197564000000598001128596066450076000777000CENTER PECAS FABBRI LTDA      17032013000000000059800000000000000000000000000000000180320130000000000598000000000000000004968                                    00                
0330002300018J00034192564000000188001128596066370076000777000CENTER PECAS FABBRI LTDA      17032013000000000018800000000000000000000000000000000180320130000000000188000000000000000004969                                    00                
0330002300019J00034197564000000171001128596066520076000777000CENTER PECAS FABBRI LTDA      17032013000000000017100000000000000000000000000000000180320130000000000171000000000000000004970                                    00                
0330002300020J00034191564000000251311128269577582938000052000EATON LTDA                    17032013000000000025131000000000000000000000000000000180320130000000000251310000000000000004971                                    00                
0330002300021J00034191564000000177991127863122832938000052000EATON LTDA                    17032013000000000017799000000000000000000000000000000180320130000000000177990000000000000004972                                    00                
0330002300022J00034198564000002130751127863112852938000052000EATON LTDA                    17032013000000000213075000000000000000000000000000000180320130000000002130750000000000000004973                                    00                
0330002300023J00034194564000000085131127863115582938000052000EATON LTDA                    17032013000000000008513000000000000000000000000000000180320130000000000085130000000000000004974                                    00                
0330002300024J00034199564000000339501128465835922938107808000ELIVEL AUTOMOTORES LTDA       17032013000000000033950000000000000000000000000000000180320130000000000339500000000000000004975                                    00                
0330002300025J00023795564000001180853180091330361504000158190GUPE DISTR DE AUTOPECAS LTDA  17032013000000000118085000000000000000000000000000000180320130000000001180850000000000000004976                                    00                
0330002300026J00000199564000000549900000002384889443901953411INCOPARTS IND E COM DE PECAS L17032013000000000054990000000000000000000000000000000180320130000000000549900000000000000004977                                    00                
0330002300027J00034191564000000433701090010494662938050420000ITA PECAS PARA VEIC COM E SERV17032013000000000043370000000000000000000000000000000180320130000000000433700000000000000004978                                    00                
0330002300028J00023791564000000137543395061180232929200028140ROCHESTER DISTRIBUIDORA DE AUT17032013000000000013754000000000000000000000000000000180320130000000000137540000000000000004979                                    00                
0330002300029J00034198564100001019931128586541170009330481000ADERE PRODUTOS AUTO ADESIVOS L18032013000000000101993000000000000000000000000000000180320130000000001019930000000000000004980                                    00                
0330002300030J00000196564100000091328336191649209700000127018ALARMAQ EQTOS DE SEGURANCA LTD18032013000000000009132000000000000000000000000000000180320130000000000091320000000000000004981                                    00                
0330002300031J00034191564100000745001127967682278514325201000BODIPASA BOMBAS DIESEL PAULIST18032013000000000074500000000000000000000000000000000180320130000000000745000000000000000004983                                    00                
0330002300032J00023794564100000555293114091395769910701763000BANCO SAFRA S/A               18032013000000000055529000000000000000000000000000000180320130000000000555290000000000000004984                                    00                
0330002300033J00023792564100000367692002061301413742100829680COMERCIAL AUTOMOTIVA S.A.     18032013000000000036769000000000000000000000000000000180320130000000000367690000000000000004985                                    00                
0330002300034J00023795564100000171302002061301413488100829680COMERCIAL AUTOMOTIVA S.A.     18032013000000000017130000000000000000000000000000000180320130000000000171300000000000000004986                                    00                
0330002300035J00023798564100000288442002061301413625100829680COMERCIAL AUTOMOTIVA S.A.     18032013000000000028844000000000000000000000000000000180320130000000000288440000000000000004987                                    00                
0330002300036J00023798564100000407760138093049000006901370000BBL SISTEMAS OPERACIONAIS LTDA18032013000000000040776000000000000000000000000000000180320130000000000407760000000000000004988                                    00                
0330002300037J00034191564100000181941128269615372938000052000EATON LTDA                    18032013000000000018194000000000000000000000000000000180320130000000000181940000000000000004989                                    00                
0330002300038J00034199564100001299021128269615292938000052000EATON LTDA                    18032013000000000129902000000000000000000000000000000180320130000000001299020000000000000004990                                    00                
0330002300039J00034198564100000495391127863136382938000052000EATON LTDA                    18032013000000000049539000000000000000000000000000000180320130000000000495390000000000000004991                                    00                
0330002300040J00034197564100000220621127094818502938107808000ELIVEL AUTOMOTORES LTDA       18032013000000000022062000000000000000000000000000000180320130000000000220620000000000000004992                                    00                
0330002300041J00034198564100000263771090304636580109276204000GIRANDO COMERCIO DE PECAS LTDA18032013000000000026377000000000000000000000000000000180320130000000000263770000000000000004993                                    00                
0330002300042J00034193564100007660471090304633930109276204000GIRANDO COMERCIO DE PECAS LTDA18032013000000000766047000000000000000000000000000000180320130000000007660470000000000000004994                                    00                
0330002300043J00039991564100000214671767913062503280030090001ITAVEMA ITALIA VEICULOS E MAQU18032013000000000021467000000000000000000000000000000180320130000000000214670000000000000004995                                    00                
0330002300044J00023797564100001131003372097672311666400767230MAGGI VEICULOS LTDA           18032013000000000113100000000000000000000000000000000180320130000000001131000000000000000004997                                    00                
0330002300045J00023799564100000463463394090000016576600324600MORELATE DISTRIBUIDORA DE AUTO18032013000000000046346000000000000000000000000000000180320130000000000463460000000000000004999                                    00                
0330002300046J00023792564100001849452500090256573850200000340ODAPEL DISTRIBUIDORA DE AUTO P18032013000000000184945000000000000000000000000000000180320130000000001849450000000000000005000                                    00                
0330002300047J00023798564100002355772500090256573845500000340ODAPEL DISTRIBUIDORA DE AUTO P18032013000000000235577000000000000000000000000000000180320130000000002355770000000000000005001                                    00                
0330002300048J00023792564100001752652500090256573805200000340ODAPEL DISTRIBUIDORA DE AUTO P18032013000000000175265000000000000000000000000000000180320130000000001752650000000000000005002                                    00                
0330002300049J00023799564100003112022500090256573802600000340ODAPEL DISTRIBUIDORA DE AUTO P18032013000000000311202000000000000000000000000000000180320130000000003112020000000000000005003                                    00                
0330002300050J00039996564100000398108144670913504540096965001PELLEGRINO DISTRIBUIDORA DE AU18032013000000000039810000000000000000000000000000000180320130000000000398100000000000000005004                                    00                
0330002300051J00039999564100001077673133588043105313093513001REAL MOTO PECAS LTDA          18032013000000000107767000000000000000000000000000000180320130000000001077670000000000000005005                                    00                
0330002300052J00039994564100000641693133569803005313093513001REAL MOTO PECAS LTDA          18032013000000000064169000000000000000000000000000000180320130000000000641690000000000000005006                                    00                
0330002300053J00023798564100000673853395061180232930200028140ROCHESTER DISTRIBUIDORA DE AUT18032013000000000067385000000000000000000000000000000180320130000000000673850000000000000005007                                    00                
0330002300054J00023799564100000204133395090000005177900650000SORANA SUL                    18032013000000000020413000000000000000000000000000000180320130000000000204130000000000000005008                                    00                
0330002300055J00023791564100001203754130074130006230100050880SOUZA RAMOS COM E IMP LTDA    18032013000000000120375000000000000000000000000000000180320130000000001203750000000000000005009                                    00                
0330002300056J00034196564100001019121128224004150480001510000SUSIN FRANCESCUTTI METAL LTDA 18032013000000000101912000000000000000000000000000000180320130000000001019120000000000000005010                                    00                
0330002300057J00000196564100000137650444831226833260008018911T-PARTS COML E IMP DE AUTOPECA18032013000000000013765000000000000000000000000000000180320130000000000137650000000000000005011                                    00                
0330002300058J00034194564100000085001091478228060513721555000VENANPECAS LTDA               18032013000000000008500000000000000000000000000000000180320130000000000085000000000000000005012                                    00                
0330002300059J00039999564100000864952400501494406573205239001RODONAVES TRANSP E ENCOMENDAS 18032013000000000086495000000000000000000000000000000180320130000000000864950000000000000005013                                    00                
0330002300060J00039998564100000051052400501495206573205239001RODONAVES TRANSP E ENCOMENDAS 18032013000000000005105000000000000000000000000000000180320130000000000051050000000000000005014                                    00                
03300025         000062000000000005953325000000000000000000                                                                                                                                                                                     
03300031C2011010 205437537000137003300650049002805030006550000480000414 AUTO GERAL DE ITU LTDA                                                AV DR OCTAVIANO PEREIRA MENDES01333               ITU                 13301000SP                  
0330003300001O00083620000001810701103003100499580210005915431CIA PIRATININGA DE FORCA E LUZ18032013180320130000000000181075015                                                                                                                  
0330003300002B   000000000000000                              00000                                                  00000000  180320130000000000000000000000000000000000000000000000000000000000000000000000000000              0000000        
03300035         000004000000000000018107                                                                                                                                                                                                       
03399999         000003000073                                                                                                                                                                                                                   
