03300000         2054375370001370033006500490028050300065 0000480000414 AUTO GERAL DE ITU LTDA        BANCO SANTANDER                         12003201310322400012206000000                                        G4016PF00531               G4
03300011C2030030 205437537000137003300650049002805030006550000480000414 AUTO GERAL DE ITU LTDA                                                AV DR OCTAVIANO PEREIRA MENDES01333               ITU                 13301000SP                  
0330001300001J00003391564300000502009492147000000000568390104J FREITAS COM IMP E EXP LTDA  20032013000000000050200000000000000000000000000000000200320130000000000502000000000000000005063                                    00                
0330001300002J00003399564300000121249499820000000000469900104KS PRODUTOS AUTOMOTIVOS LTDA  20032013000000000012124000000000000000000000000000000200320130000000000121240000000000000005064                                    00                
0330001300003J00003393564300001053199489019100000092376150104KSPG AUTOMOTIVE BRASIL LTDA   20032013000000000105319000000000070998000000000000000200320130000000000343210000000000000005065                                    00                
0330001300004J00003391564300000747019489019100000092383280104KSPG AUTOMOTIVE BRASIL LTDA   20032013000000000074701000000000000000000000000000000200320130000000000747010000000000000005066                                    00                
0330001300005J00003397564300006900969574514400000000041700104M3D INDUSTRIA E COMERCIO DE PE20032013000000000690096000000000000000000000000000000200320130000000006900960000000000000005067                                    00                
0330001300006J00003396564300001625009126436200000010127460102NOVA RADIO REGIONAL LTDA      20032013000000000162500000000000000000000000000000000200320130000000001625000000000000000005070                                    00                
03300015         000008000000000001023942000000000000000000                                                                                                                                                                                     
03300021C2031030 205437537000137003300650049002805030006550000480000414 AUTO GERAL DE ITU LTDA                                                AV DR OCTAVIANO PEREIRA MENDES01333               ITU                 13301000SP                  
0330002300001J00023797564300000550883372090000016593905040000ABRAO REZE COM DE VEICULOS LTD20032013000000000055088000000000000000000000000000000200320130000000000550880000000000000005044                                    00                
0330002300002J00042291564300007137107002020087700056608815431BANCO SAFRA S/A               20032013000000000713710000000000000000000000000000000200320130000000007137100000000000000005045                                    00                
0330002300003J00023797564300005853981316090000010329200009000APS DISTRIBUIDORA DE AUTOPECAS20032013000000000585398000000000000000000000000000000200320130000000005853980000000000000005046                                    00                
0330002300004J00023797564300001219371316090000010329000009000APS DISTRIBUIDORA DE AUTOPECAS20032013000000000121937000000000000000000000000000000200320130000000001219370000000000000005047                                    00                
0330002300005J00023797564300000645841316090000010328900009000APS DISTRIBUIDORA DE AUTOPECAS20032013000000000064584000000000000000000000000000000200320130000000000645840000000000000005048                                    00                
0330002300006J00023796564300001237361316090000010329100009000APS DISTRIBUIDORA DE AUTOPECAS20032013000000000123736000000000000000000000000000000200320130000000001237360000000000000005049                                    00                
0330002300007J00023797564300000171523371090000833964800719500AVEBRAZ COMERCIO DE VEICULOS E20032013000000000017152000000000000000000000000000000200320130000000000171520000000000000005050                                    00                
0330002300008J00034194564300000095001128732615830076000777000CENTER PECAS FABBRI LTDA      20032013000000000009500000000000000000000000000000000200320130000000000095000000000000000005051                                    00                
0330002300009J00034191564300000038001128874236580076000777000CENTER PECAS FABBRI LTDA      20032013000000000003800000000000000000000000000000000200320130000000000038000000000000000005052                                    00                
0330002300010J00000192564300008787084584340000000000100043621DB DISTRIBUIDORA DE BATERIAS L20032013000000000878708000000000000000000000000000000200320130000000008787080000000000000005053                                    00                
0330002300011J00000191564300004895001610087413314830000770017DIAS  DIAS DISTR DE PECAS LTDA20032013000000000489500000000000000000000000000000000200320130000000004895000000000000000005054                                    00                
0330002300012J00034197564300000032561127899678442938000052000EATON LTDA                    20032013000000000003256000000000000000000000000000000200320130000000000032560000000000000005055                                    00                
0330002300013J00034199564300000250461127899679352938000052000EATON LTDA                    20032013000000000025046000000000000000000000000000000200320130000000000250460000000000000005056                                    00                
0330002300014J00034191564300000032561127899678362938000052000EATON LTDA                    20032013000000000003256000000000000000000000000000000200320130000000000032560000000000000005057                                    00                
0330002300015J00034196564300000210601128313934372938000052000EATON LTDA                    20032013000000000021060000000000000000000000000000000200320130000000000210600000000000000005058                                    00                
0330002300016J00034193564300000100001090002046910041791401000GIBIM SEGURANCA ELETRONICA LTD20032013000000000010000000000000000000000000000000000200320130000000000100000000000000000005059                                    00                
0330002300017J00034191564300000203991090304651660109276204000GIRANDO COMERCIO DE PECAS LTDA20032013000000000020399000000000000000000000000000000200320130000000000203990000000000000005060                                    00                
0330002300018J00034198564300002547671090006648420054846332000GT COMERCIO DE LUBRIFICANTES L20032013000000000254767000000000000000000000000000000200320130000000002547670000000000000005061                                    00                
0330002300019J00023792564300002200943114091340174292001763000BANCO SAFRA S/A               20032013000000000220094000000000000000000000000000000200320130000000002200940000000000000005062                                    00                
0330002300020J00034199564300000489281129015573090017328824000MTE THOMSON IND COM LTDA      20032013000000000048928000000000000000000000000000000200320130000000000489280000000000000005068                                    00                
0330002300021J00023795564300000567323394090000017342600324600MORELATE DISTRIBUIDORA DE AUTO20032013000000000056732000000000000000000000000000000200320130000000000567320000000000000005069                                    00                
0330002300022J00023791564300000275483484093036000093801129000PETRONAS LUBRIFICANTES BRASIL 20032013000000000027548000000000000000000000000000000200320130000000000275480000000000000005071                                    00                
0330002300023J00023798564300002520002698091130630209900064240RADIO MODELO FM LTDA          20032013000000000252000000000000000000000000000000000200320130000000002520000000000000000005072                                    00                
0330002300024J00000197564300000095000000002219956000066437418SERVTRONICA SEGURANCA ELETRONI20032013000000000009500000000000000000000000000000000200320130000000000095000000000000000005073                                    00                
0330002300025J00034197564300000156331128673661662938069594000TEMPO AUTOMOVEIS PECAS LTDA   20032013000000000015633000000000000000000000000000000200320130000000000156330000000000000005074                                    00                
0330002300026J00034196564300004814771129015587600017697418000THOMSON C I COM PROD AUT LTDA 20032013000000000481477000000000000000000000000000000200320130000000004814770000000000000005075                                    00                
0330002300027J00023794564300000361260545090000033336100705060TONINI DISTRIBUIDORA LTDA     20032013000000000036126000000000000000000000000000000200320130000000000361260000000000000005076                                    00                
0330002300028J00023792564300000003680364060000212591500001400PREFEITURA MUNICIPAL DE PORTO 20032013000000000000368000000000000000000000000000000200320130000000000003680000000000000005077                                    00                
0330002300029J00023792564300000088430364060000500832800001400PREFEITURA MUNICIPAL DE PORTO 20032013000000000008843000000000000000000000000000000200320130000000000088430000000000000005079                                    00                
03300025         000031000000000004558146000000000000000000                                                                                                                                                                                     
03300031C2017010 205437537000137003300650049002805030006550000480000414 AUTO GERAL DE ITU LTDA                                                AV DR OCTAVIANO PEREIRA MENDES01333               ITU                 13301000SP                  
0330003300001N0005083                                    AUTO GERAL DE ITU LTDA        20032013000000002613921002100020543753700013717022013000000002211452000000000402469000000000000000                                                       
0330003300002B   205437537000137                              00000                                                  00000000  200320130000000000000000000000000000000000000000000000000000000000000000000000000000              0000000        
0330003300003N0005084                                    AUTO GERAL DE ITU LTDA - SALTO20032013000000000597123002100020543753700021817022013000000000499452000000000097671000000000000000                                                       
0330003300004B   000000000000000                              00000                                                  00000000  200320130000000000000000000000000000000000000000000000000000000000000000000000000000              0000000        
0330003300005N0005085                                    AUTO GERAL DE ITU LTDA - SOROC20032013000000000690325002100020543753700030717022013000000000575610000000000114715000000000000000                                                       
0330003300006B   000000000000000                              00000                                                  00000000  200320130000000000000000000000000000000000000000000000000000000000000000000000000000              0000000        
0330003300007N0005086                                    AUTO GERAL DE ITU LTDA FILIAL 20032013000000000338068002100020543753700048017022013000000000282796000000000055272000000000000000                                                       
0330003300008B   000000000000000                              00000                                                  00000000  200320130000000000000000000000000000000000000000000000000000000000000000000000000000              0000000        
0330003300009N0005087                                    AUTO GERAL DE ITU LTDA - INDAI20032013000000000685093002100020543753700056017022013000000000556920000000000128173000000000000000                                                       
0330003300010B   000000000000000                              00000                                                  00000000  200320130000000000000000000000000000000000000000000000000000000000000000000000000000              0000000        
0330003300011N0005088                                    AUTO GERAL DE ITU LTDA. PORTO 20032013000000000428280002100020543753700064117022013000000000359504000000000068776000000000000000                                                       
0330003300012B   000000000000000                              00000                                                  00000000  200320130000000000000000000000000000000000000000000000000000000000000000000000000000              0000000        
03300035         000014000000000005352810                                                                                                                                                                                                       
03300041C2016010 205437537000137003300650049002805030006550000480000414 AUTO GERAL DE ITU LTDA                                                AV DR OCTAVIANO PEREIRA MENDES01333               ITU                 13301000SP                  
0330004300001N0005082                                    AUTO GERAL DE ITO LTDA        20032013000000000054589000561020543753700013716280220130000000000000000000000000005458900000000000000000000000000000020032013                            
0330004300002B   205437537000137                              00000                                                  00000000  200320130000000000000000000000000000000000000000000000000000000000000000000000000000              0000000        
03300045         000004000000000000054589                                                                                                                                                                                                       
03300051C2011010 205437537000137003300650049002805030006550000480000414 AUTO GERAL DE ITU LTDA                                                AV DR OCTAVIANO PEREIRA MENDES01333               ITU                 13301000SP                  
0330005300001O00082660000001884400712013032020130140033520220SAAE INDAIATUBA               20032013200320130000000000188445080                                                                                                                  
0330005300002B   000000000000000                              00000                                                  00000000  200320130000000000000000000000000000000000000000000000000000000000000000000000000000              0000000        
0330005300003O00083620000002925901103003415490070210001465384CIA PIRATININGA DE FORCA E LUZ20032013200320130000000000292595081                                                                                                                  
0330005300004B   000000000000000                              00000                                                  00000000  200320130000000000000000000000000000000000000000000000000000000000000000000000000000              0000000        
03300055         000006000000000000048103                                                                                                                                                                                                       
03300061C2011010 205437537000137003300650049002805030006550000480000414 AUTO GERAL DE ITU LTDA                                                AV DR OCTAVIANO PEREIRA MENDES01333               ITU                 13301000SP                  
0330006300001O00081730000008583344042013032020131111589001001PM SOROCABA                   20032013200320130000000000858335078                                                                                                                  
0330006300002B   000000000000000                              00000                                                  00000000  200320130000000000000000000000000000000000000000000000000000000000000000000000000000              0000000        
03300065         000004000000000000085833                                                                                                                                                                                                       
03399999         000006000069                                                                                                                                                                                                                   
