03300000         2054375370001370033006500490028050300065 0000480000414 AUTO GERAL DE ITU LTDA        BANCO SANTANDER                         12003201316001700012306000000                                        G4016PF00531               G4
03300011C2022010 205437537000137003300650049002805030006550000480000414 AUTO GERAL DE ITU LTDA                                                AV DR OCTAVIANO PEREIRA MENDES01333               ITU                 13301000SP                  
0330001300001N0005089                                    AUTO GERAL DE ITU LTDA        2003201300000000072736000046202054375370001372220032013387034155115000000000000002201300000000000000000000007273600000000000000000000000000000           
0330001300002B   205437537000137                              00000                                                  00000000  200320130000000000000000000000000000000000000000000000000000000000000000000000000000              0000000        
03300015         000004000000000000727360                                                                                                                                                                                                       
03399999         000001000006                                                                                                                                                                                                                   
