03300000         2054375370001370033006500490028050300065 0000480000414 AUTO GERAL DE ITU LTDA        BANCO SANTANDER                         12111201210494100003406000000                                        G4016PF00528               G4
03300011C2003031 2054375370001370033006500490028050300065 0000480000414 AUTO GERAL DE ITU LTDA                                                AV DR OCTAVIANO PEREIRA MENDES01333               ITU                 13301000SP                  
0330001300001A0007000010154660000002050374 GERAL PARTS COM PECAS E ABRASI1010                21112012BRL000000000000000000000000032690                    00000000000000000000000                                        07          0          
0330001300002B   252472438000176                              00000                                                  00000000  211120120000000000326900000000000000000000000000000000000000000000000000000000000000000           00000          
0330001300003A0007002370339520000000028142 ROCHESTER DISTR DE AUTOPECAS S1011                21112012BRL000000000000000000000000079896                    00000000000000000000000                                        07          0          
0330001300004B   261170841000131                              00000                                                  00000000  211120120000000000798960000000000000000000000000000000000000000000000000000000000000000           00000          
03300015         000006000000000000112586000000000000000000                                                                                                                                                                                     
03300021C2030030 205437537000137003300650049002805030006550000480000414 AUTO GERAL DE ITU LTDA                                                AV DR OCTAVIANO PEREIRA MENDES01333               ITU                 13301000SP                  
0330002300001J00003394552300000370009421259200000000371680101GUMP MOTORS COMP AUTOM LTDA   2011201200000000003700000000000000000000000000000000021112012000000000037000000000000000000940                                     00                
0330002300002J00003391552400000429249513931700000103328470101DISTRIBUIDORA ATOMOTIVA S.A   2111201200000000004292400000000000000000000000000000021112012000000000042924000000000000000961                                     00                
0330002300003J00003396552400000952149513931700000103328630101DISTRIBUIDORA ATOMOTIVA S.A   2111201200000000009521400000000000000000000000000000021112012000000000095214000000000000000962                                     00                
0330002300004J00003391552400001017109513931700000103330020101DISTRIBUIDORA ATOMOTIVA S.A   2111201200000000010171000000000000000000000000000000021112012000000000101710000000000000000963                                     00                
0330002300005J00003398552400000276549512606100000031072720101SERRAF DISTR DE PECAS PARA MOT2111201200000000002765400000000000000000000000000000021112012000000000027654000000000000000998                                     00                
03300025         000007000000000000304502000000000000000000                                                                                                                                                                                     
03300031C2031030 205437537000137003300650049002805030006550000480000414 AUTO GERAL DE ITU LTDA                                                AV DR OCTAVIANO PEREIRA MENDES01333               ITU                 13301000SP                  
0330003300001J00023797552300000379543392022293000010101078260MF CAMBUCI DISTR DE AUTOPECAS 2011201200000000003795400000000000000000000000000000021112012000000000037954000000000000000933                                     00                
0330003300002J00023796552300000485653389092312000007400120490CHG AUTOMOTIVA LTDA           2011201200000000004856500000000000000000000000000000021112012000000000048565000000000000000934                                     00                
0330003300003J00034191552300008812791124512992522938036635000DAYCO POWER TRANSMISSION      2011201200000000088127900000000054976200000000000000021112012000000000331517000000000000000935                                     00                
0330003300004J00023797552300000253870138092276000003501453000OBB CONSULTORIA E PARTICIPACOE2011201200000000002538700000000000000000000000000000021112012000000000025387000000000000000936                                     00                
0330003300005J00034195552300000142871125319002262938000052000EATON  LTDA                   2011201200000000001428700000000000000000000000000000021112012000000000014287000000000000000937                                     00                
0330003300006J00034195552300000270691125116034280046365078000FELICIO VIGORITO FILHOS LTDA  2011201200000000002706900000000000000000000000000000021112012000000000027069000000000000000938                                     00                
0330003300007J00034199552300000181951090304032250109276204000GIRANDO COMERCIO DE PECAS LTDA2011201200000000001819500000000000000000000000000000021112012000000000018195000000000000000939                                     00                
0330003300008J00000191552300016244590441569140934120000204711INSTALADORA SAO MARCOS LTDA   2011201200000000162445900000000000000000000000000000021112012000000001624459000000000000000941                                     00                
0330003300009J00000193552300004722260442085501034280000630911JOFUND S/A                    2011201200000000047222600000000000000000000000000000021112012000000000472226000000000000000942                                     00                
0330003300010J00034194552300000296331123337997438351016152000MANDO MACHINERY LTDA          2011201200000000002963300000000000000000000000000000021112012000000000029633000000000000000943                                     00                
0330003300011J00034191552300000749301124294085558351016152000MANDO MACHINERY LTDA          2011201200000000007493000000000000000000000000000000021112012000000000074930000000000000000944                                     00                
0330003300012J00023795552300003085393114091293817705201763000BANCO SAFRA S/A               2011201200000000030853900000000000000000000000000000021112012000000000308539000000000000000945                                     00                
0330003300013J00023799552300005891063398022306000001901220000MASAFLEX IND E COM LTDA       2011201200000000058910600000000000000000000000000000021112012000000000589106000000000000000946                                     00                
0330003300014J00039991552300000246288144665209504540096965001PELLEGRINO COM DISTR DE AUTOPE2011201200000000002462800000000000000000000000000000021112012000000000024628000000000000000947                                     00                
0330003300015J00039991552300000580838144665210904540096965001PELLEGRINO DISTR DE AUTOPECAS 2011201200000000005808300000000000000000000000000000021112012000000000058083000000000000000948                                     00                
0330003300016J00034193552300002846331125685808180191074004000POLIPECAS COML E IMP LTDA     2011201200000000028463300000000001992400000000000000021112012000000000264709000000000000000949                                     00                
0330003300017J00000192552300000363450000002096856000002162917PRV COM DE PECAS LTDA         2011201200000000003634500000000000000000000000000000021112012000000000036345000000000000000950                                     00                
0330003300018J00039999552300003002432053159192605313093513001REAL MOTO PECAS LTDA          2011201200000000030024300000000000000000000000000000021112012000000000300243000000000000000951                                     00                
0330003300019J00039997552300000311182053163381505313093513001REAL MOTO PECAS LTDA          2011201200000000003111800000000000000000000000000000021112012000000000031118000000000000000952                                     00                
0330003300020J00023791552300000232933392090050003745900001210SIDERURGICA J.L. ALIPERTI S/A 2011201200000000002329300000000000000000000000000000021112012000000000023293000000000000000953                                     00                
0330003300021J00000191552300005836740000001291892000004308117VESPOR AUTOMOTIVE DIST DE AUTO2011201200000000058367400000000000000000000000000000021112012000000000583674000000000000000954                                     00                
0330003300022J00000197552300001772300000001291892000004306417VESPOR AUTOMOTIVE DIST DE AUTO2011201200000000017723000000000000000000000000000000021112012000000000177230000000000000000955                                     00                
0330003300023J00023791552400001062452002061201368930100829680COMERCIAL AUTOMOTIVA S.A      2111201200000000010624500000000000000000000000000000021112012000000000106245000000000000000956                                     00                
0330003300024J00023791552400001019392002061201368957100829680COMERCIAL AUTOMOTIVA S.A      2111201200000000010193900000000000000000000000000000021112012000000000101939000000000000000957                                     00                
0330003300025J00034194552400000944001125411423140076000777000CENTER PECAS FABBRI LTDA      2111201200000000009440000000000000000000000000000000021112012000000000094400000000000000000958                                     00                
0330003300026J00034191552400001014001125151470591446672998000COML FIX IMPL RODOVIARIOS LTDA2111201200000000010140000000000000000000000000000000021112012000000000101400000000000000000959                                     00                
0330003300027J00000196552400000433860000001011760000003749618COMPEL DISTR E COM DE AUTO PEC2111201200000000004338600000000000000000000000000000021112012000000000043386000000000000000960                                     00                
0330003300028J00035691552400001313800689070323410000005742392DISTRIBUIDORA ATOMOTIVA S.A   2111201200000000013138000000000000000000000000000000021112012000000000131380000000000000000964                                     00                
0330003300029J00035691552400000401400689070323430000005742382DISTRIBUIDORA ATOMOTIVA S.A   2111201200000000004014000000000000000000000000000000021112012000000000040140000000000000000965                                     00                
0330003300030J00035695552400000549460689070323420000004889672DISTRIBUIDORA ATOMOTIVA S.A   2111201200000000005494600000000000000000000000000000021112012000000000054946000000000000000966                                     00                
0330003300031J00035695552400000195970689070323440000004889696DISTRIBUIDORA ATOMOTIVA S.A   2111201200000000001959700000000000000000000000000000021112012000000000019597000000000000000967                                     00                
0330003300032J00035698552400000213940689070323420000004889953DISTRIBUIDORA ATOMOTIVA S.A   2111201200000000002139400000000000000000000000000000021112012000000000021394000000000000000968                                     00                
0330003300033J00035694552400001009240689070323480000004889981DISTRIBUIDORA ATOMOTIVA S.A   2111201200000000010092400000000000000000000000000000021112012000000000100924000000000000000969                                     00                
0330003300034J00035697552400000234200689070323480000004890104DISTRIBUIDORA ATOMOTIVA S.A   2111201200000000002342000000000000000000000000000000021112012000000000023420000000000000000970                                     00                
0330003300035J00035699552400001799900689070323410000005553906DISTRIBUIDORA ATOMOTIVA S.A   2111201200000000017999000000000000000000000000000000021112012000000000179990000000000000000971                                     00                
0330003300036J00035694552400000319650689070323490000004889857DISTRIBUIDORA ATOMOTIVA S.A   2111201200000000003196500000000000000000000000000000021112012000000000031965000000000000000972                                     00                
0330003300037J00035691552400000133020689070323480000004889890DISTRIBUIDORA ATOMOTIVA S.A   2111201200000000001330200000000000000000000000000000021112012000000000013302000000000000000973                                     00                
0330003300038J00035691552400000178180689070323410000004889954DISTRIBUIDORA ATOMOTIVA S.A   2111201200000000001781800000000000000000000000000000021112012000000000017818000000000000000974                                     00                
0330003300039J00035696552400000119980689070323490000004890038DISTRIBUIDORA ATOMOTIVA S.A   2111201200000000001199800000000000000000000000000000021112012000000000011998000000000000000975                                     00                
0330003300040J00023798552400000272950138092284000003701370000BBL SISTEMAS OPERACIONAIS LTDA2111201200000000002729500000000000000000000000000000021112012000000000027295000000000000000976                                     00                
0330003300041J00000191552400000390001839690506518490001531417ENGRECAMP DISTR DE ENGRENAGENS2111201200000000003900000000000000000000000000000000021112012000000000039000000000000000000977                                     00                
0330003300042J00039999552400000353121763494286604570524809001F CONFURTO IND COM PCS E ACESS2111201200000000003531200000000000000000000000000000021112012000000000035312000000000000000978                                     00                
0330003300043J00000194552400007407670442085500734280000630911JOFUND S/A                    2111201200000000074076700000000000000000000000000000021112012000000000740767000000000000000979                                     00                
0330003300044J00000195552400003139840442190064133330001000111KOGA KOGA CIA LTDA            2111201200000000031398400000000000000000000000000000021112012000000000313984000000000000000980                                     00                
0330003300045J00000198552400000858920442190063933330001000111KOGA KOGA CIA LTDA            2111201200000000008589200000000000000000000000000000021112012000000000085892000000000000000981                                     00                
0330003300046J00000194552400000874540441975866933200001050131LUPORINI DISTR DE AUTOPECAS LT2111201200000000008745400000000000000000000000000000021112012000000000087454000000000000000982                                     00                
0330003300047J00034195552400000117801090000223000787578954000MARCELO DA SILVA VALVULAS E PI2111201200000000001178000000000000000000000000000000021112012000000000011780000000000000000983                                     00                
0330003300048J00039991552400000875928144665280004540096965001PELLEGRINO DIST DE AUTOPECAS L2111201200000000008759200000000000000000000000000000021112012000000000087592000000000000000984                                     00                
0330003300049J00039999552400000246248144665290704540096965001PELLEGRINO DIST DE AUTOPECAS L2111201200000000002462400000000000000000000000000000021112012000000000024624000000000000000985                                     00                
0330003300050J00039991552400000278462696543120804540096965001PELLEGRINO DIST DE AUTOPECAS L2111201200000000002784600000000000000000000000000000021112012000000000027846000000000000000986                                     00                
0330003300051J00039994552400000231402696543132104540096965001PELLEGRINO DIST DE AUTOPECAS L2111201200000000002314000000000000000000000000000000021112012000000000023140000000000000000987                                     00                
0330003300052J00000193552400000976370000001597457122102146217PETROBRAS DISTRIBUIDORA       2111201200000000009763700000000000000000000000000000021112012000000000097637000000000000000988                                     00                
0330003300053J00000196552400004251740000001597457122102145617PETROBRAS DISTRIBUIDORA       2111201200000000042517400000000000000000000000000000021112012000000000425174000000000000000989                                     00                
0330003300054J00000199552400008259620000001597457122102145917PETROBRAS DISTRIBUIDORA       2111201200000000082596200000000000000000000000000000021112012000000000825962000000000000000990                                     00                
0330003300055J00000193552400001313030000001597457122102145317PETROBRAS DISTRIBUIDORA       2111201200000000013130300000000000000000000000000000021112012000000000131303000000000000000991                                     00                
0330003300056J00000198552400000269460000001597457122102146517PETROBRAS DISTRIBUIDORA       2111201200000000002694600000000000000000000000000000021112012000000000026946000000000000000992                                     00                
0330003300057J00023794552400000230013484092293000013101129000PETRONAS LUBRIFICANTES BRASIL 2111201200000000002300100000000000000000000000000000021112012000000000023001000000000000000993                                     00                
0330003300058J00034192552400000371001125156759010384625000000PECAS AUTOMOTIVAS ZEENE LTDA  2111201200000000003710000000000000000000000000000000021112012000000000037100000000000000000994                                     00                
0330003300059J00023795552400001965623684190000016575200673000POLIPECAS DISTR AUTOMOTIVA LTD2111201200000000019656200000000000000000000000000000021112012000000000196562000000000000000995                                     00                
0330003300060J00039991552400003072742053164677105313093513001REAL MOTO PECAS LTDA          2111201200000000030727400000000000000000000000000000021112012000000000307274000000000000000996                                     00                
0330003300061J00039992552400001391922053175225305313093513001REAL MOTO PECAS LTDA          2111201200000000013919200000000000000000000000000000021112012000000000139192000000000000000997                                     00                
0330003300062J00000191552400000080110442009665019140000644711SHARK TRATORES E PECAS LTDA   2111201200000000000801100000000000000000000000000000021112012000000000008011000000000000000999                                     00                
0330003300063J00000193552400001748160000002175416000002656017SK AUTOMOTIVE S/A DIST AUTOPEC21112012000000000174816000000000000000000000000000000211120120000000001748160000000000000001000                                    00                
0330003300064J00000199552400000579440000002175416000002655917SK AUTOMOTIVE S/A DIST AUTOPEC21112012000000000057944000000000000000000000000000000211120120000000000579440000000000000001001                                    00                
0330003300065J00000195552400000303920000002175416000002658517SK AUTOMOTIVE S/A DIST AUTOPEC21112012000000000030392000000000000000000000000000000211120120000000000303920000000000000001002                                    00                
0330003300066J00039999552400001070031763540682804540575219001TRELLEBORG AUTOMOTIVE DO BRASI21112012000000000107003000000000000000000000000000000211120120000000001070030000000000000001003                                    00                
0330003300067J00034191552300001576001570311961120513988758000INST DE PESQUISA SOROCABANO   20112012000000000157600000000000000000000000000000000211120120000000001576000000000000000001004                                    00                
0330003300068J00000191552300000095000000002219956000063193118SERVTRONICA SEGURANCA ELETRONI20112012000000000009500000000000000000000000000000000211120120000000000095000000000000000001005                                    00                
0330003300069J00023793552300000003440364060000211953000001400PREFEITURA MUNICIPAL DE PORTO 20112012000000000000344000000000000000000000000000000211120120000000000003440000000000000001006                                    00                
0330003300070J00023795552300001619213372091123110492500731020MAGGI AUTOMOVEIS LTDA         20112012000000000161921000000000000000000000000000000211120120000000001619210000000000000001007                                    00                
0330003300071J00023791552400005563600448051008697926501533990BRADESCO SAUDE S/A            21112012000000000556360000000000000000000000000000000211120120000000005563600000000000000001008                                    00                
0330003300072J00023793552400001932362372196600094834200360080TELEFONICA BRASIL S/A         21112012000000000193236000000000000000000000000000000211120120000000001932360000000000000001009                                    00                
03300035         000074000000000011367398000000000000000000                                                                                                                                                                                     
03399999         000003000089                                                                                                                                                                                                                   
