03300000         2054375370001370033006500490028050300065 0000480000414 AUTO GERAL DE ITU LTDA        BANCO SANTANDER                         12101201310273300007906000000                                        G4016PF00528               G4
03300011C2030030 205437537000137003300650049002805030006550000480000414 AUTO GERAL DE ITU LTDA                                                AV DR OCTAVIANO PEREIRA MENDES01333               ITU                 13301000SP                  
0330001300001J00003391558300001357399421259200000000418740101GUMP MOTORS COMPONENTES AUTOMO19012013000000000135739000000000000000000000000000000210120130000000001357390000000000000003040                                    00                
0330001300002J00003391558500000543669173505500000005830220203BODIPASA BOMBAS DIESEL PAULIST21012013000000000054366000000000000000000000000000000210120130000000000543660000000000000003074                                    00                
0330001300003J00003393558500001745209482966200000024119540104CAR CENTRAL DE AUTOPECAS E ROL21012013000000000174520000000000000000000000000000000210120130000000001745200000000000000003075                                    00                
0330001300004J00003393558500001064009216580500000000864600104J M CHAVES CARBURADORES ME    21012013000000000106400000000000000000000000000000000210120130000000001064000000000000000003101                                    00                
0330001300005J00003392558500000629469474127700000007011220203LUPORINI DISTR DE AUTOPECAS LT21012013000000000062946000000000000000000000000000000210120130000000000629460000000000000003105                                    00                
03300015         000007000000000000533971000000000000000000                                                                                                                                                                                     
03300021C2031030 205437537000137003300650049002805030006550000480000414 AUTO GERAL DE ITU LTDA                                                AV DR OCTAVIANO PEREIRA MENDES01333               ITU                 13301000SP                  
0330002300001J00023795558300004303011316090000009779500009000APS DISTRIBUIDORA DE AUTOPECAS19012013000000000430301000000000000000000000000000000210120130000000004303010000000000000003033                                    00                
0330002300002J00023794558300008708093390023007000000700499980DPF AUTO PECAS LTDA           19012013000000000870809000000000000000000000000000000210120130000000008708090000000000000003034                                    00                
0330002300003J00034197558300000756361126256877962938000052000EATON LTDA                    19012013000000000075636000000000000000000000000000000210120130000000000756360000000000000003035                                    00                
0330002300004J00034197558300000093591126256799342938000052000EATON LTDA                    19012013000000000009359000000000000000000000000000000210120130000000000093590000000000000003036                                    00                
0330002300005J00034195558300001887281126256876222938000052000EATON LTDA                    19012013000000000188728000000000000000000000000000000210120130000000001887280000000000000003037                                    00                
0330002300006J00034192558300000236771126736502582938000052000EATON LTDA                    19012013000000000023677000000000000000000000000000000210120130000000000236770000000000000003038                                    00                
0330002300007J00034191558300000793061126736502412938000052000EATON LTDA                    19012013000000000079306000000000000000000000000000000210120130000000000793060000000000000003039                                    00                
0330002300008J00023797558300037959603114091294213572501763000BANCO SAFRA S/A               19012013000000003795960000000000000000000000000000000210120130000000037959600000000000000003041                                    00                
0330002300009J00023796558300000486142500090256569884300000340ODAPEL DISTRIBUIDORA DE AUTO P19012013000000000048614000000000000000000000000000000210120130000000000486140000000000000003042                                    00                
0330002300010J00023796558300000167142500090256569889400000340ODAPEL DISTRIBUIDORA DE AUTO P19012013000000000016714000000000000000000000000000000210120130000000000167140000000000000003043                                    00                
0330002300011J00023795558300000160002857091323550713000000320RIO PARDO COMERCIAL E DISTRIBU19012013000000000016000000000000000000000000000000000210120130000000000160000000000000000003044                                    00                
0330002300012J00023791558300000280503395061180232866700028140ROCHESTER DISTRIBUIDORA DE AUT19012013000000000028050000000000000000000000000000000210120130000000000280500000000000000003045                                    00                
0330002300013J00034195558400000473201126821356060237417159000ACCIOLY SA IMP E COM          20012013000000000047320000000000000000000000000000000210120130000000000473200000000000000003046                                    00                
0330002300014J00034199558400000834081127176958970237417159000ACCIOLY SA IMP E COM          20012013000000000083408000000000000000000000000000000210120130000000000834080000000000000003047                                    00                
0330002300015J00034199558400000480001126129016711248021303000BANCO FIBRA SA                20012013000000000048000000000000000000000000000000000210120130000000000480000000000000000003048                                    00                
0330002300016J00034191558400000362001127149286480076000777000CENTER PECAS FABBRI LTDA      20012013000000000036200000000000000000000000000000000210120130000000000362000000000000000003049                                    00                
0330002300017J00034194558400000042611126298830782938000052000CENTER PECAS FABBRI LTDA      20012013000000000004261000000000000000000000000000000210120130000000000042610000000000000003050                                    00                
0330002300018J00034199558400000279671126298820542938000052000EATON LTDA                    20012013000000000027967000000000000000000000000000000210120130000000000279670000000000000003051                                    00                
0330002300019J00034191558400000563191126774921782938000052000EATON LTDA                    20012013000000000056319000000000000000000000000000000210120130000000000563190000000000000003052                                    00                
0330002300020J00034192558400002689661127179670982938000052000EATON LTDA                    20012013000000000268966000000000000000000000000000000210120130000000002689660000000000000003053                                    00                
0330002300021J00034195558400000607371127179669342938000052000EATON LTDA                    20012013000000000060737000000000000000000000000000000210120130000000000607370000000000000003054                                    00                
0330002300022J00039997558400000434381764692769204570524809001F CONFUORTO IND COM PCS LTDA  20012013000000000043438000000000000000000000000000000210120130000000000434380000000000000003055                                    00                
0330002300023J00023792558400000648422709091330155086700148090GUETTI COML ATACADISTA LTDA   20012013000000000064842000000000000000000000000000000210120130000000000648420000000000000003056                                    00                
0330002300024J00023794558400000117602709091330155090800148090GUETTI COML ATACADISTA LTDA   20012013000000000011760000000000000000000000000000000210120130000000000117600000000000000003057                                    00                
0330002300025J00034195558400000344761090008546272938050420000ITA PECAS PARA VEIC COM E SERV20012013000000000034476000000000000000000000000000000210120130000000000344760000000000000003058                                    00                
0330002300026J00000192558400000143550000001216979443457467031NOVA DISTRIBUIDORA DE VEICULOS20012013000000000014355000000000000000000000000000000210120130000000000143550000000000000003059                                    00                
0330002300027J00000191558400000206570000001216979443123674931NOVA DISTRIBUIDORA DE VEICULOS20012013000000000020657000000000000000000000000000000210120130000000000206570000000000000003060                                    00                
0330002300028J00023798558400000509862500090256569973200000340ODAPEL DISTRIBUIDORA DE AUTO P20012013000000000050986000000000000000000000000000000210120130000000000509860000000000000003061                                    00                
0330002300029J00039992558400000614672315372036305313093513001REAL MOTO PECAS LTDA          20012013000000000061467000000000000000000000000000000210120130000000000614670000000000000003062                                    00                
0330002300030J00023793558400000499683395061180232867400028140ROCHESTER DISTRIBUIDORA DE AUT20012013000000000049968000000000000000000000000000000210120130000000000499680000000000000003063                                    00                
0330002300031J00023794558400000485783395061180232867900028140ROCHESTER DISTRIBUIDORA DE AUT20012013000000000048578000000000000000000000000000000210120130000000000485780000000000000003064                                    00                
0330002300032J00023791558400000841193367023367761431300002920VALEC MOTORS LTDA             20012013000000000084119000000000000000000000000000000210120130000000000841190000000000000003065                                    00                
0330002300033J00000191558400001067380000001148003000007157917VESPOR AUTOMOTIVE DIST DE AUTO20012013000000000106738000000000000000000000000000000210120130000000001067380000000000000003066                                    00                
0330002300034J00000194558400002943380000001291892000004522417VESPOR AUTOMOTIVE DIST DE AUTO20012013000000000294338000000000000000000000000000000210120130000000002943380000000000000003067                                    00                
0330002300035J00023792558300001338913372091130040511800731020MAGGI AUTOMOVEIS LTDA         19012013000000000133891000000000000000000000000000000210120130000000001338910000000000000003068                                    00                
0330002300036J00000196558400000095000000002219956000065236018SERVTRONICA SEGURANCA ELETRONI20012013000000000009500000000000000000000000000000000210120130000000000095000000000000000003069                                    00                
0330002300037J00034191558300002980951750000118326890006866000NETWORK MAST C S I LTDA ME    19012013000000000298095000000000000000000000000000000210120130000000002980950000000000000003070                                    00                
0330002300038J00023797558400000003440364060000212237100001400PREFEITURA MUNICIPAL DE PORTO 20012013000000000000344000000000000000000000000000000210120130000000000003440000000000000003071                                    00                
0330002300039J00000199558500001362270443038352318690003493111J. INVEST MAXX FACTORING FOMEN21012013000000000136227000000000000000000000000000000210120130000000001362270000000000000003072                                    00                
0330002300040J00039991558500000241051767005094711960078237001BAP AUTOMOTIVA LTDA           21012013000000000024105000000000000000000000000000000210120130000000000241050000000000000003073                                    00                
0330002300041J00039992558500000144441767010720504061860231001CAR CENTRAL DE AUTOPECAS E ROL21012013000000000014444000000000000000000000000000000210120130000000000144440000000000000003076                                    00                
0330002300042J00023791558500000466003262090000033541700935470COMDIP COMERCIAL DISTR DE PECA21012013000000000046600000000000000000000000000000000210120130000000000466000000000000000003077                                    00                
0330002300043J00023797558500010091480311061301389857100829680COMERCIAL AUTOMOTIVA S.A.     21012013000000001009148000000000000000000000000000000210120130000000010091480000000000000003078                                    00                
0330002300044J00023797558500000317152002061301392635100829680COMERCIAL AUTOMOTIVA S.A.     21012013000000000031715000000000000000000000000000000210120130000000000317150000000000000003079                                    00                
0330002300045J00023792558500001124262002061301389698100829680COMERCIAL AUTOMOTIVA S.A.     21012013000000000112426000000000000000000000000000000210120130000000001124260000000000000003080                                    00                
0330002300046J00023796558500001284410311061301389781100829680COMERCIAL AUTOMOTIVA S.A.     21012013000000000128441000000000000000000000000000000210120130000000001284410000000000000003081                                    00                
0330002300047J00000195558500002398694584341719700370004790718DB DISTRIBUIDORA DE BATERIAS L21012013000000000239869000000000000000000000000000000210120130000000002398690000000000000003082                                    00                
0330002300048J00000191558500001063194584341719400370004790718DB DISTRIBUIDORA DE BATERIAS L21012013000000000106319000000000000000000000000000000210120130000000001063190000000000000003083                                    00                
0330002300049J00000191558500002087734584341719500370004790718DB DISTRIBUIDORA DE BATERIAS L21012013000000000208773000000000000000000000000000000210120130000000002087730000000000000003084                                    00                
0330002300050J00000191558500002744504584341719600370004790718DB DISTRIBUIDORA DE BATERIAS L21012013000000000274450000000000000000000000000000000210120130000000002744500000000000000003085                                    00                
0330002300051J00034193558500000988511126184011972938030539000DELPHI AUTOM SYSTEMS BR LTDA  21012013000000000098851000000000000000000000000000000210120130000000000988510000000000000003086                                    00                
0330002300052J00035695558500000093900689070323440000004897996DISTRIBUIDORA AUTOMOTIVA S/A  21012013000000000009390000000000000000000000000000000210120130000000000093900000000000000003087                                    00                
0330002300053J00035695558500001354280689070323450000004897995DISTRIBUIDORA AUTOMOTIVA S/A  21012013000000000135428000000000000000000000000000000210120130000000001354280000000000000003088                                    00                
0330002300054J00035691558500000541220689070323480000004897984DISTRIBUIDORA AUTOMOTIVA S/A  21012013000000000054122000000000000000000000000000000210120130000000000541220000000000000003089                                    00                
0330002300055J00023791558500000286140138092338000004101370000BBL SISTEMAS OPERACIONAIS LTDA21012013000000000028614000000000000000000000000000000210120130000000000286140000000000000003090                                    00                
0330002300056J00034191558500001240321124639344662938000052000EATON LTDA                    21012013000000000124032000000000000000000000000000000210120130000000001240320000000000000003091                                    00                
0330002300057J00034194558500000273691124639344902938000052000EATON LTDA                    21012013000000000027369000000000000000000000000000000210120130000000000273690000000000000003092                                    00                
0330002300058J00034191558500001228011126362802192938000052000EATON LTDA                    21012013000000000122801000000000000000000000000000000210120130000000001228010000000000000003093                                    00                
0330002300059J00034198558500000219431127216591112938000052000EATON LTDA                    21012013000000000021943000000000000000000000000000000210120130000000000219430000000000000003094                                    00                
0330002300060J00034193558500000580261127216601682938000052000EATON LTDA                    21012013000000000058026000000000000000000000000000000210120130000000000580260000000000000003095                                    00                
0330002300061J00034192558500000890731127216599052938000052000EATON LTDA                    21012013000000000089073000000000000000000000000000000210120130000000000890730000000000000003096                                    00                
0330002300062J00034194558500000506301126927914300765234976000GIANCAR DISTR AUTO PECAS LTDA 21012013000000000050630000000000000000000000000000000210120130000000000506300000000000000003097                                    00                
0330002300063J00034191558500000115671090304333210109276204000GIRANDO COMERCIO DE PECAS LTDA21012013000000000011567000000000000000000000000000000210120130000000000115670000000000000003098                                    00                
0330002300064J00034196558500000263171090304332060109276204000GIRANDO COMERCIO DE PECAS LTDA21012013000000000026317000000000000000000000000000000210120130000000000263170000000000000003099                                    00                
0330002300065J00034196558500000586811090304336020109276204000GIRANDO COMERCIO DE PECAS LTDA21012013000000000058681000000000000000000000000000000210120130000000000586810000000000000003100                                    00                
0330002300066J00034196558500000971501127363926822395022557000KOGA KOGA CIA LTDA            21012013000000000097150000000000000000000000000000000210120130000000000971500000000000000003102                                    00                
0330002300067J00034191558500011851121127363926742395022557000KOGA KOGA CIA LTDA            21012013000000001185112000000000000000000000000000000210120130000000011851120000000000000003103                                    00                
0330002300068J00034193558500009351681127363926662395022557000KOGA KOGA CIA LTDA            21012013000000000935168000000000000000000000000000000210120130000000009351680000000000000003104                                    00                
0330002300069J00023792558500002033962500090256570040100000340ODAPEL DISTRIBUIDORA DE AUTO P21012013000000000203396000000000000000000000000000000210120130000000002033960000000000000003106                                    00                
0330002300070J00023796558500000600002374192305000055200619430ORIGINAL VEICULOS LTDA        21012013000000000060000000000000000000000000000000000210120130000000000600000000000000000003107                                    00                
0330002300071J00039996558500001006208144667911204540096965001PELLEGRINO DISTRIBUIDORA DE AU21012013000000000100620000000000000000000000000000000210120130000000001006200000000000000003108                                    00                
0330002300072J00039991558500000361368144667880904540096965001PELLEGRINO DISTRIBUIDORA DE AU21012013000000000036136000000000000000000000000000000210120130000000000361360000000000000003109                                    00                
0330002300073J00039994558500000494356696534575304540096965001PELLEGRINO DISTRIBUIDORA DE AU21012013000000000049435000000000000000000000000000000210120130000000000494350000000000000003110                                    00                
0330002300074J00023793558500001501733684190000018448800673000POLIPECAS DISTRIBUIDORA AUTOMO21012013000000000150173000000000000000000000000000000210120130000000001501730000000000000003111                                    00                
0330002300075J00023798558500002247263684190000018454000673000POLIPECAS DISTRIBUIDORA AUTOMO21012013000000000224726000000000000000000000000000000210120130000000002247260000000000000003112                                    00                
0330002300076J00039991558500009733812315376958305313093513001REAL MOTO PECAS LTDA          21012013000000000973381000000000000000000000000000000210120130000000009733810000000000000003113                                    00                
0330002300077J00023791558500000502853395061180232872000028140ROCHESTER DISTRIBUIDORA DE AUT21012013000000000050285000000000000000000000000000000210120130000000000502850000000000000003114                                    00                
0330002300078J00000194558500011010280000002175416000003085317SK AUTOMOTIVE S/A DISTR AUTOPE21012013000000001101028000000000000000000000000000000210120130000000011010280000000000000003115                                    00                
0330002300079J00000191558500001853890000002175416000003091717SK AUTOMOTIVE S/A DISTR AUTOPE21012013000000000185389000000000000000000000000000000210120130000000001853890000000000000003116                                    00                
0330002300080J00000199558500000691460000001451450000035516717SK AUTOMOTIVE S/A DISTR AUTOPE21012013000000000069146000000000000000000000000000000210120130000000000691460000000000000003117                                    00                
0330002300081J00023796558500000365383395090000005075600650000SORANA SUL                    21012013000000000036538000000000000000000000000000000210120130000000000365380000000000000003118                                    00                
0330002300082J00023795558500000400554130074130006028000050880SOUZA RAMOS COM E IMP LTDA    21012013000000000040055000000000000000000000000000000210120130000000000400550000000000000003119                                    00                
0330002300083J00023793558500004549283178190000018281600421050TUPER DISTRIB. PROD. METALURGI21012013000000000454928000000000000000000000000000000210120130000000004549280000000000000003120                                    00                
0330002300084J00039993558500000132221766459018204540079149001BANCO SOFISA SA               21012013000000000013222000000000000000000000000000000210120130000000000132220000000000000003121                                    00                
0330002300085J00039991558500000362001766459017404540079149001BANCO SOFISA SA               21012013000000000036200000000000000000000000000000000210120130000000000362000000000000000003122                                    00                
0330002300086J00023799558500005563600448051009512122501533990BRADESCO SAUDE S/A            21012013000000000556360000000000000000000000000000000210120130000000005563600000000000000003123                                    00                
0330002300087J00023793558500002016602372196600101083100360080TELEFONICA BRASIL S/A         21012013000000000201660000000000000000000000000000000210120130000000002016600000000000000003124                                    00                
0330002300088J00034197558400002193733588930809130452842032000ONIN DISTR DE AUTOPECAS LTDA  20012013000000000219373000000000000000000000000000000210120130000000002193730000000000000003128                                    00                
03300025         000090000000000017772726000000000000000000                                                                                                                                                                                     
03300031C2011010 205437537000137003300650049002805030006550000480000414 AUTO GERAL DE ITU LTDA                                                AV DR OCTAVIANO PEREIRA MENDES01333               ITU                 13301000SP                  
0330003300001O00083630000001652601103002112733760210001465384CIA PIRATININGA DE FORCA E LUZ21012013210120130000000000165263125                                                                                                                  
0330003300002B   000000000000000                              00000                                                  00000000  210120130000000000000000000000000000000000000000000000000000000000000000000000000000              0000000        
03300035         000004000000000000016526                                                                                                                                                                                                       
03300041C2011010 205437537000137003300650049002805030006550000480000414 AUTO GERAL DE ITU LTDA                                                AV DR OCTAVIANO PEREIRA MENDES01333               ITU                 13301000SP                  
0330004300001O00085630000002922400253038760401106977000044513SEFAZ SP IPVA                 21012013210120130000000000292243126                                                                                                                  
0330004300002B   000000000000000                              00000                                                  00000000  210120130000000000000000000000000000000000000000000000000000000000000000000000000000              0000000        
0330004300003O00085610000000741600253038760416212907000044513SEFAZ SP IPVA                 21012013210120130000000000074163127                                                                                                                  
0330004300004B   000000000000000                              00000                                                  00000000  210120130000000000000000000000000000000000000000000000000000000000000000000000000000              0000000        
03300045         000006000000000000036640                                                                                                                                                                                                       
03399999         000004000109                                                                                                                                                                                                                   
