03300000         2054375370001370033006500490028050300065 0000480000414 AUTO GERAL DE ITU LTDA        BANCO SANTANDER                         12103201311100300012406000000                                        G4016PF00531               G4
03300011C2030030 205437537000137003300650049002805030006550000480000414 AUTO GERAL DE ITU LTDA                                                AV DR OCTAVIANO PEREIRA MENDES01333               ITU                 13301000SP                  
0330001300001J00003398564400000126809513931700000104346580101DISTRIBUIDORA AUTOMOTIVA S.A. 21032013000000000012680000000000000000000000000000000210320130000000000126800000000000000005104                                    00                
0330001300002J00003391564400000613659492147000000000590560104J FREITAS COM IMP E EXP LTDA  21032013000000000061365000000000000000000000000000000210320130000000000613650000000000000005111                                    00                
03300015         000004000000000000074045000000000000000000                                                                                                                                                                                     
03300021C2031030 205437537000137003300650049002805030006550000480000414 AUTO GERAL DE ITU LTDA                                                AV DR OCTAVIANO PEREIRA MENDES01333               ITU                 13301000SP                  
0330002300001J00023791564400000087093372090000016602505040000ABRAO REZE COM DE VEICULOS LTD21032013000000000008709000000000000000000000000000000210320130000000000087090000000000000005090                                    00                
0330002300002J00034197564400002023501127508453831248021303000BANCO FIBRA SA                21032013000000000202350000000000000000000000000000000210320130000000002023500000000000000005091                                    00                
0330002300003J00000191564400000408061823850974029130010401917CAMPINAS DIESEL LTDA          21032013000000000040806000000000000000000000000000000210320130000000000408060000000000000005092                                    00                
0330002300004J00039991564400000376581770102446004061860231001CAR CENTRAL DE AUTOPECAS E ROL21032013000000000037658000000000000000000000000000000210320130000000000376580000000000000005093                                    00                
0330002300005J00039991564400000417541770102436204061860231001CAR CENTRAL DE AUTOPECAS E ROL21032013000000000041754000000000000000000000000000000210320130000000000417540000000000000005094                                    00                
0330002300006J00039997564400000212851770102442704061860231001CAR CENTRAL DE AUTOPECAS E ROL21032013000000000021285000000000000000000000000000000210320130000000000212850000000000000005095                                    00                
0330002300007J00034198564400000207501128732615670076000777000CENTER PECAS FABBRI LTDA      21032013000000000020750000000000000000000000000000000210320130000000000207500000000000000005096                                    00                
0330002300008J00034191564400000419401128732615750076000777000CENTER PECAS FABBRI LTDA      21032013000000000041940000000000000000000000000000000210320130000000000419400000000000000005097                                    00                
0330002300009J00034191564400000126731090064062840757035373000CIPEC INDUSTRIAL DE AUTOPECAS 21032013000000000012673000000000000000000000000000000210320130000000000126730000000000000005098                                    00                
0330002300010J00034199564400001008511090064062920757035373000CIPEC INDUSTRIAL DE AUTOPECAS 21032013000000000100851000000000000000000000000000000210320130000000001008510000000000000005099                                    00                
0330002300011J00034198564400000750001090917588680278749841000COMERCIAL ELETRO DIESEL LORENZ21032013000000000075000000000000000000000000000000000210320130000000000750000000000000000005100                                    00                
0330002300012J00034191564400000845001127849287341446662742000COML FIX IMPL RODOVIARIOS LTDA21032013000000000084500000000000000000000000000000000210320130000000000845000000000000000005101                                    00                
0330002300013J00034194564400000436421129046163000078267192000DISTRIBUIDORA DE PECAS PARA AU21032013000000000043642000000000000000000000000000000210320130000000000436420000000000000005102                                    00                
0330002300014J00035694564400000179780689070323400000003266940DISTRIBUIDORA AUTOMOTIVA S.A. 21032013000000000017978000000000000000000000000000000210320130000000000179780000000000000005103                                    00                
0330002300015J00035691564400000135060689070323420000003267094DISTRIBUIDORA AUTOMOTIVA S.A. 21032013000000000013506000000000000000000000000000000210320130000000000135060000000000000005105                                    00                
0330002300016J00034198564400000689941128691870992938107808000ELIVEL AUTOMOTORES LTDA       21032013000000000068994000000000000000000000000000000210320130000000000689940000000000000005106                                    00                
0330002300017J00023799564400000690002701093050000001000123690FORTEPIRA DISTR. DE AUTO PECAS21032013000000000069000000000000000000000000000000000210320130000000000690000000000000000005107                                    00                
0330002300018J00000191564400002171850444636474332220018013531GIANCAR DISTR AUTO PECAS LTDA 21032013000000000217185000000000000000000000000000000210320130000000002171850000000000000005108                                    00                
0330002300019J00034191564400000409961090304658850109276204000GIRANDO COMERCIO DE PECAS LTDA21032013000000000040996000000000000000000000000000000210320130000000000409960000000000000005109                                    00                
0330002300020J00034191564400000129191090304659270109276204000GIRANDO COMERCIO DE PECAS LTDA21032013000000000012919000000000000000000000000000000210320130000000000129190000000000000005110                                    00                
0330002300021J00023798564400002313002199090000012048500203330JBI COMERCIAL DE PLASTICOS REF21032013000000000231300000000000000000000000000000000210320130000000002313000000000000000005112                                    00                
0330002300022J00000194564400004623610444957492734280000630911JOFUND S/A                    21032013000000000462361000000000000000000000000000000210320130000000004623610000000000000005113                                    00                
0330002300023J00023791564400000117003372097310006605100731000MAGGI AUTOMOVEIS LTDA         21032013000000000011700000000000000000000000000000000210320130000000000117000000000000000005114                                    00                
0330002300024J00023791564400000328042078093063000004200013000DAVOS FOMENTO COMERCIAL LTDA  21032013000000000032804000000000000000000000000000000210320130000000000328040000000000000005115                                    00                
0330002300025J00023793564400000726492500090256573854300000340ODAPEL DISTRIBUIDORA DE AUTO P21032013000000000072649000000000000000000000000000000210320130000000000726490000000000000005116                                    00                
0330002300026J00023796564400002900482500090256573954100000340ODAPEL DISTRIBUIDORA DE AUTO P21032013000000000290048000000000000000000000000000000210320130000000002900480000000000000005117                                    00                
0330002300027J00039991564400000260758144671135004540096965001PELLEGRINO DISTRIBUIDORA DE AU21032013000000000026075000000000000000000000000000000210320130000000000260750000000000000005118                                    00                
0330002300028J00039991564400000351952696556956004540096965001PELLEGRINO DISTRIBUIDORA DE AU21032013000000000035195000000000000000000000000000000210320130000000000351950000000000000005119                                    00                
0330002300029J00023791564400000283263484093036000093901129000PETRONAS LUBRIFICANTES BRASIL 21032013000000000028326000000000000000000000000000000210320130000000000283260000000000000005120                                    00                
0330002300030J00023798564400000615263395061180232932400028140ROCHESTER DISTRIBUIDORA DE AUT21032013000000000061526000000000000000000000000000000210320130000000000615260000000000000005121                                    00                
0330002300031J00000193564400000185200444941520419140000644711SHARK TRATORES E PECAS LTDA   21032013000000000018520000000000000000000000000000000210320130000000000185200000000000000005122                                    00                
0330002300032J00034198564400000450001571725524690278526199000TECHNICAL FIRE SERV EQUIP LTDA21032013000000000045000000000000000000000000000000000210320130000000000450000000000000000005123                                    00                
0330002300033J00023792564400000257480545090000033357600705060TONINI DISTRIBUIDORA LTDA     21032013000000000025748000000000000000000000000000000210320130000000000257480000000000000005124                                    00                
0330002300034J00023791564400005563600448051010306975901533990BRADESCO SAUDE S/A            21032013000000000556360000000000000000000000000000000210320130000000005563600000000000000005125                                    00                
0330002300035J00023796564400001602692372196600107399600360080TELEFONICA BRASIL S/A         21032013000000000160269000000000000000000000000000000210320130000000001602690000000000000005126                                    00                
03300025         000037000000000003230377000000000000000000                                                                                                                                                                                     
03399999         000002000043                                                                                                                                                                                                                   
