03300000         2054375370001370033006500490028050300065 0000480000414 AUTO GERAL DE ITU LTDA        BANCO SANTANDER                         12503201313125100012706000000                                        G4016PF00531               G4
03300011C2016010 205437537000137003300650049002805030006550000480000414 AUTO GERAL DE ITU LTDA                                                AV DR OCTAVIANO PEREIRA MENDES01333               ITU                 13301000SP                  
0330001300001N0005265                                    AUTO GERAL DE ITU LTDA        25032013000000000322485008109020543753700013716280220130000000000000000000000000032248500000000000000000000000000000025032013                            
0330001300002B   205437537000137                              00000                                                  00000000  250320130000000000000000000000000000000000000000000000000000000000000000000000000000              0000000        
0330001300003N0005266                                    AUTO GERAL DE ITU LTDA        25032013000000001183702002172020543753700013716280220130000000000000000000000000118370200000000000000000000000000000025032013                            
0330001300004B   205437537000137                              00000                                                  00000000  250320130000000000000000000000000000000000000000000000000000000000000000000000000000              0000000        
03300015         000006000000000001506187                                                                                                                                                                                                       
03399999         000001000008                                                                                                                                                                                                                   
