03300000         2054375370001370033006500490028050300065 0000480000414 AUTO GERAL DE ITU LTDA        BANCO SANTANDER                         12910201216213800001806000000                                        G4016PF00528               G4
03300011C2031030 205437537000137003300650049002805030006550000480000414 AUTO GERAL DE ITU LTDA                                                AV DR OCTAVIANO PEREIRA MENDES01333               ITU                 13301000SP                  
0330001300001J00034192550200004107301090000128530257222000000RESIL COML INDUSTRIAL LTDA    3010201200000000041073000000000000000000000000000000030102012000000000410730000000000000000227                                     00                
0330001300002J00034192550200000311381123618676512938000052000EATON LTDA                    3010201200000000003113800000000000000000000000000000030102012000000000031138000000000000000228                                     00                
0330001300003J00034197550200000243951124678907062938000052000EATON LTDA                    3010201200000000002439500000000000000000000000000000030102012000000000024395000000000000000229                                     00                
0330001300004J00034196550200000303001579990090138073000898000SDAP SOROCABA D A P LTDA ME   3010201200000000003030000000000000000000000000000000030102012000000000030300000000000000000230                                     00                
0330001300005J00034194550200000349841098887803960046365078000FELICIO VIGORITO FILHOS LTDA  3010201200000000003498400000000000000000000000000000030102012000000000034984000000000000000231                                     00                
0330001300006J00034197550200000384581093332230830046365078000FELICIO VIGORITO FILHOS LTDA  3010201200000000003845800000000000000000000000000000030102012000000000038458000000000000000232                                     00                
0330001300007J00000195550200001145480000001011760000003691418COMPEL DISTR E COM DE AUTO PEC3010201200000000011454800000000000000000000000000000030102012000000000114548000000000000000233                                     00                
0330001300008J00023794550200000030003398190000021795801324600DIBRACAM COMERCIAL LTDA       3010201200000000000300000000000000000000000000000000030102012000000000003000000000000000000234                                     00                
0330001300009J00034192550200002722151090002762740278840913000CAPITAL EMBALAGENS DESCAT LTDA3010201200000000027221500000000000000000000000000000030102012000000000272215000000000000000235                                     00                
0330001300010J00023791550200001742593484092271000011401129000PETRONAS LUBRIFICANTES BRASIL 3010201200000000017425900000000000000000000000000000030102012000000000174259000000000000000236                                     00                
0330001300011J00023795550200000253880138092276000003201453000PETRONAS LUBRIFICANTES BRASIL 3010201200000000002538800000000000000000000000000000030102012000000000025388000000000000000237                                     00                
0330001300012J00000191550200000310000000002391652000003502817DIP DOSTRIB DE PECAS LTDA     3010201200000000003100000000000000000000000000000000030102012000000000031000000000000000000238                                     00                
0330001300013J00000191550200001475070000001244482993005107117RPT DISTRIBUIDORA DE AUTO PCS 3010201200000000014750700000000000000000000000000000030102012000000000147507000000000000000239                                     00                
0330001300014J00023791550200000345780545090000029069900705060TONINI DISTRIBUIDORA LTDA     3010201200000000003457800000000000000000000000000000030102012000000000034578000000000000000240                                     00                
0330001300015J00023795550200000278100545090000028855800705060TONINI DISTRIBUIDORA LTDA     3010201200000000002781000000000000000000000000000000030102012000000000027810000000000000000241                                     00                
0330001300016J00000193550200000316030000002096856000001934417PRV COMERCIO DE PECAS LTDA    3010201200000000003160300000000000000000000000000000030102012000000000031603000000000000000242                                     00                
0330001300017J00039995550200000383482053134395705313093513001REAL MOTO PECAS LTDA          3010201200000000003834800000000000000000000000000000030102012000000000038348000000000000000243                                     00                
0330001300018J00023794550200000566672002061201363655100829680COMERCIAL AUTOMOTIVA S.A      3010201200000000005666700000000000000000000000000000030102012000000000056667000000000000000244                                     00                
0330001300019J00000196550200000202700441564724333620000200231B.A.P. AUTOMOTIVA LTDA        3010201200000000002027000000000000000000000000000000030102012000000000020270000000000000000245                                     00                
0330001300020J00034191550200000103651121763802130017749003000DOVAC INDUSTRIA E COM LTDA    3010201200000000001036500000000000984700000000000000030102012000000000000518000000000000000246                                     00                
0330001300021J00039999550200008374522053128970705313093513001REAL MOTO PECAS LTDA          3010201200000000083745200000000000000000000000000000030102012000000000837452000000000000000247                                     00                
0330001300022J00034198000000000000001219795078041012365225000PACAEMBU AUTO PECAS LTDA      3010201200000000021474400000000000000000000000000000030102012000000000214744000000000000000248                                     00                
0330001300023J00034198000000000000001219795077961012365225000PACAEMBU AUTO PECAS LTDA      3010201200000000014183000000000000000000000000000000030102012000000000141830000000000000000249                                     00                
0330001300024J00034195550200001898361125042212610191074004000POLIPECAS COML E IMP LTDA     3010201200000000018983600000000001328900000000000000030102012000000000176547000000000000000250                                     00                
03300015         000026000000000002918289000000000000000000                                                                                                                                                                                     
03399999         000001000028                                                                                                                                                                                                                   
