03300000         2054375370001370033006500490028050300065 0000480000414 AUTO GERAL DE ITU LTDA        BANCO SANTANDER                         13101201310225300008806000000                                        G4016PF00528               G4
03300011C2031030 205437537000137003300650049002805030006550000480000414 AUTO GERAL DE ITU LTDA                                                AV DR OCTAVIANO PEREIRA MENDES01333               ITU                 13301000SP                  
0330001300001J00010497559500000000009790518417799000309222271SICAP SIND COM ATAC IMP EXP E 31012013000000000064176000000000000000000000000000000310120130000000000641760000000000000003409                                    00                
0330001300002J00010491559500000000009790518417799000309180271SICAP SIND COM ATAC IMP EXP E 31012013000000000016464000000000000000000000000000000310120130000000000164640000000000000003410                                    00                
0330001300003J00010498559500000000009790518417799000309263071SICAP SIND COM ATAC IMP EXP E 31012013000000000016464000000000000000000000000000000310120130000000000164640000000000000003411                                    00                
0330001300004J00010495559500000000009790518417799000309198071SICAP SIND COM ATAC IMP EXP E 31012013000000000016464000000000000000000000000000000310120130000000000164640000000000000003412                                    00                
0330001300005J00010491559500000000009790518417799000309225871SICAP SIND COM ATAC IMP EXP E 31012013000000000016464000000000000000000000000000000310120130000000000164640000000000000003413                                    00                
0330001300006J00010499559500000000009786105417705437537000153SIND COM VAREJISTA PECAS ACESS31012013000000000064176000000000000000000000000000000310120130000000000641760000000000000003414                                    00                
0330001300007J00010495559500000164649786105417705437537000253SIND COM VAREJISTA PECAS ACESS31012013000000000016464000000000000000000000000000000310120130000000000164640000000000000003415                                    00                
0330001300008J00010491559500000164649786105417705437537000353SIND COM VAREJISTA PECAS ACESS31012013000000000016464000000000000000000000000000000310120130000000000164640000000000000003416                                    00                
0330001300009J00010494559500000164649786105417705437537000553SIND COM VAREJISTA PECAS ACESS31012013000000000016464000000000000000000000000000000310120130000000000164640000000000000003417                                    00                
0330001300010J00010491559500000164649786105417705437537000653SIND COM VAREJISTA PECAS ACESS31012013000000000016464000000000000000000000000000000310120130000000000164640000000000000003418                                    00                
03300015         000012000000000000260064000000000000000000                                                                                                                                                                                     
03300021C2016010 205437537000137003300650049002805030006550000480000414 AUTO GERAL DE ITU LTDA                                                AV DR OCTAVIANO PEREIRA MENDES01333               ITU                 13301000SP                  
0330002300001N0003407                                    AUTO GERAL DE ITU LTDA        31012013000000006685083002372020543753700013716311220120000000000000000000000000668508300000000000000000000000000000031012013                            
0330002300002B   205437537000137                              00000                                                  00000000  310120130000000000000000000000000000000000000000000000000000000000000000000000000000              0000000        
0330002300003N0003408                                    AUTO GERAL DE ITU LTDA        31012013000000011714766002089020543753700013716311220120000000000000000000000001171476600000000000000000000000000000031012013                            
0330002300004B   205437537000137                              00000                                                  00000000  310120130000000000000000000000000000000000000000000000000000000000000000000000000000              0000000        
03300025         000006000000000018399849                                                                                                                                                                                                       
03399999         000002000020                                                                                                                                                                                                                   
